:100000000C94CD000C94EA000C94EA000C94EA00E5
:100010000C94EA000C94EA000C94EA000C94EA00B8
:100020000C94EA000C94EA000C94EA000C94EA00A8
:100030000C94EA000C94EA000C94EA000C94BC1DA9
:100040000C94EA000C94EA000C94EA000C94EA0088
:100050000C94521E0C94EA000C94EA000C94EA00F2
:100060000C94EA000C94EA000C94EA000C94EA0068
:100070000C947F0D0C94EA000C94EA0041024402B7
:1000800047024A024D0250025302560259025C02D4
:100090005F0262026502850268026B026E027102F3
:1000A000740277027D027A028002F707FA07FD07E1
:1000B00000080608090810081308160819081C0883
:1000C0001F082208250828082B08310838083F088F
:1000D000420847084D08520857086908700879080F
:1000E0008108890890089908A108AB08B008B608EB
:1000F000BD08C508CC08D408DD08E708F3080109E5
:100100000909100918091F0928093E0945094E095E
:1001100056095E0965096E097609800985098B090A
:1001200092099A09A109A909B209BC09C809D60905
:10013000DE09E509ED09F409FD09B70EBD0EC30E90
:10014000C90ECF0ED50EDB0EE10EE70EED0EF30E4F
:10015000FC0E020F080F0E0F140F1A0F200F260FA0
:100160002C0F320F380F3E0F440F5B0F670F730FCA
:100170007F0F8B0F970FA30FAF0FBB0FC70FD30FBF
:10018000DF0FEB0FF70F03100F101B1027103310AA
:100190003F104B10571063106F1011241FBECFEF8C
:1001A000D0E1DEBFCDBF15E0A0E0B1E0ECE9FBE5BA
:1001B00002C005900D92AE3CB107D9F71BE0AEEC42
:1001C000B5E001C01D92A53CB107E1F70E94EC002B
:1001D0000C94CC2D0C9400000E94F70080E090E07D
:1001E00008958EEC95E060E00E948F1A08954F927A
:1001F0005F926F927F928F929F92AF92BF92CF92B7
:10020000DF92EF92FF920F931F93DF93CF93CDB7BF
:10021000DEB728970FB6F894DEBF0FBECDBF0E94A1
:10022000071B0E94B914DE011196EFE1F1E088E0AE
:1002300001900D928150E1F72E010894411C511C50
:100240000F2EF0E06F2EF0E07F2EF0EF8F2EF1E416
:100250009F2EF02D0E943E128091260086FF09C03D
:100260000E94AA12882329F08EEC95E060E00E949B
:100270008F1A8EEC95E060E00E948F1A8091260024
:1002800086FF49C0C2010E94141A20E030E040E01D
:1002900050E00E94F42818162CF40E9404138823BE
:1002A000D1F134C00E940F1D5B016C01E980FA801E
:1002B0000B811C81C801B70120E030E040E050E034
:1002C0000E942429882344F0C801B701A6019501A2
:1002D0000E9484291816FCF480E091E00E944520D9
:1002E00069817A818B819C810E94911F8AE191E0D2
:1002F0000E94ED1FC601B5010E94911F6D827E8292
:100300008F829886A982BA82CB82DC828EEC95E0BD
:1003100060E00E948F1A8EEC95E060E00E948F1AD8
:1003200099CFCF93DF93EC018F850E949102885083
:10033000823010F080E006C07A896B8989899889BB
:100340000E94590EDF91CF91089520E030E0F9012D
:10035000E55DF54F8081827080832F5F3F4F2831AC
:100360003105A9F740912B0A50912C0AE0912D0AF2
:1003700080912F0A9091300A2091310A3091320AEF
:10038000846880932F0A94689093300A246820939D
:10039000310A34683093320A8091330A9091340ADA
:1003A0002091350A3091360A81688093330A91682A
:1003B0009093340A21682093350A31683093360AC5
:1003C0008091370A81608093370A8091380A816072
:1003D0008093380A8091390A81608093390A80912C
:1003E0003A0A816080933A0A70913B0A60913C0A14
:1003F00080912E0A406740932B0A506750932C0A35
:10040000E067E0932D0A806680932E0A80913E0A71
:100410009091400A2091420A30913D0A40913F0A52
:100420005091410A686660933C0A806680933E0A58
:1004300090669093400A20662093420A78667093F3
:100440003B0A306630933D0A406640933F0A50664F
:100450005093410A08951F93182F90E0A0E0B0E058
:100460008F779070A070B070FC018731910508F013
:100470004CC0E25CFF4FEE0FFF1F0590F491E02DA2
:10048000099487E291E03EC081E391E03BC080E4C3
:1004900091E038C086E491E035C08CE491E032C050
:1004A00089E591E02FC087E691E02CC08BE691E0D2
:1004B00029C081E791E026C089E791E023C081E867
:1004C00091E020C08AE891E01DC083E991E01AC064
:1004D0008BE991E017C08DEA91E014C08FEB91E0B9
:1004E00011C082ED91E00EC085EE91E00BC088EF67
:1004F00091E008C08CE092E005C08CE192E002C07F
:100500008CE292E00E94ED1F0AC086E392E00E9416
:10051000ED1F612F70E080E090E00E94641F1F914A
:1005200008950E9432078F7708951F93182F0E9415
:100530003207813860F4812F0E9432078F77803133
:1005400031F0833121F0893011F080E001C081E089
:100550001F910895EF92FF920F931F93182FE62E8D
:10056000042FF22E0E945505812F602F0E94300922
:10057000812F6F2D0E945B08812F6E2D0E94AA078C
:100580001F910F91FF90EF9008950F931F93182FD5
:10059000062F0E945505002309F479C0802F90E0B2
:1005A0008F7790708A309105D4F4883091054CF59E
:1005B0008330910509F465C08430910524F40197D6
:1005C00009F067C01AC08630910509F44DC0873024
:1005D00091050CF053C0049709F05BC03BC0843117
:1005E000910544F48E3091050CF053C00D970CF03A
:1005F00050C01AC04697E4F14CC0812F0E945505A7
:1006000046C01051123008F049C080E168E041E076
:1006100021E00E94AA0281E169E040E021E00E941D
:10062000AA020E94790E33C0E12FF0E0E55DF54F9C
:10063000808184FF33C080E06CE040E021E00E94D4
:10064000AA0281E06BE040E021E00E94AA0282E081
:100650006AE021C0812F602F40E020E00E94AA02C2
:10066000812F0E949B0507C0812F0E94DB0A03C0D7
:10067000812F0E94E006882391F009C0812F0E94FB
:10068000650D812F602F41E020E00E94AA0281E0E9
:1006900006C0812F602F40E021E0F7CF80E01F915E
:1006A0000F9108951F93CF93DF93EC0110E0812FFA
:1006B0006F850E94C502882329F01F5F219618319B
:1006C000B1F781E0DF91CF911F910895FC019785EB
:1006D00060898185873018F0818981116068892F50
:1006E0000E94C50208951F93CF93DF93C0E0D0E02E
:1006F0001C2F8C2F60E00E9430098C2F60E00E943C
:100700005B08CE010E949107682F8C2F0E94A00ADF
:10071000CE010E949107682F8C2F20E030E040E04E
:1007200050E00E94200C8C2F0E94320782508D3F97
:1007300020F08C2F62E00E94AA07812F0E943207CE
:10074000682F812F0E94C5022196C831D10581F6FC
:10075000DF91CF911F910895982F833069F08730F2
:1007600059F0863049F0823039F0843129F080E048
:10077000953119F481E0089581E00895FC01608BC2
:100780000895FC01708B618B0895FC01708B618B67
:10079000528B438B0895FC0172896389818990890A
:1007A0000895CF92DF92EF92FF920F931F93D82E6E
:1007B000C42E780189010E9491028630C9F08730E9
:1007C00020F48250823030F407C0873051F08451D9
:1007D000823098F080E016C08D2D6C2D0E945B0851
:1007E00010C08D2D6C2DA80197010E94200C09C00E
:1007F0008D2D6C2D0E94A00A04C08D2D6C2D0E94A1
:10080000820681E01F910F91FF90EF90DF90CF90D3
:1008100008957F928F929F92AF92BF92CF92DF9274
:10082000EF92FF920F931F93CF93DF93FC01C28847
:10083000D188E088F784EC01BB247B888C889D8874
:10084000AE888B2D0E9491020E94AC03882369F030
:10085000C701B6010E94662A8B019C018B2D4A2D8F
:10086000592D682D772D0E94D103B394249688E1E9
:10087000B81619F781E0DF91CF911F910F91FF908A
:10088000EF90DF90CF90BF90AF909F908F907F9030
:100890000895BF92CF92DF92EF92FF920F931F9332
:1008A000CF93DF93EC01BF848B2D0E949102182F10
:1008B0000E94AC038823E9F0C8888985873018F046
:1008C00079896A8902C060E070E0DD24EE24FF24AB
:1008D00080E090E00E94662A8B019C018B2DB7017D
:1008E000A6010E94D103CE0160E840E00E943C1BBB
:1008F00010C0153081F01850123068F40985055089
:1009000010E004C08F850E941B1E1F5F21961017E8
:10091000C8F381E001C080E0DF91CF911F910F917A
:10092000FF90EF90DF90CF90BF9008951F93182F06
:100930000E9491028730E1F0883050F4843031F128
:10094000853018F4823068F00FC0863051F416C03C
:10095000833151F0843118F4803119F405C08631A7
:1009600088F021E030E016C0812F0E94E80703C024
:10097000812F0E94650B282F30E00CC0812F0E9430
:10098000CD0AF9CF812F0E946C06F5CF812F0E94EE
:100990003A069C01C9011F910895DF92EF92FF92E0
:1009A0000F931F93CF93DF938C01FC01E7848E2D6F
:1009B0000E949102F82E8E2D0E949604D82E8E2D24
:1009C0000E949502882311F00E94A40E80E2F80193
:1009D00087838F2D8451823090F0F3E0FF1679F0F9
:1009E00086E0F81661F0E7E0FE1649F0F2E0FF1647
:1009F00031F083E1F81619F0E0E1FE1621F4F80178
:100A0000D08A86E034C0F4E0FF1641F48E2D0E94B7
:100A10003A06F801908B818B87E029C0F8EFFF0E32
:100A200081E08F1510F480E024C085E0F801818713
:100A30000E946F0DEC010097D9F0C8010F96BE011E
:100A40000E94750D2E96F801EC0FFD1F2E9720E0E9
:100A500030E005C0808181832F5F3F4F31972C1795
:100A60003D07C0F381E1F801878781858C0F81877D
:100A700081E0DF91CF911F910F91FF90EF90DF9078
:100A800008950F931F93182F062F0E9491028650EE
:100A9000823010F080E006C0812F90E0602F0E942D
:100AA0008A0781E01F910F9108950F931F93082FDC
:100AB0000E949102182F802F0E94050A802F0E9409
:100AC000FA05802F0E94BA06812F8A50833080F465
:100AD00080E062E00E94AA0781E062E00E94AA072B
:100AE00082E062E00E94AA0783E062E00E94AA0717
:100AF0001850123058F4802F0E945C0E80E162E0A2
:100B00000E94AA0781E162E00E94AA07802F60E0AC
:100B10000E9430091F910F9108951F930E94A50113
:100B20000E94730310E0812F0E94E5121F5F1831AD
:100B3000D1F71F910895982FE82FF0E0E55DF54F6C
:100B4000808180FD02C080E0089580917C008F73D9
:100B500080937C0080917C008F7D80937C008091CD
:100B60007A00806880937A0080917A00877F8093F2
:100B70007A0080917A00876080937A0010927B00DF
:100B80009B30F1F09C3038F4993091F09A30A0F419
:100B9000983039F509C09D30D9F09D30A8F09E30CD
:100BA000D9F09F30F1F41FC080917E00816017C0A2
:100BB00080917E00826013C080917E0084600FC0AF
:100BC00080917E0088600BC080917E00806107C0AC
:100BD00080917E00806203C080917E00806480935B
:100BE0007E0081E0089580917E00806880937E0081
:100BF00081E00895982FE82FF0E0E55DF54F8081C2
:100C000080FF37C09B30F1F09C3038F4993091F080
:100C10009A30A0F4983069F509C09D30D9F09D3024
:100C2000A8F09E30D9F09F3021F51EC080917E0043
:100C30008E7F17C080917E008D7F13C080917E00D3
:100C40008B7F0FC080917E00877F0BC080917E00DC
:100C50008F7E07C080917E008F7D03C080917E00D3
:100C60008F7B80937E00089580917E008F778093A4
:100C70007E0008951F93182F0E9491028430C9F4BA
:100C8000912F98509830A8F49F7180917C00807EBD
:100C9000892B80937C0080917A00806480937A0015
:100CA00080917A0086FDFCCF209178003091790008
:100CB00002C020E030E0C9011F910895883030F073
:100CC0008093430A84508093440A08958093440A91
:100CD0008C5F8093430A0895982FE82FF0E0E55D3C
:100CE000F54F808187FD02C080E00895892F0E9422
:100CF0005E06E091440AF0E0EE0FFF1FE550F64F6C
:100D0000808108951F93CF93DF93982F162FE82F9C
:100D1000F0E0E55DF54F808187FF28C0892F0E94B4
:100D20005E06C12FD0E0C058D040E091440AF0E008
:100D3000EE0FFF1FE550F64F10831C161D064CF4F6
:100D40008091430A60E00E945B08CE01880F682F03
:100D500009C08091430A61E00E945B08CE01819541
:100D6000682F660F8091440A0E94A00ADF91CF91FC
:100D70001F910895982FE82FF0E0E55DF54F8081F1
:100D800087FF1DC0892F0E945E068091440A0E9441
:100D900091028431A1F48091430A0E94910285312D
:100DA00071F48091440A0E94050A8091440A62E02D
:100DB0000E94AA078091430A62E00E94AA07089550
:100DC000982FE82FF0E0E55DF54F808187FD02C0A8
:100DD00080E00895892F0E945E068091440A64E1B4
:100DE00041E020E00E94AA028091430A65E141E0CF
:100DF00020E00E94AA028091440A60E80E948206D4
:100E000081E00895F999FECF1FBA92BD81BDF89A8D
:100E100080B50895CB9624E08030920710F080E0F2
:100E200008950E9402070895FF920F931F9387E38E
:100E300090E00E940207F82E88E390E00E940207EB
:100E4000082F89E390E00E940207182F8AE390E0C0
:100E50000E940207682F712F802F9F2D1F910F91E5
:100E6000FF90089590E007960E9402070895CF939F
:100E7000DF9380E090E00E940207853269F4C1E0D0
:100E8000D0E0CE010E940207FE01E957FC4F8083AB
:100E90002196C730D105A9F7DF91CF9108951F930F
:100EA000CF93DF93EC01162F0E940207811741F0C8
:100EB000F999FECF1FBAD2BDC1BD10BDFA9AF99AF9
:100EC000DF91CF911F910895CB9624E08030920757
:100ED00010F40E944F070895FF920F931F93F62E70
:100EE000072F182F692F87E390E00E944F0788E3B0
:100EF00090E0612F0E944F0789E390E0602F0E94ED
:100F00004F078AE390E06F2D0E944F071F910F91CA
:100F1000FF9008956F3F09F46EEF4F960E944F07C0
:100F200008950F931F93CF93DF93EC018C01015E23
:100F30001F4FC8010E9402078F3F21F4CE0160E8D5
:100F40000E948A07C8010E940207DF91CF911F917A
:100F50000F9108950F931F93182F062F0E943207A9
:100F6000801731F0812F90E00796602F0E944F0785
:100F70001F910F9108950F931F93CF93DF93182F15
:100F8000092F80E090E00E940207853211F480E092
:100F90001AC0812F902F9C018901C1E0D0E0F80197
:100FA00061918F01FE01E957FC4F6083CE010E94E1
:100FB0004F072196C730D10591F780E090E065E2B8
:100FC0000E944F0781E0DF91CF911F910F9108950B
:100FD000E82FF0E0E831F10540F4EB5AFF4FEE0F57
:100FE000FF1F0590F491E02D099480E00895809111
:100FF000230033C0809123000EC08091230002C0E3
:10100000809129008295869587704FC08091290034
:1010100024C080912900829586958695837045C06D
:101020008091230036C0809123002EC08091200043
:101030003CC08091200038C08091200030C0809159
:10104000200027C0809120001FC080912000DACFAF
:1010500080912000E0CF80912000881F8827881F82
:1010600008958091C90083FD03C08091290011C0BB
:101070008091C90083FD03C08091290010C0809138
:101080002600C0CF8091260082958F700EC080917F
:10109000260086958695869508C0809126008695BF
:1010A000869503C080912600869581700895809171
:1010B000260081700895E82FF0E0E831F10508F08E
:1010C000CEC0E359FF4FEE0FFF1F0590F491E02DC6
:1010D0000994679566276795809125008F7737C0BB
:1010E00061706295660F660F607C809125008F7B32
:1010F0002EC061706295660F607E809125008F7DA5
:1011000026C061706295660F607E80912B008F7D96
:1011100074C067956627679580912B008F776DC0A7
:1011200061706295660F660F607C80912B008F7BEB
:1011300064C06170660F660F660F80912500877F1F
:1011400006C061706295607F809125008F7E862B3E
:101150008093250008956170809122008E7F33C0B6
:101160006170660F809122008D7F2DC06170660FC7
:10117000660F809122008B7F26C06170660F660F1C
:10118000660F80912200877F1EC061706295607F2C
:10119000809122008F7E17C061706295660F607E1D
:1011A000809122008F7D0FC061706295660F660F7F
:1011B000607C809122008F7B06C0679566276795CB
:1011C000809122008F77862B809322000895809152
:1011D000C90083FD44C06170660F660F660F809181
:1011E0002B00877F0AC08091C90083FD38C06170E1
:1011F000660F660F80912B008B7F862B80932B00D0
:10120000089561706295660F607E809128008F7DE1
:101210001BC061706295607F809128008F7E14C032
:101220006170660F660F660F80912800877F0CC083
:101230006170660F660F809128008B7F05C061701A
:10124000660F809128008D7F862B8093280008955B
:101250006170809128008E7F862B809328000895EE
:10126000E82FF0E0E831F10508F0CEC0EB57FF4F72
:10127000EE0FFF1F0590F491E02D09946795662706
:101280006795809124008F7737C061706295660FF3
:10129000660F607C809124008F7B2EC06170629508
:1012A000660F607E809124008F7D26C061706295FC
:1012B000660F607E80912A008F7D74C067956627D7
:1012C000679580912A008F776DC061706295660F77
:1012D000660F607C80912A008F7B64C06170660F0E
:1012E000660F660F80912400877F06C0617062954B
:1012F000607F809124008F7E862B80932400089548
:101300006170809121008E7F33C06170660F809183
:1013100021008D7F2DC06170660F660F80912100C6
:101320008B7F26C06170660F660F660F809121006B
:10133000877F1EC061706295607F809121008F7EE3
:1013400017C061706295660F607E809121008F7D6D
:101350000FC061706295660F660F607C80912100FE
:101360008F7B06C0679566276795809121008F77F0
:10137000862B8093210008958091C90083FD44C08D
:101380006170660F660F660F80912A00877F0AC022
:101390008091C90083FD38C06170660F660F80912F
:1013A0002A008B7F862B80932A00089561706295B6
:1013B000660F607E809127008F7D1BC061706295F3
:1013C000607F809127008F7E14C06170660F660F6A
:1013D000660F80912700877F0CC06170660F660FD3
:1013E000809127008B7F05C06170660F8091270078
:1013F0008D7F862B80932700089561708091270050
:101400008E7F862B8093270008958530D1F086301B
:1014100018F48430D9F40FC0863019F08730B1F455
:1014200004C0809144008F7303C0809144008F7C7E
:101430008093440008958091B0008F738093B00032
:1014400008958091B0008F7C8093B00008951F9321
:10145000182F0E949102863059F0812F0E9491022C
:10146000853131F0812F0E949102843109F066C0EC
:10147000153009F44DC0163020F4143009F05EC068
:1014800032C0163021F0173009F058C015C08091D5
:1014900024008860809324008091440083608093BE
:1014A000440080914500887F816080934500809151
:1014B00044008F73806814C0809124008061809301
:1014C0002400809144008360809344008091450013
:1014D000887F816080934500809144008F7C80628A
:1014E000809344002BC080912A00806880932A005A
:1014F0008091B00083608093B0008091B100887FBC
:1015000081608093B1008091B0008F73806814C0B7
:1015100080912A00806480932A008091B0008360CB
:101520008093B0008091B100887F81608093B1008A
:101530008091B0008F7C80628093B0001F910895ED
:101540000F931F93182F062F0E949102863051F09F
:10155000812F0E949102853129F0812F0E949102F2
:101560008431C1F4812F0E94270A153089F016308A
:1015700018F4143079F409C0163019F0173051F40A
:1015800002C007BD07C008BD05C00093B30002C07C
:101590000093B4001F910F9108951F93182F0E947C
:1015A0009102863011F080E004C0812F90E00E940B
:1015B00091071F9108951F93182FE82FF0E0E55D24
:1015C000F54F808182FD02C080E012C0812F66E06D
:1015D00041E020E00E94AA02812F0E94270A812F69
:1015E00090E00E949107682F812F0E94A00A81E05D
:1015F0001F9108958093D8060895982F1092D906C8
:10160000613059F48091240084608093240080919B
:10161000250084608093250008958150823018F45D
:1016200081E08093D906913011F0933069F4809174
:101630002400846080932400809125008B7F809318
:101640002500933069F00AC0809124008B7F80933D
:101650002400809125008B7F80932500992319F425
:1016600081E0809372020895982F1092DA0661301B
:1016700059F4809124008260809324008091250099
:101680008260809325000895813011F0833021F429
:1016900080912400826003C0809124008D7F80931C
:1016A0002400809125008D7F80932500892F815013
:1016B000823018F481E08093DA06933011F0992398
:1016C00019F481E0809373020895E82FF0E0EE0FA3
:1016D000FF1FE550F64F80810895DF93CF9300D030
:1016E00000D0CDB7DEB782E291E0A0E0B0E0898320
:1016F0009A83AB83BC8389819A81AB81BC8101973A
:10170000A109B10989839A83AB83BC830196A11D8A
:10171000B11D0097A105B10571F70F900F900F90C3
:101720000F90CF91DF910895AF92BF92CF92DF9249
:10173000EF92FF920F931F93CF93DF93A62EB82EB5
:1017400071C00E940F1DAB01BC01CB2DD0E0CE01BA
:1017500034E0880F991F3A95E1F78B5B954F0E9413
:10176000071C6B017C0120E030E04FE753E40E944E
:10177000F428181624F58EE392E00E944520C70154
:10178000B6010E94911F8EE592E00E94ED1F24E0B9
:10179000CC0FDD1F2A95E1F7C35BD54F68817981B6
:1017A0008A819B810E94911F0F2EF0E0CF2EF0E0E6
:1017B000DF2EFFE7EF2EF3E4FF2EF02D26C0C7014A
:1017C000B60120E030E040E050E00E945429882338
:1017D000E4F48EE392E00E944520C701B6010E9426
:1017E000911F88E692E00E94ED1F6B2D70E080E073
:1017F00090E00E94641F0F2EF0E0CF2EF0E0DF2E6D
:10180000F0E0EF2EF0E0FF2EF02D0B2D10E0000F9A
:10181000111F0550164FC701B6010E949C24F80104
:101820006083B394BA1408F48CCFDF91CF911F91E9
:101830000F91FF90EF90DF90CF90BF90AF90089501
:101840008F929F92AF92BF92CF92DF92EF92FF92D0
:101850000F931F93CF93DF93982E862E59016A0121
:10186000CA01B90120E030E040EF51E40E94542960
:10187000882354F40F2EF0E0AF2EF0E0BF2EF0E0FE
:10188000CF2EF0E0DF2EF02D092D10E07801EE0CC8
:10189000FF1CE70173E0CC0FDD1F7A95E1F7C35B16
:1018A000D54FA882B982CA82DB8264E0000F111F83
:1018B0006A95E1F755E4C52E5AE0D52EC00ED11E2B
:1018C000682D70E080E090E00E94662AF601608357
:1018D000718382839383075B154F8BEF99E0E80E4A
:1018E000F91EF701608170E080E090E00E94662AB6
:1018F000F80160837183828393830E940F1DF60138
:101900006487758786879787F7018081881641F4F9
:1019100080E090E0A0E0B0E088839983AA83BB8355
:10192000FBE0F91518F01092720202C010927302D7
:10193000892D0E949102873011F490927402DF91F8
:10194000CF911F910F91FF90EF90DF90CF90BF90BC
:10195000AF909F908F9008951F93182F0E9491022F
:10196000873021F4812F60E00E945B081F91089569
:101970001F93182F0E9491028730F9F41C3058F001
:101980008091DA06882321F48091D8068823A9F073
:10199000809173020AC08091D906882321F4809136
:1019A000D806882351F080917202813031F0812F66
:1019B00061E00E945B0881E001C080E01F91089512
:1019C000CF92DF92EF92FF920F931F93DF93CF930B
:1019D00000D000D0CDB7DEB7682F70E0CB0113E0A8
:1019E000880F991F1A95E1F7D82E6F5F7F4FB3E0EC
:1019F000660F771FBA95E1F7C62E0E94940B80916F
:101A0000280080688093280086E69EE00197F1F721
:101A10000D2D10E0EC2CFF2405C0802F0E94B80C87
:101A20000F5F1F4F0E151F05C0F382E291E0A0E08B
:101A3000B0E089839A83AB83BC8389819A81AB812F
:101A4000BC810197A109B10989839A83AB83BC83C7
:101A50000196A11DB11D0097A105B10571F700E028
:101A600010E017C0EF2DF0E0EE0FFF1FE550F64F2E
:101A7000808190E00817190719F48F2D0E94AC0C93
:101A8000F394FC1478F30F5F1F4F81E000301807C8
:101A900011F0FD2CF6CF809128008F7780932800DD
:101AA0001D2D04C0812F0E94AC0C1F5F1C15D0F3AC
:101AB0000F900F900F900F90CF91DF911F910F918A
:101AC000FF90EF90DF90CF9008951F93182F0E9402
:101AD0005505812F61E00E9430091F9108958FE321
:101AE00097E00E946D17CB010895FC019B0140E037
:101AF00050E08FE397E0BF010E945D1808951F92A8
:101B00000F920FB60F9211242F933F934F935F9331
:101B10006F937F938F939F93AF93BF93EF93FF93B5
:101B2000DF93CF930F92CDB7DEB76091CE008FE3F6
:101B300097E0AE014F5F5F4F0E9473170F90CF91F8
:101B4000DF91FF91EF91BF91AF919F918F917F9125
:101B50006F915F914F913F912F910F900FBE0F901A
:101B60001F9018959B01AC01203880E7380780E072
:101B7000480780E0580709F481C0213880E738071A
:101B800080E0480780E05807B0F5203885E2380744
:101B900080E0480780E0580709F467C0213885E2F3
:101BA000380780E0480780E0580798F4203689E03D
:101BB000380780E0480780E0580709F450C0203C0F
:101BC00082E1380780E0480780E0580709F045C007
:101BD00049C0203488E3380780E0480780E0580790
:101BE00009F446C020308BE4380780E0480780E0E5
:101BF000580799F540C020308CE2380781E048074B
:101C000080E0580709F443C021308CE2380781E0B6
:101C1000480780E0580788F4203086E9380780E0DC
:101C2000480780E0580769F1203081EE380780E0EE
:101C3000480780E0580789F427C0203082EC380735
:101C400081E0480780E0580729F1203084E8380710
:101C500083E0480780E0580701F180E008958FEDA8
:101C600091E01DC08FEE90E01AC087E790E017C0AA
:101C70008FE490E014C08BE390E011C087E290E025
:101C80000EC08DE190E00BC083E190E008C08EE0D3
:101C900090E005C089E090E002C084E090E090937D
:101CA000CD008093CC00CA01B9010E946C0781E08D
:101CB00008950E94B20D0895982FE82FF0E0E55D99
:101CC000F54F808183FF14C01092C900892F0E94B4
:101CD00091028850823060F480E162E040E021E0CF
:101CE0000E94AA0281E162E040E021E00E94AA0293
:101CF00008950E9414070E94B20D882331F460E019
:101D00007BE480E090E00E94B20D80E161E00E94FF
:101D1000300981E160E00E94300981E161E00E94C8
:101D20005B0886E08093CA0088E98093C90010921E
:101D3000C8008FE397E06BED76E024E630E040E00A
:101D400050E00E941D19089581E080935207089584
:101D5000E82FF0E0E831F10540F4E356FF4FEE0FD5
:101D6000FF1F0590F491E02D099420E094C020E03D
:101D700080915307909154073BC020E08091550714
:101D80009091560735C020E08091570790915807F1
:101D90002FC020E08091590790915A0729C020E078
:101DA00080915B0790915C0723C020E080915D07E4
:101DB00090915E071DC020E080915F0790916007C1
:101DC00017C020E0809161079091620711C020E068
:101DD00080916307909164070BC020E080916507B4
:101DE0009091660705C020E0809167079091680791
:101DF000892B09F450C04EC020E080916907909172
:101E00006A07F6CF20E080916B0790916C07F0CFC6
:101E100020E080916D0790916E07EACF20E08091DD
:101E20006F0790917007E4CF20E080917107909147
:101E30007207DECF20E08091730790917407D8CFAE
:101E400020E08091750790917607D2CF20E08091B5
:101E5000770790917807CCCF20E080917907909117
:101E60007A07C6CF20E080917B0790917C07C0CF96
:101E700020E080917D0790917E07BACF20E080918D
:101E80007F0790918007B4CF20E0809181079091E7
:101E90008207AECF21E0822F0895E82FF0E0E831ED
:101EA000F10508F028C1EB54FF4FEE0FFF1F05901E
:101EB000F491E02D09941092540710925307662371
:101EC00031F081E090E09093540780935307109293
:101ED000560710925507662331F081E090E0909309
:101EE000560780935507109258071092570766239C
:101EF00031F081E090E0909358078093570710925B
:101F00005A0710925907662331F081E090E09093D0
:101F10005A078093590710925C0710925B0766235B
:101F200031F081E090E090935C0780935B07109222
:101F30005E0710925D07662331F081E090E0909398
:101F40005E0780935D071092600710925F0766231B
:101F500031F081E090E09093600780935F071092EA
:101F6000620710926107662331F081E090E0909360
:101F700062078093610710926407109263076623DB
:101F800031F081E090E090936407809363071092B2
:101F9000660710926507662331F081E090E0909328
:101FA000660780936507109268071092670766239B
:101FB00031F081E090E0909368078093670710927A
:101FC0006A0710926907662331F081E090E09093F0
:101FD0006A078093690710926C0710926B0766235B
:101FE00031F081E090E090936C0780936B07109242
:101FF0006E0710926D07662331F081E090E09093B8
:102000006E0780936D071092700710926F0766231A
:1020100031F081E090E09093700780936F07109209
:10202000720710927107662331F081E090E090937F
:1020300072078093710710927407109273076623DA
:1020400031F081E090E090937407809373071092D1
:10205000760710927507662331F081E090E0909347
:10206000760780937507109278071092770766239A
:1020700031F081E090E09093780780937707109299
:102080007A0710927907662331F081E090E090930F
:102090007A078093790710927C0710927B0766235A
:1020A00031F081E090E090937C0780937B07109261
:1020B0007E0710927D07662331F081E090E09093D7
:1020C0007E0780937D071092800710927F0766231A
:1020D00031F081E090E09093800780937F07109229
:1020E000820710928107662331F081E090E090939F
:1020F00082078093810708958B3009F446C08C30A5
:1021000038F48930D1F08A3048F5883069F40FC04E
:102110008D3009F455C08D3008F444C08E3009F478
:1021200064C08F3009F472C040E050E080C040913C
:10213000830780918407582F79C080918407869502
:102140008695869590918507292F2295220F207ECE
:10215000422F482B96959695969556C08091850767
:10216000829586958695837020918607922F990F88
:10217000990F492F482B22952695269523708091FB
:1021800087078170880F880F2DC0809187078695FB
:1021900090918807292F279522272795422F482B92
:1021A000969532C08091880782958F7090918907AB
:1021B000292F2295207F422F482B92959F7024C073
:1021C00080918907881F8827881F20918A07922F6E
:1021D000990F492F482B221F2227221F80918B07FE
:1021E0008370880F582F522B22C080918B078695C1
:1021F000869590918C07292F2295220F220F207C03
:10220000422F482B96959695592F10C080918C0798
:1022100082958695877020918D07922F990F990F3F
:10222000990F492F482B522F529556955770CA0136
:1022300008958B3009F45BC08C3040F48930E9F0AC
:102240008A30A8F5883009F0C7C00DC08D3009F478
:102250007BC08D3008F461C08E3009F491C08F309E
:1022600009F0BAC0A6C060938307972F977080913A
:102270008407887F892B80938407962F990F990F65
:10228000990F809184078770892B80938407262F6C
:1022900022952695277080918507807C972F9770CF
:1022A000990F990F990F822B892B80938507962F71
:1022B0009295990F990F907C809185078F73892B48
:1022C00080938507972F9295990F990F907C862F71
:1022D00086958695892B80938607972F9695969558
:1022E0009170809187078E7F892B80938707962F27
:1022F000990F809187078170892B80938707262FFC
:10230000221F2227221F80918807807F972F977096
:10231000990F822B892B80938807962F9295907F17
:10232000809188078F70892B80938807262F2295AC
:102330002F70809189078078972F97709295907F62
:10234000822B892B80938907962F979599279795AC
:10235000809189078F77892B80938907972F97958D
:1023600099279795862F8695892B80938A07972F93
:102370009695937080918B078C7F892B80938B0728
:10238000962F990F990F80918B078370892B8093DB
:102390008B07262F229526952695237080918C07F2
:1023A000807E972F9770990F990F822B892B80939E
:1023B0008C07962F9295990F907E80918C078F7144
:1023C000892B80938C077295770F707E6695669542
:1023D0006695672B60938D070895EF92FF920F9398
:1023E0001F930F2EF0E0EF2EF0E0FF2EF8EC0F2FF2
:1023F000F1E41F2FF02DE0928102F092820200930F
:102400008302109384020E940F1D60937D027093DB
:102410007E0280937F0290938002E0928902F09284
:102420008A0200938B0210938C0220E030E040E09F
:1024300051E40E9421276093850270938602809365
:10244000870290938802E0929102F09292020093A8
:1024500093021093940220E030E040E051E40E94A7
:10246000212760938D0270938E0280938F02909348
:1024700090021F910F91FF90EF9008950E946F0DB1
:10248000892B11F00E94681460917D0270917E0288
:1024900080917F029091800220E030E040E050E0A7
:1024A0000E94F428181614F00E94ED116091850224
:1024B00070918602809187029091880220E030E03E
:1024C00040E050E00E94F428181614F00E94ED112C
:1024D00060918D0270918E0280918F029091900296
:1024E00020E030E040E050E00E94F428181614F09C
:1024F0000E94ED118DE792E00E94141A20E030E076
:1025000040E050E00E94F42818161CF480E00E947D
:10251000E00C85E892E00E94141A20E030E040E0F0
:1025200050E00E94F42818161CF481E00E94E00C90
:102530008DE892E00E94141A20E030E040E050E084
:102540000E94F42818162CF482E00E94E00C0E94ED
:10255000ED110895FF920F931F93CF93DF9300E047
:1025600010E0FF24F394812F0E949102823021F029
:10257000803111F08331D9F4812F0E94E807C0E047
:10258000D0E0882311F0C1E0D0E0D0938F07C09352
:102590008E07812F0E94A80E90E0C817D90739F046
:1025A000F0925207812F6C2F0E944D0F01E01F5FA8
:1025B0001831C9F6002311F00E940714802FDF9113
:1025C000CF911F910F91FF9008951F93182F0E9494
:1025D0009102843041F4812F0E943A06BC01812F80
:1025E0000E9419110FC0823021F0803111F0833127
:1025F00049F4812F0E94E80760E0811161E0812F9A
:102600000E944D0F1F910895DF92EF92FF920F935A
:102610001F93CF93DF9300E018E0DD24D394812F44
:102620000E949102843039F5812F0E943A06F82EDB
:10263000E92EC82FD92FD0938F07C0938E07812FF3
:102640000E947C109C019093910780939007CE018B
:102650000A96821793073CF0CE010A97281739078C
:1026600054F42A9744F0D0925207812F6F2D7E2D7B
:102670000E94191101E01F5F103189F6002311F04B
:102680000E943414802FDF91CF911F910F91FF9002
:10269000EF90DF900895EF92FF920F931F93CF93E7
:1026A000DF93E82EEB0183E00E94101E8EE18A95F5
:1026B000F1F710E08EE1F82E80E00E94101E0EE18E
:1026C0008F2D8A95F1F71F5F1630B1F780E20E94D7
:1026D000101E802F8A95F1F783EE0E94101E802F26
:1026E0008A95F1F78E2D0E94101E802F8A95F1F7A2
:1026F0008E2D8A5F0E94101E802F8A95F1F78881A7
:102700000E94101E802F8A95F1F789810E94101E69
:10271000802F8A95F1F78A810E94101E802F8A955A
:10272000F1F78B810E94101E802F8A95F1F7DF91BF
:10273000CF911F910F91FF90EF900895EF92FF922C
:102740000F931F93182F062F809128008068809385
:10275000280096E6E92E9EE0F92EC7010197F1F7D1
:1027600086E065E972E00E944B13812F0E94101EE3
:102770001EE1812F8A95F1F7802F0E94101E1A9575
:10278000F1F7809128008F7780932800C701019787
:10279000F1F71F910F91FF90EF900895DF92EF9264
:1027A000FF920F931F93182FD62E072F809128008A
:1027B00080688093280026E6E22E2EE0F22EC701E4
:1027C0000197F1F787E065E972E00E944B13812FD2
:1027D0000E94101E1EE1812F8A95F1F7802F0E9422
:1027E000101E812F8A95F1F78D2D0E94101E1A95CB
:1027F000F1F7C7010197F1F7809128008F77809357
:1028000028001F910F91FF90EF90DF9008950F9394
:102810001F938AE992E00E944520809128008068F9
:102820008093280086E69EE00197F1F78CE16AEA42
:1028300072E00E944B1310E00EE1812F0E94A80E5F
:102840000E94101E802F8A95F1F71F5F1831A9F79B
:1028500086E69EE00197F1F7809128008F778093BC
:1028600028001F910F910895FF920F931F9380915D
:10287000280080688093280086E69EE00197F1F7A3
:1028800084E16FEA72E00E944B1308E03EE1F32E10
:10289000802F0E947C10182F892F0E94101E8F2DD0
:1028A0008A95F1F7812F0E94101E8F2D8A95F1F7DE
:1028B0000F5F003169F7809128008F77809328009F
:1028C00086E69EE00197F1F71F910F91FF90089522
:1028D000BF92CF92DF92EF92FF920F931F93DF93FD
:1028E000CF930F92CDB7DEB70E946F0D7C01809120
:1028F000280080688093280086E69EE00197F1F723
:102900008E2D8B5F65E972E00E944B1381E10E947E
:10291000101E8EE18A95F1F700E010E06E01089438
:10292000C11CD11C4EE1B42E0DC0C60161E070E0A7
:102930000E94750D89810E94101E8B2D8A95F1F7DA
:102940000F5F1F4F0E151F0580F3809128008F77B2
:102950008093280086E69EE00197F1F70F90CF91D3
:10296000DF911F910F91FF90EF90DF90CF90BF907C
:1029700008950E94A61E80912700806880932700FA
:10298000809127008F7B80932700809128008F778C
:102990008093280080912800806480932800809193
:1029A00024008B7F80932400809125008B7F80936F
:1029B0002500809124008D7F809324008091250044
:1029C0008D7F8093250080E060E00E94FD0A80E01A
:1029D00060E00E94340B0E948D0580E164E376E1A3
:1029E0000E94782180E260E875E10E94782180E30E
:1029F00063E075E10E9478210E94A61E84EB92E0BC
:102A00000E94452008950F931F93CF93DF93EC010D
:102A100086E0809392078B859C85AD85BE85833645
:102A200023E6920728E6A2072EE6B207F1F08436E5
:102A300023E6920728E6A2072EE6B20730F48F5568
:102A40009D46A146B34679F41EC080372FE6920713
:102A500026E7A20722E7B20709F443C0835793464B
:102A6000A846B64701F180E046C0CE010E94910120
:102A7000482F882321F4CE01609192072FC0CE0108
:102A80006091920735C0CE010F960E94BB07882344
:102A900029F0CE016091920741E02AC0CE016091F9
:102AA000920741E01BC00F851889CE010E9449049E
:102AB000882381F0802F612F0E944105882329F00F
:102AC000CE016091920742E013C0CE01609192075F
:102AD00042E004C0CE016091920743E00E94601B77
:102AE00009C08F850E94FA0ACE016091920743E0E7
:102AF0000E943C1B81E0DF91CF911F910F910895BF
:102B0000CF92DF92EF92FF920F931F93CF93DF93B9
:102B1000EC0185E0809392078B859C85AD85BE8511
:102B2000833723E6920728E6A2072DE6B20771F164
:102B30008437E3E69E07E8E6AE07EDE6BE0778F4E5
:102B40008536F5E69F07F0E7AF07F4E6BF0709F41F
:102B50005CC083579146A346BD46B1F422C083377B
:102B6000E1E69E07E3E6AE07E6E7BE07A1F183379D
:102B7000F3E69F07F8E6AF07F6E7BF07E9F08F55E2
:102B80009047A747B247C1F180E065C0CE010E94DF
:102B90006603882309F05EC0CE016091920740E091
:102BA00057C0CE010E945203882309F053C0CE01C2
:102BB0006091920741E04CC0CE010E9449048823F5
:102BC00029F0CE016091920742E00EC0CE016091E3
:102BD000920742E03DC0CE010E940904882339F0EB
:102BE000CE016091920745E20E943C1B33C0CE01AA
:102BF0006091920743E02CC089896F850E94FD0A8D
:102C00008A8968890E94340B25C08F85482F50E03F
:102C10008889282F30E024173507B8F07E01EA01B3
:102C200000E010E06901CC1ADD0A08C0CE01F7010E
:102C300060890E9464070F5F1F4F21960894E11C72
:102C4000F11C0C151D0590F305C0CE0165E044E0B4
:102C50000E94601B81E0DF91CF911F910F91FF9047
:102C6000EF90DF90CF9008958F929F92AF92BF9296
:102C7000CF92DF92EF92FF920F931F93DF93CF9348
:102C80000F92CDB7DEB74C0184E080939207F40138
:102C900083859485A585B6858736F1E69F07F3E69B
:102CA000AF07FDE6BF07B9F1883621E6920723E6B4
:102CB000A2072DE6B20778F48536E5E69E07E0E741
:102CC000AE07E4E6BE0709F447C083579146A6471E
:102CD000B546B9F472C08F3522E7920725E6A20700
:102CE00026E7B20709F460C08736E3E69E07E8E608
:102CF000AE07E6E7BE0719F187569346A846BD46DC
:102D000011F080E071C0F40187850E943207F40160
:102D1000808B86E010C0840190E0892F99830E9407
:102D20003207F801878799819F5F0F5F1F4F9831A6
:102D3000A1F78CE1F401818780E2878354C00E946F
:102D4000A40EC4010E94CD04882309F04CC0C40124
:102D50006091920740E025C0F401C7842C2D30E03B
:102D6000D088AD2CBB2480E28783A216B306B0F0D6
:102D70007401890107C0C8010E940A07F70186870C
:102D80000F5F1F4F0894E11CF11C0A151B0598F3F7
:102D9000F4E0DF0EDC18F401D18625C0C40164E044
:102DA00041E00E94601B1FC083E0F401878797E029
:102DB000908B83E1818B918716C080E2F401878339
:102DC0008CE181878401EE24FF24C7010E949107D2
:102DD000F80187870894E11CF11C0F5F1F4FF8E191
:102DE000EF16F10491F781E00F90CF91DF911F91E1
:102DF0000F91FF90EF90DF90CF90BF90AF909F909A
:102E00008F900895F89481E00895789481E0089572
:102E1000CF93DF93EC0120E030E040E050E009C0C8
:102E2000EC81FD81E20FF31F10822F5F3F4F4F4F68
:102E30005F4F88819981AA81BB81281739074A078A
:102E40005B0770F3209393073093940740939507A3
:102E500050939607DF91CF910895FC01A481B5812D
:102E600086819781A80FB91F8C910895FC01228556
:102E70003385668177812617370729F416861786EA
:102E8000108A118A25C06217730744F4261B370B7A
:102E9000C901AA2797FDA095BA2F16C0C901AA2774
:102EA00097FDA095BA2F2081318142815381820FF5
:102EB000931FA41FB51F9B01442737FD4095542F36
:102EC000821B930BA40BB50B86879787A08BB18BC6
:102ED00066857785808991890895FC016685778567
:102EE000808991890895EF92FF920F931F93CF935A
:102EF000DF93EC018A0188819981AA81BB810297C5
:102F0000A109B1092E853F854889598928173907B4
:102F10004A075B0738F083E0F8018083EE24FF2442
:102F2000870169C0F894EC81FD818A859B85E80F53
:102F3000F91F60838A859B85AC85BD850196A11D9F
:102F4000B11D8A879B87AC87BD87288139814A81DB
:102F50005B8182179307A407B50721F41A861B86A5
:102F60001C861D862A853B856E817F812617370743
:102F700029F41E861F86188A198A25C062177307CE
:102F800044F4261B370BC901AA2797FDA095BA2F39
:102F900016C0C901AA2797FDA095BA2F28813981AB
:102FA0004A815B81820F931FA41FB51F9B01442799
:102FB00037FD4095542F821B930BA40BB50B8E87C6
:102FC0009F87A88BB98BF80110827894EE24FF2498
:102FD00087012E853F854889598988819981AA81F1
:102FE000BB8182179307A407B50728F081E0E82E7C
:102FF000F12C012D112DB701C801DF91CF911F9147
:103000000F91FF90EF900895CF93DF93EC01F89428
:103010008E819F81A885B985EC81FD81E80FF91F1C
:10302000E0810196A11DB11D8E839F83A887B9877A
:10303000288139814A815B8182179307A407B507EC
:1030400021F41E821F8218861986DB011C922A85B4
:103050003B856E817F812617370729F41E861F86E0
:10306000188A198A25C06217730744F4261B370B88
:10307000C901AA2797FDA095BA2F16C0C901AA2792
:1030800097FDA095BA2F288139814A815B81820FF3
:10309000931FA41FB51F9B01442737FD4095542F54
:1030A000821B930BA40BB50B8E879F87A88BB98BC4
:1030B00078948E2FDF91CF9108952F923F924F9267
:1030C0005F926F927F928F929F92AF92BF92CF92B8
:1030D000DF92EF92FF920F931F93DF93CF930F92A4
:1030E000CDB7DEB73C0149015A01FC014684578443
:1030F0006B01EE24FF2487011E010894211C311C62
:1031000018C0141415045CF4C301B1010E94041822
:10311000982F89818823C1F7F601908302C0F601B8
:1031200010820894E11CF11C011D111D0894C11CA2
:10313000D11CE814F9040A051B0518F3E092930763
:10314000F09294070093950710939607B701C80172
:103150000F90CF91DF911F910F91FF90EF90DF9033
:10316000CF90BF90AF909F908F907F906F905F9027
:103170004F903F902F9008958F929F92AF92BF9261
:10318000CF92DF92EF92FF920F931F93CF93DF9333
:103190005A016B01B901D9011696ED90FD900D9180
:1031A0001C9119971E968D909C901F97EC0120E022
:1031B00030E040E050E025C018141904E4F4DB01CD
:1031C0001496ED91FC911597EE0DFF1D808188837B
:1031D0000894E11CF11C011D111D8D919D910D9014
:1031E000BC91A02DE816F9060A071B0729F4EE2466
:1031F000FF24870101C018822F5F3F4F4F4F5F4F61
:1032000021962A153B054C055D05B0F220939307E6
:10321000309394074093950750939607B901CA01DC
:10322000DF91CF911F910F91FF90EF90DF90CF90A2
:10323000BF90AF909F908F900895CF92DF92EF92C2
:10324000FF920F931F93CF93DF93EC016B017901F2
:103250008A01009719F06115710541F483ED92E040
:103260000E944520C801B7010E94641FDD82CC8204
:10327000E882F9820A831B831E821F8218861986C0
:103280001A861B861C861D861A8A20E030E040E0E4
:1032900050E009C0EC81FD81E20FF31F10822F5F27
:1032A0003F4F4F4F5F4F88819981AA81BB8128177B
:1032B00039074A075B0770F320939307309394070D
:1032C0004093950750939607DF91CF911F910F91EF
:1032D000FF90EF90DF90CF9008956F927F928F9242
:1032E0009F92AF92BF92CF92DF92EF92FF920F9395
:1032F0001F93CF93DF936C013B0181EF92E00E941B
:10330000ED1FD6011E966D917D918D919C915197E7
:103310000E94641F87E093E00E94ED1FF6018685FE
:103320009785A089B1894C015D010894811C911C8D
:10333000A11CB11C2681378140855185BC011092AA
:103340009307109294071092950710929607E30145
:10335000EE24FF24870126C016161706E4F4D601D2
:103360001496ED91FC911597E20FF31F80818883ED
:103370002F5F3F4F4F4F5F4F8D919D910D90BC91AF
:10338000A02D281739074A075B0731F420E030E009
:1033900040E050E001C018820894E11CF11C011DBE
:1033A000111D2196E814F9040A051B05A8F2E09204
:1033B0009307F09294070093950710939607EE24D5
:1033C000FF24870112C0F301EE0DFF1D608170E044
:1033D00080E090E00E94641F81E193E00E94ED1F75
:1033E0000894E11CF11C011D111DF60186859785CD
:1033F000A089B189E816F9060A071B0720F383E1C3
:1034000093E00E94ED1FDF91CF911F910F91FF90EC
:10341000EF90DF90CF90BF90AF909F908F907F9074
:103420006F90089581E008956F927F928F929F929E
:10343000AF92BF92CF92DF92EF92FF920F931F93C2
:10344000CF93DF93EC010E940F1D7B018C0128813B
:1034500039814A815B810E945429882324F4E882BF
:10346000F9820A831B83C801B701288139814A8107
:103470005B810E94F0263B014C01AC80BD80CE8078
:10348000DF80A60195010E94F42818162CF0E0E0D8
:1034900070E080E060E016C0C801B701A4019301AC
:1034A0000E94F026A60195010E9421276883798356
:1034B0008A839B83C401B301A60195010E94F02673
:1034C000E62F692F2E2F372F482F562FB901CA010B
:1034D000DF91CF911F910F91FF90EF90DF90CF90F0
:1034E000BF90AF909F908F907F906F9008951F93A3
:1034F00090E023E0880F991F2A95E1F7895E9C4FA1
:103500000E94141A10E020E030E040E050E00E94F9
:10351000F42818160CF411E0812F1F910895FF92E2
:103520000F931F93CF93DF93EC01F62E0E94A11E01
:10353000882309F466C0FF2081F08B859C85AD85CA
:10354000BE858F559047A747B24739F087E493E08F
:103550000E944520CE010E946D208E010F5F1F4FFB
:1035600088E893E0B8010E94EA1B813039F082E8D4
:1035700093E0B8010E94EA1B813069F5CE010E94F8
:103580000B2390E00BC0E92FF0E0DE01AE0FBF1F70
:10359000E857FC4F808111968C939F5F963098F38B
:1035A00090939707CE010E94291BCE010E94892388
:1035B000FF2031F18B859C85AD85BE858F55904769
:1035C000A747B247E9F08CE493E00E944520CE0182
:1035D0000E946D2015C0FF2099F086E593E00E94BF
:1035E0004520C80166E070E00E94072083E793E071
:1035F0000E94ED1F88E893E066E070E00E940720DB
:1036000081E0DF91CF911F910F91FF9008950E946B
:103610007A1D0E94871E81E16EE873E00E94D92125
:103620000895DC0120E030E090E007C0FD01E90FE3
:10363000F11D8081280F311D9F5F9A30B8F3909360
:10364000980790E01A968C91821709F491E0892FDF
:103650000895DC0120E030E090E007C0FD01E90FB3
:10366000F11D8081280F311D9F5F9A30B8F3909330
:1036700098071A962C930895FC01178289E7809386
:103680009C0784E680939B0782E780939A078FE5E7
:10369000809399078091990790919A07A0919B0731
:1036A000B0919C0783879487A587B68780858078AB
:1036B000808786E081876787408B86E090E0089569
:1036C000FC01178282E780939C0780939B0785E625
:1036D00080939A078FE5809399078091990790913D
:1036E0009A07A0919B07B0919C0783879487A58731
:1036F000B68780858078808786E081876787408B62
:1037000086E090E00895FC016187862F90E008959F
:10371000FC01218530E0255F3F4FC9010895FC0180
:10372000818590E00895CF93DF93EC0120E008C0FD
:10373000FB01EA0FFB1FAC0FBD1F8C9180832F5F35
:10374000A22FB0E0898590E00A968A179B0784F73C
:10375000DF91CF910895EF92FF920F931F93E62E82
:10376000FF2400E010E08701FF24EE2490E0A0E0B9
:10377000B0E0B82FAA2799278827E80EF91E0A1F5C
:103780001B1F50E060E070E0762F652F542F442718
:10379000E40EF51E061F171FE20EF11C011D111D80
:1037A000B701C8011F910F91FF90EF900895FC01A0
:1037B000838180939C07828180939B078181809382
:1037C0009A07608160939907782F80919B07909169
:1037D0009C070895AC011092980720E012C0E22FD8
:1037E000F0E0322F3F5FDA01AE0FBF1FE60FF71F89
:1037F0009C918081981721F02093980780E008958C
:10380000232F263060F32093980781E008952F92AC
:103810003F924F925F926F927F928F929F92AF9260
:10382000BF92CF92DF92EF92FF920F931F93DF939D
:10383000CF9300D000D0CDB7DEB78C015A016B0119
:10384000DC0118962D903D904D905C901B97C20125
:10385000B10120E030E040E050E00E94F42818166A
:103860000CF097C0C601B501F80124853585468561
:1038700057850E94F0263B014C01A20191010E9454
:10388000542988230CF077C0C401B30120E030E054
:1038900040E050E00E94F42818160CF06CC0D801EB
:1038A000AD90BD90CD90DC90139714968D919D9125
:1038B0000D90BC91A02D89839A83AB83BC83C601F4
:1038C000B50129813A814B815C810E94F0267B0100
:1038D0008C01C201B101A40193010E94F026A20152
:1038E00091010E9448289B01AC0160E070E080E8F3
:1038F0009FE30E94F0269B01AC01C801B7010E9422
:103900004E279B01AC0169817A818B819C810E9449
:1039100021273B014C01C601B50129813A814B8128
:103920005C810E94F42818169CF4C401B301A6011E
:1039300095010E94F4281816ECF1C401B301298105
:103940003A814B815C810E94542987FD33C030C08D
:10395000C401B301A60195010E94542987FD2AC024
:10396000C401B30129813A814B815C810E94F42812
:10397000181604F11DC080E090E0A0E0B0E0F8016E
:1039800080879187A287B387A080B180C280D380CF
:1039900011C0D801AD90BD90CD90DC9080E090E05A
:1039A000A0E0B0E0F80180879187A287B38702C0CA
:1039B00064015301B501C6010F900F900F900F9055
:1039C000CF91DF911F910F91FF90EF90DF90CF90FB
:1039D000BF90AF909F908F907F906F905F904F902F
:1039E0003F902F900895AC0120E030E09EE112C09E
:1039F000FA01E20FF31FE0818091C00085FFFCCF48
:103A0000E093C600892F8A95F1F7892F8A95F1F7FF
:103A10002F5F3F4F2617370758F3CB010895AF921A
:103A2000BF92CF92DF92EF92FF920F931F93A090DD
:103A30008400B0908500CC24DD2480919D07909176
:103A40009E07A0919F07B091A007A80EB91ECA1E9D
:103A5000DB1E9501A60160E070E080E090E00E942E
:103A6000C82420E030E040E951E40E9448287B016E
:103A70008C016091A1077091A2078091A30790919A
:103A8000A4070E94662A20E030E040E85FE40E943C
:103A90004E2720E030E040E951E40E9448289B0195
:103AA000AC01C801B7010E9421271F910F91FF901F
:103AB000EF90DF90CF90BF90AF900895982F8091B6
:103AC000C900882369F41092CD0089E08093CC006E
:103AD00086E08093CA0088E08093C9001092C800F5
:103AE0008091C80085FFFCCF9093CE008EE18A952F
:103AF000F1F7089510929D0710929E0710929F076C
:103B00001092A007809180008C7F8093800080912C
:103B10008100887F85608093810080916F00816043
:103B200080936F000895AF92BF92CF92DF92EF9291
:103B3000FF920F931F93A0908400B0908500CC2437
:103B4000DD2480919D0790919E07A0919F07B091E1
:103B5000A007A80EB91ECA1EDB1E9501A60160E0D3
:103B600070E080E090E01F910F91FF90EF90DF9068
:103B7000CF90BF90AF9008951F920F920FB60F9203
:103B800011242F933F934F935F938F939F93AF9302
:103B9000BF9320919D0730919E0740919F075091C0
:103BA000A007DA01C90180509040AF4FBF4F80930A
:103BB0009D0790939E07A0939F07B093A00782173D
:103BC0009307A407B507F8F410929D0710929E077B
:103BD00010929F071092A007109285001092840007
:103BE0008091A1079091A207A091A307B091A4078B
:103BF0000196A11DB11D8093A1079093A207A093E8
:103C0000A307B093A407BF91AF919F918F915F914C
:103C10004F913F912F910F900FBE0F901F901895CD
:103C2000982F8091C00085FFFCCF9093C6008EE155
:103C30008A95F1F70895982F8091C900882369F437
:103C40001092CD0089E08093CC0086E08093CA007A
:103C500088E08093C9001092C8008091C80085FF59
:103C6000FCCF9093CE008EE18A95F1F70895909362
:103C7000C5008093C40086E28093C20088E98093E7
:103C8000C1001092C00008951092CD0089E0809389
:103C9000CC0086E08093CA0088E08093C90010922F
:103CA000C80008951F920F920FB60F9211242F9300
:103CB0003F934F935F936F937F938F939F93AF93B4
:103CC000BF93EF93FF93DF93CF930F92CDB7DEB700
:103CD000F8946091C6008FEA98E0AE014F5F5F4FA5
:103CE0000E94731778940F90CF91DF91FF91EF911D
:103CF000BF91AF919F918F917F916F915F914F9104
:103D00003F912F910F900FBE0F901F901895F89430
:103D10001092C50084E08093C40086E28093C200C4
:103D200088E98093C1001092C0008FEA98E065EAAC
:103D300077E02AE031E040E050E00E941D197894DD
:103D400008956FEA78E00E949824089581E08093B6
:103D5000B60308951092B6030895E82FF0E0EF70CF
:103D6000F070EA55FC4F8081089582958F70E6EAE5
:103D7000F3E0E80FF11D808108954F925F926F92FA
:103D80007F928F929F92AF92BF92CF92DF92EF92EB
:103D9000FF920F931F93CF93DF933B014C01EA01F6
:103DA0008091B603882309F440C061147104810432
:103DB0009104C1F15524A12C8AECB82E8AE9C82EB1
:103DC0008BE3D82E4424C401B301A60195010E94BF
:103DD000732D79018A01E114F1040105110511F433
:103DE000442079F08E2D805D8993C801B701A6012A
:103DF00095010E94542D661A770A880A990A44246C
:103E0000439453948AE0581679F0C601B5012AE02C
:103E100030E040E050E00E94732DC901DA015C01FE
:103E20006D01D1CF80E389931882DF91CF911F91EB
:103E30000F91FF90EF90DF90CF90BF90AF909F9049
:103E40008F907F906F905F904F900895EF92FF92C8
:103E50000F931F93DF93CF93CDB7DEB72B970FB69A
:103E6000F894DEBF0FBECDBF7B018C018091B603FD
:103E70008823E9F017FF0BC010950095F094E094AB
:103E8000E11CF11C011D111D8DE20E945E1DC80187
:103E9000B7018E010F5F1F4FA8010E94BD1E02C017
:103EA0000E945E1DF80181918F018823C9F72B962E
:103EB0000FB6F894DEBF0FBECDBFCF91DF911F913B
:103EC0000F91FF90EF9008950F931F93DF93CF937F
:103ED000CDB7DEB72B970FB6F894DEBF0FBECDBFC0
:103EE0009B01AC018091B603882381F0CA01B9011E
:103EF0008E010F5F1F4FA8010E94BD1E02C00E94CD
:103F00005E1DF80181918F018823C9F72B960FB6AA
:103F1000F894DEBF0FBECDBFCF91DF911F910F91FF
:103F20000895AF92BF92CF92DF92EF92FF920F93DC
:103F30001F935B016C018091B603882309F444C090
:103F4000C601B5010E94122A7B018C01C8010E94A2
:103F5000261F8EE20E945E1DC601B50120E030E002
:103F60004AE754E40E944E270E94122A5B016C012A
:103F7000B701C80128EE33E040E050E00E94542D24
:103F8000A61AB70AC80AD90AD7FE08C0D094C094A6
:103F9000B094A094A11CB11CC11CD11C84E6A8162D
:103FA000B104C104D10464F480E30E945E1D8AE080
:103FB000A816B104C104D1041CF480E30E945E1D64
:103FC000C601B5010E94641F1F910F91FF90EF90F1
:103FD000DF90CF90BF90AF900895CF93DF939C0177
:103FE0008091B603882339F0E90102C00E945E1D6A
:103FF00089918823D9F7DF91CF910895982F8091E7
:10400000B603882319F0892F0E945E1D0895CF9270
:10401000DF92EF92FF920F931F93CF93DF936C0188
:104020008B0187EB93E00E94ED1FB80180E090E0E8
:104030000E94641F8FE993E00E94ED1FC0E0D0E072
:1040400078010894E108F10810C0F601EC0FFD1F9B
:10405000608170E080E090E00E94641FCE15DF0573
:1040600018F48CE20E94FE1F2196C017D10768F356
:1040700082EA93E00E94ED1FDF91CF911F910F9193
:10408000FF90EF90DF90CF9008950F931F93CF9301
:10409000DF93182F092F8091C208882329F481E02B
:1040A0008093C2080E94441E8091B603882381F049
:1040B0008AE00E945E1D8DE00E945E1D812F902F80
:1040C0009C01E90102C00E945E1D89918823D9F7F5
:1040D000DF91CF911F910F910895CF92DF92EF92D0
:1040E000FF920F931F93CF93DF937C018091B603D0
:1040F000882309F4F4C086EC93E00E944520F70180
:104100001185155F8BE50E94FE1FC0E0D0E0012FF6
:1041100010E068010894C108D10810C0F701EC0F45
:10412000FD1F608170E080E090E00E94641FCC156C
:10413000DD051CF48CE20E94FE1F2196C017D107FA
:104140006CF38DE50E94FE1F82ED93E00E944520F6
:10415000F701608170E080E090E00E94641F8FEDC5
:1041600093E00E94452067018701C0E0D0E0F8019C
:10417000618170E080E090E00E94641FC530D1054D
:1041800019F08AE30E94FE1F21960F5F1F4FC63071
:10419000D10569F789EE93E00E944520F7018781F8
:1041A000803169F0813118F4882331F013C08032F6
:1041B00059F0803379F40BC085EF93E002C08CEFA7
:1041C00093E00E94ED1F11C080E094E0FACF86E0FA
:1041D00094E0F7CF8FE094E00E944520F7016781DB
:1041E00070E080E090E00E94641F87E194E00E940C
:1041F0004520F701608570E080E090E06F77707097
:10420000807090700E94641FF701808590E08F7726
:104210009070892B19F485E294E002C083E394E066
:104220000E94ED1F82E494E00E944520F701618521
:1042300070E080E090E00E94641F81E594E00E94BD
:104240004520F701628570E080E090E00E94641FE5
:10425000F70181858430A0F080E694E00E9445203B
:10426000F70183850E94FE1FF70184850E94FE1FCF
:10427000F70185850E94FE1FF70186850E94FE1FBB
:10428000F7011185153018F114508EE694E00E9464
:104290004520C0E0D0E0012F10E078010894E1084B
:1042A000F10811C0F601678570E080E090E00E949F
:1042B000641FCE15DF051CF48CE20E94FE1F2196C0
:1042C0000894C11CD11CC017D10764F304C089E74E
:1042D00094E00E94452084EA93E00E944520DF910B
:1042E000CF911F910F91FF90EF90DF90CF900895A5
:1042F00061157105F1F0803261F0803391F0803109
:10430000C1F481E08093F3097093F5096093F40997
:10431000089581E0809395097093970960939609B9
:10432000089581E0809337097093390960933809C3
:10433000089580E00895CF92DF92EF92FF920F935D
:104340001F93CF93DF938C01EB017881772339F1B1
:1043500060E023C0862F90E0FC01EE0FFF1FE80F06
:10436000F91FEE0FFF1FEC0FFD1F218132814381EA
:104370005481D8011B96CD90DD90ED90FC901E9756
:104380002C153D054E055F0539F40580F681E02DBD
:10439000C801099581E004C06F5F6717D8F280E01B
:1043A000DF91CF911F910F91FF90EF90DF90CF9011
:1043B00008959091C308292F30E0F901EE0FFF1FF7
:1043C000E20FF31FED53F74F8183738362839F5F87
:1043D0009093C3080895CF93DF93EC011092F609F0
:1043E0006CED78E00E949B21813091F0809137093B
:1043F000882371F0E0913809F0913909CE010995CF
:10440000882331F4CE016091F60943E00E94601BDD
:10441000DF91CF910895CF93DF93EC011092F609CD
:104420006AE379E00E949B21813091F080919509A7
:10443000882371F0E0919609F0919709CE010995D2
:10444000882331F4CE016091F60942E00E94601B9E
:10445000DF91CF91089560E040E00E94601B0895D5
:104460000F931F93DF93CF9300D00F92CDB7DEB79A
:104470008C011092F609FC0183859485A585B6858B
:104480008F35F0E79F07FEE6AF07F7E6BF0739F085
:104490008F559E46AD46B34709F056C00FC080E227
:1044A000F801878382E894E00E94D71BF8016387B4
:1044B00074878587968784E081875FC0F80181854E
:1044C000843041F485E0818780E287838091C3084E
:1044D000878753C08530A1F5F80197858091C3087F
:1044E000981750F584E0818780E28783892F90E0D8
:1044F000FC01EE0FFF1FE80FF91FDE011196EC53D0
:10450000F74F83E001900D928150E1F72A813B81C2
:1045100090E009C0A00FB11F1F96EC93F8018185B0
:104520008F5F81879F5FA92FB0E0F901EA0FFB1F22
:10453000E081EE2379F721C0C80160E045E01BC0AF
:10454000C80160E044E017C0C80168E979E00E9452
:104550009B21813091F08091F309882371F0E091E3
:10456000F409F091F509C8010995882331F4C801CF
:104570006091F60941E00E94601B0F900F900F9030
:10458000CF91DF911F910F910895EF92FF920F93BA
:104590001F93CF93DF937B01EA0108810F3011F461
:1045A00080E016C010E00E94D71BF801EE0FFF1F3D
:1045B000E00FF11FEE0FFF1FEC0FFD1F61837283F1
:1045C00083839483F682E58288818F5F888381E08C
:1045D000DF91CF911F910F91FF90EF9008954115BA
:1045E0005105B9F0803249F0803361F0803189F4AF
:1045F000CB01BA0148E959E009C0CB01BA014AE34D
:1046000059E004C0CB01BA014CED58E00E94C5222C
:10461000089580E00895CF93DF93EC018F8180317E
:1046200071F0813118F4882331F015C0803259F0CF
:10463000803389F40CC0CE0160E040E00FC0CE01B1
:104640000E9430220DC0CE010E940B2209C0CE0173
:104650000E94EB2105C0CE0160E04FE70E94601B85
:1046600080E888870E940F1D6093F7097093F8090E
:104670008093F9099093FA09DF91CF910895EF9211
:10468000FF920F931F93E090F709F090F8090091C3
:10469000F9091091FA090E940F1D9B01AC01C80194
:1046A000B7010E94F428181664F480E090E0A0E0BE
:1046B000B0E08093F7099093F809A093F909B093BB
:1046C000FA092091F7093091F8094091F9095091C0
:1046D000FA09B901CA011F910F91FF90EF90089557
:1046E000FC0180918803818380918903828380917A
:1046F0008A03838380918B03848380918C038583D9
:1047000080918D03868383E08083CF010E94291BE3
:1047100008950F931F938C01FC018085806880872A
:10472000C8010E947023C8010E94881BBC01C801F7
:104730000E94F31C1F910F9108950F931F93FC018A
:104740008B01CA0120E030E0BF01A90198010E945D
:104750005D18CB011F910F9108950E946D17CB0139
:104760000895AF92BF92CF92DF92EF92FF920F9394
:104770001F93DF93CF930F92CDB7DEB78C017B01F0
:104780005C016E010894C11CD11CC50141E050E0E0
:1047900060E070E097010E94BC18F80180818330CE
:1047A000A9F0F894C701B60121E030E040E050E004
:1047B0000E945D18789487E894E00E944520F801F3
:1047C000608170E080E090E00E94641FC7010E9459
:1047D0006D17672B21F0F80180818330B1F60F90BF
:1047E000CF91DF911F910F91FF90EF90DF90CF90CD
:1047F000BF90AF9008958F929F92BF92CF92DF9219
:10480000EF92FF920F931F93DF93CF930F92CDB749
:10481000DEB78C017B01CB010E946D17672B09F479
:1048200075C0C801B7010E94B123C7010E946D176E
:104830006F30710508F46AC0C02EB12EC8014BE07C
:1048400050E060E070E097010E94BC184E010894AF
:10485000811C911CF8018081833041F4C8010E94C1
:10486000111B882319F0DD24D3942BC0F80180811B
:10487000833019F081EA94E007C0C8010E94111B3F
:10488000882321F484EB94E00E944520F8016081A4
:1048900070E080E090E00E94641FF894C701B401CA
:1048A00021E030E040E050E00E945D1878948C2DCB
:1048B0009B2D4BE050E060E070E097010E94BC1837
:1048C000DD24C7010E946D17672B29F4C801B701C9
:1048D0000E94B1231BC0DD2009F4BCCFF801818503
:1048E000082F10E0055F1F4FC7010E946D1760176A
:1048F000710760F0F894980140E050E0C7016C2D1A
:104900007B2D0E945D18789481E001C080E00F90BB
:10491000CF91DF911F910F91FF90EF90DF90CF909B
:10492000BF909F908F90089541E00E94FB230895CF
:1049300040E00E94FB230895EF92FF920F931F9394
:104940007B018C0120E030E040E05FE40E942429FC
:1049500088238CF0C801B70120E030E040E05FE43C
:104960000E94F0260E94122A9B01AC012050304088
:104970004040504806C0C801B7010E94122A9B015E
:10498000AC01B901CA011F910F91FF90EF900895FA
:10499000A2E0B0E0EEECF4E20C94952D122FB32ED1
:1049A000A42E952E862E372E282E9A83C22ED32EF5
:1049B000E42EF52EA701960160E070E080E090E023
:1049C0002117A1F43B1591F44A1581F4591571F49E
:1049D000681561F4731551F4821541F4AA819A1790
:1049E00029F4C701B6010E94662AAAC0212F3B2DD7
:1049F0004A2D592D682D732D822D9A8100E20E9437
:104A0000DF2AC901DA018030E0E09E07E1E0AE076D
:104A1000E0E0BE0780F48F3F9105A105B10531F0BC
:104A200028F028E030E040E050E016C020E030E020
:104A300040E050E011C08030F0E09F07F0E0AF07A9
:104A4000F1E0BF0728F028E130E040E050E004C08A
:104A500020E130E040E050E0022E04C0B695A7957A
:104A6000979587950A94D2F7FC01E253FB4F80811A
:104A700029013A01480E511C611C711C4982212FE9
:104A80003B2D4A2D592D682D732D822D9A81042D91
:104A90000E94DF2AC901DA014C015D0180E290E049
:104AA0008419950904C0CC0CDD1CEE1CFF1C8A95F2
:104AB000D2F7C114D104E104F10441F081E090E0A7
:104AC000A0E0B0E0882A992AAA2ABB2A90E24916D7
:104AD00051046104710459F40F2EF0E0EF2EF0E060
:104AE000FF2EF0E80F2FFFE41F2FF02D21C0AFE1C4
:104AF0004A1651046104710459F40F2EF0E0EF2EB0
:104B0000F0E0FF2EF0E00F2FFFE41F2FF02D10C07C
:104B100061E070E080E090E0098004C0660F771FDC
:104B2000881F991F0A94D2F70E94B4297B018C0137
:104B3000C501B4010E94662AA80197010E944E2770
:104B40002296E2E10C94B12DA0E0B0E0EAEAF5E2B1
:104B50000C94952DDC012B01FA019C91923008F404
:104B600039C1EB018881823008F433C1943069F493
:104B7000843009F02FC111969C9111978981981763
:104B800009F428C1A6ECB4E025C1843009F421C1A0
:104B90008230A9F4923009F01DC19A01AD0188E07C
:104BA000EA010990AE01E90109929E018150C1F725
:104BB000E201898111969C918923818308C19230F9
:104BC00009F407C112962D903C901397EB018A814E
:104BD0009B811496AD90BD90CD90DC901797EC80A2
:104BE000FD800E811F819101281B390BB90137FF10
:104BF00004C066277727621B730B603271050CF0C7
:104C000061C0121613066CF537014801062E04C068
:104C100096948794779467940A94D2F721E030E0D1
:104C200040E050E004C0220F331F441F551F6A9517
:104C3000D2F721503040404050402E213F214023A8
:104C40005123211531054105510521F021E030E0C6
:104C500040E050E079018A01E628F728082919295F
:104C60003CC0232BD1F1260E371E35014601062EFE
:104C700004C096948794779467940A94D2F721E0BD
:104C800030E040E050E004C0220F331F441F551FA6
:104C90006A95D2F721503040404050402A213B21B4
:104CA0004C215D21211531054105510521F021E0FF
:104CB00030E040E050E059016A01A628B728C82832
:104CC000D9280BC0821593052CF01C01AA24BB2403
:104CD000650103C0EE24FF24870111969C91D20147
:104CE00011968C91981709F445C0992339F0A801C1
:104CF00097012A193B094C095D0906C0A6019501D7
:104D00002E193F09400B510B57FD08C01182338209
:104D1000228224833583468357831DC081E08183AB
:104D20003382228288279927DC01821B930BA40BF4
:104D3000B50B84839583A683B7830DC0220F331FE1
:104D4000441F551F24833583468357838281938173
:104D50000197938382832481358146815781DA01CB
:104D6000C9010197A109B1098F5F9F4FAF4FBF43A1
:104D700028F30BC0918333822282EA0CFB1C0C1DAA
:104D80001D1DE482F5820683178383E080832481DE
:104D900035814681578157FF1AC0C901AA2797FD5F
:104DA000A095BA2F81709070A070B07056954795FD
:104DB00037952795822B932BA42BB52B8483958332
:104DC000A683B78382819381019693838283DF01D7
:104DD00001C0D201CD01CDB7DEB7E2E10C94B12D17
:104DE000A0E2B0E0E6EFF6E20C94A12D69837A83AD
:104DF0008B839C832D833E834F835887E9E0EE2E7F
:104E0000F12CEC0EFD1ECE010196B7010E94832C01
:104E10008E010F5E1F4FCE010596B8010E94832CB4
:104E20008A8991E089278A8BC701B801AE01475E64
:104E30005F4F0E94A4250E94AD2BA096E6E00C9443
:104E4000BD2DA0E2B0E0E7E2F7E20C94A12D69836A
:104E50007A838B839C832D833E834F835887F9E02D
:104E6000EF2EF12CEC0EFD1ECE010196B7010E9433
:104E7000832C8E010F5E1F4FCE010596B8010E9454
:104E8000832CC701B801AE01475E5F4F0E94A42585
:104E90000E94AD2BA096E6E00C94BD2DA0E2B0E000
:104EA000E4E5F7E20C94952D69837A838B839C83E8
:104EB0002D833E834F835887CE010196BE01675FE5
:104EC0007F4F0E94832CCE010596BE016F5E7F4FFF
:104ED0000E94832C9985923088F089898230C8F0AD
:104EE000943019F4823051F404C0843029F49230A3
:104EF00081F486EC94E0C6C0923049F420E09A85B3
:104F00008A89981321E02A87CE010996BBC0823096
:104F100049F420E09A858A89981321E02A8BCE01F2
:104F20004196B0C02D843E844F8458886D887E8819
:104F30008F88988CEE24FF248701AA24BB24650166
:104F400040E050E060E070E0E0E0F0E0C10181703E
:104F50009070892BE9F0E60CF71C081D191D9A01C9
:104F6000AB012A0D3B1D4C1D5D1D80E090E0A0E0D3
:104F7000B0E0E614F7040805190520F481E090E09C
:104F8000A0E0B0E0BA01A901480F591F6A1F7B1FBA
:104F9000AA0CBB1CCC1CDD1C97FE08C081E090E075
:104FA000A0E0B0E0A82AB92ACA2ADB2A3196E0326A
:104FB000F10549F0660C771C881C991C569447949F
:104FC00037942794C3CFFA85EA892B893C898B854E
:104FD0009C85280F391F2E5F3F4F17C0CA01817073
:104FE0009070892B61F016950795F794E79480E00F
:104FF00090E0A0E0B0E8E82AF92A0A2B1B2B76956E
:105000006795579547952F5F3F4F77FDE7CF0CC0CA
:10501000440F551F661F771F17FD4160EE0CFF1CE4
:10502000001F111F21503040403090E0590790E0A0
:10503000690790E4790760F32B8F3C8FDB01CA018D
:105040008F779070A070B07080349105A105B10584
:1050500061F447FD0AC0E114F1040105110529F0CE
:10506000405C5F4F6F4F7F4F40781A8EFE1711F0F4
:1050700081E08A8F4D8F5E8F6F8F78A383E0898F59
:10508000CE0149960E94AD2BA096E2E10C94B12D81
:10509000A8E1B0E0EEE4F8E20C949D2D69837A83F8
:1050A0008B839C832D833E834F835887B9E0EB2EFF
:1050B000F12CEC0EFD1ECE010196B7010E94832C4F
:1050C0008E010F5E1F4FCE010596B8010E94832C02
:1050D0002985223008F47EC03989323010F4B801B5
:1050E0007CC08A859A8989278A87243011F02230EA
:1050F00031F4231709F06EC066EC74E06EC03430F2
:1051000039F41D861E861F86188A1C861B8604C0DD
:10511000323021F484E08987B7015FC02B853C855C
:105120008B899C89281B390B3C872B87ED84FE8457
:105130000F851889AD88BE88CF88D88CEA14FB0407
:105140000C051D0540F4EE0CFF1C001F111F215023
:1051500030403C872B8720E030E040E050E080E0AA
:1051600090E0A0E0B0E460E070E0EA14FB040C051D
:105170001D0540F0282B392B4A2B5B2BEA18FB0826
:105180000C091D09B695A79597958795EE0CFF1C00
:10519000001F111F6F5F7F4F6F31710531F7DA010B
:1051A000C9018F779070A070B07080349105A1050F
:1051B000B10561F427FD0AC0E114F10401051105F0
:1051C00029F0205C3F4F4F4F5F4F20782D873E875F
:1051D0004F87588BBE01675F7F4FCB010E94AD2B7D
:1051E0006896EAE00C94B92DA8E1B0E0EAEFF8E2A5
:1051F0000C94A12D69837A838B839C832D833E83BA
:105200004F83588789E0E82EF12CEC0EFD1ECE016D
:105210000196B7010E94832C8E010F5E1F4FCE01B5
:105220000596B8010E94832C8985823040F08989D7
:10523000823028F0C701B8010E94FB2C01C08FEF1B
:105240006896E6E00C94BD2DA8E1B0E0EAE2F9E250
:105250000C94A12D69837A838B839C832D833E8359
:105260004F83588789E0E82EF12CEC0EFD1ECE010D
:105270000196B7010E94832C8E010F5E1F4FCE0155
:105280000596B8010E94832C8985823040F0898977
:10529000823028F0C701B8010E94FB2C01C08FEFBB
:1052A0006896E6E00C94BD2DA8E1B0E0EAE5F9E2ED
:1052B0000C94A12D69837A838B839C832D833E83F9
:1052C0004F83588789E0E82EF12CEC0EFD1ECE01AD
:1052D0000196B7010E94832C8E010F5E1F4FCE01F5
:1052E0000596B8010E94832C8985823040F0898917
:1052F000823028F0C701B8010E94FB2C01C081E078
:105300006896E6E00C94BD2DA8E1B0E0EAE8F9E289
:105310000C94A12D69837A838B839C832D833E8398
:105320004F83588789E0E82EF12CEC0EFD1ECE014C
:105330000196B7010E94832C8E010F5E1F4FCE0194
:105340000596B8010E94832C8985823040F08989B6
:10535000823028F0C701B8010E94FB2C01C081E017
:105360006896E6E00C94BD2DA8E0B0E0EAEBF9E227
:105370000C949E2D9B01AC0183E08983DA01C90165
:105380008827B7FD83959927AA27BB27B82E211513
:1053900031054105510519F482E089833AC088231B
:1053A000A9F0203080E0380780E0480780E85807FF
:1053B00029F460E070E080E09FEC30C0EE24FF2430
:1053C0008701E21AF30A040B150B02C079018A0166
:1053D0008EE1C82ED12CDC82CB82ED82FE820F833F
:1053E0001887C801B7010E945E2B0197181619068D
:1053F00084F4082E04C0EE0CFF1C001F111F0A9439
:10540000D2F7ED82FE820F831887C81AD90ADC8290
:10541000CB82BA82CE0101960E94AD2B2896E9E09C
:105420000C94BA2DACE0B0E0E8E1FAE20C94A52DC2
:1054300069837A838B839C83CE010196BE016B5F67
:105440007F4F0E94832C8D81823061F1823050F138
:10545000843021F48E81882351F12EC02F8138852C
:1054600037FD20C06E812F3131051CF06623F9F025
:1054700023C08EE190E0821B930B29853A854B85F2
:105480005C8504C056954795379527958A95D2F740
:105490006623B1F050954095309521953F4F4F4F81
:1054A0005F4F0EC020E030E040E050E009C02FEF39
:1054B0003FEF4FEF5FE704C020E030E040E050E80E
:1054C000B901CA012C96E2E00C94C12DA8E0B0E02D
:1054D000ECE6FAE20C949D2D7B018C0161157105BF
:1054E0008105910519F482E0898360C083E0898396
:1054F0008EE1C82ED12CDC82CB82ED82FE820F831E
:105500001887C801B7010E945E2BFC013197F7FF95
:105510003BC0222733272E1B3F0B57016801022E69
:1055200004C0D694C794B794A7940A94D2F740E0E5
:1055300050E060E070E081E090E0A0E0B0E004C006
:10554000880F991FAA1FBB1F2A95D2F70197A1099F
:10555000B1098E219F21A023B1230097A105B10598
:1055600021F041E050E060E070E04A295B296C29BD
:105570007D294D835E836F8378878EE190E08E1B5B
:105580009F0B9C838B8312C0309781F00E2E04C03A
:10559000EE0CFF1C001F111F0A94D2F7ED82FE8251
:1055A0000F831887CE1ADF0ADC82CB821A82CE01E3
:1055B00001960E94AD2B2896EAE00C94B92DEF924B
:1055C000FF920F93DF93CF93CDB7DEB760970FB6FF
:1055D000F894DEBF0FBECDBFA82F002309F461C031
:1055E0007E010894E11CF11C88E0F70111928A9574
:1055F000E9F729833A834B835C836D837E83AF8392
:10560000988780E2801BE82FFF27E7FDF0954D810A
:105610005E816F817885181684F01D861E861F8630
:10562000188A882799278E1B9F0B04C0769567954B
:10563000579547958A95D2F728C0202F332727FD05
:105640003095DB01CA01022E04C0B695A795979547
:1056500087950A94D2F78D879E87AF87B88B04C051
:10566000440F551F661F771FEA95D2F789819A81EB
:10567000AB81BC8104C0B695A795979587952A956F
:10568000D2F7482B592B6A2B7B2B49875A876B877C
:105690007C8729853A854B855C856D857E85AF85C0
:1056A00098898A2F60960FB6F894DEBF0FBECDBFE3
:1056B000CF91DF910F91FF90EF900895EF92FF92BD
:1056C0000F931F937B018C0180E0E81680E0F806C1
:1056D00081E0080780E0180788F48FEFE816F104EE
:1056E0000105110531F028F088E090E0A0E0B0E07D
:1056F00017C080E090E0A0E0B0E012C080E0E816C3
:1057000080E0F80680E0080781E0180728F088E1CB
:1057100090E0A0E0B0E004C080E190E0A0E0B0E064
:1057200020E230E040E050E0281B390B4A0B5B0BD5
:1057300004C016950795F794E7948A95D2F7F70178
:10574000E253FB4F8081281B310941095109C901EE
:105750001F910F91FF90EF900895DF92EF92FF92CB
:105760000F931F93FC01E480F58006811781D1809F
:105770008081823058F480E090E0A0E1B0E0E82A37
:10578000F92A0A2B1B2BEFEFF0E0A6C0843009F4B6
:105790009EC0823019F4E0E0F0E09BC0E114F10417
:1057A0000105110519F4E0E0F0E096C06281738113
:1057B0009FEF623879070CF05BC022E83FEF261BB1
:1057C000370B2A3131052CF020E030E040E050E08A
:1057D0002AC0B801A701022E04C076956795579597
:1057E00047950A94D2F781E090E0A0E0B0E004C0D1
:1057F000880F991FAA1FBB1F2A95D2F70197A109ED
:10580000B1098E219F21A023B1230097A105B105E5
:1058100021F081E090E0A0E0B0E09A01AB01282BFC
:10582000392B4A2B5B2BDA01C9018F779070A0705E
:10583000B07080349105A105B10539F427FF09C086
:10584000205C3F4F4F4F5F4F04C0215C3F4F4F4F95
:105850005F4FE0E0F0E02030A0E03A07A0E04A0728
:10586000A0E45A0710F0E1E0F0E079018A0127C0D6
:105870006038710564F5FB01E158FF4FD801C7019D
:105880008F779070A070B07080349105A105B1053C
:1058900039F4E7FE0DC080E490E0A0E0B0E004C081
:1058A0008FE390E0A0E0B0E0E80EF91E0A1F1B1F96
:1058B00017FF05C016950795F794E794319687E092
:1058C00016950795F794E7948A95D1F705C0EFEF01
:1058D000F0E0EE24FF2487016E2F67956627679519
:1058E000902F9F77D794DD24D7948E2F8695492FBC
:1058F000462B582F5D29B701CA011F910F91FF90C8
:10590000EF90DF900895FC01DB01408151812281FD
:10591000622F6F7770E0221F2227221F9381892F29
:10592000880F822B282F30E0991F9927991F1196F5
:105930009C93119721153105A9F541155105610574
:10594000710511F482E037C082E89FEF13969C93B3
:105950008E9312979A01AB0167E0220F331F441F09
:10596000551F6A95D1F783E08C930DC0220F331F2A
:10597000441F551F12968D919C9113970197139672
:105980009C938E931297203080E0380780E0480780
:1059900080E4580758F314962D933D934D935C93F0
:1059A000179708952F3F310579F441155105610589
:1059B000710519F484E08C93089564FF03C081E0BD
:1059C0008C9312C01C9210C02F57304013963C93FA
:1059D0002E93129783E08C9387E0440F551F661F28
:1059E000771F8A95D1F7706414964D935D936D93EC
:1059F0007C93179708951F93DC01FB019C919230D3
:105A000008F447C08081823008F443C0943051F4D8
:105A100011961C91843099F58181682F70E0611B8B
:105A200071093FC0843021F0923031F48230B9F1F5
:105A30008181882389F12DC011961C9111978230A4
:105A4000F1F081811817D9F412962D913C9113979A
:105A5000828193818217930794F028173907BCF04D
:105A600014968D919D910D90BC91A02D248135812E
:105A700046815781281739074A075B0718F4112315
:105A800041F00AC082179307A407B50740F4112319
:105A900019F061E070E005C06FEF7FEF02C060E0D9
:105AA00070E0CB011F910895629FD001739FF001B8
:105AB000829FE00DF11D649FE00DF11D929FF00D9E
:105AC000839FF00D749FF00D659FF00D9927729FD5
:105AD000B00DE11DF91F639FB00DE11DF91FBD0160
