:100000000C94CD000C94EA000C94EA000C94EA00E5
:100010000C94EA000C94EA000C94EA000C94EA00B8
:100020000C94EA000C94EA000C94EA000C94EA00A8
:100030000C94EA000C94EA000C94EA000C94A91CBD
:100040000C94EA000C94EA000C94EA000C94EA0088
:100050000C94281D0C94EA000C94EA000C94EA001D
:100060000C94EA000C94EA000C94EA000C94EA0068
:100070000C94260E0C94EA000C94EA002C022F0239
:100080003202350238023B023E024102440247027C
:100090004A024D02500270025302560259025C029B
:1000A0005F026202680265026B02110814081708F9
:1000B0001A08200823082A082D08300833083608B3
:1000C00039083C083F08420845084B0852085908BF
:1000D0005C08610867086C08700884088B0894083D
:1000E0009C08A408AB08B408BC08C608CB08D10813
:1000F000D808E008E708EF08F80802090E091C090B
:1001000024092B0933093A09430959096009690986
:10011000710979098009890991099B09A009A60932
:10012000AD09B509BC09C409CD09D709E309F1092D
:10013000F909000A080A0F0A180A360F3C0F420F85
:10014000480F4E0F540F5A0F600F660F6C0F720F4F
:10015000780F7E0F840F8A0F900F960F9C0FA20FBF
:10016000A80FAE0FB40FBA0FC00FDA0FE40FEE0FE7
:10017000F80F02100C10161020102A1034103E1028
:10018000481052105C10661070107A1084108E1097
:100190009810A210AC10B610C01011241FBECFEFE3
:1001A000D0E1DEBFCDBF15E0A0E0B1E0ECE2F9E5C3
:1001B00002C005900D92AC3DB107D9F71BE0ACED44
:1001C000B5E001C01D92A33DB107E1F70E94EC002C
:1001D0000C94942C0C9400000E94F70080E090E0B6
:1001E00008958CED95E060E00E94A01908954F926B
:1001F0005F926F927F928F929F92AF92BF92CF92B7
:10020000DF92EF92FF920F931F93DF93CF93CDB7BF
:10021000DEB728970FB6F894DEBF0FBECDBF0E94A1
:1002200096190E94631480E090E0DC0189839A8330
:10023000AB83BC8380E090E0A0EFB1E48D839E832C
:10024000AF83B8874E010894811C911C2C013D019D
:100250000E94BE0E8091260086FF06C00E94CB1031
:10026000882311F00E94F1000E94F1008091260085
:1002700086FF44C0C4010E94141920E030E0A901A7
:100280000E94D72718162CF40E948C128823B1F1F3
:1002900033C00E94181C7B018C01A980BA80CB80DE
:1002A000DC80C601B50120E030E0A9010E940728EA
:1002B00087FD08C0C601B501A80197010E94672803
:1002C0001816E4F480E091E00E94BD1D69817A81F6
:1002D0008B819C810E9420208AE191E00E94F21D86
:1002E000C801B7010E9420204D825E826F8278860D
:1002F000E982FA820B831C830E94F1000E94F100C4
:10030000A7CFCF93DF93EC018F850E947C028850AA
:10031000823038F47A896B89898998890E94F80D2E
:1003200001C080E0DF91CF91089580E090E0FC0172
:10033000E75CF54F2081227020830196883191057A
:10034000B1F74091390A20913A0A90913B0A6091A5
:100350003D0A50913E0A30913F0A8091400A6468FC
:1003600060933D0A546850933E0A346830933F0AC4
:1003700084688093400A6091410A5091420A30910A
:10038000430A8091440A61686093410A516850931E
:10039000420A31683093430A81688093440A80910D
:1003A000450A81608093450A8091460A8160809366
:1003B000460A8091470A81608093470A8091480AE3
:1003C00081608093480A3091490A70914A0A80916D
:1003D0003C0A40674093390A206720933A0A9067A5
:1003E00090933B0A806680933C0A60914C0A50913E
:1003F0004E0A4091500A20914B0A90914D0A8091EB
:100400004F0A786670934A0A606660934C0A506699
:1004100050934E0A40664093500A38663093490A1A
:10042000206620934B0A906690934D0A80668093D5
:100430004F0A08951F93182FE82FF0E0EF77F07020
:10044000E731F10508F04CC0E25CFF4FEE0FFF1FF3
:100450000590F491E02D09948FE191E03EC089E28E
:1004600091E03BC088E391E038C08EE391E035C075
:1004700084E491E032C081E591E02FC08FE591E006
:100480002CC083E691E029C089E691E026C081E78F
:1004900091E023C089E791E020C082E891E01DC08F
:1004A0008BE891E01AC083E991E017C085EA91E0FA
:1004B00014C087EB91E011C08AEC91E00EC08DED85
:1004C00091E00BC080EF91E008C084E092E005C0AD
:1004D00084E192E002C084E292E00E94F21D0AC030
:1004E0008EE292E00E94F21D612F70E080E090E0C9
:1004F0000E94AF1E1F9108950E942F078F770895C5
:100500000F931F93DF93CF9300D0CDB7DEB7182F93
:10051000062F2A8349830E946205812F4981642F17
:100520000E944B09812F2A81622F0E947608812F19
:10053000602F0E94B9070F900F90CF91DF911F910C
:100540000F9108951F93DF93CF930F92CDB7DEB72E
:10055000182F69830E9462056981662309F449C0E6
:10056000262F30E02F7730702A303105E4F4283020
:1005700031056CF52330310509F46EC024303105A6
:100580002CF42130310509F06DC01DC02630310535
:1005900009F450C0273031050CF057C02430310524
:1005A00009F060C03EC0243131054CF42E303105D5
:1005B0000CF058C02D3031050CF054C01CC0263151
:1005C0003105E4F14FC0812F0E94620512C0105125
:1005D000123008F04BC080E168E041E021E00E9469
:1005E000800281E169E040E021E00E9480020E94F7
:1005F000FB0D91E03CC0E12FF0E0E75CF54F80811E
:1006000084FF34C080E06CE040E021E00E94800282
:1006100081E06BE040E021E00E94800282E06AE03D
:1006200022C0812F40E020E00E948002812F0E94A2
:100630009A0507C0812F0E94E80A03C0812F0E94FB
:10064000D90691E0882399F411C0812F69830E9413
:10065000150B812F698101C0812F41E020E00E94AC
:100660008002C7CF812F40E021E0F9CF90E0892FB1
:100670000F90CF91DF911F9108951F93CF93DF9338
:10068000EC012F9610E06991812F0E94A20288232D
:1006900029F01F5F1831B9F781E001C080E0DF91D8
:1006A000CF911F910895FC018785608991859730CE
:1006B00018F09189911160680E94A20208951F9319
:1006C000CF93DF93C0E0D0E01C2F8C2F60E00E941E
:1006D0004B098C2F60E00E947608CE010E94A10792
:1006E000682F8C2F0E94BB0ACE010E94A107682FA1
:1006F0008C2F20E030E0A9010E948B0B8C2F0E94F0
:100700002F0782508D3F20F08C2F62E00E94B907A6
:10071000812F0E942F07682F812F0E94A20221960D
:10072000C831D10589F6DF91CF911F9108951F93AC
:10073000182F0E942F07813860F4812F0E947C02BD
:1007400089508B3040F4E82FF0E0EA5CFD4F808167
:1007500003C081E001C080E01F9108951F93DF93E3
:10076000CF930F92CDB7DEB7182F69830E947C021A
:1007700086506981823030F4812F90E00E949A0780
:1007800081E001C080E00F90CF91DF911F9108952B
:100790001F93182F0E947C028730D1F0883050F4CC
:1007A000843021F1853018F4823028F10DC0863074
:1007B00011F512C0833141F0843118F48031D9F43D
:1007C00003C08631C0F40CC0812F0E9403080BC007
:1007D000812F0E94000C07C0812F0E94070B03C0CD
:1007E000812F0E948B06282F30E007C0812F0E94A6
:1007F00036069C0102C021E030E0C9011F91089536
:10080000FF920F931F93CF93DF93EC011F85812FEE
:100810000E947C02082F812F0E94C803F82E812F8E
:100820000E949703882311F00E94240F80E28F8397
:10083000802F8451823060F0033051F0063041F057
:10084000073031F0023021F0033111F0003119F49A
:10085000F88A86E008C0043041F4812F0E943606F1
:10086000988B898B87E0898723C008500230F0F489
:1008700085E089870E94630E8C010097C9F0CE0144
:100880000F96B8010E94590EF8013F96EC0FFD1F1C
:1008900080E090E022912183019680179107D1F7A3
:1008A00021E12F872985280F298702C080E001C018
:1008B00081E0DF91CF911F910F91FF900895982FC4
:1008C000833069F0873059F0863049F0823039F052
:1008D000843139F081E0953129F080E0089581E09C
:1008E000089581E00895DF92EF92FF920F931F9396
:1008F000DF93CF930F92CDB7DEB7D82E7801890161
:1009000049830E947C0269818630B1F0873020F4EF
:1009100082508230D0F406C0873041F0845182305A
:10092000A0F40FC08D2D0E94760809C08D2DA8015E
:1009300097010E948B0B03C08D2D0E94BB0A81E0A2
:1009400005C08D2D0E949F06FACF80E00F90CF91B9
:10095000DF911F910F91FF90EF90DF900895BF926C
:10096000CF92DF92EF92FF920F931F93CF93DF937B
:10097000EC01BF848B2D0E947C02182F0E945F0423
:100980008823E9F0C8888985873018F079896A89D1
:1009900002C060E070E0DD24EE24FF2480E090E0FF
:1009A0000E9449298B019C018B2DB701A6010E9451
:1009B0007304CE0160E840E00E94D61A10C01530E2
:1009C00081F01850123068F419851550609600E0D7
:1009D00004C089910E94891D0F5F0117D0F381E047
:1009E00001C080E0DF91CF911F910F91FF90EF90B8
:1009F000DF90CF90BF9008957F928F929F92AF9299
:100A0000BF92CF92DF92EF92FF920F931F93CF93FB
:100A1000DF93EC01BF84988889887A88FF24DB887B
:100A2000EC88CD88AE888F2D0E947C020E945F04E6
:100A3000882379F0672D782D892D9B2D0E944929D7
:100A40008B019C018F2D4A2D5C2D6E2D7D2D0E94DA
:100A50007304F39424968F2D883109F781E0DF9198
:100A6000CF911F910F91FF90EF90DF90CF90BF90AB
:100A7000AF909F908F907F900895FC01608B0895B8
:100A8000FC01708B618B0895FC01708B618B528B24
:100A9000438B0895FC017289638981899089089547
:100AA000CF93DF930E9495010E945F03C0E0D0E0E6
:100AB0008C2F0E94E5122196C831D105C9F7DF912C
:100AC000CF9108950F931F93182F0E947C02082F37
:100AD000812F0E94200A812F0E94F705812F0E94FA
:100AE0006706802F8A50833080F480E062E00E94A5
:100AF000B90781E062E00E94B90782E062E00E94EB
:100B0000B90783E062E00E94B9070850023058F448
:100B1000812F0E94380D80E162E00E94B90781E1D7
:100B200062E00E94B907812F60E00E944B091F918B
:100B30000F910895E82FF0E0E75CF54F908190FF6A
:100B400052C090917C009F7390937C0090917C00A8
:100B50009F7D90937C0090917A00906890937A00AA
:100B600090917A00977F90937A0090917A009760A5
:100B700090937A0010927B008B30F1F08C3038F437
:100B8000893091F08A30A0F4883079F509C08D3031
:100B9000D9F08D30A8F08E30D9F08F3031F51CC0EF
:100BA00080917E0081601BC080917E00826017C0B2
:100BB00080917E00846013C080917E0088600FC0A9
:100BC00080917E0080610BC080917E00806207C0B2
:100BD00080917E00806403C080917E008068809355
:100BE0007E0081E0089580E0089581E00895E82F77
:100BF000F0E0E75CF54F908190FF37C08B30F1F06B
:100C00008C3038F4893091F08A30A0F4883069F55E
:100C100009C08D30D9F08D30A8F08E30D9F08F30EA
:100C200021F51EC080917E008E7F17C080917E00CE
:100C30008D7F13C080917E008B7F0FC080917E00DE
:100C4000877F0BC080917E008F7E07C080917E00E1
:100C50008F7D03C080917E008F7B80937E000895FE
:100C600080917E008F7780937E0008951F93182FC8
:100C70000E947C028430C1F418501830A8F41F710F
:100C800080917C00807E812B80937C0080917A0013
:100C9000806480937A0080917A0086FDFCCF209159
:100CA00078003091790002C020E030E0C9011F9146
:100CB0000895883030F08093510A84508093520A0E
:100CC00008958093520A8C5F8093510A0895E82F0B
:100CD000F0E0E75CF54F908197FF1CC00E94590639
:100CE0008091520A0E947C028431A1F48091510AC1
:100CF0000E947C02853171F48091520A0E94200A80
:100D00008091520A62E00E94B9078091510A62E024
:100D10000E94B9070895E82FF0E0E75CF54F908155
:100D200097FF0BC00E945906E091520AF0E0EE0FC7
:100D3000FF1FE75FF54F8081089580E008950F93CE
:100D40001F93DF93CF930F92CDB7DEB7E82FF0E07C
:100D5000E75CF54F908197FF26C069830E94590692
:100D60006981062F10E000581040E091520AF0E02F
:100D7000EE0FFF1FE75FF54F6083101611063CF47E
:100D80008091510A60E00E947608602F07C0809130
:100D9000510A61E00E947608602F6195660F80918C
:100DA000520A0E94BB0A0F90CF91DF911F910F91C1
:100DB0000895E82FF0E0E75CF54F908197FF17C0AA
:100DC0000E9459068091520A64E141E020E00E94AD
:100DD00080028091510A65E141E020E00E9480029A
:100DE0008091520A60E80E949F0681E0089580E0A9
:100DF0000895F999FECF1FBA92BD81BDF89A80B5CA
:100E00000895CB9624E08030920718F40E94F906EA
:100E1000089580E008950F931F93DF93CF930F926F
:100E2000CDB7DEB787E390E00E94F906182F88E37C
:100E300090E00E94F906082F89E390E00E94F906ED
:100E4000782F8AE390E079830E94F906682F7981F0
:100E5000C8010F90CF91DF911F910F91089590E0FD
:100E600007960E94F90608950F931F93CF93DF937F
:100E700080E090E00E94F906853271F40BE813E0FF
:100E8000C0E0D0E02196CE010E94F906F8018193DE
:100E90008F01C630D105B1F7DF91CF911F910F912E
:100EA00008950F931F93DF93CF930F92CDB7DEB7C3
:100EB0008C0169830E94F9066981861741F0F999CE
:100EC000FECF1FBA12BD01BD60BDFA9AF99A0F900C
:100ED000CF91DF911F910F910895CB9624E0803040
:100EE000920710F40E94510708950F931F93DF9308
:100EF000CF930F92CDB7DEB7162F082F692F87E358
:100F000090E079830E94510788E390E0602F0E946F
:100F1000510789E390E07981672F0E9451078AE3A6
:100F200090E0612F0E9451070F90CF91DF911F91A8
:100F30000F9108956F3F09F46EEF4F960E9451078D
:100F400008950F931F93CF93DF938C01EC016F965D
:100F5000CE010E94F9068F3F21F4C80160E80E948B
:100F60009A07CE010E94F906DF91CF911F910F9150
:100F700008951F93DF93CF930F92CDB7DEB7182F4D
:100F800069830E942F076981861729F0812F90E0DD
:100F900007960E9451070F90CF91DF911F910895FE
:100FA000EF92FF920F931F93CF93DF93E82E092FB9
:100FB00080E090E00E94F9068532E9F0802F0E2D46
:100FC000182F8BE8E82E83E0F82EC0E0D0E0F8017F
:100FD00061918F012196F70161937F01CE010E94FB
:100FE0005107C630D10599F780E090E065E20E9494
:100FF000510781E001C080E0DF91CF911F910F91F7
:10100000FF90EF900895E82FF0E0E831F10508F047
:101010006BC0EB5AFF4FEE0FFF1F0590F491E02DD0
:1010200009948091230033C0809123000EC08091E9
:10103000230002C08091290082958695877052C056
:101040008091290024C080912900829586958695FB
:10105000837048C08091230036C0809123002EC049
:10106000809120003FC08091200038C080912000F6
:1010700030C08091200027C0809120001FC0809147
:101080002000DACF80912000E0CF80912000881FDF
:101090008827881F08958091C90083FD03C080912F
:1010A000290011C08091C90083FD03C080912900EF
:1010B00010C080912600C0CF8091260082958F704D
:1010C00011C0809126008695869586950BC08091EB
:1010D00026008695869506C080912600869502C0DA
:1010E000809126008170089580E00895E82FF0E057
:1010F000E831F10508F0CEC0E359FF4FEE0FFF1FB6
:101100000590F491E02D0994679566276795809185
:1011100025008F7737C061706295660F660F607C1F
:10112000809125008F7B2EC061706295660F607E76
:10113000809125008F7D26C061706295660F607E6C
:1011400080912B008F7D74C067956627679580918D
:101150002B008F776DC061706295660F660F607CA3
:1011600080912B008F7B64C06170660F660F660FE5
:1011700080912500877F06C061706295607F8091B5
:1011800025008F7E862B80932500089561708091C5
:1011900022008E7F33C06170660F809122008D7FA8
:1011A0002DC06170660F660F809122008B7F26C074
:1011B0006170660F660F660F80912200877F1EC0E8
:1011C00061706295607F809122008F7E17C0617090
:1011D0006295660F607E809122008F7D0FC06170E6
:1011E0006295660F660F607C809122008F7B06C03F
:1011F000679566276795809122008F77862B80936D
:10120000220008958091C90083FD44C06170660F7B
:10121000660F660F80912B00877F0AC08091C900FE
:1012200083FD38C06170660F660F80912B008B7F45
:10123000862B80932B00089561706295660F607E07
:10124000809128008F7D1BC061706295607F8091C6
:1012500028008F7E14C06170660F660F660F809144
:101260002800877F0CC06170660F660F8091280090
:101270008B7F05C06170660F809128008D7F862B63
:101280008093280008956170809128008E7F862BBE
:10129000809328000895E82FF0E0E831F10508F088
:1012A000CEC0EB57FF4FEE0FFF1F0590F491E02DDE
:1012B0000994679566276795809124008F7737C0DA
:1012C00061706295660F660F607C809124008F7B51
:1012D0002EC061706295660F607E809124008F7DC4
:1012E00026C061706295660F607E80912A008F7DB6
:1012F00074C067956627679580912A008F776DC0C7
:1013000061706295660F660F607C80912A008F7B0A
:1013100064C06170660F660F660F80912400877F3E
:1013200006C061706295607F809124008F7E862B5D
:101330008093240008956170809121008E7F33C0D6
:101340006170660F809121008D7F2DC06170660FE6
:10135000660F809121008B7F26C06170660F660F3B
:10136000660F80912100877F1EC061706295607F4B
:10137000809121008F7E17C061706295660F607E3C
:10138000809121008F7D0FC061706295660F660F9E
:10139000607C809121008F7B06C0679566276795EA
:1013A000809121008F77862B809321000895809172
:1013B000C90083FD44C06170660F660F660F80919F
:1013C0002A00877F0AC08091C90083FD38C0617000
:1013D000660F660F80912A008B7F862B80932A00F0
:1013E000089561706295660F607E809127008F7D01
:1013F0001BC061706295607F809127008F7E14C052
:101400006170660F660F660F80912700877F0CC0A2
:101410006170660F660F809127008B7F05C0617039
:10142000660F809127008D7F862B8093270008957B
:101430006170809127008E7F862B8093270008950E
:101440008530D1F0863018F48430D9F40FC086305E
:1014500019F08730B1F404C0809144008F7303C049
:10146000809144008F7C8093440008958091B00067
:101470008F738093B00008958091B0008F7C80932B
:10148000B00008951F93182F0E947C02863059F0F7
:10149000812F0E947C02853131F0812F0E947C02D5
:1014A000843109F066C0153009F44DC0163020F4BF
:1014B000143009F05EC032C0163021F0173009F048
:1014C00058C015C0809124008860809324008091CA
:1014D000440083608093440080914500887F816050
:1014E00080934500809144008F73806814C0809180
:1014F0002400806180932400809144008360809365
:10150000440080914500887F8160809345008091F0
:1015100044008F7C8062809344002BC080912A001D
:10152000806880932A008091B00083608093B0002F
:101530008091B100887F81608093B1008091B0007C
:101540008F73806814C080912A00806480932A0081
:101550008091B00083608093B0008091B100887F5B
:1015600081608093B1008091B0008F7C8062809315
:10157000B0001F9108950F931F93182F062F0E94FC
:101580007C02863051F0812F0E947C02853129F047
:10159000812F0E947C028431C1F4812F0E94420A73
:1015A000153089F0163018F4143079F409C016306B
:1015B00019F0173051F402C007BD07C008BD05C0BF
:1015C0000093B30002C00093B4001F910F910895DF
:1015D0001F93182FE82FF0E0E75CF54F808182FF22
:1015E00013C0812F66E041E020E00E948002812F3D
:1015F0000E94420A812F90E00E94A107682F812F4C
:101600000E94BB0A81E001C080E01F9108951F93F2
:10161000182F0E947C02863029F4812F90E00E94CE
:10162000A10701C080E01F9108951F93182F0E9409
:101630006205812F61E00E944B091F9108958093FC
:10164000E60608951092E706613059F4809124006F
:10165000846080932400809125008460809325001D
:101660000895982F9150923030F491E09093E706CE
:10167000813019F00FC0833069F490912400946098
:1016800090932400909125009B7F909325008330B8
:1016900069F00AC0909124009B7F90932400909160
:1016A00025009B7F90932500882319F481E0809387
:1016B000750208951092E806613059F48091240073
:1016C00082608093240080912500826080932500B1
:1016D0000895813011F0833021F4909124009260BC
:1016E00003C0909124009D7F909324009091250049
:1016F0009D7F90932500982F9150923020F481E0A7
:101700008093E8060895833011F0882319F481E06E
:10171000809376020895AF92BF92CF92DF92EF92BC
:10172000FF920F931F93CF93DF93D82EC62E79018C
:101730008A01CA01B90120E030E040EF51E40E9483
:10174000372887FF0AC00F2EF0E0EF2EF0E0FF2EC3
:10175000F0E00F2FF0E01F2FF02DAD2CBB24E501A2
:1017600094E0CC0FDD1F9A95E1F7CD5AD54FE8866E
:10177000F9860A871B876C2D70E080E090E00E945C
:101780004929688379838A839B838501000F111F10
:10179000075F154FF801608170E080E090E00E94E3
:1017A00049296C837D838E839F830E94181C6C87DC
:1017B0007D878E879F87F8018081C81639F480E085
:1017C00090E0DC0188879987AA87BB87FD2DFC30D4
:1017D00018F41092750202C0109276028D2D0E94AC
:1017E0007C02873011F4D0927702DF91CF911F9164
:1017F0000F91FF90EF90DF90CF90BF90AF90089542
:10180000E82FF0E0EE0FFF1FE75FF54F80810895AE
:101810001F93182F0E947C028730F9F41C3058F077
:101820008091E806882321F48091E6068823A9F0B8
:10183000809176020AC08091E706882321F4809186
:10184000E606882351F080917502813031F0812FB6
:1018500061E00E94760881E001C080E01F91089558
:101860001F93182F0E947C02873021F4812F60E0A3
:101870000E9476081F910895DF93CF9300D000D087
:10188000CDB7DEB782E291E0A0E0B0E089839A8331
:10189000AB83BC8389819A81AB81BC819C01AD0102
:1018A000215030404040504029833A834B835C8331
:1018B0000097A105B10571F70F900F900F900F9051
:1018C000CF91DF910895CF92DF92EF92FF920F9325
:1018D0001F93CF93DF93C62ED82E67C00E94181C8B
:1018E000AB01BC01CD2DD0E0E4E0CC0FDD1FEA95CB
:1018F000E1F7CD5AD54FCE010E941C1B7B018C0114
:1019000020E030E04FE753E40E94D7271816E4F4B4
:1019100081E492E00E94BD1DC801B7010E94202011
:1019200081E692E00E94F21D688579858A859B8513
:101930000E9420200F2EF0E0EF2EF0E0FF2EFFE7B8
:101940000F2FF3E41F2FF02DC801B70120E030E086
:10195000A9010E94372887FF1CC081E492E00E9401
:10196000BD1DC801B7010E9420208BE692E00E94B5
:10197000F21D6D2D70E080E090E00E94AF1E0F2EF2
:10198000F0E0EF2EF0E0FF2EF0E00F2FF0E01F2F41
:10199000F02DCD2DD0E0CC0FDD1FC75FD54FC80196
:1019A000B7010E947E236883D394DC1408F496CF99
:1019B000DF91CF911F910F91FF90EF90DF90CF902B
:1019C0000895EF92FF920F931F93CF93DF93E82E2A
:1019D000EE0CEE0CEE0CFE2C28E0F20E8E2D6F2D90
:1019E0000E94630C8091280080688093280086E61E
:1019F0009EE00197F1F70000CE2DD0E00F2D10E012
:101A000004C08C2F0E94080C2196C017D107C8F380
:101A10000E943C0CC0E0D0E016C0E02FF0E0EE0FDA
:101A2000FF1FE75FF54F208130E0C217D30719F49D
:101A3000802F0E94300C0F5F0F1578F3219631E054
:101A4000C030D30711F00E2DF7CF809128008F778B
:101A50008093280004C08E2D0E94300CE394EF1474
:101A6000D0F3DF91CF911F910F91FF90EF900895E8
:101A7000E82FF0E0E75CF54F908193FF13C01092E0
:101A8000C9000E947C028850823060F480E162E0EC
:101A900040E021E00E94800281E162E040E021E03C
:101AA0000E9480020895603820E7720720E08207D4
:101AB00020E0920709F481C0613820E7720720E036
:101AC000820720E09207B8F5603825E2720720E02F
:101AD000820720E0920709F467C0613825E27207A7
:101AE00020E0820720E0920798F4603629E0720730
:101AF00020E0820720E0920709F450C0603C22E118
:101B0000720720E0820720E0920709F06FC049C009
:101B1000603428E3720720E0820720E0920709F48E
:101B200046C060302BE4720720E0820720E0920775
:101B300009F05CC03FC060302CE2720721E08207F0
:101B400020E0920709F442C061302CE2720721E0E4
:101B5000820720E0920788F4603026E9720720E0CF
:101B6000820720E0920761F1603021EE720720E0E9
:101B7000820720E09207D1F526C0603022EC720780
:101B800021E0820720E0920721F1603024E872070B
:101B900023E0820720E0920749F51EC02FED31E0D7
:101BA0001DC02FEE30E01AC027E730E017C02FE449
:101BB00030E014C02BE330E011C027E230E00EC06B
:101BC0002DE130E00BC023E130E008C02EE030E032
:101BD00005C029E030E002C024E030E03093CD00C1
:101BE0002093CC000E94750781E0089580E008955D
:101BF0000E94530D08950E940B070E94530D8823E5
:101C000031F460E07BE480E090E00E94530D80E1DD
:101C100061E00E944B0981E160E00E944B0981E193
:101C200061E00E94760886E08093CA0088E980938C
:101C3000C9001092C80089EE96E06CEF76E024E6C9
:101C400030E040E050E00E94F61608951F920F9297
:101C50000FB60F9211242F933F934F935F936F937F
:101C60007F938F939F93AF93BF93EF93FF93DF93F4
:101C7000CF930F92CDB7DEB76091CE0089EE96E09C
:101C8000AE014F5F5F4F0E9471170F90CF91DF91B0
:101C9000FF91EF91BF91AF919F918F917F916F9144
:101CA0005F914F913F912F910F900FBE0F901F901A
:101CB0001895FC019B0140E050E089EE96E0BF01E1
:101CC0000E94FA17089589EE96E00E946B17CB01E7
:101CD0000895EF92FF920F931F930F2EF0E0EF2ED7
:101CE000F0E0FF2EF8EC0F2FF1E41F2FF02DE09223
:101CF0008402F092850200938602109387020E946C
:101D0000181C6093800270938102809382029093EA
:101D10008302E0928C02F0928D0200938E02109367
:101D20008F0220E030E040E051E40E94D125262FD0
:101D3000372F482F592F20938802309389024093E0
:101D40008A0250938B02E0929402F09295020093E3
:101D500096021093970220E030E040E051E40E94A8
:101D6000D125609390027093910280939202909398
:101D700093021F910F91FF90EF9008950E94630EC0
:101D8000009711F00E944D136091800270918102C2
:101D9000809182029091830220E030E0A9010E94AC
:101DA000D727181614F00E94690E6091880270916E
:101DB000890280918A0290918B0220E030E0A90193
:101DC0000E94D727181614F00E94690E60919002A5
:101DD00070919102809192029091930220E030E004
:101DE000A9010E94D727181614F00E94690E80E8F6
:101DF00092E00E94141920E030E0A9010E94D72748
:101E000018161CF480E00E94E10C88E892E00E9421
:101E1000141920E030E0A9010E94D72718161CF4FD
:101E200081E00E94E10C80E992E00E94141920E018
:101E300030E0A9010E94D72718162CF482E00E94F6
:101E4000E10C0E94690E089581E080936007089577
:101E5000E82FF0E0E831F10508F09CC0E356FF4FB1
:101E6000EE0FFF1F0590F491E02D099481E0209181
:101E70006C0730916D0789C081E020916E07309129
:101E80006F0783C081E020917007309171077DC09A
:101E900081E0209172073091730777C081E0209133
:101EA00074073091750771C081E0209176073091F9
:101EB00077076BC081E0209178073091790765C082
:101EC00081E020917A0730917B075FC081E020910B
:101ED0007C0730917D0759C081E020917E073091C9
:101EE0007F0753C081E020918007309181074DC06A
:101EF00081E0209182073091830747C081E02091E3
:101F000084073091850741C081E020918607309198
:101F100087073BC081E0209188073091890735C051
:101F200081E020918A0730918B072FC081E02091BA
:101F30008C0730918D0729C081E020918E07309168
:101F40008F0723C081E020919007309191071DC039
:101F500081E0209192073091930717C081E0209192
:101F600094073091950711C081E020919607309138
:101F700097070BC081E0209198073091990705C021
:101F800081E020919A0730919B072115310519F4C2
:101F900080E0089580E00895E82FF0E0E831F10551
:101FA00008F0F8C0EB54FF4FEE0FFF1F0590F491BF
:101FB000E02D099481E090E0662311F480E090E048
:101FC00090936D0780936C0781E090E0662311F495
:101FD00080E090E090936F0780936E0781E090E03F
:101FE000662311F480E090E090937107809370076E
:101FF00081E090E0662311F480E090E09093730715
:102000008093720781E090E0662311F480E090E015
:10201000909375078093740781E090E0662311F434
:1020200080E090E0909377078093760781E090E0DE
:10203000662311F480E090E090937907809378070D
:1020400081E090E0662311F480E090E090937B07BC
:1020500080937A0781E090E0662311F480E090E0BD
:1020600090937D0780937C0781E090E0662311F4D4
:1020700080E090E090937F0780937E0781E090E07E
:10208000662311F480E090E09093810780938007AD
:1020900081E090E0662311F480E090E09093830764
:1020A0008093820781E090E0662311F480E090E065
:1020B000909385078093840781E090E0662311F474
:1020C00080E090E0909387078093860781E090E01E
:1020D000662311F480E090E090938907809388074D
:1020E00081E090E0662311F480E090E090938B070C
:1020F00080938A0781E090E0662311F480E090E00D
:1021000090938D0780938C0781E090E0662311F413
:1021100080E090E090938F0780938E0781E090E0BD
:10212000662311F480E090E09093910780939007EC
:1021300081E090E0662311F480E090E090939307B3
:102140008093920781E090E0662311F480E090E0B4
:10215000909395078093940781E090E0662311F4B3
:1021600080E090E0909397078093960781E090E05D
:10217000662311F480E090E090939907809398078C
:1021800081E090E0662311F480E090E090939B075B
:1021900080939A070895DF92EF92FF920F931F9317
:1021A000CF93DF93EE24C0E0D0E0FF24F394DC2E45
:1021B0008C2F0E947C02823049F0803139F021E07E
:1021C00030E0833129F020E030E002C021E030E04F
:1021D00021153105E9F08D2D0E94030801E010E082
:1021E000882311F400E010E010939D0700939C07F2
:1021F0008D2D0E94280F282F30E00217130741F081
:10220000F09260078D2D602F0E94CC0FEE24E39496
:102210002196C831D10559F6EE2011F00E9407141D
:102220008E2DDF91CF911F910F91FF90EF90DF9056
:1022300008958B3009F445C08C3040F48930C9F0E2
:102240008A3040F5883009F08FC00DC08D3009F418
:1022500053C08D3008F442C08E3009F462C08F3014
:1022600009F082C06FC02091610780916207382F0A
:1022700079C08091620786958695869590916307CF
:10228000492F4295440F407E242F282B96959695F2
:10229000969556C080916307829586958695837042
:1022A00090916407492F440F440F242F282B9295B7
:1022B000969596959370809165078170880F880F29
:1022C0002DC080916507869590916607492F4795A7
:1022D00044274795242F282B969532C08091660776
:1022E00082958F7090916707492F4295407F242FE8
:1022F000282B92959F7024C080916707881F88279C
:10230000881F90916807492F440F242F282B991F6D
:102310009927991F809169078370880F382F392B6F
:1023200025C0809169078695869590916A07492F07
:102330004295440F440F407C242F282B9695969568
:10234000392F10C080916A07829586958770909189
:102350006B07492F440F440F440F242F282B392F8C
:1023600032953695377002C020E030E0C9010895FB
:102370008B3009F45BC08C3040F48930E9F08A304E
:10238000A8F5883009F0C7C00DC08D3009F47BC0B6
:102390008D3008F461C08E3009F491C08F3009F09F
:1023A000BAC0A6C060936107972F977080916207AB
:1023B000887F892B80936207962F990F990F990F29
:1023C000809162078770892B80936207262F229560
:1023D0002695277080916307807C972F9770990FBF
:1023E000990F990F822B892B80936307962F9295D3
:1023F000990F990F907C809163078F73892B80933D
:102400006307972F9295990F990F907C862F869549
:102410008695892B80936407972F96959695917052
:10242000809165078E7F892B80936507962F990F82
:10243000809165078170892B80936507262F221F65
:102440002227221F80916607807F972F9770990F10
:10245000822B892B80936607962F9295907F80918F
:1024600066078F70892B80936607262F22952F7021
:10247000809167078078972F97709295907F822B35
:10248000892B80936707962F979599279795809129
:1024900067078F77892B80936707972F97959927E1
:1024A0009795862F8695892B80936807972F969509
:1024B0009370809169078C7F892B80936907962F91
:1024C000990F990F809169078370892B8093690711
:1024D000262F229526952695237080916A07807E67
:1024E000972F9770990F990F822B892B80936A07EA
:1024F000962F9295990F907E80916A078F71892B04
:1025000080936A077295770F707E669566956695DB
:10251000672B60936B070895AF92BF92DF92EF92A3
:10252000FF920F931F93DF93CF9300D0CDB7DEB709
:1025300088E0A82EB12CEE24FF24F394DA2C8A2D07
:102540000E947C02843049F58A2D0E943606BC0127
:102550008C0190939D0780939C078A2D69837A83D1
:102560000E94191190939F0780939E07A801465FD0
:102570005F4FB801481759074CF0A8014A50504026
:102580008417950754F40A3011053CF0F092600767
:102590008D2D0E94B811EE24E3940894A11CB11C67
:1025A00020E1A216B10451F6EE2011F00E949C1316
:1025B0008E2D0F900F90CF91DF911F910F91FF9073
:1025C000EF90DF90BF90AF9008951F93182F0E9457
:1025D0007C02843041F4812F0E943606BC01812F99
:1025E0000E94B81110C0823021F0803111F0833187
:1025F00051F4812F0E94030861E0882309F460E010
:10260000812F0E94CC0F1F910895EF92FF920F939C
:102610001F93CF93DF93182F062FE72E83E00E949E
:10262000FD1C2FE12A95F1F786E0F82E80E00E944C
:10263000FD1C3FE13A95F1F7FA94C1F780E20E9460
:10264000FD1C8FE18A95F1F783EE0E94FD1C9FE14E
:102650009A95F1F7812F0E94FD1C2FE12A95F1F741
:10266000812F8A5F0E94FD1C3FE13A95F1F78E2D84
:10267000E02EE7017E01F82EE70114E089910E9427
:10268000FD1C3FE13A95F1F71150C1F7DF91CF9171
:102690001F910F91FF90EF900895CF92DF92EF92EC
:1026A000FF920F931F93DF93CF930F92CDB7DEB7B7
:1026B0000E94630E7C01809128008068809328002E
:1026C00086E69EE00197F1F700008E2D8B5F68E9AA
:1026D00072E00E94051381E10E94FD1C9FE19A9522
:1026E000F1F700E010E06E010894C11CD11C0DC090
:1026F000C60161E070E00E94590E89810E94FD1CB4
:102700008FE18A95F1F70F5F1F4F0E151F0580F3BC
:10271000809128008F778093280086E69EE00197BD
:10272000F1F700000F90CF91DF911F910F91FF9073
:10273000EF90DF90CF9008951F93CF93DF93809118
:10274000280080688093280086E69EE00197F1F7D4
:10275000000084E16DE972E00E940513C8E0D0E05A
:102760008C2F0E941911182F892F0E94FD1C3FE108
:102770003A95F1F7812F0E94FD1C8FE18A95F1F7C0
:102780002196C031D10561F7809128008F77809321
:10279000280086E69EE00197F1F70000DF91CF91D7
:1027A0001F910895FF920F931F93F82E162F072F56
:1027B0008091280080688093280086E69EE001973B
:1027C000F1F7000087E068E972E00E9405138F2DA1
:1027D0000E94FD1C9FE19A95F1F7802F0E94FD1C3D
:1027E0008FE18A95F1F7812F0E94FD1C9FE19A9558
:1027F000F1F786E69EE00197F1F70000809128004E
:102800008F77809328001F910F91FF900895CF93A9
:10281000DF9382EA92E00E94BD1D809128008068CB
:102820008093280086E69EE00197F1F700008CE196
:1028300062EB72E00E940513C0E0D0E08C2F0E9492
:10284000280F0E94FD1C3FE13A95F1F72196C8310F
:10285000D105A1F786E69EE00197F1F7000080918F
:1028600028008F7780932800DF91CF9108950F93F0
:102870001F93082F162F80912800806880932800CE
:1028800086E69EE00197F1F7000086E068E972E0D5
:102890000E940513802F0E94FD1C9FE19A95F1F77D
:1028A000812F0E94FD1C8FE18A95F1F7809128000D
:1028B0008F778093280086E69EE00197F1F700006D
:1028C0001F910F9108950E94A61D80912700806896
:1028D00080932700809127008F7B80932700809131
:1028E00028008F778093280080912800806480934F
:1028F0002800809124008B7F809324008091250004
:102900008B7F80932500809124008D7F809324000D
:10291000809125008D7F8093250080E060E00E94FB
:10292000220B80E060E00E945A0B0E94500580E17B
:102930006DEA74E10E947F2080E264E775E10E9405
:102940007F2080E365E376E10E947F200E94A61D40
:1029500087EB92E00E94BD1D0895AF92BF92CF9287
:10296000DF92EF92FF920F931F93CF93DF93EC01CF
:1029700084E08093A0078B859C85AD85BE858736D6
:1029800021E6920723E6A2072DE6B207D9F18836A1
:10299000E1E69E07E3E6AE07EDE6BE0798F485366E
:1029A000F5E69F07F0E7AF07F4E6BF0709F44EC06E
:1029B000833721E6920726E7A20725E6B20709F04A
:1029C00085C073C08F35E2E79E07E5E6AE07E6E710
:1029D000BE0709F461C08736F3E69F07F8E6AF0744
:1029E000F6E7BF0731F1873623E6920728E6A2070C
:1029F0002DE6B20709F06AC08F850E942F07888BE9
:102A000086E013C09FE0E92EF12CEC0EFD1E00E0E5
:102A100010E0802F0E942F07F70181937F010F5F45
:102A20001F4F08311105A9F78CE1898780E28F8358
:102A30004FC00E94240FCE010E940004882309F099
:102A400047C0CE016091A00740E023C0BF840B2D9A
:102A500010E0A888EA2CFF2480E28F83E016F106BC
:102A6000A8F08FE0C82ED12CCC0EDD1E08C0C80106
:102A70000E940107F60181936F010F5F1F4F0E1532
:102A80001F05A8F38A2D8C5F8B190DC0CE0164E061
:102A900041E00E94AD1A1CC083E08F878AE0888BDA
:102AA00081E0898B87E0898713C080E28F838CE186
:102AB00089872F9600E010E0C8010E94A107899342
:102AC0000F5F1F4F08311105B9F702C080E001C048
:102AD00081E0DF91CF911F910F91FF90EF90DF90F8
:102AE000CF90BF90AF900895CF92DF92EF92FF9278
:102AF0000F931F93CF93DF938C0185E08093A00702
:102B0000F80183859485A585B6858337F3E69F070D
:102B1000F8E6AF07FDE6BF07A9F1843723E6920781
:102B200028E6A2072DE6B20798F48536E5E69E076B
:102B3000E0E7AE07E4E6BE0709F467C08337F1E6D5
:102B40009F07F3E6AF07FDE6BF0709F082C025C087
:102B5000833721E6920723E6A20726E7B207B9F1F9
:102B60008337E3E69E07E8E6AE07E6E7BE0701F136
:102B70008F35F0E79F07F7E7AF07F2E7BF0709F0E8
:102B800068C038C0C8010E945303882309F063C09D
:102B9000C8016091A00740E02AC0C8010E943D031F
:102BA000882309F058C0C8016091A00741E01FC008
:102BB000C8010E94AF04882329F0C8016091A007D2
:102BC00042E00EC0C8016091A00742E010C0C801F9
:102BD0000E94FC04882339F0C8016091A00745E2F7
:102BE0000E94D61A38C0C8016091A00743E00E9435
:102BF000AD1A31C0F801818967850E94220BF80166
:102C0000828960890E945A0B26C0F8018785C82FE7
:102C1000D0E0C088DD24CC16DD06B8F021E1E22E3C
:102C2000F12CE00EF11E00E010E0CC1ADD0A09C024
:102C3000F70161917F01CE010E946D070F5F1F4F69
:102C400021960C151D05A0F306C0C80165E044E0FF
:102C5000CECF80E001C081E0DF91CF911F910F9135
:102C6000FF90EF90DF90CF900895EF92FF921F9327
:102C7000DF93CF930F92CDB7DEB77C0186E08093D0
:102C8000A007F70183859485A585B6858336F3E68D
:102C90009F07F8E6AF07FEE6BF0729F1843623E673
:102CA000920728E6A2072EE6B20750F48F35EDE62C
:102CB0009E07E1E6AE07E3E6BE0709F05EC021C06D
:102CC0008037FFE69F07F6E7AF07F2E7BF0709F493
:102CD00049C0833723E6920728E6A20726E7B20712
:102CE00009F04BC021C0C7010E948101482F8823F1
:102CF00021F4C7016091A00713C0C7016091A0072C
:102D000039C0C7010F960E94D007882329F0C70158
:102D10006091A00741E02EC0C7016091A00741E08B
:102D20000E94AD1A81E02AC0F70117856089C701AA
:102D300069830E94AF046981882379F0812F0E9402
:102D4000AE03882329F0C7016091A00742E012C0BA
:102D5000C7016091A00742E0E3CFC7016091A007DF
:102D600043E0DECFF70187850E941F0BC70160910A
:102D7000A00743E00E94D61AD5CF80E00F90CF91F4
:102D8000DF911F91FF90EF900895F89481E00895EE
:102D9000789481E00895DC011092A1071092A207B7
:102DA0001092A3071092A40720E030E0A9010BC005
:102DB0001496ED91FC911597E20FF31F10822F5F8F
:102DC0003F4F4F4F5F4F6D917D918D919C91139728
:102DD000261737074807590758F32093A107309360
:102DE000A2074093A3075093A4070895CF92DF92C0
:102DF000EF92FF920F931F93CF93DF93EC016B0140
:102E000079018A01009719F06115710541F486ED89
:102E100092E00E94BD1DC801B7010E94AF1EDD8275
:102E2000CC82E882F9820A831B831E821F82188665
:102E300019861A861B861C861D861A8ACE010E9458
:102E4000CB16DF91CF911F910F91FF90EF90DF9004
:102E5000CF900895DC011496ED91FC91159716968C
:102E60008D919C911797E80FF91F80810895FC01BF
:102E700082859385268137818217930729F41686E8
:102E80001786108A118A22C0281739073CF4821B42
:102E9000930BAA2797FDA095BA2F14C0AA2797FDD8
:102EA000A095BA2F4081518162817381840F951F53
:102EB000A61FB71F442737FD4095542F821B930B45
:102EC000A40BB50B86879787A08BB18B668577851A
:102ED000808991890895FC0166857785808991892B
:102EE0000895EF92FF920F931F93CF93DF93EC011E
:102EF0008A0188819981AA81BB810297A109B109C0
:102F00002E853F8548895989281739074A075B0765
:102F100020F083E0F801808337C0F894EC81FD81D4
:102F20008A859B85E80FF91F60838A859B85AC8520
:102F3000BD850196A11DB11D8A879B87AC87BD8782
:102F4000288139814A815B8182179307A407B507DD
:102F500021F41A861B861C861D86CE010E94371717
:102F6000F8011082789421E030E040E050E08E8556
:102F70009F85A889B989E880F9800A811B81E816B4
:102F8000F9060A071B0718F420E030E0A901B9018F
:102F9000CA01DF91CF911F910F91FF90EF9008959B
:102FA0001F93FC01F8942681378140855185A481C7
:102FB000B581A20FB31F1C912F5F3F4F4F4F5F4F43
:102FC000268337834087518780819181A281B38195
:102FD000281739074A075B0721F4168217821086E3
:102FE0001186DB011C92CF010E9437177894812F44
:102FF0001F9108956F927F928F929F92AF92BF928E
:10300000CF92DF92EF92FF920F931F93DF93CF93B4
:103010000F92CDB7DEB76C017B0149015A01FC016B
:10302000668477841092A1071092A2071092A307DA
:103030001092A4078E010F5F1F4F29C016141704AA
:103040007CF4C601B8010E94D01799819923C9F771
:10305000E091A107F091A207EE0DFF1D808304C04F
:103060002E0D3F1DF90110828091A1079091A207BA
:10307000A091A307B091A4070196A11DB11D809353
:10308000A1079093A207A093A307B093A407209150
:10309000A1073091A2074091A3075091A4072815DA
:1030A00039054A055B0550F2B901CA010F90CF916D
:1030B000DF911F910F91FF90EF90DF90CF90BF9025
:1030C000AF909F908F907F906F900895AF92BF9236
:1030D000CF92DF92EF92FF920F931F93CF93DF93E4
:1030E0005A016B01E901EE80FF80088519856E8524
:1030F0007F851092A1071092A2071092A307109249
:10310000A407E82FF92F20E030E0A90122C016160D
:103110001706ACF4AC81BD81AE0DBF1D8C918083D0
:103120000894E11CF11C011D111D88819981AA815F
:10313000BB81E816F9060A071B0731F402C01082AA
:1031400003C0EE24FF2487012F5F3F4F4F4F5F4F97
:1031500031962A153B054C055D05C8F22093A10761
:103160003093A2074093A3075093A407B901CA0163
:10317000DF91CF911F910F91FF90EF90DF90CF9053
:10318000BF90AF900895EF92FF920F931F93CF934C
:10319000DF938C017B0184EF92E00E94F21DF80125
:1031A00066857785808991890E94AF1E8AE093E0C9
:1031B0000E94F21DF80146855785608971894F5F2D
:1031C0005F4F6F4F7F4FC70198010E946618C0E0A4
:1031D000D0E00EC0F701EC0FFD1F608170E080E0D1
:1031E00090E00E94AF1E84E193E00E94F21D2196C0
:1031F0009E01442737FD4095542FF8018685978519
:10320000A089B189281739074A075B0718F386E1B7
:1032100093E00E94F21DDF91CF911F910F91FF90DB
:10322000EF90089581E008956F927F928F929F9220
:10323000AF92BF92CF92DF92EF92FF920F931F93C4
:10324000CF93DF93EC010E94181C7B018C01288135
:1032500039814A815B810E94372887FF04C0E88258
:10326000F9820A831B83C801B701288139814A8109
:103270005B810E94FE25962E872E782E692EAC80CB
:10328000BD80CE80DF80A4019301652F742F832F32
:10329000922FA60195010E94D7271816ECF4C801B9
:1032A000B701D401F3012B2F3A2F4F2F5E2F0E942D
:1032B000FE25A60195010E94D125688379838A8322
:1032C0009B83A4019301652F742F832F922FA60156
:1032D00095010E94FE2504C060E070E080E090E06F
:1032E000DF91CF911F910F91FF90EF90DF90CF90E2
:1032F000BF90AF909F908F907F906F9008951F9395
:1033000090E023E0880F991F2A95E1F7865E9C4F95
:103310000E94141911E020E030E0A9010E94D72793
:1033200018160CF010E0812F1F9108950E94671C61
:103330000E946A1D81E161E973E00E9453220895B1
:10334000FF920F931F93CF93DF938C01F62E0E9471
:10335000131C882309F46DC0FF20A1F0F8018385B8
:103360009485A585B6858F35F0E79F07F7E7AF070A
:10337000F2E7BF0739F08AE493E00E94BD1DC8015F
:103380000E94191FE80121968BE893E0BE010E947C
:10339000FF1A813039F085E893E0BE010E94FF1AE0
:1033A000813089F5C8010E941F2220E00BC0822FC6
:1033B00090E0F801E80FF91F85579C4FDC018C91D4
:1033C00081832F5F263098F32093A507C8010E94C0
:1033D000371AC8010E946B23FF2069F1F801838529
:1033E0009485A585B6858F35F0E79F07F7E7AF078A
:1033F000F2E7BF0701F18FE493E00E94BD1DC80111
:103400000E94191F18C0FF20B1F089E593E00E94C7
:10341000BD1DCE0166E070E00E94D81E86E793E0F5
:103420000E94F21D8BE893E066E070E00E94D81ED7
:1034300002C080E001C081E0DF91CF911F910F9128
:10344000FF900895FC0180E020E030E007C0DF013C
:10345000A80FB11D9C91290F311D8F5F8A30B8F3E1
:103460008093A60781E09285921380E0089540E062
:1034700020E030E007C0FC01E40FF11D5081250F72
:10348000311D4F5F4A30B8F34093A607FC012287F5
:103490000895FC016187862F90E00895FC01218545
:1034A00030E0255F3F4FC9010895FC01818590E020
:1034B0000895CF93DF93A0E009C0FB01E20FF31F53
:1034C000280F391FE90128812083AF5F2A2F30E0C0
:1034D000FC01418550E0465F5F4F421753076CF790
:1034E000DF91CF9108950F931F93E22F062F10E0E5
:1034F00020E030E098011127002790E0A0E0B0E044
:10350000B82FAA2799278827080F191F2A1F3B1FA2
:1035100050E060E070E0762F652F542F4427040FB1
:10352000151F261F371F0E0F111D211D311DB8013C
:10353000C9011F910F910895FC0193819093AA07EF
:1035400082818093A90781818093A807608160931D
:10355000A707782F8091A9070895EF92FF921F93F4
:10356000DF93CF930F92CDB7DEB77C01162FFC010E
:10357000178282EA93E049830E949C1ADC01CB0106
:10358000F70183879487A587B687808580788087B1
:1035900086E0818717874981408B86E090E00F9015
:1035A000CF91DF911F91FF90EF900895EF92FF92DE
:1035B0001F93DF93CF930F92CDB7DEB77C01162F09
:1035C000FC01178287EA93E049830E949C1ADC0180
:1035D000CB01F70183879487A587B687808580789C
:1035E000808786E0818717874981408B86E090E05D
:1035F0000F90CF91DF911F91FF90EF90089510925F
:10360000A60740E013C0242F30E0542F5F5FFC0179
:10361000E20FF31F260F371FE081D9012C91E2172B
:1036200021F04093A60780E00895452F463058F3D7
:103630004093A60781E008952F923F924F925F92A8
:103640006F927F928F929F92AF92BF92CF92DF92B2
:10365000EF92FF920F931F93DF93CF9300D000D090
:10366000CDB7DEB71C017A018B01FC01A084B184C7
:10367000C284D384C601B50120E030E0A9010E94D4
:10368000D72718160CF0A8C0C801B701F10124858E
:103690003585468557850E94FE25E62E872E782E95
:1036A000692E9301832F922FA60195010E9437283E
:1036B00087FF85C093016E2D782D832F922F20E0F8
:1036C00030E0A9010E94D72718160CF078C0F1014C
:1036D00000811181F280938024803580468057805C
:1036E000602F712F8F2D992DA20191010E94FE252F
:1036F00069837A838B839C83C601B5012E2D382D77
:10370000472D562D0E94FE25A60195010E942927CE
:103710009B01AC0160E070E080E89FE30E94FE2521
:103720009B01AC0169817A818B819C810E942F264B
:103730009B01AC01C201B1010E94D125E62ED72E1A
:10374000C82EB92E602F712F8F2D992DA2019101B6
:103750000E94D7271816C4F46E2D7D2D8C2D9B2D1D
:10376000202F312F4F2D592D0E94D72718160CF4DA
:103770003FC06E2D7D2D8C2D9B2DA20191010E94AD
:10378000372887FD35C016C06E2D7D2D8C2D9B2DC5
:10379000202F312F4F2D592D0E94372887FD28C00B
:1037A0006E2D7D2D8C2D9B2DA20191010E94D7277E
:1037B0001816F4F00E2D1D2DFC2C9B2C19C080E04A
:1037C00090E0DC01F10180879187A287B3870081B7
:1037D0001181F28093800CC0F10100811181F2808F
:1037E000938080E090E0DC0180879187A287B38797
:1037F000602F712F8F2D992D0F900F900F900F909C
:10380000CF91DF911F910F91FF90EF90DF90CF90BC
:10381000BF90AF909F908F907F906F905F904F90F0
:103820003F902F9008956BEA77E00E94452308951A
:10383000AF92BF92CF92DF92EF92FF920F931F93BE
:10384000A0908400B0908500CC24DD248091C8082D
:103850009091C908A091CA08B091CB08A80EB91ED2
:10386000CA1EDB1E9501A60160E070E080E090E0DA
:103870000E94AA2320E030E040E951E40E94292779
:103880005B016C016091CC087091CD088091CE08ED
:103890009091CF080E94492920E030E040E85FE4A1
:1038A0000E942F2620E030E040E951E40E942927C1
:1038B0009B01AC01C601B5010E94D1251F910F915A
:1038C000FF90EF90DF90CF90BF90AF90089510924F
:1038D000C8081092C9081092CA081092CB088091AB
:1038E00080008C7F8093800080918100887F85603C
:1038F0008093810080916F00816080936F000895B4
:10390000AF92BF92CF92DF92EF92FF920F931F93ED
:10391000A0908400B0908500CC24DD248091C8085C
:103920009091C908A091CA08B091CB08A80EB91E01
:10393000CA1EDB1E9501A60160E070E080E090E009
:103940001F910F91FF90EF90DF90CF90BF90AF90BD
:1039500008951F920F920FB60F9211242F933F9349
:103960004F935F938F939F93AF93BF938091C808BA
:103970009091C908A091CA08B091CB089C01AD01F3
:10398000205030404F4F5F4F2093C8083093C908F4
:103990004093CA085093CB08281739074A075B079A
:1039A000F8F41092C8081092C9081092CA08109230
:1039B000CB0810928500109284008091CC089091E1
:1039C000CD08A091CE08B091CF080196A11DB11DE0
:1039D0008093CC089093CD08A093CE08B093CF08E5
:1039E000BF91AF919F918F915F914F913F912F9197
:1039F0000F900FBE0F901F9018959091C00095FFEB
:103A0000FCCF8093C6008FE18A95F1F70895EF927D
:103A1000FF920F931F93CF93DF93EB01E82EF92EC4
:103A200000E010E00AC0F70181917F010E94FD1CB7
:103A3000FFE1FA95F1F70F5F1F4F0C171D0798F381
:103A4000CE01DF91CF911F910F91FF90EF900895DC
:103A50001F920F920FB60F9211242F933F934F9303
:103A60005F936F937F938F939F93AF93BF93EF93E6
:103A7000FF93DF93CF930F92CDB7DEB7F8946091A9
:103A8000C6008BEA97E0AE014F5F5F4F0E9471174F
:103A900078940F90CF91DF91FF91EF91BF91AF910B
:103AA0009F918F917F916F915F914F913F912F9156
:103AB0000F900FBE0F901F9018959093C5008093A4
:103AC000C40086E28093C20088E98093C10010920E
:103AD000C0000895F89484E090E00E945D1D8BEA98
:103AE00097E06EEB77E02AE031E040E050E00E94A2
:103AF000F616789408951092CD0089E08093CC005A
:103B000086E08093CA0088E08093C9001092C800C4
:103B10000895DF93CF930F92CDB7DEB79091C90090
:103B2000992321F489830E947B1D89819091C8008B
:103B300095FFFCCF8093CE008FE18A95F1F70F902F
:103B4000CF91DF9108950E94891D089581E08093AF
:103B5000C30308951092C3030895E82FF0E0EF70B7
:103B6000F070ED54FC4F8081089582958F70E3EBE7
:103B7000F3E0E80FF11D80810895EF92FF920F931B
:103B80001F93CF93DF93182F092F8091D00888239C
:103B900029F481E08093D0080E947B1D8091C303AB
:103BA000882391F08AE00E94A31D8DE00E94A31D4E
:103BB000C801E92EE7017E01F02EE70102C00E9454
:103BC000A31D89918823D9F7DF91CF911F910F9180
:103BD000FF90EF9008959091C303992311F00E94F4
:103BE000A31D0895EF92FF92CF93DF932091C3031B
:103BF000222359F0E82EE7017E01F92EE70102C0E9
:103C00000E94A31D89918823D9F7DF91CF91FF905E
:103C1000EF9008954F925F926F927F928F929F9252
:103C2000AF92BF92CF92DF92EF92FF920F931F93CA
:103C3000CF93DF935B016C01EA018091C30388237A
:103C400009F43EC0A114B104C104D104B1F12AE0C9
:103C5000922E8824E12C9AECF92E9AE9092F9BE305
:103C6000192F8AE0482E512C612C712CC601B50108
:103C7000A80197010E943B2C2115310541055105F2
:103C800011F4882079F0822F805D8993CA01B901EF
:103C9000A80197010E941C2CA61AB70AC80AD90AC3
:103CA000882483949A9459F0C801B701A301920122
:103CB0000E943B2C79018A01D9CF80E38993188235
:103CC000DF91CF911F910F91FF90EF90DF90CF90F8
:103CD000BF90AF909F908F907F906F905F904F902C
:103CE0000895EF92FF920F931F93DF93CF93CDB779
:103CF000DEB72B970FB6F894DEBF0FBECDBF7B01AA
:103D00008C018091C3038823E9F017FF0BC0109545
:103D10000095F094E094E11CF11C011D111D8DE251
:103D20000E94A31DC801B7018E010F5F1F4FA8019C
:103D30000E940A1E02C00E94A31DF80181918F01FA
:103D40008823C9F72B960FB6F894DEBF0FBECDBF00
:103D5000CF91DF911F910F91FF90EF9008950F93F6
:103D60001F93DF93CF93CDB7DEB72B970FB6F894A1
:103D7000DEBF0FBECDBF2091C303222371F08E01A1
:103D80000F5F1F4FA8010E940A1E02C00E94A31DC0
:103D9000F80181918F018823C9F72B960FB6F8940B
:103DA000DEBF0FBECDBFCF91DF911F910F91089560
:103DB000CF92DF92EF92FF920F931F93CF93DF93F7
:103DC000C82EE92E8B0184EC93E00E94F21DB8010D
:103DD00080E090E00E94AF1E8CEA93E00E94F21D0A
:103DE0008E2DEC2CF82EC0E0D0E068010894C108BC
:103DF000D1080FC0F70161917F0170E080E090E091
:103E00000E94AF1ECC15DD0518F48CE20E94EB1D5C
:103E10002196C017D10770F38FEA93E00E94F21D3C
:103E2000DF91CF911F910F91FF90EF90DF90CF9096
:103E30000895AF92BF92CF92DF92EF92FF920F93CD
:103E40001F93CF93DF93EC018091C303882309F480
:103E5000ECC083ED93E00E94BD1DC9848BE0C80EC9
:103E60008BE50E94EB1D7E0100E010E0DD24560191
:103E70000894A108B10810C0F70161917F0170E0BA
:103E800080E090E00E94AF1E0A151B051CF48CE236
:103E90000E94EB1D0F5F1F4F0C151D056CF38DE588
:103EA0000E94EB1D8FED93E00E94BD1DFE0161910C
:103EB0008F0170E080E090E00E94AF1E8CEE93E0F6
:103EC0000E94BD1DEE24FF24F80161918F0170E076
:103ED00080E090E00E94AF1EF5E0EF16F10419F0CB
:103EE0008AE30E94EB1D0894E11CF11C86E0E816B1
:103EF000F10451F786EF93E00E94BD1D8F81803160
:103F000069F0813118F4882331F013C0803259F000
:103F1000803379F40BC082E094E002C089E094E041
:103F20000E94F21D10C08DE094E0FACF83E194E08E
:103F3000F7CF8CE194E00E94BD1D6F8170E080E0BE
:103F400090E00E94AF1E84E294E00E94BD1D68854F
:103F500070E080E090E06F777070807090700E94E9
:103F6000AF1E888590E08F779070009719F482E3F8
:103F700094E002C080E494E00E94F21D8FE494E09B
:103F80000E94BD1D698570E080E090E00E94AF1E38
:103F90008EE594E00E94BD1D6A8570E080E090E0AF
:103FA0000E94AF1E8985843080F08DE694E00E94E7
:103FB000BD1D8B850E94EB1D8C850E94EB1D8D85A0
:103FC0000E94EB1D8E850E94EB1D8985853028F1AE
:103FD0003CEFE32EE80E8BE794E00E94BD1D8E01BE
:103FE000015F1F4FC0E0D0E0FF2467010894C108C3
:103FF000D1080FC0F80161918F0170E080E090E07E
:104000000E94AF1ECC15DD051CF48CE20E94EB1D56
:104010002196CE15DF0574F304C086E894E00E9473
:10402000BD1D81EB93E00E94BD1DDF91CF911F91DB
:104030000F91FF90EF90DF90CF90BF90AF900895D9
:10404000AF92BF92CF92DF92EF92FF920F931F93A6
:104050007B018C018091C303882309F447C0C80108
:10406000B7010E94F728D62EC72EB82EA92E0E947F
:10407000711E8EE20E94A31DC801B70120E030E04E
:104080004AE754E40E942F260E94F7287B018C0106
:104090006D2D7C2D8B2D9A2D28EE33E040E050E0E5
:1040A0000E941C2CE61AF70A080B190B17FF08C010
:1040B00010950095F094E094E11CF11C011D111D78
:1040C00084E6E816F1040105110564F480E30E941A
:1040D000A31D8AE0E816F104010511051CF480E334
:1040E0000E94A31DC801B7010E94AF1E1F910F912E
:1040F000FF90EF90DF90CF90BF90AF900895611543
:104100007105F1F0803261F0803391F08031D1F4AB
:1041100081E08093020A7093040A6093030A089571
:1041200081E08093A4097093A6096093A50908957E
:1041300081E0809346097093480960934709089588
:1041400080E0089580E00895EF92FF920F931F930F
:10415000CF93DF937B01EA0108810F30B9F010E0C3
:104160000E949C1AF801EE0FFF1FE00FF11FEE0FE7
:10417000FF1FEC0FFD1F6183728383839483F6829C
:10418000E58288818F5F888381E001C080E0DF91D4
:10419000CF911F910F91FF90EF900895282FCB01A1
:1041A000BA014115510589F0203239F0203341F030
:1041B000203169F447EA59E005C049E459E002C0FA
:1041C0004BEE58E00E94A420089580E0089580E01E
:1041D0000895AF92BF92DF92EF92FF920F931F93D9
:1041E000CF93DF93EB01D880DD2041F1DB01E0E0EC
:1041F000F0E022C05F011196ED90FD900D911C91B1
:10420000149731961696EC012B853C854D855E857D
:10421000E216F3060407150779F4F501EE0FFF1F08
:10422000EA0DFB1DEE0FFF1FE60FF71F0580F6815D
:10423000E02D099581E003C0ED15E0F280E0DF910B
:10424000CF911F910F91FF90EF90DF90BF90AF90B3
:104250000895EF92FF920F931F93E090050AF0905C
:10426000060A0091070A1091080A0E94181C9B0177
:10427000AC01C801B7010E94D72718165CF480E092
:1042800090E0DC018093050A9093060AA093070A48
:10429000B093080A5091050A4091060A3091070A26
:1042A0002091080A652F742F832F922F1F910F9151
:1042B000FF90EF90089560E040E00E94AD1A0895ED
:1042C000CF93DF93EC011092EA088B859C85AD8536
:1042D000BE858F3520E792072EE6A20727E6B207B4
:1042E00051F08F35EEE69E07EDE6AE07E3E7BE0739
:1042F00009F049C00DC080E28F838FE894E00E94EE
:104300009C1A6B877C878D879E8784E0898754C041
:104310008985843041F485E0898780E28F838091AC
:10432000D1088F8749C0853051F58F859091D1088C
:10433000891708F594E0998790E29F8390E0FC014B
:10434000EE0FFF1FE80FF91FEF52F74F2281338165
:1043500040E008C08C0F9D1FFC01578789858F5F47
:1043600089874F5F842F90E0F901E80FF91F508192
:10437000552381F721C0CE0160E045E01BC0CE018E
:1043800060E044E017C0CE0167EA79E00E94E920CE
:10439000813091F08091020A882371F0E091030A44
:1043A000F091040ACE010995882331F4CE01609181
:1043B000EA0841E00E94AD1ADF91CF910895CF93B2
:1043C000DF93EC011092EA0869E479E00E94E920A9
:1043D000813091F08091A409882371F0E091A509C2
:1043E000F091A609CE010995882331F4CE016091A0
:1043F000EA0842E00E94AD1ADF91CF910895CF9371
:10440000DF93EC011092EA086BEE78E00E94E9205D
:10441000813091F080914609882371F0E09147093D
:10442000F0914809CE010995882331F4CE016091BD
:10443000EA0843E00E94AD1ADF91CF910895CF932F
:10444000DF93EC018F81803171F0813118F4882382
:1044500031F015C0803259F0803389F40CC0CE01A0
:104460000E945B2111C0CE010E9460210DC0CE01CF
:104470000E94DF2109C0CE010E94FF2105C0CE01AC
:1044800060E04FE70E94AD1A80E888870E94181C00
:104490006093050A7093060A8093070A9093080AAE
:1044A000DF91CF9108959091D108292F30E0F90143
:1044B000EE0FFF1FE20FF31FEF52F74F818373835D
:1044C00062839F5F9093D1080895CF92DF92EF921D
:1044D000FF920F931F93DF93CF930F92CDB7DEB769
:1044E0008C017B016E010894C11CD11CC80141E004
:1044F00050E060E070E097010E946618F80180814A
:104500008330A9F0F894C701B60121E030E040E023
:1045100050E00E94FA17789484E994E00E94BD1D4F
:10452000F801608170E080E090E00E94AF1EC7015A
:104530000E946B176115710521F0F80180818330AD
:10454000A9F60F90CF91DF911F910F91FF90EF90FF
:10455000DF90CF900895AF92BF92CF92DF92EF920B
:10456000FF920F931F93DF93CF9300D0CDB7DEB7A9
:104570008C017B01CB010E946B176115710509F459
:1045800076C0C801B7010E946522C7010E946B175F
:104590006F30710508F46BC0B02EA12EC8014BE03E
:1045A00050E060E070E097010E9466186E01089488
:1045B000C11CD11CF8018081833029F4C8010E94FC
:1045C000221A882361F5F8018081833019F08EEA80
:1045D00094E007C0C8010E94221A882321F481ECCC
:1045E00094E00E94BD1DF801608170E080E090E0E1
:1045F0000E94AF1EF894C701B60121E030E040E010
:1046000050E00E94FA1778948B2D9A2D4BE050E0E1
:1046100060E070E097010E94661820E001C021E090
:10462000C7012A830E946B172A816115710529F43D
:10463000C801B7010E9465221AC0222309F4BACF2B
:10464000F801018510E0055F1F4FC7010E946B173D
:104650006017710760F0F894980140E050E0C701DE
:104660006B2D7A2D0E94FA17789481E001C080E0CA
:104670000F900F90CF91DF911F910F91FF90EF90CE
:10468000DF90CF90BF90AF90089540E00E94AB22A2
:10469000089541E00E94AB2208950E946B17CB0160
:1046A0000895FC01CA019B0140E050E0BF010E9457
:1046B000FA17CB010895EBE8F3E0DC0111962191A4
:1046C0002D9323E0E139F207D1F723E0FC012083A9
:1046D0000E94371A0895CF93DF93EC018885806894
:1046E0008887CE010E945B23CE010E944E1ABC0136
:1046F000CE010E94071DDF91CF910895EF92FF92A6
:104700000F931F937B018C0120E030E040E05FE4D9
:104710000E94072887FD11C0C801B70120E030E0E2
:1047200040E05FE40E94FE250E94F7289B01AC0157
:10473000205030404040504806C0C801B7010E9498
:10474000F7289B01AC01B901CA011F910F91FF909D
:10475000EF900895A4E0B0E0E0EBF3E20C945F2C5E
:10476000F22E132FE42ED52EC62E772E682E592E1C
:1047700029833A834B835C8389809A80AB80BC8099
:10478000A501940160E070E0CB018F1499F431171A
:1047900089F44E1579F45D1569F46C1559F47715A3
:1047A00049F4861539F4951529F4C501B4010E9420
:1047B0004929A9C02F2D312F4E2D5D2D6C2D772D20
:1047C000862D952D00E20E94C129C901DA018030B1
:1047D00000E0900701E0A00700E0B00750F48F3F31
:1047E0009105A105B10509F090F48824992454019C
:1047F00019C0803020E0920720E0A20721E0B20734
:1048000060F440E1842E912CA12CB12C0BC038E037
:10481000832E912CA12CB12C05C028E1822E912C45
:10482000A12CB12C082C04C0B695A7959795879517
:104830000A94D2F785529B4FFC018081880E911C0F
:10484000A11CB11C482C2F2D312F4E2D5D2D6C2D10
:10485000772D862D952D082D0E94C129A32FF42F89
:10486000E52F622F7A2F8F2F9E2F20E230E028191C
:104870003909E980FA800B811C8104C0EE0CFF1C11
:10488000001F111F2A95D2F7E114F104010511054B
:1048900009F061600E944929D62EE72EF82E192FC3
:1048A00000E280169104A104B104C9F02FE1821640
:1048B0009104A104B104B9F061E070E080E090E0FF
:1048C000042C04C0660F771F881F991F0A94D2F723
:1048D0000E949728562F472F382F292F08C050E0C5
:1048E00040E030E803C050E040E030E02FE46D2DC0
:1048F0007E2D8F2D912FDA01F9012B2F342F4F2F81
:104900005E2F0E942F262496E0E10C947B2CA0E0E1
:10491000B0E0EDE8F4E20C94612CFC01EA01808146
:10492000823008F438C1DB019C91923008F430C128
:10493000843059F4943009F02EC1918111968C91F4
:104940001197981709F021C126C1943009F420C1AC
:104950009230B1F4823009F01EC1CA01AF0128E0E3
:10496000DA010D90AD01DC010D92CD012150C1F7AE
:10497000DB0111968C9111979181892389830AC15A
:10498000823009F405C1C280D380DB0112966D909C
:104990007C90139724813581468157811496ED9040
:1049A000FD900D911C911797C601861997095C011E
:1049B00097FF04C0AA24BB24A81AB90AB0E2AB1618
:1049C000B1040CF061C0181619066CF537014801E6
:1049D0000A2C04C096948794779467940A94D2F72B
:1049E00081E090E0A0E0B0E00A2C04C0880F991F9D
:1049F000AA1FBB1F0A94D2F70197A109B1098E2102
:104A00009F21A023B123EE24FF248701E394009784
:104A1000A105B10519F4EE24FF248701E628F72843
:104A2000082919293CC00097D1F1CA0CDB1C3901B7
:104A30004A010A2C04C096948794779467940A9448
:104A4000D2F781E090E0A0E0B0E00A2C04C0880F2B
:104A5000991FAA1FBB1F0A94D2F70197A109B10998
:104A600082239323A423B52321E030E040E050E0EB
:104A70000097A105B10519F420E030E0A90126292D
:104A80003729482959290BC06C147D0424F4EE24DD
:104A9000FF24870104C0630120E030E0A901818187
:104AA000FB019181891709F445C0882349F0D80199
:104AB000C701821B930BA40BB50B9C01AD0104C075
:104AC0002E193F09400B510B57FD04C01982DB82A0
:104AD000CA820BC081E08983DB82CA8250954095EF
:104AE000309521953F4F4F4F5F4F2C833D834E8331
:104AF0005F830DC0880F991FAA1FBB1F8C839D83E6
:104B0000AE83BF838A819B8101979B838A838C813B
:104B10009D81AE81BF819C01AD012150304040405C
:104B200050402F3FEFEF3E07EFEF4E07EFE35E07FA
:104B300008F30BC08983DB82CA822E0D3F1D401F04
:104B4000511F2C833D834E835F8383E088832C81B8
:104B50003D814E815F8157FF1DC0DA01C90181701F
:104B60009070A070B0705695479537952795822B19
:104B7000932BA42BB52B8C839D83AE83BF838A811B
:104B80009B8101969B838A8305C0E3EDF4E003C01B
:104B9000FB0101C0FE01CF01CDB7DEB7EEE00C9402
:104BA0007D2CA0E2B0E0E7EDF5E20C94692C69837E
:104BB0007A838B839C832D833E834F83588789E040
:104BC000E82EF12CEC0EFD1ECE010196B7010E94DD
:104BD0005A2B8E010F5E1F4FCE010596B8010E9421
:104BE0005A2BC701B801AE01475E5F4F0E94872470
:104BF0000E948C2AA096E6E00C94852CA0E2B0E0FE
:104C0000E4E0F6E20C94692C69837A838B839C83BD
:104C10002D833E834F8358878E01075F1F4FCE0140
:104C20000196B8010E945A2B91E1E92EF12CEC0E6D
:104C3000FD1ECE010596B7010E945A2B8A8991E08C
:104C400089278A8BC801B701AE01475E5F4F0E947A
:104C500087240E948C2AA096E6E00C94852CA0E282
:104C6000B0E0E5E3F6E20C945D2C69837A838B83F4
:104C70009C832D833E834F835887CE010196BE01CE
:104C8000675F7F4F0E945A2BCE010596BE016F5E73
:104C90007F4F0E945A2B9985923078F08989823013
:104CA000C0F0943019F4823041F4CBC0843019F450
:104CB000923079F4C6C0923051F481E02A859A8905
:104CC000291709F480E08A87CE010996BCC082309A
:104CD00051F481E02A859A89291709F480E08A8BAA
:104CE000CE014196B0C06D847E848F849888ED8813
:104CF000FE880F89188DE0E2F0E080E090E0DC01B2
:104D0000AA24BB24650120E030E0A901B301617051
:104D1000707061157105D1F02E0D3F1D401F511FA0
:104D200015012601280E391E4A1E5B1E81E090E007
:104D3000A0E0B0E02E153F054007510718F080E0D5
:104D400090E0DC01820D931DA41DB51DAA0CBB1CB7
:104D5000CC1CDD1C17FF09C061E0262E312C412C34
:104D6000512CA228B328C428D528319749F0EE0C3D
:104D7000FF1C001F111F9694879477946794C6CFE9
:104D80006B897C89EB85FC856E0F7F1F6E5F7F4F83
:104D90007C8F6B8F61E0EA857A89E71709F460E020
:104DA0006A8F6B8D7C8D10C0FC01E170F0703097C4
:104DB00029F056954795379527955068B695A7954C
:104DC000979587956F5F7F4FB7FDEECF0CC0880F2B
:104DD000991FAA1FBB1F57FD8160220F331F441F5D
:104DE000551F615070408030E0E09E07E0E0AE0764
:104DF000E0E4BE0760F36B8F7C8F6FE7E62EF12C4B
:104E0000012D112DE822F9220A231B2360E4E61666
:104E1000F1040105110561F487FD0AC02115310572
:104E20004105510529F0805C9F4FAF4FBF4F8078FF
:104E30008D8F9E8FAF8FB8A383E0898FCE01499667
:104E400002C083ED94E00E948C2AA096E2E10C94CB
:104E5000792CA8E1B0E0EFE2F7E20C94652C6983CD
:104E60007A838B839C832D833E834F8358878E0167
:104E7000075F1F4FCE010196B8010E945A2B81E1B6
:104E8000E82EF12CEC0EFD1ECE010596B7010E9416
:104E90005A2B9985923008F483C08989823008F4AE
:104EA0007BC02A853A8923272A87943011F09230D3
:104EB00021F4981709F06CC071C0843039F41D8654
:104EC0001E861F86188A1C861B866AC0823019F4CB
:104ED00084E0898765C08B859C852B893C89821BF2
:104EE000930B9C878B872D853E854F855889ED8850
:104EF000FE880F89188D2E153F054007510738F49D
:104F0000220F331F441F551F01979C878B876FE12A
:104F100070E0A12CB12CC12CA0E4DA2E80E090E04E
:104F2000DC012E153F054007510740F08A299B29D7
:104F3000AC29BD292E193F09400B510BD694C794BB
:104F4000B794A794220F331F441F551F6150704020
:104F500041F76FE7E62EF12C012D112DE822F92201
:104F60000A231B2360E4E616F1040105110561F430
:104F700087FD0AC0211531054105510529F0805CE6
:104F80009F4FAF4FBF4F80788D879E87AF87B88B7D
:104F90008E01075F1F4F04C0870102C003ED14E0BC
:104FA000C8010E948C2A6896EAE00C94812CA8E142
:104FB000B0E0EDEDF7E20C94692C69837A838B8382
:104FC0009C832D833E834F8358878E01075F1F4F3D
:104FD000CE010196B8010E945A2B81E1E82EF12CF6
:104FE000EC0EFD1ECE010596B7010E945A2B898555
:104FF000823040F08989823028F0C801B7010E94D0
:10500000C32B01C08FEF6896E6E00C94852CA8E1D5
:10501000B0E0EDE0F8E20C94692C69837A838B832D
:105020009C832D833E834F8358878E01075F1F4FDC
:10503000CE010196B8010E945A2B81E1E82EF12C95
:10504000EC0EFD1ECE010596B7010E945A2B8985F4
:10505000823040F08989823028F0C801B7010E946F
:10506000C32B01C08FEF6896E6E00C94852CA8E175
:10507000B0E0EDE3F8E20C94692C69837A838B83CA
:105080009C832D833E834F8358878E01075F1F4F7C
:10509000CE010196B8010E945A2B81E1E82EF12C35
:1050A000EC0EFD1ECE010596B7010E945A2B898594
:1050B000823040F08989823028F0C801B7010E940F
:1050C000C32B01C081E06896E6E00C94852CA8E132
:1050D000B0E0EDE6F8E20C94692C69837A838B8367
:1050E0009C832D833E834F8358878E01075F1F4F1C
:1050F000CE010196B8010E945A2B81E1E82EF12CD5
:10510000EC0EFD1ECE010596B7010E945A2B898533
:10511000823040F08989823028F0C801B7010E94AE
:10512000C32B01C081E06896E6E00C94852CA8E0D2
:10513000B0E0EDE9F8E20C94692C7B018C0183E08E
:105140008983D801C7018827B7FD83959927AA27A6
:10515000BB27282F8A83E114F1040105110519F4F6
:1051600082E0898337C08EE190E09C838B83222389
:1051700089F080E0E81680E0F80680E0080780E823
:10518000180769F110950095F094E094E11CF11C6A
:10519000011D111DED82FE820F831887C801B70122
:1051A0000E94322A9C01215030401216130694F4BA
:1051B000022E04C0EE0CFF1C001F111F0A94D2F730
:1051C000ED82FE820F8318878EE190E0821B930BA5
:1051D0009C838B83CE0101960E948C2A04C060E0E0
:1051E00070E080E09FEC2896E6E00C94852CACE023
:1051F000B0E0EDEFF8E20C946D2C69837A838B8339
:105200009C83CE010196BE016B5F7F4F0E945A2B9B
:105210008D81823081F1823070F1843021F48E8171
:10522000882369F10AC02F81388537FD24C06E813B
:105230002F3131053CF0662311F120E030E040E0F1
:1052400050E821C08EE190E0821B930B29853A85BE
:105250004B855C8504C056954795379527958A956B
:10526000D2F7662381F050954095309521953F4FB8
:105270004F4F5F4F08C020E030E0A90104C02FEF7E
:105280003FEF4FEF5FE7B901CA012C96E2E00C94C3
:10529000892CA8E0B0E0EFE4F9E20C94672C7B01E4
:1052A0008C011A82611571058105910519F482E05E
:1052B00089835FC083E089838EE1C82ED12CDC8294
:1052C000CB82ED82FE820F831887C801B7010E944E
:1052D000322AFC013197F7FF3AC0AA27BB27AE1B41
:1052E000BF0B21E030E040E050E00A2E04C0220F66
:1052F000331F441F551F0A94D2F7215030404040BD
:1053000050402E213F214023512361E070E080E096
:1053100090E0211531054105510519F460E070E078
:10532000CB0104C016950795F794E794AA95D2F798
:10533000E62AF72A082B192BED82FE820F831887A5
:105340008EE190E08E1B9F0B9C838B8312C0309765
:1053500081F00E2E04C0EE0CFF1C001F111F0A94DA
:10536000D2F7ED82FE820F831887CE1ADF0ADC8225
:10537000CB82CE0101960E948C2A2896E8E00C94FC
:10538000832C0F93DF93CF93CDB7DEB760970FB623
:10539000F894DEBF0FBECDBF002309F459C02983A6
:1053A0003A834B835C836D837E838F839887E0E2AF
:1053B000E01B2D813E814F8158851E16BCF01D8655
:1053C0001E861F86188A8E2F992787FD90959095A7
:1053D00081959F4F04C056954795379527958A9597
:1053E000D2F729873A874B875C872AC0CA01B9015F
:1053F000002E04C096958795779567950A94D2F705
:105400006D877E878F87988BDA01C90104C0880F6A
:10541000991FAA1FBB1FEA95D2F729813A814B81B8
:105420005C8104C056954795379527950A95D2F724
:10543000822B932BA42BB52B89879A87AB87BC87AC
:1054400029853A854B855C856D857E858F85988914
:1054500060960FB6F894DEBF0FBECDBFCF91DF913F
:105460000F910895AF92BF92CF92DF92EF92FF9289
:105470000F931F937B018C0180E0E81680E0F80613
:1054800081E0080780E0180758F4EFEFEE16F1040A
:105490000105110509F090F480E090E0DC0117C0EF
:1054A000F0E0EF16F0E0FF06F0E00F07F1E01F0775
:1054B00050F480E190E0A0E0B0E009C088E090E026
:1054C000A0E0B0E004C088E190E0A0E0B0E020E21D
:1054D00030E040E050E0281B390B4A0B5B0B5701D2
:1054E000680104C0D694C794B794A7948A95D2F75C
:1054F000D601C50185529B4FFC018081281B3109D3
:1055000041095109C9011F910F91FF90EF90DF9060
:10551000CF90BF90AF900895EF92FF920F931F939B
:10552000CF93DF93FC0124813581468157816181CE
:105530008081823020F44061EFEFF0E0A3C084303E
:1055400009F49BC0823009F492C021153105410550
:10555000510509F48FC00280F381E02D8FEFE2380E
:10556000F8070CF05AC0C2E8DFEFCE1BDF0BCA31E0
:10557000D1056CF579018A010C2E04C016950795AA
:10558000F794E7940A94D2F781E090E0A0E0B0E0CD
:105590000C2E04C0880F991FAA1FBB1F0A94D2F7B4
:1055A0000197A109B10982239323A423B52321E004
:1055B00030E040E050E00097A105B10519F420E08B
:1055C00030E0A9012E293F29402B512B03C020E0B8
:1055D00030E0A901DA01C9018F779070A070B07036
:1055E00080349105A105B10539F427FF09C0205C7D
:1055F0003F4F4F4F5F4F04C0215C3F4F4F4F5F4FB6
:10560000E1E0F0E0203080E0380780E0480780E407
:10561000580728F5E0E0F0E022C0E038F1056CF52D
:10562000E158FF4FDA01C9018F779070A070B07018
:1056300080349105A105B10539F427FF09C0205C2C
:105640003F4F4F4F5F4F04C0215C3F4F4F4F5F4F65
:1056500057FF05C05695479537952795319687E0B2
:1056600056954795379527958A95D1F70BC0E0E079
:10567000F0E005C0E0E0F0E005C0EFEFF0E020E092
:1056800030E0A9018E2F879588278795942F9F77E3
:10569000679566276795E695E22EA92FA82BFE2F22
:1056A000F62B622F732F8A2F9F2FCDB7DEB7E6E040
:1056B0000C94852CDC01FB012C9111963C911197E7
:1056C00012968C911297482F4F7750E0982F991F80
:1056D0009927991F13966C911397862F880F892B02
:1056E00090E0661F6627661F6183009739F52115D4
:1056F00031054105510511F482E029C082E89FEF90
:105700009383828367E0220F331F441F551F6A95DE
:10571000D1F783E0808309C0220F331F441F551F38
:1057200082819381019793838283203080E03807C0
:1057300080E0480780E4580778F320C08F3F910548
:1057400079F4211531054105510519F484E0808370
:10575000089544FF03C081E0808310C010820EC012
:105760008F5790409383828383E0808387E0220F6A
:10577000331F441F551F8A95D1F750642483358306
:10578000468357830895FC01DB019081923008F431
:1057900049C08C91823008F445C0943051F4618145
:1057A0008430B1F511962C91119730E0261B310908
:1057B00041C0843021F0923041F48230B1F1119631
:1057C0008C9111978823A1F12DC06181823001F164
:1057D00011968C9111976817D9F422813381129612
:1057E0008D919C9113978217930794F0281739078E
:1057F000BCF0248135814681578114968D919D910D
:105800000D90BC91A02D82179307A407B50718F43B
:10581000662341F00DC0281739074A075B0728F4B3
:10582000662331F021E030E005C020E030E002C026
:105830002FEF3FEFC9010895629FD001739FF001E0
:10584000829FE00DF11D649FE00DF11D929FF00D10
:10585000839FF00D749FF00D659FF00D9927729F47
:10586000B00DE11DF91F639FB00DE11DF91FBD01D2
:10587000CF0111240895A1E21A2EAA1BBB1BFD0122
:105880000DC0AA1FBB1FEE1FFF1FA217B307E4071F
:10589000F50720F0A21BB30BE40BF50B661F771F77
:1058A000881F991F1A9469F7609570958095909557
:1058B0009B01AC01BD01CF0108952F923F924F9201
:1058C0005F926F927F928F929F92AF92BF92CF9290
:1058D000DF92EF92FF920F931F93CF93DF93CDB799
:1058E000DEB7CA1BDB0B0FB6F894DEBF0FBECDBF11
:1058F00009942A88398848885F846E847D848C84E2
:105900009B84AA84B984C884DF80EE80FD800C81EA
:105910001B81AA81B981CE0FD11D0FB6F894DEBFCD
:0C5920000FBECDBFED010895F894FFCF3D
:10592C005265736574696E67206173796E63207458
:10593C00696D652C207761733D002069733D004EC5
:10594C004F5F4348414E474500484947485F494DE2
:10595C00504544414E43450049535F444900495327
:10596C005F444F0049535F414E414C4F475F494E96
:10597C000049535F414E414C4F475F4F55540050C7
:10598C00574D00534552564F00554152545F545891
:10599C0000554152545F5258005350495F4D4F537C
:1059AC0049005350495F4D49534F005350495F5381
:1059BC00434B00434F554E5445525F494E5055543E
:1059CC005F494E5400434F554E5445525F494E501B
:1059DC0055545F44495200434F554E5445525F490C
:1059EC004E5055545F484F4D4500434F554E54450E
:1059FC00525F4F55545055545F494E5400434F55C8
:105A0C004E5445525F4F55545055545F44495200C3
:105A1C00434F554E5445525F4F55545055545F4863
:105A2C004F4D450049535F44435F4D4F544F525FB8
:105A3C004449520049535F44435F4D4F544F525FAA
:105A4C0056454C0049535F50504D5F494E00554EE2
:105A5C004B4E4F574E0001000000000000010000AB
:105A6C0001496E746572706F6C617465206F75742A
:105A7C00206F6620626F756E64732120676F743DB2
:105A8C0000206F6E2074696D653D00206F6E206381
:105A9C0068616E3D000101FF000000000000204124
:105AAC00000000000000C841000000410000C84197
:105ABC00000080410000C841676368760061617333
:105ACC006E0050757368696E6720646967697461EC
