:100000000C94CD000C94EA000C94EA000C94EA00E5
:100010000C94EA000C94EA000C94EA000C94EA00B8
:100020000C94EA000C94EA000C94EA000C94EA00A8
:100030000C94EA000C94EA000C94EA000C94241A44
:100040000C94EA000C94EA000C94EA000C94EA0088
:100050000C94BD1A0C94EA000C94EA000C94EA008B
:100060000C94EA000C94EA000C94EA000C94EA0068
:100070000C947F0D0C94EA000C94EA0041024402B7
:1000800047024A024D0250025302560259025C02D4
:100090005F0262026502850268026B026E027102F3
:1000A000740277027D027A028002F707FA07FD07E1
:1000B00000080608090810081308160819081C0883
:1000C0001F082208250828082B08310838083F088F
:1000D000420847084D08520857086908700879080F
:1000E0008108890890089908A108AB08B008B608EB
:1000F000BD08C508CC08D408DD08E708F3080109E5
:100100000909100918091F0928093E0945094E095E
:1001100056095E0965096E097609800985098B090A
:1001200092099A09A109A909B209BC09C809D60905
:10013000DE09E509ED09F409FD09B70EBD0EC30E90
:10014000C90ECF0ED50EDB0EE10EE70EED0EF30E4F
:10015000FC0E020F080F0E0F140F1A0F200F260FA0
:100160002C0F320F380F3E0F440F5B0F670F730FCA
:100170007F0F8B0F970FA30FAF0FBB0FC70FD30FBF
:10018000DF0FEB0FF70F03100F101B1027103310AA
:100190003F104B10571063106F1011241FBECFEF8C
:1001A000D0E1DEBFCDBF15E0A0E0B1E0E6ECF9E5BF
:1001B00002C005900D92A83DB107D9F71BE0A8ED4C
:1001C000B5E001C01D92AF3CB107E1F70E94EC0021
:1001D0000C94E12C0C9400000E94F70080E090E069
:1001E000089588ED95E060E00E94111B08954F92FC
:1001F0005F926F927F928F929F92AF92BF92CF92B7
:10020000DF92EF92FF920F931F93DF93CF93CDB7BF
:10021000DEB728970FB6F894DEBF0FBECDBF0E94A1
:10022000891B0E94B914DE011196EFE1F1E088E02C
:1002300001900D928150E1F72E010894411C511C50
:100240000F2EF0E06F2EF0E07F2EF0EF8F2EF1E416
:100250009F2EF02D0E943E128091260086FF09C03D
:100260000E94AA12882329F088ED95E060E00E94A0
:10027000111B88ED95E060E00E94111B8091260023
:1002800086FF49C0C2010E94041720E030E040E030
:1002900050E00E94092818162CF40E9404138823A9
:1002A000D1F134C00E9493195B016C01E980FA809E
:1002B0000B811C81C801B70120E030E040E050E034
:1002C0000E943928882344F0C801B701A60195018E
:1002D0000E9499281816FCF480E091E00E947E228A
:1002E00069817A818B819C810E94CA218AE191E097
:1002F0000E942622C601B5010E94CA216D827E821B
:100300008F829886A982BA82CB82DC8288ED95E0C2
:1003100060E00E94111B88ED95E060E00E94111BD7
:1003200099CFCF93DF93EC018F850E949102885083
:10033000823010F080E006C07A896B8989899889BB
:100340000E94590EDF91CF91089520E030E0F9012D
:10035000EB5CF54F8081827080832F5F3F4F2831A7
:100360003105A9F74091350A5091360AE091370AD4
:100370008091390A90913A0A20913B0A30913C0AC7
:1003800084688093390A946890933A0A2468209389
:100390003B0A346830933C0A80913D0A90913E0AB2
:1003A00020913F0A3091400A816880933D0A91680C
:1003B00090933E0A216820933F0A31683093400AA7
:1003C0008091410A81608093410A8091420A816054
:1003D0008093420A8091430A81608093430A80910E
:1003E000440A81608093440A7091450A6091460AEC
:1003F0008091380A40674093350A50675093360A17
:10040000E067E093370A80668093380A8091480A53
:1004100090914A0A20914C0A3091470A4091490A2A
:1004200050914B0A68666093460A80668093480A3A
:10043000906690934A0A206620934C0A78667093DF
:10044000450A30663093470A40664093490A506631
:1004500050934B0A08951F93182F90E0A0E0B0E04E
:100460008F779070A070B070FC018731910508F013
:100470004CC0E25CFF4FEE0FFF1F0590F491E02DA2
:10048000099487E291E03EC081E391E03BC080E4C3
:1004900091E038C086E491E035C08CE491E032C050
:1004A00089E591E02FC087E691E02CC08BE691E0D2
:1004B00029C081E791E026C089E791E023C081E867
:1004C00091E020C08AE891E01DC083E991E01AC064
:1004D0008BE991E017C08DEA91E014C08FEB91E0B9
:1004E00011C082ED91E00EC085EE91E00BC088EF67
:1004F00091E008C08CE092E005C08CE192E002C07F
:100500008CE292E00E9426220AC086E392E00E94DA
:100510002622612F70E080E090E00E949D211F91D3
:1005200008950E9432078F7708951F93182F0E9415
:100530003207813860F4812F0E9432078F77803133
:1005400031F0833121F0893011F080E001C081E089
:100550001F910895EF92FF920F931F93182FE62E8D
:10056000042FF22E0E945505812F602F0E94300922
:10057000812F6F2D0E945B08812F6E2D0E94AA078C
:100580001F910F91FF90EF9008950F931F93182FD5
:10059000062F0E945505002309F479C0802F90E0B2
:1005A0008F7790708A309105D4F4883091054CF59E
:1005B0008330910509F465C08430910524F40197D6
:1005C00009F067C01AC08630910509F44DC0873024
:1005D00091050CF053C0049709F05BC03BC0843117
:1005E000910544F48E3091050CF053C00D970CF03A
:1005F00050C01AC04697E4F14CC0812F0E945505A7
:1006000046C01051123008F049C080E168E041E076
:1006100021E00E94AA0281E169E040E021E00E941D
:10062000AA020E94790E33C0E12FF0E0EB5CF54F97
:10063000808184FF33C080E06CE040E021E00E94D4
:10064000AA0281E06BE040E021E00E94AA0282E081
:100650006AE021C0812F602F40E020E00E94AA02C2
:10066000812F0E949B0507C0812F0E94DB0A03C0D7
:10067000812F0E94E006882391F009C0812F0E94FB
:10068000650D812F602F41E020E00E94AA0281E0E9
:1006900006C0812F602F40E021E0F7CF80E01F915E
:1006A0000F9108951F93CF93DF93EC0110E0812FFA
:1006B0006F850E94C502882329F01F5F219618319B
:1006C000B1F781E0DF91CF911F910895FC019785EB
:1006D00060898185873018F0818981116068892F50
:1006E0000E94C50208951F93CF93DF93C0E0D0E02E
:1006F0001C2F8C2F60E00E9430098C2F60E00E943C
:100700005B08CE010E949107682F8C2F0E94A00ADF
:10071000CE010E949107682F8C2F20E030E040E04E
:1007200050E00E94200C8C2F0E94320782508D3F97
:1007300020F08C2F62E00E94AA07812F0E943207CE
:10074000682F812F0E94C5022196C831D10581F6FC
:10075000DF91CF911F910895982F833069F08730F2
:1007600059F0863049F0823039F0843129F080E048
:10077000953119F481E0089581E00895FC01608BC2
:100780000895FC01708B618B0895FC01708B618B67
:10079000528B438B0895FC0172896389818990890A
:1007A0000895CF92DF92EF92FF920F931F93D82E6E
:1007B000C42E780189010E9491028630C9F08730E9
:1007C00020F48250823030F407C0873051F08451D9
:1007D000823098F080E016C08D2D6C2D0E945B0851
:1007E00010C08D2D6C2DA80197010E94200C09C00E
:1007F0008D2D6C2D0E94A00A04C08D2D6C2D0E94A1
:10080000820681E01F910F91FF90EF90DF90CF90D3
:1008100008957F928F929F92AF92BF92CF92DF9274
:10082000EF92FF920F931F93CF93DF93FC01C28847
:10083000D188E088F784EC01BB247B888C889D8874
:10084000AE888B2D0E9491020E94AC03882369F030
:10085000C701B6010E947B298B019C018B2D4A2D7B
:10086000592D682D772D0E94D103B394249688E1E9
:10087000B81619F781E0DF91CF911F910F91FF908A
:10088000EF90DF90CF90BF90AF909F908F907F9030
:100890000895BF92CF92DF92EF92FF920F931F9332
:1008A000CF93DF93EC01BF848B2D0E949102182F10
:1008B0000E94AC038823E9F0C8888985873018F046
:1008C00079896A8902C060E070E0DD24EE24FF24AB
:1008D00080E090E00E947B298B019C018B2DB70169
:1008E000A6010E94D103CE0160E840E00E94451CB1
:1008F00010C0153081F01850123068F40985055089
:1009000010E004C08F850E94831A1F5F2196101784
:10091000C8F381E001C080E0DF91CF911F910F917A
:10092000FF90EF90DF90CF90BF9008951F93182F06
:100930000E9491028730E1F0883050F4843031F128
:10094000853018F4823068F00FC0863051F416C03C
:10095000833151F0843118F4803119F405C08631A7
:1009600088F021E030E016C0812F0E94E80703C024
:10097000812F0E94650B282F30E00CC0812F0E9430
:10098000CD0AF9CF812F0E946C06F5CF812F0E94EE
:100990003A069C01C9011F910895DF92EF92FF92E0
:1009A0000F931F93CF93DF938C01FC01E7848E2D6F
:1009B0000E949102F82E8E2D0E949604D82E8E2D24
:1009C0000E949502882311F00E94A40E80E2F80193
:1009D00087838F2D8451823090F0F3E0FF1679F0F9
:1009E00086E0F81661F0E7E0FE1649F0F2E0FF1647
:1009F00031F083E1F81619F0E0E1FE1621F4F80178
:100A0000D08A86E034C0F4E0FF1641F48E2D0E94B7
:100A10003A06F801908B818B87E029C0F8EFFF0E32
:100A200081E08F1510F480E024C085E0F801818713
:100A30000E946F0DEC010097D9F0C8010F96BE011E
:100A40000E94750D2E96F801EC0FFD1F2E9720E0E9
:100A500030E005C0808181832F5F3F4F31972C1795
:100A60003D07C0F381E1F801878781858C0F81877D
:100A700081E0DF91CF911F910F91FF90EF90DF9078
:100A800008950F931F93182F062F0E9491028650EE
:100A9000823010F080E006C0812F90E0602F0E942D
:100AA0008A0781E01F910F9108950F931F93082FDC
:100AB0000E949102182F802F0E94050A802F0E9409
:100AC000FA05802F0E94BA06812F8A50833080F465
:100AD00080E062E00E94AA0781E062E00E94AA072B
:100AE00082E062E00E94AA0783E062E00E94AA0717
:100AF0001850123058F4802F0E945C0E80E162E0A2
:100B00000E94AA0781E162E00E94AA07802F60E0AC
:100B10000E9430091F910F9108951F930E94A50113
:100B20000E94730310E0812F0E94E5121F5F1831AD
:100B3000D1F71F910895982FE82FF0E0EB5CF54F67
:100B4000808180FD02C080E0089580917C008F73D9
:100B500080937C0080917C008F7D80937C008091CD
:100B60007A00806880937A0080917A00877F8093F2
:100B70007A0080917A00876080937A0010927B00DF
:100B80009B30F1F09C3038F4993091F09A30A0F419
:100B9000983039F509C09D30D9F09D30A8F09E30CD
:100BA000D9F09F30F1F41FC080917E00816017C0A2
:100BB00080917E00826013C080917E0084600FC0AF
:100BC00080917E0088600BC080917E00806107C0AC
:100BD00080917E00806203C080917E00806480935B
:100BE0007E0081E0089580917E00806880937E0081
:100BF00081E00895982FE82FF0E0EB5CF54F8081BD
:100C000080FF37C09B30F1F09C3038F4993091F080
:100C10009A30A0F4983069F509C09D30D9F09D3024
:100C2000A8F09E30D9F09F3021F51EC080917E0043
:100C30008E7F17C080917E008D7F13C080917E00D3
:100C40008B7F0FC080917E00877F0BC080917E00DC
:100C50008F7E07C080917E008F7D03C080917E00D3
:100C60008F7B80937E00089580917E008F778093A4
:100C70007E0008951F93182F0E9491028430C9F4BA
:100C8000912F98509830A8F49F7180917C00807EBD
:100C9000892B80937C0080917A00806480937A0015
:100CA00080917A0086FDFCCF209178003091790008
:100CB00002C020E030E0C9011F910895883030F073
:100CC00080934D0A845080934E0A089580934E0A73
:100CD0008C5F80934D0A0895982FE82FF0E0EB5C2D
:100CE000F54F808187FD02C080E00895892F0E9422
:100CF0005E06E0914E0AF0E0EE0FFF1FEB5FF54F4E
:100D0000808108951F93CF93DF93982F162FE82F9C
:100D1000F0E0EB5CF54F808187FF28C0892F0E94AF
:100D20005E06C12FD0E0C058D040E0914E0AF0E0FE
:100D3000EE0FFF1FEB5FF54F10831C161D064CF4E2
:100D400080914D0A60E00E945B08CE01880F682FF9
:100D500009C080914D0A61E00E945B08CE01819537
:100D6000682F660F80914E0A0E94A00ADF91CF91F2
:100D70001F910895982FE82FF0E0EB5CF54F8081EC
:100D800087FF1DC0892F0E945E0680914E0A0E9437
:100D900091028431A1F480914D0A0E949102853123
:100DA00071F480914E0A0E94050A80914E0A62E019
:100DB0000E94AA0780914D0A62E00E94AA07089546
:100DC000982FE82FF0E0EB5CF54F808187FD02C0A3
:100DD00080E00895892F0E945E0680914E0A64E1AA
:100DE00041E020E00E94AA0280914D0A65E141E0C5
:100DF00020E00E94AA0280914E0A60E80E948206CA
:100E000081E00895F999FECF1FBA92BD81BDF89A8D
:100E100080B50895CB9624E08030920710F080E0F2
:100E200008950E9402070895FF920F931F9387E38E
:100E300090E00E940207F82E88E390E00E940207EB
:100E4000082F89E390E00E940207182F8AE390E0C0
:100E50000E940207682F712F802F9F2D1F910F91E5
:100E6000FF90089590E007960E9402070895CF939F
:100E7000DF9380E090E00E940207853269F4C1E0D0
:100E8000D0E0CE010E940207FE01E85BFC4F8083A8
:100E90002196C730D105A9F7DF91CF9108951F930F
:100EA000CF93DF93EC01162F0E940207811741F0C8
:100EB000F999FECF1FBAD2BDC1BD10BDFA9AF99AF9
:100EC000DF91CF911F910895CB9624E08030920757
:100ED00010F40E944F070895FF920F931F93F62E70
:100EE000072F182F692F87E390E00E944F0788E3B0
:100EF00090E0612F0E944F0789E390E0602F0E94ED
:100F00004F078AE390E06F2D0E944F071F910F91CA
:100F1000FF9008956F3F09F46EEF4F960E944F07C0
:100F200008950F931F93CF93DF93EC018C01015E23
:100F30001F4FC8010E9402078F3F21F4CE0160E8D5
:100F40000E948A07C8010E940207DF91CF911F917A
:100F50000F9108950F931F93182F062F0E943207A9
:100F6000801731F0812F90E00796602F0E944F0785
:100F70001F910F9108950F931F93CF93DF93182F15
:100F8000092F80E090E00E940207853211F480E092
:100F90001AC0812F902F9C018901C1E0D0E0F80197
:100FA00061918F01FE01E85BFC4F6083CE010E94DE
:100FB0004F072196C730D10591F780E090E065E2B8
:100FC0000E944F0781E0DF91CF911F910F9108950B
:100FD000E82FF0E0E831F10540F4EB5AFF4FEE0F57
:100FE000FF1F0590F491E02D099480E00895809111
:100FF000230033C0809123000EC08091230002C0E3
:10100000809129008295869587704FC08091290034
:1010100024C080912900829586958695837045C06D
:101020008091230036C0809123002EC08091200043
:101030003CC08091200038C08091200030C0809159
:10104000200027C0809120001FC080912000DACFAF
:1010500080912000E0CF80912000881F8827881F82
:1010600008958091C90083FD03C08091290011C0BB
:101070008091C90083FD03C08091290010C0809138
:101080002600C0CF8091260082958F700EC080917F
:10109000260086958695869508C0809126008695BF
:1010A000869503C080912600869581700895809171
:1010B000260081700895E82FF0E0E831F10508F08E
:1010C000CEC0E359FF4FEE0FFF1F0590F491E02DC6
:1010D0000994679566276795809125008F7737C0BB
:1010E00061706295660F660F607C809125008F7B32
:1010F0002EC061706295660F607E809125008F7DA5
:1011000026C061706295660F607E80912B008F7D96
:1011100074C067956627679580912B008F776DC0A7
:1011200061706295660F660F607C80912B008F7BEB
:1011300064C06170660F660F660F80912500877F1F
:1011400006C061706295607F809125008F7E862B3E
:101150008093250008956170809122008E7F33C0B6
:101160006170660F809122008D7F2DC06170660FC7
:10117000660F809122008B7F26C06170660F660F1C
:10118000660F80912200877F1EC061706295607F2C
:10119000809122008F7E17C061706295660F607E1D
:1011A000809122008F7D0FC061706295660F660F7F
:1011B000607C809122008F7B06C0679566276795CB
:1011C000809122008F77862B809322000895809152
:1011D000C90083FD44C06170660F660F660F809181
:1011E0002B00877F0AC08091C90083FD38C06170E1
:1011F000660F660F80912B008B7F862B80932B00D0
:10120000089561706295660F607E809128008F7DE1
:101210001BC061706295607F809128008F7E14C032
:101220006170660F660F660F80912800877F0CC083
:101230006170660F660F809128008B7F05C061701A
:10124000660F809128008D7F862B8093280008955B
:101250006170809128008E7F862B809328000895EE
:10126000E82FF0E0E831F10508F0CEC0EB57FF4F72
:10127000EE0FFF1F0590F491E02D09946795662706
:101280006795809124008F7737C061706295660FF3
:10129000660F607C809124008F7B2EC06170629508
:1012A000660F607E809124008F7D26C061706295FC
:1012B000660F607E80912A008F7D74C067956627D7
:1012C000679580912A008F776DC061706295660F77
:1012D000660F607C80912A008F7B64C06170660F0E
:1012E000660F660F80912400877F06C0617062954B
:1012F000607F809124008F7E862B80932400089548
:101300006170809121008E7F33C06170660F809183
:1013100021008D7F2DC06170660F660F80912100C6
:101320008B7F26C06170660F660F660F809121006B
:10133000877F1EC061706295607F809121008F7EE3
:1013400017C061706295660F607E809121008F7D6D
:101350000FC061706295660F660F607C80912100FE
:101360008F7B06C0679566276795809121008F77F0
:10137000862B8093210008958091C90083FD44C08D
:101380006170660F660F660F80912A00877F0AC022
:101390008091C90083FD38C06170660F660F80912F
:1013A0002A008B7F862B80932A00089561706295B6
:1013B000660F607E809127008F7D1BC061706295F3
:1013C000607F809127008F7E14C06170660F660F6A
:1013D000660F80912700877F0CC06170660F660FD3
:1013E000809127008B7F05C06170660F8091270078
:1013F0008D7F862B80932700089561708091270050
:101400008E7F862B8093270008958530D1F086301B
:1014100018F48430D9F40FC0863019F08730B1F455
:1014200004C0809144008F7303C0809144008F7C7E
:101430008093440008958091B0008F738093B00032
:1014400008958091B0008F7C8093B00008951F9321
:10145000182F0E949102863059F0812F0E9491022C
:10146000853131F0812F0E949102843109F066C0EC
:10147000153009F44DC0163020F4143009F05EC068
:1014800032C0163021F0173009F058C015C08091D5
:1014900024008860809324008091440083608093BE
:1014A000440080914500887F816080934500809151
:1014B00044008F73806814C0809124008061809301
:1014C0002400809144008360809344008091450013
:1014D000887F816080934500809144008F7C80628A
:1014E000809344002BC080912A00806880932A005A
:1014F0008091B00083608093B0008091B100887FBC
:1015000081608093B1008091B0008F73806814C0B7
:1015100080912A00806480932A008091B0008360CB
:101520008093B0008091B100887F81608093B1008A
:101530008091B0008F7C80628093B0001F910895ED
:101540000F931F93182F062F0E949102863051F09F
:10155000812F0E949102853129F0812F0E949102F2
:101560008431C1F4812F0E94270A153089F016308A
:1015700018F4143079F409C0163019F0173051F40A
:1015800002C007BD07C008BD05C00093B30002C07C
:101590000093B4001F910F9108951F93182F0E947C
:1015A0009102863011F080E004C0812F90E00E940B
:1015B00091071F9108951F93182FE82FF0E0EB5C1F
:1015C000F54F808182FD02C080E012C0812F66E06D
:1015D00041E020E00E94AA02812F0E94270A812F69
:1015E00090E00E949107682F812F0E94A00A81E05D
:1015F0001F9108958093E2060895982F1092E306B4
:10160000613059F48091240084608093240080919B
:10161000250084608093250008958150823018F45D
:1016200081E08093E306913011F0933069F480916A
:101630002400846080932400809125008B7F809318
:101640002500933069F00AC0809124008B7F80933D
:101650002400809125008B7F80932500992319F425
:1016600081E0809372020895982F1092E406613011
:1016700059F4809124008260809324008091250099
:101680008260809325000895813011F0833021F429
:1016900080912400826003C0809124008D7F80931C
:1016A0002400809125008D7F80932500892F815013
:1016B000823018F481E08093E406933011F099238E
:1016C00019F481E0809373020895E82FF0E0EE0FA3
:1016D000FF1FEB5FF54F80810895DF93CF9300D01C
:1016E00000D0CDB7DEB782E291E0A0E0B0E0898320
:1016F0009A83AB83BC8389819A81AB81BC8101973A
:10170000A109B10989839A83AB83BC830196A11D8A
:10171000B11D0097A105B10571F70F900F900F90C3
:101720000F90CF91DF910895AF92BF92CF92DF9249
:10173000EF92FF920F931F93CF93DF93A62EB82EB5
:1017400071C00E949319AB01BC01CB2DD0E0CE013A
:1017500034E0880F991F3A95E1F7815B954F0E941D
:10176000821C6B017C0120E030E04FE753E40E94D3
:101770000928181624F58EE392E00E947E22C70104
:10178000B6010E94CA218EE592E00E94262224E042
:10179000CC0FDD1F2A95E1F7C95AD54F68817981B1
:1017A0008A819B810E94CA210F2EF0E0CF2EF0E0AB
:1017B000DF2EFFE7EF2EF3E4FF2EF02D26C0C7014A
:1017C000B60120E030E040E050E00E946928882324
:1017D000E4F48EE392E00E947E22C701B6010E94EB
:1017E000CA2188E692E00E9426226B2D70E080E0FC
:1017F00090E00E949D210F2EF0E0CF2EF0E0DF2E32
:10180000F0E0EF2EF0E0FF2EF02D0B2D10E0000F9A
:10181000111F0B5F154FC701B6010E94B123F801DC
:101820006083B394BA1408F48CCFDF91CF911F91E9
:101830000F91FF90EF90DF90CF90BF90AF90089501
:101840008F929F92AF92BF92CF92DF92EF92FF92D0
:101850000F931F93CF93DF93982E862E59016A0121
:10186000CA01B90120E030E040EF51E40E9469284C
:10187000882354F40F2EF0E0AF2EF0E0BF2EF0E0FE
:10188000CF2EF0E0DF2EF02D092D10E07801EE0CC8
:10189000FF1CE70173E0CC0FDD1F7A95E1F7C95A11
:1018A000D54FA882B982CA82DB8264E0000F111F83
:1018B0006A95E1F75FE4C52E5AE0D52EC00ED11E21
:1018C000682D70E080E090E00E947B29F601608343
:1018D0007183828393830D5A154F85E09AE0E80E59
:1018E000F91EF701608170E080E090E00E947B29A2
:1018F000F80160837183828393830E949319F601B8
:101900006487758786879787F7018081881641F4F9
:1019100080E090E0A0E0B0E088839983AA83BB8355
:10192000FBE0F91518F01092720202C010927302D7
:10193000892D0E949102873011F490927402DF91F8
:10194000CF911F910F91FF90EF90DF90CF90BF90BC
:10195000AF909F908F9008951F93182F0E9491022F
:10196000873021F4812F60E00E945B081F91089569
:101970001F93182F0E9491028730F9F41C3058F001
:101980008091E406882321F48091E2068823A9F05F
:10199000809173020AC08091E306882321F480912C
:1019A000E206882351F080917202813031F0812F5C
:1019B00061E00E945B0881E001C080E01F91089512
:1019C000CF92DF92EF92FF920F931F93DF93CF930B
:1019D00000D000D0CDB7DEB7682F70E0CB0113E0A8
:1019E000880F991F1A95E1F7D82E6F5F7F4FB3E0EC
:1019F000660F771FBA95E1F7C62E0E94940B80916F
:101A0000280080688093280086E69EE00197F1F721
:101A10000D2D10E0EC2CFF2405C0802F0E94B80C87
:101A20000F5F1F4F0E151F05C0F382E291E0A0E08B
:101A3000B0E089839A83AB83BC8389819A81AB812F
:101A4000BC810197A109B10989839A83AB83BC83C7
:101A50000196A11DB11D0097A105B10571F700E028
:101A600010E017C0EF2DF0E0EE0FFF1FEB5FF54F1A
:101A7000808190E00817190719F48F2D0E94AC0C93
:101A8000F394FC1478F30F5F1F4F81E000301807C8
:101A900011F0FD2CF6CF809128008F7780932800DD
:101AA0001D2D04C0812F0E94AC0C1F5F1C15D0F3AC
:101AB0000F900F900F900F90CF91DF911F910F918A
:101AC000FF90EF90DF90CF9008951F93182F0E9402
:101AD0005505812F61E00E9430091F91089589E426
:101AE00097E00E94051FCB010895FC019B0140E097
:101AF00050E089E497E0BF010E949B1F08951F9268
:101B00000F920FB60F9211242F933F934F935F9331
:101B10006F937F938F939F93AF93BF93EF93FF93B5
:101B2000DF93CF930F92CDB7DEB76091CE0089E4FB
:101B300097E0AE014F5F5F4F0E940B1F0F90CF9158
:101B4000DF91FF91EF91BF91AF919F918F917F9125
:101B50006F915F914F913F912F910F900FBE0F901A
:101B60001F9018959B01AC01203880E7380780E072
:101B7000480780E0580709F481C0213880E738071A
:101B800080E0480780E05807B0F5203885E2380744
:101B900080E0480780E0580709F467C0213885E2F3
:101BA000380780E0480780E0580798F4203689E03D
:101BB000380780E0480780E0580709F450C0203C0F
:101BC00082E1380780E0480780E0580709F045C007
:101BD00049C0203488E3380780E0480780E0580790
:101BE00009F446C020308BE4380780E0480780E0E5
:101BF000580799F540C020308CE2380781E048074B
:101C000080E0580709F443C021308CE2380781E0B6
:101C1000480780E0580788F4203086E9380780E0DC
:101C2000480780E0580769F1203081EE380780E0EE
:101C3000480780E0580789F427C0203082EC380735
:101C400081E0480780E0580729F1203084E8380710
:101C500083E0480780E0580701F180E008958FEDA8
:101C600091E01DC08FEE90E01AC087E790E017C0AA
:101C70008FE490E014C08BE390E011C087E290E025
:101C80000EC08DE190E00BC083E190E008C08EE0D3
:101C900090E005C089E090E002C084E090E090937D
:101CA000CD008093CC00CA01B9010E946C0781E08D
:101CB00008950E94B20D0895982FE82FF0E0EB5C94
:101CC000F54F808183FF14C01092C900892F0E94B4
:101CD00091028850823060F480E162E040E021E0CF
:101CE0000E94AA0281E162E040E021E00E94AA0293
:101CF00008950E9414070E94B20D882331F460E019
:101D00007BE480E090E00E94B20D80E161E00E94FF
:101D1000300981E160E00E94300981E161E00E94C8
:101D20005B0886E08093CA0088E98093C90010921E
:101D3000C80089E497E065EE76E024E630E040E014
:101D400050E00E945B20089581E080935C07089535
:101D5000E82FF0E0E831F10540F4E356FF4FEE0FD5
:101D6000FF1F0590F491E02D099420E094C020E03D
:101D700080915D0790915E073BC020E080915F07F6
:101D80009091600735C020E08091610790916207D3
:101D90002FC020E0809163079091640729C020E064
:101DA000809165079091660723C020E080916707C6
:101DB000909168071DC020E08091690790916A07A3
:101DC00017C020E080916B0790916C0711C020E054
:101DD00080916D0790916E070BC020E080916F0796
:101DE0009091700705C020E0809171079091720773
:101DF000892B09F450C04EC020E080917307909168
:101E00007407F6CF20E08091750790917607F0CFA8
:101E100020E08091770790917807EACF20E08091C9
:101E2000790790917A07E4CF20E080917B07909129
:101E30007C07DECF20E080917D0790917E07D8CF90
:101E400020E080917F0790918007D2CF20E08091A1
:101E5000810790918207CCCF20E0809183079091F9
:101E60008407C6CF20E08091850790918607C0CF78
:101E700020E08091870790918807BACF20E0809179
:101E8000890790918A07B4CF20E080918B079091C9
:101E90008C07AECF21E0822F0895E82FF0E0E831E3
:101EA000F10508F028C1EB54FF4FEE0FFF1F05901E
:101EB000F491E02D099410925E0710925D0766235D
:101EC00031F081E090E090935E0780935D0710927F
:101ED000600710925F07662331F081E090E09093F5
:101EE000600780935F071092620710926107662374
:101EF00031F081E090E09093620780936107109247
:101F0000640710926307662331F081E090E09093BC
:101F10006407809363071092660710926507662333
:101F200031F081E090E0909366078093650710920E
:101F3000680710926707662331F081E090E0909384
:101F400068078093670710926A07109269076623F3
:101F500031F081E090E090936A07809369071092D6
:101F60006C0710926B07662331F081E090E090934C
:101F70006C0780936B0710926E0710926D076623B3
:101F800031F081E090E090936E0780936D0710929E
:101F9000700710926F07662331F081E090E0909314
:101FA000700780936F071092720710927107662373
:101FB00031F081E090E09093720780937107109266
:101FC000740710927307662331F081E090E09093DC
:101FD0007407809373071092760710927507662333
:101FE00031F081E090E0909376078093750710922E
:101FF000780710927707662331F081E090E09093A4
:1020000078078093770710927A07109279076623F2
:1020100031F081E090E090937A07809379071092F5
:102020007C0710927B07662331F081E090E090936B
:102030007C0780937B0710927E0710927D076623B2
:1020400031F081E090E090937E0780937D071092BD
:10205000800710927F07662331F081E090E0909333
:10206000800780937F071092820710928107662372
:1020700031F081E090E09093820780938107109285
:10208000840710928307662331F081E090E09093FB
:102090008407809383071092860710928507662332
:1020A00031F081E090E0909386078093850710924D
:1020B000880710928707662331F081E090E09093C3
:1020C00088078093870710928A07109289076623F2
:1020D00031F081E090E090938A0780938907109215
:1020E0008C0710928B07662331F081E090E090938B
:1020F0008C0780938B0708958B3009F446C08C3091
:1021000038F48930D1F08A3048F5883069F40FC04E
:102110008D3009F455C08D3008F444C08E3009F478
:1021200064C08F3009F472C040E050E080C040913C
:102130008D0780918E07582F79C080918E078695E4
:102140008695869590918F07292F2295220F207EC4
:10215000422F482B96959695969556C080918F075D
:10216000829586958695837020919007922F990F7E
:10217000990F492F482B22952695269523708091FB
:1021800091078170880F880F2DC0809191078695E7
:1021900090919207292F279522272795422F482B88
:1021A000969532C08091920782958F709091930797
:1021B000292F2295207F422F482B92959F7024C073
:1021C00080919307881F8827881F20919407922F5A
:1021D000990F492F482B221F2227221F80919507F4
:1021E0008370880F582F522B22C0809195078695B7
:1021F000869590919607292F2295220F220F207CF9
:10220000422F482B96959695592F10C0809196078E
:1022100082958695877020919707922F990F990F35
:10222000990F492F482B522F529556955770CA0136
:1022300008958B3009F45BC08C3040F48930E9F0AC
:102240008A30A8F5883009F0C7C00DC08D3009F478
:102250007BC08D3008F461C08E3009F491C08F309E
:1022600009F0BAC0A6C060938D07972F9770809130
:102270008E07887F892B80938E07962F990F990F51
:10228000990F80918E078770892B80938E07262F58
:1022900022952695277080918F07807C972F9770C5
:1022A000990F990F990F822B892B80938F07962F67
:1022B0009295990F990F907C80918F078F73892B3E
:1022C00080938F07972F9295990F990F907C862F67
:1022D00086958695892B80939007972F969596954E
:1022E0009170809191078E7F892B80939107962F13
:1022F000990F809191078170892B80939107262FE8
:10230000221F2227221F80919207807F972F97708C
:10231000990F822B892B80939207962F9295907F0D
:10232000809192078F70892B80939207262F229598
:102330002F70809193078078972F97709295907F58
:10234000822B892B80939307962F979599279795A2
:10235000809193078F77892B80939307972F979579
:1023600099279795862F8695892B80939407972F89
:1023700096959370809195078C7F892B8093950714
:10238000962F990F990F809195078370892B8093D1
:102390009507262F229526952695237080919607DE
:1023A000807E972F9770990F990F822B892B80939E
:1023B0009607962F9295990F907E809196078F7130
:1023C000892B809396077295770F707E6695669538
:1023D0006695672B609397070895EF92FF920F938E
:1023E0001F930F2EF0E0EF2EF0E0FF2EF8EC0F2FF2
:1023F000F1E41F2FF02DE0928102F092820200930F
:102400008302109384020E94931960937D0270935B
:102410007E0280937F0290938002E0928902F09284
:102420008A0200938B0210938C0220E030E040E09F
:1024300051E40E9436266093850270938602809351
:10244000870290938802E0929102F09292020093A8
:1024500093021093940220E030E040E051E40E94A7
:10246000362660938D0270938E0280938F02909334
:1024700090021F910F91FF90EF9008950E946F0DB1
:10248000892B11F00E94681460917D0270917E0288
:1024900080917F029091800220E030E040E050E0A7
:1024A0000E940928181614F00E94ED11609185020F
:1024B00070918602809187029091880220E030E03E
:1024C00040E050E00E940928181614F00E94ED1117
:1024D00060918D0270918E0280918F029091900296
:1024E00020E030E040E050E00E940928181614F087
:1024F0000E94ED118DE792E00E94041720E030E089
:1025000040E050E00E94092818161CF480E00E9468
:10251000E00C85E892E00E94041720E030E040E003
:1025200050E00E94092818161CF481E00E94E00C7B
:102530008DE892E00E94041720E030E040E050E097
:102540000E94092818162CF482E00E94E00C0E94D8
:10255000ED110895FF920F931F93CF93DF9300E047
:1025600010E0FF24F394812F0E949102823021F029
:10257000803111F08331D9F4812F0E94E807C0E047
:10258000D0E0882311F0C1E0D0E0D0939907C09348
:102590009807812F0E94A80E90E0C817D90739F03C
:1025A000F0925C07812F6C2F0E944D0F01E01F5F9E
:1025B0001831C9F6002311F00E940714802FDF9113
:1025C000CF911F910F91FF9008951F93182F0E9494
:1025D0009102843041F4812F0E943A06BC01812F80
:1025E0000E9419110FC0823021F0803111F0833127
:1025F00049F4812F0E94E80760E0811161E0812F9A
:102600000E944D0F1F910895DF92EF92FF920F935A
:102610001F93CF93DF9300E018E0DD24D394812F44
:102620000E949102843039F5812F0E943A06F82EDB
:10263000E92EC82FD92FD0939907C0939807812FDF
:102640000E947C109C0190939B0780939A07CE0177
:102650000A96821793073CF0CE010A97281739078C
:1026600054F42A9744F0D0925C07812F6F2D7E2D71
:102670000E94191101E01F5F103189F6002311F04B
:102680000E943414802FDF91CF911F910F91FF9002
:10269000EF90DF900895EF92FF920F931F93CF93E7
:1026A000DF93E82EEB0183E00E94781A8EE18A9591
:1026B000F1F710E08EE1F82E80E00E94781A0EE12A
:1026C0008F2D8A95F1F71F5F1630B1F780E20E94D7
:1026D000781A802F8A95F1F783EE0E94781A802F5E
:1026E0008A95F1F78E2D0E94781A802F8A95F1F73E
:1026F0008E2D8A5F0E94781A802F8A95F1F7888143
:102700000E94781A802F8A95F1F789810E94781AA1
:10271000802F8A95F1F78A810E94781A802F8A95F6
:10272000F1F78B810E94781A802F8A95F1F7DF915B
:10273000CF911F910F91FF90EF900895EF92FF922C
:102740000F931F93182F062F809128008068809385
:10275000280096E6E92E9EE0F92EC7010197F1F7D1
:1027600086E065E972E00E944B13812F0E94781A7F
:102770001EE1812F8A95F1F7802F0E94781A1A9511
:10278000F1F7809128008F7780932800C701019787
:10279000F1F71F910F91FF90EF900895DF92EF9264
:1027A000FF920F931F93182FD62E072F809128008A
:1027B00080688093280026E6E22E2EE0F22EC701E4
:1027C0000197F1F787E065E972E00E944B13812FD2
:1027D0000E94781A1EE1812F8A95F1F7802F0E94BE
:1027E000781A812F8A95F1F78D2D0E94781A1A9503
:1027F000F1F7C7010197F1F7809128008F77809357
:1028000028001F910F91FF90EF90DF9008950F9394
:102810001F938AE992E00E947E22809128008068BE
:102820008093280086E69EE00197F1F78CE16AEA42
:1028300072E00E944B1310E00EE1812F0E94A80E5F
:102840000E94781A802F8A95F1F71F5F1831A9F737
:1028500086E69EE00197F1F7809128008F778093BC
:1028600028001F910F910895FF920F931F9380915D
:10287000280080688093280086E69EE00197F1F7A3
:1028800084E16FEA72E00E944B1308E03EE1F32E10
:10289000802F0E947C10182F892F0E94781A8F2D6C
:1028A0008A95F1F7812F0E94781A8F2D8A95F1F77A
:1028B0000F5F003169F7809128008F77809328009F
:1028C00086E69EE00197F1F71F910F91FF90089522
:1028D000BF92CF92DF92EF92FF920F931F93DF93FD
:1028E000CF930F92CDB7DEB70E946F0D7C01809120
:1028F000280080688093280086E69EE00197F1F723
:102900008E2D8B5F65E972E00E944B1381E10E947E
:10291000781A8EE18A95F1F700E010E06E010894D4
:10292000C11CD11C4EE1B42E0DC0C60161E070E0A7
:102930000E94750D89810E94781A8B2D8A95F1F776
:102940000F5F1F4F0E151F0580F3809128008F77B2
:102950008093280086E69EE00197F1F70F90CF91D3
:10296000DF911F910F91FF90EF90DF90CF90BF907C
:1029700008950E94DF2080912700806880932700BF
:10298000809127008F7B80932700809128008F778C
:102990008093280080912800806480932800809193
:1029A00024008B7F80932400809125008B7F80936F
:1029B0002500809124008D7F809324008091250044
:1029C0008D7F8093250080E060E00E94FD0A80E01A
:1029D00060E00E94340B0E948D0580E164E376E1A3
:1029E0000E947F1780E260E875E10E947F1780E314
:1029F00063E075E10E947F170E94DF2084EB92E084
:102A00000E947E2208950F931F93CF93DF93EC01D2
:102A100086E080939C078B859C85AD85BE8583363B
:102A200023E6920728E6A2072EE6B207F1F08436E5
:102A300023E6920728E6A2072EE6B20730F48F5568
:102A40009D46A146B34679F41EC080372FE6920713
:102A500026E7A20722E7B20709F443C0835793464B
:102A6000A846B64701F180E046C0CE010E94910120
:102A7000482F882321F4CE0160919C072FC0CE01FE
:102A800060919C0735C0CE010F960E94BB0788233A
:102A900029F0CE0160919C0741E02AC0CE016091EF
:102AA0009C0741E01BC00F851889CE010E94490494
:102AB000882381F0802F612F0E944105882329F00F
:102AC000CE0160919C0742E013C0CE0160919C074B
:102AD00042E004C0CE0160919C0743E00E94251CA7
:102AE00009C08F850E94FA0ACE0160919C0743E0DD
:102AF0000E94451C81E0DF91CF911F910F910895B5
:102B0000CF92DF92EF92FF920F931F93CF93DF93B9
:102B1000EC0185E080939C078B859C85AD85BE8507
:102B2000833723E6920728E6A2072DE6B20771F164
:102B30008437E3E69E07E8E6AE07EDE6BE0778F4E5
:102B40008536F5E69F07F0E7AF07F4E6BF0709F41F
:102B50005CC083579146A346BD46B1F422C083377B
:102B6000E1E69E07E3E6AE07E6E7BE07A1F183379D
:102B7000F3E69F07F8E6AF07F6E7BF07E9F08F55E2
:102B80009047A747B247C1F180E065C0CE010E94DF
:102B90006603882309F05EC0CE0160919C0740E087
:102BA00057C0CE010E945203882309F053C0CE01C2
:102BB00060919C0741E04CC0CE010E9449048823EB
:102BC00029F0CE0160919C0742E00EC0CE016091D9
:102BD0009C0742E03DC0CE010E940904882339F0E1
:102BE000CE0160919C0745E20E94451C33C0CE0196
:102BF00060919C0743E02CC089896F850E94FD0A83
:102C00008A8968890E94340B25C08F85482F50E03F
:102C10008889282F30E024173507B8F07E01EA01B3
:102C200000E010E06901CC1ADD0A08C0CE01F7010E
:102C300060890E9464070F5F1F4F21960894E11C72
:102C4000F11C0C151D0590F305C0CE0165E044E0B4
:102C50000E94251C81E0DF91CF911F910F91FF9081
:102C6000EF90DF90CF9008958F929F92AF92BF9296
:102C7000CF92DF92EF92FF920F931F93DF93CF9348
:102C80000F92CDB7DEB74C0184E080939C07F4012E
:102C900083859485A585B6858736F1E69F07F3E69B
:102CA000AF07FDE6BF07B9F1883621E6920723E6B4
:102CB000A2072DE6B20778F48536E5E69E07E0E741
:102CC000AE07E4E6BE0709F447C083579146A6471E
:102CD000B546B9F472C08F3522E7920725E6A20700
:102CE00026E7B20709F460C08736E3E69E07E8E608
:102CF000AE07E6E7BE0719F187569346A846BD46DC
:102D000011F080E071C0F40187850E943207F40160
:102D1000808B86E010C0840190E0892F99830E9407
:102D20003207F801878799819F5F0F5F1F4F9831A6
:102D3000A1F78CE1F401818780E2878354C00E946F
:102D4000A40EC4010E94CD04882309F04CC0C40124
:102D500060919C0740E025C0F401C7842C2D30E031
:102D6000D088AD2CBB2480E28783A216B306B0F0D6
:102D70007401890107C0C8010E940A07F70186870C
:102D80000F5F1F4F0894E11CF11C0A151B0598F3F7
:102D9000F4E0DF0EDC18F401D18625C0C40164E044
:102DA00041E00E94251C1FC083E0F401878797E063
:102DB000908B83E1818B918716C080E2F401878339
:102DC0008CE181878401EE24FF24C7010E949107D2
:102DD000F80187870894E11CF11C0F5F1F4FF8E191
:102DE000EF16F10491F781E00F90CF91DF911F91E1
:102DF0000F91FF90EF90DF90CF90BF90AF909F909A
:102E00008F90089581E008956F927F928F929F92A4
:102E1000AF92BF92CF92DF92EF92FF920F931F93E8
:102E2000CF93DF93EC010E9493197B018C012881E1
:102E300039814A815B810E946928882324F4E882D1
:102E4000F9820A831B83C801B701288139814A812D
:102E50005B810E9405263B014C01AC80BD80CE8089
:102E6000DF80A60195010E94092818162CF0E0E0E9
:102E700070E080E060E016C0C801B701A4019301D2
:102E80000E940526A60195010E9436266883798353
:102E90008A839B83C401B301A60195010E94052684
:102EA000E62F692F2E2F372F482F562FB901CA0131
:102EB000DF91CF911F910F91FF90EF90DF90CF9016
:102EC000BF90AF909F908F907F906F9008951F93C9
:102ED00090E023E0880F991F2A95E1F78D529D4FCE
:102EE0000E94041710E020E030E040E050E00E9433
:102EF000092818160CF411E0812F1F91089561150F
:102F00007105F1F0803261F0803391F08031C1F4CD
:102F100081E08093CD087093CF086093CE08089528
:102F200081E080936F087093710860937008089532
:102F300081E080931108709313086093120808953C
:102F400080E00895CF92DF92EF92FF920F931F934C
:102F5000CF93DF938C01EB017881772339F160E027
:102F600023C0862F90E0FC01EE0FFF1FE80FF91F32
:102F7000EE0FFF1FEC0FFD1F218132814381548131
:102F8000D8011B96CD90DD90ED90FC901E972C15EE
:102F90003D054E055F0539F40580F681E02DC80139
:102FA000099581E004C06F5F6717D8F280E0DF9178
:102FB000CF911F910F91FF90EF90DF90CF900895E8
:102FC00090919D07292F30E0F901EE0FFF1FE20FCE
:102FD000F31FE356F84F8183738362839F5F90935F
:102FE0009D070895CF93DF93EC011092D00866EB14
:102FF00077E00E94A217813091F080911108882318
:1030000071F0E0911208F0911308CE010995882320
:1030100031F4CE016091D00843E00E94251CDF917D
:10302000CF910895CF93DF93EC011092D00864E123
:1030300078E00E94A217813091F080916F08882378
:1030400071F0E0917008F0917108CE010995882324
:1030500031F4CE016091D00842E00E94251CDF913E
:10306000CF91089560E040E00E94251C08950F93E1
:103070001F93DF93CF9300D00F92CDB7DEB78C01B3
:103080001092D008FC0183859485A585B6858F357F
:10309000F0E79F07FEE6AF07F7E6BF0739F08F5569
:1030A0009E46AD46B34709F056C00FC080E2F80116
:1030B000878383E093E00E94121CF8016387748782
:1030C0008587968784E081875FC0F8018185843099
:1030D00041F485E0818780E2878380919D0787871F
:1030E00053C08530A1F5F801978580919D07981709
:1030F00050F584E0818780E28783892F90E0FC018E
:10310000EE0FFF1FE80FF91FDE011196E256F84F90
:1031100083E001900D928150E1F72A813B8190E09C
:1031200009C0A00FB11F1F96EC93F80181858F5F36
:1031300081879F5FA92FB0E0F901EA0FFB1FE081B3
:10314000EE2379F721C0C80160E045E01BC0C8014B
:1031500060E044E017C0C80162E778E00E94A2176F
:10316000813091F08091CD08882371F0E091CE08F4
:10317000F091CF08C8010995882331F4C801609106
:10318000D00841E00E94251C0F900F900F90CF9126
:10319000DF911F910F910895EF92FF920F931F936C
:1031A000CF93DF937B01EA0108810F3011F480E0B7
:1031B00016C010E00E94121CF801EE0FFF1FE00F76
:1031C000F11FEE0FFF1FEC0FFD1F618372838383DE
:1031D0009483F682E58288818F5F888381E0DF9126
:1031E000CF911F910F91FF90EF90089541155105D8
:1031F000B9F0803249F0803361F0803189F4CB013D
:10320000BA0142E758E009C0CB01BA0144E158E0F5
:1032100004C0CB01BA0146EB57E00E94CC180895D8
:1032200080E00895CF93DF93EC018F81803171F0BE
:10323000813118F4882331F015C0803259F0803381
:1032400089F40CC0CE0160E040E00FC0CE010E94C6
:1032500037180DC0CE010E94121809C0CE010E947D
:10326000F21705C0CE0160E04FE70E94251C80E800
:1032700088870E9493196093D1087093D208809335
:10328000D3089093D408DF91CF910895EF92FF92E5
:103290000F931F93E090D108F090D2080091D308CB
:1032A0001091D4080E9493199B01AC01C801B70189
:1032B0000E940928181664F480E090E0A0E0B0E0D5
:1032C0008093D1089093D208A093D308B093D408E8
:1032D0002091D1083091D2084091D3085091D40860
:1032E000B901CA011F910F91FF90EF900895AC01B1
:1032F00020E030E09EE112C0FA01E20FF31FE0810E
:103300008091C00085FFFCCFE093C600892F8A958D
:10331000F1F7892F8A95F1F72F5F3F4F261737076F
:1033200058F3CB010895AF92BF92CF92DF92EF9204
:10333000FF920F931F93A0908400B0908500CC243F
:10334000DD248091D5089091D608A091D708B0913E
:10335000D808A80EB91ECA1EDB1E9501A60160E0A2
:1033600070E080E090E00E94DD2320E030E040E962
:1033700051E40E945D277B018C016091D908709116
:10338000DA088091DB089091DC080E947B2920E01C
:1033900030E040E85FE40E94632620E030E040E94E
:1033A00051E40E945D279B01AC01C801B7010E9456
:1033B00036261F910F91FF90EF90DF90CF90BF9036
:1033C000AF9008951092D5081092D6081092D708A1
:1033D0001092D808809180008C7F8093800080912B
:1033E0008100887F85608093810080916F0081607B
:1033F00080936F000895AF92BF92CF92DF92EF92C9
:10340000FF920F931F93A0908400B0908500CC246E
:10341000DD248091D5089091D608A091D708B0916D
:10342000D808A80EB91ECA1EDB1E9501A60160E0D1
:1034300070E080E090E01F910F91FF90EF90DF909F
:10344000CF90BF90AF9008951F920F920FB60F923A
:1034500011242F933F934F935F938F939F93AF9339
:10346000BF932091D5083091D6084091D70850914C
:10347000D808DA01C90180509040AF4FBF4F809308
:10348000D5089093D608A093D708B093D808821790
:103490009307A407B507F8F41092D5081092D60840
:1034A0001092D7081092D8081092850010928400CC
:1034B0008091D9089091DA08A091DB08B091DC08DE
:1034C0000196A11DB11D8093D9089093DA08A093AD
:1034D000DB08B093DC08BF91AF919F918F915F9112
:1034E0004F913F912F910F900FBE0F901F90189505
:1034F000982F8091C00085FFFCCF9093C6008EE18D
:103500008A95F1F70895982F8091C900882369F46E
:103510001092CD0089E08093CC0086E08093CA00B1
:1035200088E08093C9001092C8008091C80085FF90
:10353000FCCF9093CE008EE18A95F1F708950E941A
:10354000831A08959093C5008093C40086E2809307
:10355000C20088E98093C1001092C00008951092C3
:10356000CD0089E08093CC0086E08093CA0088E09B
:103570008093C9001092C80008951F920F920FB651
:103580000F9211242F933F934F935F936F937F93E9
:103590008F939F93AF93BF93EF93FF93DF93CF935B
:1035A0000F92CDB7DEB7F8946091C60087EE99E030
:1035B000AE014F5F5F4F0E940B1F78940F90CF9129
:1035C000DF91FF91EF91BF91AF919F918F917F918B
:1035D0006F915F914F913F912F910F900FBE0F9080
:1035E0001F901895F8941092C50084E08093C40051
:1035F00086E28093C20088E98093C1001092C000E7
:1036000087EE99E06DED78E02AE031E040E050E0AF
:103610000E945B207894089567EE79E00E94961EE0
:103620000895FF920F931F93CF93DF93EC01F62E33
:103630000E940C1B882309F466C0FF2081F08B8553
:103640009C85AD85BE858F559047A747B24739F019
:1036500088E093E00E947E22CE010E94A6228E0185
:103660000F5F1F4F89E493E0B8010E94651C813011
:1036700039F083E493E0B8010E94651C813069F55C
:10368000CE010E94121990E00BC0E92FF0E0DE019C
:10369000AE0FBF1FE75BFC4F808111968C939F5F3D
:1036A000963098F39093FA09CE010E94AB1BCE019D
:1036B0000E94871DFF2031F18B859C85AD85BE85DD
:1036C0008F559047A747B247E9F08DE093E00E94FD
:1036D0007E22CE010E94A62215C0FF2099F087E12C
:1036E00093E00E947E22C80166E070E00E944022C2
:1036F00084E393E00E94262289E493E066E070E090
:103700000E94402281E0DF91CF911F910F91FF90A5
:1037100008950E94E2190E94F21A81E16FE473E0B9
:103720000E94E0170895DC0120E030E090E007C03F
:10373000FD01E90FF11D8081280F311D9F5F9A3037
:10374000B8F39093FB0990E01A968C91821709F4D4
:1037500091E0892F0895DC0120E030E090E007C07F
:10376000FD01E90FF11D8081280F311D9F5F9A3007
:10377000B8F39093FB091A962C930895FC01618786
:10378000862F90E00895FC01218530E0255F3F4FB2
:10379000C9010895FC01818590E00895CF93DF93DE
:1037A000EC0120E008C0FB01EA0FFB1FAC0FBD1FBE
:1037B0008C9180832F5FA22FB0E0898590E00A96DC
:1037C0008A179B0784F7DF91CF910895EF92FF92BC
:1037D0000F931F93E62EFF2400E010E08701FF24E3
:1037E000EE2490E0A0E0B0E0B82FAA279927882720
:1037F000E80EF91E0A1F1B1F50E060E070E0762FF4
:10380000652F542F4427E40EF51E061F171FE20EE6
:10381000F11C011D111DB701C8011F910F91FF90EF
:10382000EF900895FC0183818093FF09828180934A
:10383000FE0981818093FD0960816093FC09782FE6
:103840008091FE099091FF090895EF92FF920F93E6
:103850001F938C01F62EE42EFC01178280E693E084
:103860000E94121CF801638774878587968780857C
:103870008078808786E08187F786E08A86E090E01E
:103880001F910F91FF90EF900895EF92FF920F9389
:103890001F938C01F62EE42EFC01178285E693E03F
:1038A0000E94121CF801638774878587968780853C
:1038B0008078808786E08187F786E08A86E090E0DE
:1038C0001F910F91FF90EF900895AC011092FB09AA
:1038D00020E012C0E22FF0E0322F3F5FDA01AE0F9E
:1038E000BF1FE60FF71F9C918081981721F020934E
:1038F000FB0980E00895232F263060F32093FB0915
:1039000081E008952F923F924F925F926F927F9243
:103910008F929F92AF92BF92CF92DF92EF92FF92DF
:103920000F931F93DF93CF9300D000D0CDB7DEB7B6
:103930008C015A016B01DC0118962D903D904D9041
:103940005C901B97C201B10120E030E040E050E004
:103950000E94092818160CF097C0C601B501F8019D
:1039600024853585468557850E9405263B014C01F7
:10397000A20191010E94692888230CF077C0C4013C
:10398000B30120E030E040E050E00E940928181622
:103990000CF06CC0D801AD90BD90CD90DC90139729
:1039A00014968D919D910D90BC91A02D89839A8341
:1039B000AB83BC83C601B50129813A814B815C810F
:1039C0000E9405267B018C01C201B101A401930173
:1039D0000E940526A20191010E945D279B01AC0176
:1039E00060E070E080E89FE30E9405269B01AC0147
:1039F000C801B7010E9463269B01AC0169817A81ED
:103A00008B819C810E9436263B014C01C601B50189
:103A100029813A814B815C810E94092818169CF407
:103A2000C401B301A60195010E9409281816ECF102
:103A3000C401B30129813A814B815C810E946928CC
:103A400087FD33C030C0C401B301A60195010E94B7
:103A5000692887FD2AC0C401B30129813A814B81BD
:103A60005C810E940928181604F11DC080E090E0D6
:103A7000A0E0B0E0F80180879187A287B387A0809B
:103A8000B180C280D38011C0D801AD90BD90CD90DF
:103A9000DC9080E090E0A0E0B0E0F80180879187C2
:103AA000A287B38702C064015301B501C6010F901C
:103AB0000F900F900F90CF91DF911F910F91FF907A
:103AC000EF90DF90CF90BF90AF909F908F907F90BE
:103AD0006F905F904F903F902F900895FC018091E0
:103AE0004903818380914A03828380914B038383BE
:103AF00080914C03848380914D03858380914E0394
:103B0000868383E08083CF010E94AB1B08950F93CF
:103B10001F938C01FC01808580688087C8010E940A
:103B20006E1DC8010E94C31BBC01C8010E94771909
:103B30001F910F9108950F931F93FC018B01CA01F0
:103B400020E030E0BF01A90198010E949B1FCB013A
:103B50001F910F9108950E94051FCB010895AF9208
:103B6000BF92CF92DF92EF92FF920F931F93DF935A
:103B7000CF930F92CDB7DEB78C017B015C016E0154
:103B80000894C11CD11CC50141E050E060E070E028
:103B900097010E94FA1FF80180818330A9F0F89400
:103BA000C701B60121E030E040E050E00E949B1FD9
:103BB00078948AE693E00E947E22F801608170E0AA
:103BC00080E090E00E949D21C7010E94051F672BA5
:103BD00021F0F80180818330B1F60F90CF91DF9111
:103BE0001F910F91FF90EF90DF90CF90BF90AF901B
:103BF00008958F929F92BF92CF92DF92EF92FF92A1
:103C00000F931F93DF93CF930F92CDB7DEB78C0145
:103C10007B01CB010E94051F672B09F475C0C80109
:103C2000B7010E94AF1DC7010E94051F6F307105CB
:103C300008F46AC0C02EB12EC8014BE050E060E02D
:103C400070E097010E94FA1F4E010894811C911C9C
:103C5000F8018081833041F4C8010E94931B8823BE
:103C600019F0DD24D3942BC0F8018081833019F042
:103C700084E893E007C0C8010E94931B882321F4C5
:103C800087E993E00E947E22F801608170E080E085
:103C900090E00E949D21F894C701B40121E030E03A
:103CA00040E050E00E949B1F78948C2D9B2D4BE0B0
:103CB00050E060E070E097010E94FA1FDD24C70128
:103CC0000E94051F672B29F4C801B7010E94AF1D90
:103CD0001BC0DD2009F4BCCFF8018185082F10E05E
:103CE000055F1F4FC7010E94051F6017710760F035
:103CF000F894980140E050E0C7016C2D7B2D0E94A4
:103D00009B1F789481E001C080E00F90CF91DF91FC
:103D10001F910F91FF90EF90DF90CF90BF909F90F9
:103D20008F90089541E00E94F91D089540E00E949F
:103D3000F91D0895F89481E00895789481E008953C
:103D4000CF93DF93EC0120E030E040E050E009C089
:103D5000EC81FD81E20FF31F10822F5F3F4F4F4F29
:103D60005F4F88819981AA81BB81281739074A074B
:103D70005B0770F32093000A3093010A4093020A14
:103D80005093030ADF91CF910895FC01A481B5817E
:103D900086819781A80FB91F8C910895FC01228517
:103DA0003385668177812617370729F416861786AB
:103DB000108A118A25C06217730744F4261B370B3B
:103DC000C901AA2797FDA095BA2F16C0C901AA2735
:103DD00097FDA095BA2F2081318142815381820FB6
:103DE000931FA41FB51F9B01442737FD4095542FF7
:103DF000821B930BA40BB50B86879787A08BB18B87
:103E000066857785808991890895FC016685778527
:103E1000808991890895EF92FF920F931F93CF931A
:103E2000DF93EC018A0188819981AA81BB81029785
:103E3000A109B1092E853F85488959892817390775
:103E40004A075B0738F083E0F8018083EE24FF2403
:103E500087013BC0F894EC81FD818A859B85E80F42
:103E6000F91F60838A859B85AC85BD850196A11D60
:103E7000B11D8A879B87AC87BD87288139814A819C
:103E80005B8182179307A407B50721F41A861B8666
:103E90001C861D86CE010E94CE1EF80110827894E9
:103EA000EE24FF2487012E853F8548895989888122
:103EB0009981AA81BB8182179307A407B50728F0CF
:103EC00081E0E82EF12C012D112DB701C801DF9101
:103ED000CF911F910F91FF90EF9008951F93CF9373
:103EE000DF93EC01F8948E819F81A885B985EC81E0
:103EF000FD81E80FF91F10810196A11DB11D8E8370
:103F00009F83A887B987288139814A815B8182177D
:103F10009307A407B50721F41E821F82188619860D
:103F2000FB011082CE010E94CE1E7894812FDF917A
:103F3000CF911F9108952F923F924F925F926F926F
:103F40007F928F929F92AF92BF92CF92DF92EF9229
:103F5000FF920F931F93DF93CF930F92CDB7DEB7EE
:103F60003C0149015A01FC01468457846B01EE244F
:103F7000FF2487011E010894211C311C18C0141451
:103F800015045CF4C301B1010E946E1F982F898152
:103F90008823C1F7F601908302C0F60110820894CD
:103FA000E11CF11C011D111D0894C11CD11CE81459
:103FB000F9040A051B0518F3E092000AF092010AC1
:103FC0000093020A1093030AB701C8010F90CF9122
:103FD000DF911F910F91FF90EF90DF90CF90BF90F6
:103FE000AF909F908F907F906F905F904F903F9099
:103FF0002F9008958F929F92AF92BF92CF92DF92AF
:10400000EF92FF920F931F93CF93DF935A016B01AF
:10401000B901D9011696ED90FD900D911C9119975B
:104020001E968D909C901F97EC0120E030E040E0C0
:1040300050E025C018141904E4F4DB011496ED9146
:10404000FC911597EE0DFF1D808188830894E11C7B
:10405000F11C011D111D8D919D910D90BC91A02D04
:10406000E816F9060A071B0729F4EE24FF24870146
:1040700001C018822F5F3F4F4F4F5F4F21962A1587
:104080003B054C055D05B0F22093000A3093010A10
:104090004093020A5093030AB901CA01DF91CF91FC
:1040A0001F910F91FF90EF90DF90CF90BF90AF9056
:1040B0009F908F900895CF92DF92EF92FF920F938F
:1040C0001F93CF93DF93EC016B0179018A01009775
:1040D00019F06115710541F489EA93E00E947E228E
:1040E000C801B7010E949D21DD82CC82E882F9825D
:1040F0000A831B831E821F82188619861A861B86D6
:104100001C861D861A8ACE010E94A01EDF91CF91C7
:104110001F910F91FF90EF90DF90CF900895CF9275
:10412000DF92EF92FF920F931F93CF93DF93EC01F7
:104130006B0187EC93E00E9426226E857F8588893B
:1041400099890E949D218DED93E00E9426224E8543
:104150005F85688979894F5F5F4F6F4F7F4FC601D9
:104160009E010E94FA1FEE24FF24870112C0F6016F
:10417000EE0DFF1D608170E080E090E00E949D21C7
:1041800087EE93E00E9426220894E11CF11C011D99
:10419000111D8E859F85A889B989E816F9060A0739
:1041A0001B0728F389EE93E00E942622DF91CF912E
:1041B0001F910F91FF90EF90DF90CF90089581E0D5
:1041C000809304040895109204040895E82FF0E009
:1041D000EF70F070EC50FC4F8081089582958F70E5
:1041E000E4EFF3E0E80FF11D808108954F925F92B4
:1041F0006F927F928F929F92AF92BF92CF92DF92F7
:10420000EF92FF920F931F93CF93DF933B014C01EB
:10421000EA0180910404882309F440C06114710408
:1042200081049104C1F15524A12C8AECB82E8AE9AD
:10423000C82E8BE3D82E4424C401B301A6019501F6
:104240000E94882C79018A01E114F104010511050D
:1042500011F4442079F08E2D805D8993C801B70157
:10426000A60195010E94692C661A770A880A990AA4
:104270004424439453948AE0581679F0C601B5015A
:104280002AE030E040E050E00E94882CC901DA01C9
:104290005C016D01D1CF80E389931882DF91CF91CA
:1042A0001F910F91FF90EF90DF90CF90BF90AF9054
:1042B0009F908F907F906F905F904F900895EF92B6
:1042C000FF920F931F93DF93CF93CDB7DEB72B975A
:1042D0000FB6F894DEBF0FBECDBF7B018C0180917D
:1042E00004048823E9F017FF0BC010950095F094A3
:1042F000E094E11CF11C011D111D8DE20E949F1A2A
:10430000C801B7018E010F5F1F4FA8010E94F62060
:1043100002C00E949F1AF80181918F018823C9F77A
:104320002B960FB6F894DEBF0FBECDBFCF91DF91B5
:104330001F910F91FF90EF9008950F931F93DF93BC
:10434000CF93CDB7DEB72B970FB6F894DEBF0FBE75
:10435000CDBF9B01AC0180910404882381F0CA0188
:10436000B9018E010F5F1F4FA8010E94F62002C005
:104370000E949F1AF80181918F018823C9F72B961B
:104380000FB6F894DEBF0FBECDBFCF91DF911F9166
:104390000F910895AF92BF92CF92DF92EF92FF926A
:1043A0000F931F935B016C0180910404882309F42F
:1043B00044C0C601B5010E9427297B018C01C801B8
:1043C0000E945F218EE20E949F1AC601B50120E083
:1043D00030E04AE754E40E9463260E9427295B01EB
:1043E0006C01B701C80128EE33E040E050E00E94C4
:1043F000692CA61AB70AC80AD90AD7FE08C0D094F1
:10440000C094B094A094A11CB11CC11CD11C84E622
:10441000A816B104C104D10464F480E30E949F1A79
:104420008AE0A816B104C104D1041CF480E30E9400
:104430009F1AC601B5010E949D211F910F91FF9007
:10444000EF90DF90CF90BF90AF900895CF93DF9320
:104450009C0180910404882339F0E90102C00E9484
:104460009F1A89918823D9F7DF91CF910895982FCA
:1044700080910404882319F0892F0E949F1A0895BF
:10448000CF92DF92EF92FF920F931F93CF93DF9320
:104490006C018B0185E094E00E942622B80180E047
:1044A00090E00E949D218DEE93E00E942622C0E0C4
:1044B000D0E078010894E108F10810C0F601EC0F93
:1044C000FD1F608170E080E090E00E949D21CE158C
:1044D000DF0518F48CE20E9437222196C017D1071D
:1044E00068F380EF93E00E942622DF91CF911F9125
:1044F0000F91FF90EF90DF90CF9008950F931F934F
:10450000CF93DF93182F092F8091040A882329F471
:1045100081E08093040A0E94AF1A809104048823EA
:1045200081F08AE00E949F1A8DE00E949F1A812FDD
:10453000902F9C01E90102C00E949F1A8991882353
:10454000D9F7DF91CF911F910F910895CF92DF920C
:10455000EF92FF920F931F93CF93DF937C01809193
:104560000404882309F4F4C084E194E00E947E22CC
:10457000F7011185155F8BE50E943722C0E0D0E07E
:10458000012F10E068010894C108D10810C0F7019C
:10459000EC0FFD1F608170E080E090E00E949D21A3
:1045A000CC15DD051CF48CE20E9437222196C01741
:1045B000D1076CF38DE50E94372280E294E00E94DF
:1045C0007E22F701608170E080E090E00E949D21F2
:1045D0008DE294E00E947E2267018701C0E0D0E076
:1045E000F801618170E080E090E00E949D21C5307B
:1045F000D10519F08AE30E94372221960F5F1F4FE1
:10460000C630D10569F787E394E00E947E22F70166
:104610008781803169F0813118F4882331F013C02B
:10462000803259F0803379F40BC083E494E002C007
:104630008AE494E00E94262211C08EE494E0FACF2E
:1046400084E594E0F7CF8DE594E00E947E22F701A7
:10465000678170E080E090E00E949D2185E694E013
:104660000E947E22F701608570E080E090E06F7725
:104670007070807090700E949D21F701808590E09D
:104680008F779070892B19F483E794E002C081E85A
:1046900094E00E94262280E994E00E947E22F701A5
:1046A000618570E080E090E00E949D218FE994E0B8
:1046B0000E947E22F701628570E080E090E00E9417
:1046C0009D21F70181858430A0F08EEA94E00E945C
:1046D0007E22F70183850E943722F70184850E949C
:1046E0003722F70185850E943722F70186850E94CF
:1046F0003722F7011185153018F114508CEB94E036
:104700000E947E22C0E0D0E0012F10E078010894E2
:10471000E108F10811C0F601678570E080E090E0E3
:104720000E949D21CE15DF051CF48CE20E943722E9
:1047300021960894C11CD11CC017D10764F304C092
:1047400087EC94E00E947E2282EF93E00E947E221A
:10475000DF91CF911F910F91FF90EF90DF90CF905D
:104760000895EF92FF920F931F937B018C0120E03D
:1047700030E040E05FE40E94392888238CF0C801D3
:10478000B70120E030E040E05FE40E9405260E948F
:1047900027299B01AC01205030404040504806C0C2
:1047A000C801B7010E9427299B01AC01B901CA01C8
:1047B0001F910F91FF90EF900895A2E0B0E0E3EE1B
:1047C000F3E20C94AA2C122FB32EA42E952E862E33
:1047D000372E282E9A83C22ED32EE42EF52EA70133
:1047E000960160E070E080E090E02117A1F43B15B5
:1047F00091F44A1581F4591571F4681561F4731533
:1048000051F4821541F4AA819A1729F4C701B6011F
:104810000E947B29AAC0212F3B2D4A2D592D682D9E
:10482000732D822D9A8100E20E94F429C901DA01D8
:104830008030E0E09E07E1E0AE07E0E0BE0780F4F4
:104840008F3F9105A105B10531F028F028E030E057
:1048500040E050E016C020E030E040E050E011C001
:104860008030F0E09F07F0E0AF07F1E0BF0728F0ED
:1048700028E130E040E050E004C020E130E040E0DA
:1048800050E0022E04C0B695A795979587950A9497
:10489000D2F7FC01E852FB4F808129013A01480E12
:1048A000511C611C711C4982212F3B2D4A2D592D11
:1048B000682D732D822D9A81042D0E94F429C9013F
:1048C000DA014C015D0180E290E08419950904C091
:1048D000CC0CDD1CEE1CFF1C8A95D2F7C114D10450
:1048E000E104F10441F081E090E0A0E0B0E0882A2A
:1048F000992AAA2ABB2A90E249165104610471043C
:1049000059F40F2EF0E0EF2EF0E0FF2EF0E80F2F1D
:10491000FFE41F2FF02D21C0AFE14A1651046104BE
:10492000710459F40F2EF0E0EF2EF0E0FF2EF0E0CE
:104930000F2FFFE41F2FF02D10C061E070E080E02A
:1049400090E0098004C0660F771F881F991F0A94A2
:10495000D2F70E94C9287B018C01C501B4010E94D5
:104960007B29A80197010E9463262296E2E10C941C
:10497000C62CA0E0B0E0EFEBF4E20C94AA2CDC0132
:104980002B01FA019C91923008F439C1EB01888126
:10499000823008F433C1943069F4843009F02FC1B7
:1049A00011969C9111978981981709F428C1A0ED5F
:1049B000B4E025C1843009F421C18230A9F49230D9
:1049C00009F01DC19A01AD0188E0EA010990AE012C
:1049D000E90109929E018150C1F7E2018981119696
:1049E0009C918923818308C1923009F407C11296F2
:1049F0002D903C901397EB018A819B811496AD908A
:104A0000BD90CD90DC901797EC80FD800E811F81CA
:104A10009101281B390BB90137FF04C0662777279E
:104A2000621B730B603271050CF061C01216130625
:104A30006CF537014801062E04C09694879477944C
:104A400067940A94D2F721E030E040E050E004C0DF
:104A5000220F331F441F551F6A95D2F72150304053
:104A6000404050402E213F21402351232115310544
:104A70004105510521F021E030E040E050E07901AE
:104A80008A01E628F728082919293CC0232BD1F1EF
:104A9000260E371E35014601062E04C096948794D3
:104AA000779467940A94D2F721E030E040E050E038
:104AB00004C0220F331F441F551F6A95D2F721509F
:104AC0003040404050402A213B214C215D2121159E
:104AD00031054105510521F021E030E040E050E092
:104AE00059016A01A628B728C828D9280BC0821501
:104AF00093052CF01C01AA24BB24650103C0EE24FD
:104B0000FF24870111969C91D20111968C919817E0
:104B100009F445C0992339F0A80197012A193B09E6
:104B20004C095D0906C0A60195012E193F09400BED
:104B3000510B57FD08C011823382228224833583B2
:104B4000468357831DC081E0818333822282882778
:104B50009927DC01821B930BA40BB50B84839583EF
:104B6000A683B7830DC0220F331F441F551F248314
:104B70003583468357838281938101979383828310
:104B80002481358146815781DA01C9010197A10944
:104B9000B1098F5F9F4FAF4FBF4328F30BC0918385
:104BA00033822282EA0CFB1C0C1D1D1DE482F5825F
:104BB0000683178383E08083248135814681578172
:104BC00057FF1AC0C901AA2797FDA095BA2F817077
:104BD0009070A070B0705695479537952795822BA9
:104BE000932BA42BB52B84839583A683B7838281D3
:104BF0009381019693838283DF0101C0D201CD01AD
:104C0000CDB7DEB7E2E10C94C62CA0E2B0E0EBE059
:104C1000F6E20C94B62C69837A838B839C832D8374
:104C20003E834F835887E9E0EE2EF12CEC0EFD1EFB
:104C3000CE010196B7010E94982B8E010F5E1F4F87
:104C4000CE010596B8010E94982B8A8991E08927A8
:104C50008A8BC701B801AE01475E5F4F0E94B9243D
:104C60000E94C22AA096E6E00C94D22CA0E2B0E00A
:104C7000ECE3F6E20C94B62C69837A838B839C83F5
:104C80002D833E834F835887F9E0EF2EF12CEC0EF5
:104C9000FD1ECE010196B7010E94982B8E010F5E7A
:104CA0001F4FCE010596B8010E94982BC701B8018D
:104CB000AE01475E5F4F0E94B9240E94C22AA096AF
:104CC000E6E00C94D22CA0E2B0E0E9E6F6E20C9427
:104CD000AA2C69837A838B839C832D833E834F83A5
:104CE0005887CE010196BE01675F7F4F0E94982BC7
:104CF000CE010596BE016F5E7F4F0E94982B99856D
:104D0000923088F089898230C8F0943019F482306A
:104D100051F404C0843029F4923081F480ED94E0A1
:104D2000C6C0923049F420E09A858A89981321E020
:104D30002A87CE010996BBC0823049F420E09A85CB
:104D40008A89981321E02A8BCE014196B0C02D8428
:104D50003E844F8458886D887E888F88988CEE2496
:104D6000FF248701AA24BB24650140E050E060E0F5
:104D700070E0E0E0F0E0C10181709070892BE9F013
:104D8000E60CF71C081D191D9A01AB012A0D3B1DED
:104D90004C1D5D1D80E090E0A0E0B0E0E614F7045B
:104DA0000805190520F481E090E0A0E0B0E0BA0128
:104DB000A901480F591F6A1F7B1FAA0CBB1CCC1CE2
:104DC000DD1C97FE08C081E090E0A0E0B0E0A82ADA
:104DD000B92ACA2ADB2A3196E032F10549F0660C7D
:104DE000771C881C991C5694479437942794C3CFFA
:104DF000FA85EA892B893C898B859C85280F391F88
:104E00002E5F3F4F17C0CA0181709070892B61F0EF
:104E100016950795F794E79480E090E0A0E0B0E85D
:104E2000E82AF92A0A2B1B2B769567955795479503
:104E30002F5F3F4F77FDE7CF0CC0440F551F661F14
:104E4000771F17FD4160EE0CFF1C001F111F215042
:104E50003040403090E0590790E0690790E47907CE
:104E600060F32B8F3C8FDB01CA018F779070A070AD
:104E7000B07080349105A105B10561F447FD0AC009
:104E8000E114F1040105110529F0405C5F4F6F4FFB
:104E90007F4F40781A8EFE1711F081E08A8F4D8F78
:104EA0005E8F6F8F78A383E0898FCE0149960E9431
:104EB000C22AA096E2E10C94C62CA8E1B0E0E3E699
:104EC000F7E20C94B22C69837A838B839C832D83C5
:104ED0003E834F835887B9E0EB2EF12CEC0EFD1E7C
:104EE000CE010196B7010E94982B8E010F5E1F4FD5
:104EF000CE010596B8010E94982B2985223008F42E
:104F00007EC03989323010F4B8017CC08A859A8914
:104F100089278A87243011F0223031F4231709F0D1
:104F20006EC060ED74E06EC0343039F41D861E86AC
:104F30001F86188A1C861B8604C0323021F484E048
:104F40008987B7015FC02B853C858B899C89281B8D
:104F5000390B3C872B87ED84FE840F851889AD883B
:104F6000BE88CF88D88CEA14FB040C051D0540F4DC
:104F7000EE0CFF1C001F111F215030403C872B8777
:104F800020E030E040E050E080E090E0A0E0B0E4DD
:104F900060E070E0EA14FB040C051D0540F0282BCE
:104FA000392B4A2B5B2BEA18FB080C091D09B69517
:104FB000A79597958795EE0CFF1C001F111F6F5F3B
:104FC0007F4F6F31710531F7DA01C9018F7790702A
:104FD000A070B07080349105A105B10561F427FD82
:104FE0000AC0E114F1040105110529F0205C3F4FCE
:104FF0004F4F5F4F20782D873E874F87588BBE01DC
:10500000675F7F4FCB010E94C22A6896EAE00C944A
:10501000CE2CA8E1B0E0EFE0F8E20C94B62C698366
:105020007A838B839C832D833E834F83588789E0CB
:10503000E82EF12CEC0EFD1ECE010196B7010E9468
:10504000982B8E010F5E1F4FCE010596B8010E946E
:10505000982B8985823040F08989823028F0C701F9
:10506000B8010E94102C01C08FEF6896E6E00C9406
:10507000D22CA8E1B0E0EFE3F8E20C94B62C6983FF
:105080007A838B839C832D833E834F83588789E06B
:10509000E82EF12CEC0EFD1ECE010196B7010E9408
:1050A000982B8E010F5E1F4FCE010596B8010E940E
:1050B000982B8985823040F08989823028F0C70199
:1050C000B8010E94102C01C08FEF6896E6E00C94A6
:1050D000D22CA8E1B0E0EFE6F8E20C94B62C69839C
:1050E0007A838B839C832D833E834F83588789E00B
:1050F000E82EF12CEC0EFD1ECE010196B7010E94A8
:10510000982B8E010F5E1F4FCE010596B8010E94AD
:10511000982B8985823040F08989823028F0C70138
:10512000B8010E94102C01C081E06896E6E00C9462
:10513000D22CA8E1B0E0EFE9F8E20C94B62C698338
:105140007A838B839C832D833E834F83588789E0AA
:10515000E82EF12CEC0EFD1ECE010196B7010E9447
:10516000982B8E010F5E1F4FCE010596B8010E944D
:10517000982B8985823040F08989823028F0C701D8
:10518000B8010E94102C01C081E06896E6E00C9402
:10519000D22CA8E0B0E0EFECF8E20C94B32C9B0129
:1051A000AC0183E08983DA01C9018827B7FD8395C3
:1051B0009927AA27BB27B82E21153105410551058E
:1051C00019F482E089833AC08823A9F0203080E076
:1051D000380780E0480780E8580729F460E070E06D
:1051E00080E09FEC30C0EE24FF248701E21AF30A2E
:1051F000040B150B02C079018A018EE1C82ED12C57
:10520000DC82CB82ED82FE820F831887C801B70152
:105210000E94732A01971816190684F4082E04C0F8
:10522000EE0CFF1C001F111F0A94D2F7ED82FE82C4
:105230000F831887C81AD90ADC82CB82BA82CE01C2
:1052400001960E94C22A2896E9E00C94CF2CACE08B
:10525000B0E0EDE2F9E20C94BA2C69837A838B8397
:105260009C83CE010196BE016B5F7F4F0E94982BFD
:105270008D81823061F1823050F1843021F48E8151
:10528000882351F12EC02F81388537FD20C06E81D3
:105290002F3131051CF06623F9F023C08EE190E038
:1052A000821B930B29853A854B855C8504C05695F6
:1052B0004795379527958A95D2F76623B1F0509593
:1052C0004095309521953F4F4F4F5F4F0EC020E0E6
:1052D00030E040E050E009C02FEF3FEF4FEF5FE7D5
:1052E00004C020E030E040E050E8B901CA012C964B
:1052F000E2E00C94D62CA8E0B0E0E1E8F9E20C94EE
:10530000B22C7B018C01611571058105910519F4A1
:1053100082E0898360C083E089838EE1C82ED12C2E
:10532000DC82CB82ED82FE820F831887C801B70131
:105330000E94732AFC013197F7FF3BC022273327D5
:105340002E1B3F0B57016801022E04C0D694C79450
:10535000B794A7940A94D2F740E050E060E070E080
:1053600081E090E0A0E0B0E004C0880F991FAA1F80
:10537000BB1F2A95D2F70197A109B1098E219F2160
:10538000A023B1230097A105B10521F041E050E031
:1053900060E070E04A295B296C297D294D835E839A
:1053A0006F8378878EE190E08E1B9F0B9C838B83AD
:1053B00012C0309781F00E2E04C0EE0CFF1C001FAF
:1053C000111F0A94D2F7ED82FE820F831887CE1A3E
:1053D000DF0ADC82CB821A82CE0101960E94C22AA9
:1053E0002896EAE00C94CE2CEF92FF920F93DF9375
:1053F000CF93CDB7DEB760970FB6F894DEBF0FBE80
:10540000CDBFA82F002309F461C07E010894E11CE0
:10541000F11C88E0F70111928A95E9F729833A8314
:105420004B835C836D837E83AF83988780E2801B90
:10543000E82FFF27E7FDF0954D815E816F8178852C
:10544000181684F01D861E861F86188A88279927BD
:105450008E1B9F0B04C076956795579547958A9547
:10546000D2F728C0202F332727FD3095DB01CA0152
:10547000022E04C0B695A795979587950A94D2F702
:105480008D879E87AF87B88B04C0440F551F661F5A
:10549000771FEA95D2F789819A81AB81BC8104C0DC
:1054A000B695A795979587952A95D2F7482B592BAE
:1054B0006A2B7B2B49875A876B877C8729853A859E
:1054C0004B855C856D857E85AF8598898A2F609632
:1054D0000FB6F894DEBF0FBECDBFCF91DF910F9115
:1054E000FF90EF900895EF92FF920F931F937B012F
:1054F0008C0180E0E81680E0F80681E0080780E093
:10550000180788F48FEFE816F1040105110531F052
:1055100028F088E090E0A0E0B0E017C080E090E0E4
:10552000A0E0B0E012C080E0E81680E0F80680E07D
:10553000080781E0180728F088E190E0A0E0B0E0DB
:1055400004C080E190E0A0E0B0E020E230E040E084
:1055500050E0281B390B4A0B5B0B04C016950795CE
:10556000F794E7948A95D2F7F701E852FB4F8081D0
:10557000281B310941095109C9011F910F91FF9061
:10558000EF900895DF92EF92FF920F931F93FC012B
:10559000E480F58006811781D1808081823058F4C3
:1055A00080E090E0A0E1B0E0E82AF92A0A2B1B2B6A
:1055B000EFEFF0E0A6C0843009F49EC0823019F409
:1055C000E0E0F0E09BC0E114F1040105110519F4DD
:1055D000E0E0F0E096C0628173819FEF6238790766
:1055E0000CF05BC022E83FEF261B370B2A31310558
:1055F0002CF020E030E040E050E02AC0B801A701E4
:10560000022E04C076956795579547950A94D2F770
:1056100081E090E0A0E0B0E004C0880F991FAA1FCD
:10562000BB1F2A95D2F70197A109B1098E219F21AD
:10563000A023B1230097A105B10521F081E090E0FE
:10564000A0E0B0E09A01AB01282B392B4A2B5B2B51
:10565000DA01C9018F779070A070B0708034910525
:10566000A105B10539F427FF09C0205C3F4F4F4F1A
:105670005F4F04C0215C3F4F4F4F5F4FE0E0F0E0D1
:105680002030A0E03A07A0E04A07A0E45A0710F053
:10569000E1E0F0E079018A0127C06038710564F526
:1056A000FB01E158FF4FD801C7018F779070A070C0
:1056B000B07080349105A105B10539F4E7FE0DC045
:1056C00080E490E0A0E0B0E004C08FE390E0A0E0D0
:1056D000B0E0E80EF91E0A1F1B1F17FF05C0169544
:1056E0000795F794E794319687E016950795F79418
:1056F000E7948A95D1F705C0EFEFF0E0EE24FF24A0
:1057000087016E2F679566276795902F9F77D794AF
:10571000DD24D7948E2F8695492F462B582F5D294F
:10572000B701CA011F910F91FF90EF90DF9008958C
:10573000FC01DB01408151812281622F6F7770E093
:10574000221F2227221F9381892F880F822B282F27
:1057500030E0991F9927991F11969C931197211555
:105760003105A9F5411551056105710511F482E076
:1057700037C082E89FEF13969C938E9312979A01FD
:10578000AB0167E0220F331F441F551F6A95D1F705
:1057900083E08C930DC0220F331F441F551F1296B8
:1057A0008D919C911397019713969C938E931297CA
:1057B000203080E0380780E0480780E4580758F33D
:1057C00014962D933D934D935C93179708952F3F17
:1057D000310579F4411551056105710519F484E02D
:1057E0008C93089564FF03C081E08C9312C01C92D7
:1057F00010C02F57304013963C932E93129783E09E
:105800008C9387E0440F551F661F771F8A95D1F749
:10581000706414964D935D936D937C9317970895E0
:105820001F93DC01FB019C91923008F447C08081FA
:10583000823008F443C0943051F411961C918430A6
:1058400099F58181682F70E0611B71093FC0843038
:1058500021F0923031F48230B9F18181882389F1CD
:105860002DC011961C9111978230F1F0818118178B
:10587000D9F412962D913C911397828193818217CE
:10588000930794F028173907BCF014968D919D91D9
:105890000D90BC91A02D2481358146815781281718
:1058A00039074A075B0718F4112341F00AC0821731
:1058B0009307A407B50740F4112319F061E070E0E5
:1058C00005C06FEF7FEF02C060E070E0CB011F9179
:1058D0000895629FD001739FF001829FE00DF11D3A
:1058E000649FE00DF11D929FF00D839FF00D749F5A
:1058F000F00D659FF00D9927729FB00DE11DF91F06
:10590000639FB00DE11DF91FBD01CF011124089562
:10591000A1E21A2EAA1BBB1BFD010DC0AA1FBB1FB3
:10592000EE1FFF1FA217B307E407F50720F0A21B25
:10593000B30BE40BF50B661F771F881F991F1A9492
:1059400069F760957095809590959B01AC01BD01BC
:10595000CF0108952F923F924F925F926F927F9264
:105960008F929F92AF92BF92CF92DF92EF92FF926F
:105970000F931F93CF93DF93CDB7DEB7CA1BDB0B1B
:105980000FB6F894DEBF0FBECDBF09942A883988C0
:1059900048885F846E847D848C849B84AA84B984C7
:1059A000C884DF80EE80FD800C811B81AA81B981D3
:1059B000CE0FD11D0FB6F894DEBF0FBECDBFED01E7
:0659C0000895F894FFCFEA
:1059C6005265736574696E67206173796E632074BE
:1059D600696D652C207761733D002069733D000079
:1059E6000000000000F0414E4F5F4348414E4745DE
:1059F60000484947485F494D504544414E4345009C
:105A060049535F44490049535F444F0049535F413E
:105A16004E414C4F475F494E0049535F414E414C02
:105A26004F475F4F55540050574D00534552564F00
:105A360000554152545F545800554152545F5258D4
:105A4600005350495F4D4F5349005350495F4D49EC
:105A5600534F005350495F53434B00434F554E54E9
:105A660045525F494E5055545F494E5400434F5579
:105A76004E5445525F494E5055545F444952004377
:105A86004F554E5445525F494E5055545F484F4D01
:105A96004500434F554E5445525F4F55545055544B
:105AA6005F494E5400434F554E5445525F4F55542F
:105AB6005055545F44495200434F554E5445525F2A
:105AC6004F55545055545F484F4D450049535F4418
:105AD600435F4D4F544F525F4449520049535F4410
