:100000000C94B6000C94D3000C94D3000C94D30041
:100010000C94D3000C94D3000C94D3000C94D30014
:100020000C94D3000C94D3000C94D3000C94D30004
:100030000C94D3000C94D3000C94D3000C94561958
:100040000C94D3000C94D3000C94D3000C94D300E4
:100050000C94EF190C94D3000C94D3000C94D3009F
:100060000C94D3000C94D3000C94D3000C94D300C4
:100070000C94A80D0C94D3000C94D3009B079E07FE
:10008000A107A407AA07AD07B407B707BA07BD07BA
:10009000C007C307C607C907CC07CF07D507DC07CA
:1000A000E307E607EB07F107F607FA070E0815085E
:1000B0001E0826082E0835083E0846085008550830
:1000C0005B0862086A087108790882088C08980839
:1000D000A608AE08B508BD08C408CD08E308EA08BC
:1000E000F308FB0803090A0913091B0925092A0952
:1000F000300937093F0946094E09570961096D0959
:100100007B0983098A0992099909A209B80EBE0ED2
:10011000C40ECA0ED00ED60EDC0EE20EE80EEE0EA7
:10012000F40EFA0E000F060F0C0F120F180F1E0F11
:10013000240F2A0F300F360F3C0F420F5C0F660F53
:10014000700F7A0F840F8E0F980FA20FAC0FB60F9F
:10015000C00FCA0FD40FDE0FE80FF20FFC0F06100E
:1001600010101A1024102E103810421011241FBE27
:10017000CFEFD8E0DEBFCDBF13E0A0E0B1E0E0ED0F
:10018000F1E502C005900D92A23FB107D9F717E043
:10019000A2EFB3E001C01D92AC33B107E1F70E94BA
:1001A000D5000C94E6280C9400000E94E00080E04A
:1001B00090E0089582EF93E060E00E94431A089572
:1001C0004F925F926F927F928F929F92AF92BF9267
:1001D000CF92DF92EF92FF920F931F93DF93CF9313
:1001E000CDB7DEB728970FB6F894DEBF0FBECDBFF0
:1001F0000E94BB1A0E94E51380E090E0DC01898335
:100200009A83AB83BC8380E090E0A0EFB1E48D8360
:100210009E83AF83B8874E010894811C911C2C01EA
:100220003D010E94400E8091260086FF06C00E947C
:100230004D10882311F00E94DA000E94DA008091AC
:10024000260086FF44C0C4010E94491620E030E029
:10025000A9010E946A2418162CF40E940E12882309
:10026000B1F133C00E94C5187B018C01A980BA800E
:10027000CB80DC80C601B50120E030E0A9010E94FE
:100280009A2487FD08C0C601B501A80197010E9404
:10029000FA241816E4F480E091E00E94D6166981F1
:1002A0007A818B819C810E94DD168AE191E00E9417
:1002B000D816C801B7010E94DD164D825E826F829A
:1002C0007886E982FA820B831C830E94DA000E94FE
:1002D000DA00A7CFCF93DF93EC018F850E940A024B
:1002E0008850823038F47A896B89898998890E948C
:1002F0007A0D01C080E0DF91CF91089580E090E019
:10030000FC01EE55FA4F208122702083019688313E
:100310009105B1F74091A2052091A3059091A40504
:100320006091A6055091A7053091A8058091A90577
:1003300064686093A60554685093A70534683093A9
:10034000A80584688093A9056091AA055091AB0522
:100350003091AC058091AD0561686093AA05516844
:100360005093AB0531683093AC0581688093AD053F
:100370008091AE0581608093AE058091AF0581606C
:100380008093AF058091B00581608093B005809126
:10039000B10581608093B1053091B2057091B305CC
:1003A0008091A50540674093A20520672093A3058F
:1003B00090679093A40580668093A5056091B5052C
:1003C0005091B7054091B9052091B4059091B605BB
:1003D0008091B80578667093B30560666093B50543
:1003E00050665093B70540664093B9053866309320
:1003F000B20520662093B40590669093B60580669A
:100400008093B8050895682F70E080E090E00E9426
:10041000D91608950E94B9068F7708950F931F93F8
:10042000DF93CF9300D0CDB7DEB7182F062F2A83E6
:1004300049830E94F004812F4981642F0E94D508CE
:10044000812F2A81622F0E940008812F602F0E9435
:1004500043070F900F90CF91DF911F910F91089557
:100460001F93DF93CF930F92CDB7DEB7182F698319
:100470000E94F0046981662309F449C0262F30E008
:100480002F7730702A303105E4F4283031056CF5CF
:100490002330310509F46EC0243031052CF42130AD
:1004A000310509F06DC01DC02630310509F450C07A
:1004B000273031050CF057C02430310509F060C0F9
:1004C0003EC0243131054CF42E3031050CF058C0BB
:1004D0002D3031050CF054C01CC026313105E4F13B
:1004E0004FC0812F0E94F00412C01051123008F04A
:1004F0004BC080E168E041E021E00E940E0281E112
:1005000069E040E021E00E940E020E947D0D91E032
:100510003CC0E12FF0E0EE55FA4F808184FF34C0FB
:1005200080E06CE040E021E00E940E0281E06BE0A0
:1005300040E021E00E940E0282E06AE022C0812FAA
:1005400040E020E00E940E02812F0E94280507C093
:10055000812F0E94720A03C0812F0E94630691E0DE
:10056000882399F411C0812F69830E949F0A812FEB
:10057000698101C0812F41E020E00E940E02C7CFB7
:10058000812F40E021E0F9CF90E0892F0F90CF91AB
:10059000DF911F9108951F93CF93DF93EC012F9666
:1005A00010E06991812F0E943002882329F01F5F9B
:1005B0001831B9F781E001C080E0DF91CF911F9140
:1005C0000895FC01878560899185973018F091899D
:1005D000911160680E94300208951F93CF93DF93BA
:1005E000C0E0D0E01C2F8C2F60E00E94D5088C2F3B
:1005F00060E00E940008CE010E942B07682F8C2F1C
:100600000E94450ACE010E942B07682F8C2F20E004
:1006100030E0A9010E94150B8C2F0E94B906825070
:100620008D3F20F08C2F62E00E944307812F0E94B3
:10063000B906682F812F0E9430022196C831D1055A
:1006400089F6DF91CF911F9108951F93182F0E9473
:10065000B906813860F4812F0E940A0289508B30DC
:1006600040F4E82FF0E0E15EFE4F808103C081E0BE
:1006700001C080E01F9108951F93DF93CF930F92E5
:10068000CDB7DEB7182F69830E940A0286506981B0
:10069000823030F4812F90E00E94240781E001C075
:1006A00080E00F90CF91DF911F9108951F93182F35
:1006B0000E940A028730D1F0883050F4843021F152
:1006C000853018F4823028F10DC0863011F512C043
:1006D000833141F0843118F48031D9F403C086317C
:1006E000C0F40CC0812F0E948D070BC0812F0E9487
:1006F000880B07C0812F0E94910A03C0812F0E949E
:100700001906282F30E007C0812F0E94C4059C01E4
:1007100002C021E030E0C9011F910895FF920F93BC
:100720001F93CF93DF93EC011F85812F0E940A0254
:10073000082F812F0E945603F82E812F0E94250337
:10074000882311F00E94A60E80E28F83802F8451AF
:10075000823060F0033051F0063041F0073031F064
:10076000023021F0033111F0003119F4F88A86E0EB
:1007700008C0043041F4812F0E94C405988B898BF6
:1007800087E0898723C008500230F0F485E089872C
:100790000E94E50D8C010097C9F0CE010F96B801BB
:1007A0000E94DB0DF8013F96EC0FFD1F80E090E00A
:1007B00022912183019680179107D1F721E12F879C
:1007C0002985280F298702C080E001C081E0DF91E0
:1007D000CF911F910F91FF900895982F833069F06A
:1007E000873059F0863049F0823039F0843139F061
:1007F00081E0953129F080E0089581E0089581E05D
:100800000895DF92EF92FF920F931F93DF93CF93A0
:100810000F92CDB7DEB7D82E7801890149830E94A7
:100820000A0269818630B1F0873020F4825082302C
:10083000D0F406C0873041F084518230A0F40FC05C
:100840008D2D0E94000809C08D2DA80197010E94DE
:10085000150B03C08D2D0E94450A81E005C08D2D2A
:100860000E942B06FACF80E00F90CF91DF911F916D
:100870000F91FF90EF90DF900895BF92CF92DF929B
:10088000EF92FF920F931F93CF93DF93EC01BF84FE
:100890008B2D0E940A02182F0E94ED038823E9F095
:1008A000C8888985873018F079896A8902C060E034
:1008B00070E0DD24EE24FF2480E090E00E94DC253F
:1008C0008B019C018B2DB701A6010E940104CE0172
:1008D00060E840E00E94771B10C0153081F018508E
:1008E000123068F419851550609600E004C08991B3
:1008F0000E94B5190F5F0117D0F381E001C080E0BD
:10090000DF91CF911F910F91FF90EF90DF90CF90EB
:10091000BF9008957F928F929F92AF92BF92CF9295
:10092000DF92EF92FF920F931F93CF93DF93EC012F
:10093000BF84988889887A88FF24DB88EC88CD88F2
:10094000AE888F2D0E940A020E94ED03882379F061
:10095000672D782D892D9B2D0E94DC258B019C0114
:100960008F2D4A2D5C2D6E2D7D2D0E940104F39458
:1009700024968F2D883109F781E0DF91CF911F9167
:100980000F91FF90EF90DF90CF90BF90AF909F902E
:100990008F907F900895FC01608B0895FC01708B0F
:1009A000618B0895FC01708B618B528B438B089592
:1009B000FC0172896389818990890895CF93DF93BF
:1009C0000E947E010E94ED02C0E0D0E08C2F0E94C8
:1009D00067122196C831D105C9F7DF91CF910895EB
:1009E0000F931F93182F0E940A02082F812F0E9435
:1009F000AA09812F0E948505812F0E94F505802F6D
:100A00008A50833080F480E062E00E94430781E0F6
:100A100062E00E94430782E062E00E94430783E0B5
:100A200062E00E9443070850023058F4812F0E9470
:100A3000BA0C80E162E00E94430781E162E00E941B
:100A40004307812F60E00E94D5081F910F91089500
:100A5000E82FF0E0EE55FA4F908190FF52C0909150
:100A60007C009F7390937C0090917C009F7D90937D
:100A70007C0090917A00906890937A0090917A002F
:100A8000977F90937A0090917A00976090937A0084
:100A900010927B008B30F1F08C3038F4893091F07B
:100AA0008A30A0F4883079F509C08D30D9F08D30C6
:100AB000A8F08E30D9F08F3031F51CC080917E00C7
:100AC00081601BC080917E00826017C080917E0093
:100AD000846013C080917E0088600FC080917E008A
:100AE00080610BC080917E00806207C080917E0093
:100AF000806403C080917E00806880937E0081E0E6
:100B0000089580E0089581E00895E82FF0E0EE5523
:100B1000FA4F908190FF37C08B30F1F08C3038F471
:100B2000893091F08A30A0F4883069F509C08D30A1
:100B3000D9F08D30A8F08E30D9F08F3021F51EC05D
:100B400080917E008E7F17C080917E008D7F13C0C4
:100B500080917E008B7F0FC080917E00877F0BC0CD
:100B600080917E008F7E07C080917E008F7D03C0C4
:100B700080917E008F7B80937E00089580917E001F
:100B80008F7780937E0008951F93182F0E940A028A
:100B90008430C1F418501830A8F41F7180917C0083
:100BA000807E812B80937C0080917A00806480938A
:100BB0007A0080917A0086FDFCCF209178003091F8
:100BC000790002C020E030E0C9011F91089588300B
:100BD00030F08093BA0584508093BB0508958093CC
:100BE000BB058C5F8093BA050895E82FF0E0EE55C1
:100BF000FA4F908197FF1CC00E94E7058091BB05CA
:100C00000E940A028431A1F48091BA050E940A026E
:100C1000853171F48091BB050E94AA098091BB05C2
:100C200062E00E9443078091BA0562E00E94430798
:100C30000895E82FF0E0EE55FA4F908197FF09C034
:100C40000E94E705E091BB05F0E0E657FA4F80818E
:100C5000089580E008950F931F93DF93CF930F9231
:100C6000CDB7DEB7E82FF0E0EE55FA4F908197FF51
:100C700024C069830E94E7056981062F10E00058AF
:100C80001040E091BB05F0E0E657FA4F6083101684
:100C900011063CF48091BA0560E00E940008602FC4
:100CA00007C08091BA0561E00E940008602F61953D
:100CB000660F8091BB050E94450A0F90CF91DF918E
:100CC0001F910F910895E82FF0E0EE55FA4F9081B3
:100CD00097FF17C00E94E7058091BB0564E141E0E2
:100CE00020E00E940E028091BA0565E141E020E01B
:100CF0000E940E028091BB0560E80E942B0681E0F5
:100D0000089580E00895F999FECF1FBA92BD81BD84
:100D1000F89A80B50895CB9624E08030920718F4B5
:100D20000E948306089580E008950F931F93DF9338
:100D3000CF930F92CDB7DEB787E390E00E94830692
:100D4000182F88E390E00E948306082F89E390E043
:100D50000E948306782F8AE390E079830E948306BD
:100D6000682F7981C8010F90CF91DF911F910F916A
:100D7000089590E007960E94830608950F931F93AD
:100D8000CF93DF9380E090E00E948306853271F478
:100D900005E412E0C0E0D0E02196CE010E94830677
:100DA000F80181938F01C630D105B1F7DF91CF9162
:100DB0001F910F9108950F931F93DF93CF930F927D
:100DC000CDB7DEB78C0169830E94830669818617DF
:100DD00041F0F999FECF1FBA12BD01BD60BDFA9A6C
:100DE000F99A0F90CF91DF911F910F910895CB96B3
:100DF00024E08030920710F40E94DB0608950F93E0
:100E00001F93DF93CF930F92CDB7DEB7162F082F26
:100E1000692F87E390E079830E94DB0688E390E006
:100E2000602F0E94DB0689E390E07981672F0E94A2
:100E3000DB068AE390E0612F0E94DB060F90CF91E2
:100E4000DF911F910F9108956F3F09F46EEF4F9658
:100E50000E94DB0608950F931F93CF93DF938C01BD
:100E6000EC016F96CE010E9483068F3F21F4C801EA
:100E700060E80E942407CE010E948306DF91CF9193
:100E80001F910F9108951F93DF93CF930F92CDB7CA
:100E9000DEB7182F69830E94B9066981861729F089
:100EA000812F90E007960E94DB060F90CF91DF9193
:100EB0001F910895EF92FF920F931F93CF93DF93AB
:100EC000E82E092F80E090E00E9483068532E9F049
:100ED000802F0E2D182F85E4E82E82E0F82EC0E03A
:100EE000D0E0F80161918F012196F70161937F01B4
:100EF000CE010E94DB06C630D10599F780E090E074
:100F000065E20E94DB0681E001C080E0DF91CF91C5
:100F10001F910F91FF90EF900895E82FF0E0E831D6
:100F2000F10508F06BC0E25CFF4FEE0FFF1F05906C
:100F3000F491E02D09948091230033C08091230027
:100F40000EC08091230002C0809129008295869571
:100F5000877052C08091290024C080912900829519
:100F600086958695837048C08091230036C0809115
:100F700023002EC0809120003FC08091200038C007
:100F80008091200030C08091200027C080912000F7
:100F90001FC080912000DACF80912000E0CF8091A7
:100FA0002000881F8827881F08958091C90083FD2D
:100FB00003C08091290011C08091C90083FD03C046
:100FC0008091290010C080912600C0CF809126001A
:100FD00082958F7011C080912600869586958695A2
:100FE0000BC0809126008695869506C080912600CC
:100FF000869502C0809126008170089580E0089552
:10100000E82FF0E0E831F10508F0CEC0EA5AFF4FD2
:10101000EE0FFF1F0590F491E02D09946795662768
:101020006795809125008F7737C061706295660F54
:10103000660F607C809125008F7B2EC06170629569
:10104000660F607E809125008F7D26C0617062955D
:10105000660F607E80912B008F7D74C06795662738
:10106000679580912B008F776DC061706295660FD8
:10107000660F607C80912B008F7B64C06170660F6F
:10108000660F660F80912500877F06C061706295AC
:10109000607F809125008F7E862B809325000895A8
:1010A0006170809122008E7F33C06170660F8091E5
:1010B00022008D7F2DC06170660F660F8091220027
:1010C0008B7F26C06170660F660F660F80912200CD
:1010D000877F1EC061706295607F809122008F7E45
:1010E00017C061706295660F607E809122008F7DCF
:1010F0000FC061706295660F660F607C8091220060
:101100008F7B06C0679566276795809122008F7751
:10111000862B8093220008958091C90083FD44C0EE
:101120006170660F660F660F80912B00877F0AC083
:101130008091C90083FD38C06170660F660F809191
:101140002B008B7F862B80932B0008956170629516
:10115000660F607E809128008F7D1BC06170629554
:10116000607F809128008F7E14C06170660F660FCB
:10117000660F80912800877F0CC06170660F660F34
:10118000809128008B7F05C06170660F80912800D8
:101190008D7F862B809328000895617080912800B0
:1011A0008E7F862B809328000895E82FF0E0E831A9
:1011B000F10508F0CEC0E259FF4FEE0FFF1F05907A
:1011C000F491E02D09946795662767958091240036
:1011D0008F7737C061706295660F660F607C809173
:1011E00024008F7B2EC061706295660F607E8091B7
:1011F00024008F7D26C061706295660F607E8091AD
:101200002A008F7D74C067956627679580912A00B4
:101210008F776DC061706295660F660F607C8091FC
:101220002A008F7B64C06170660F660F660F809125
:101230002400877F06C061706295607F80912400E2
:101240008F7E862B80932400089561708091210009
:101250008E7F33C06170660F809121008D7F2DC01D
:101260006170660F660F809121008B7F26C06170D0
:10127000660F660F660F80912100877F1EC0617028
:101280006295607F809121008F7E17C061706295AA
:10129000660F607E809121008F7D0FC06170629526
:1012A000660F660F607C809121008F7B06C067957A
:1012B00066276795809121008F77862B8093210088
:1012C00008958091C90083FD44C06170660F660F68
:1012D000660F80912A00877F0AC08091C90083FD34
:1012E00038C06170660F660F80912A008B7F862B55
:1012F00080932A00089561706295660F607E8091E8
:1013000027008F7D1BC061706295607F80912700F0
:101310008F7E14C06170660F660F660F8091270084
:10132000877F0CC06170660F660F809127008B7FEE
:1013300005C06170660F809127008D7F862B80939A
:10134000270008956170809127008E7F862B8093FF
:10135000270008958530D1F0863018F48430D9F410
:101360000FC0863019F08730B1F404C0809144007A
:101370008F7303C0809144008F7C80934400089554
:101380008091B0008F738093B00008958091B00079
:101390008F7C8093B00008951F93182F0E940A023B
:1013A000863059F0812F0E940A02853131F0812F59
:1013B0000E940A02843109F066C0153009F44DC05C
:1013C000163020F4143009F05EC032C0163021F01F
:1013D000173009F058C015C08091240088608093B0
:1013E00024008091440083608093440080914500F4
:1013F000887F816080934500809144008F7380686E
:1014000014C0809124008061809324008091440066
:1014100083608093440080914500887F8160809341
:101420004500809144008F7C8062809344002BC0F3
:1014300080912A00806880932A008091B0008360A8
:101440008093B0008091B100887F81608093B1006B
:101450008091B0008F73806814C080912A008064EE
:1014600080932A008091B00083608093B0008091C7
:10147000B100887F81608093B1008091B0008F7C43
:1014800080628093B0001F9108950F931F93182FCF
:10149000062F0E940A02863051F0812F0E940A0214
:1014A000853129F0812F0E940A028431C1F4812FF5
:1014B0000E94CC09153089F0163018F4143079F4F4
:1014C00009C0163019F0173051F402C007BD07C02B
:1014D00008BD05C00093B30002C00093B4001F9183
:1014E0000F9108951F93182FE82FF0E0EE55FA4F53
:1014F000808182FF13C0812F66E041E020E00E94DE
:101500000E02812F0E94CC09812F90E00E942B07B0
:10151000682F812F0E94450A81E001C080E01F9161
:1015200008951F93182F0E940A02863029F4812FF4
:1015300090E00E942B0701C080E01F9108951F9347
:10154000182F0E94F004812F61E00E94D5081F919E
:10155000089580936A04089510926B04613059F4E1
:101560008091240084608093240080912500846011
:10157000809325000895982F9150923030F491E097
:1015800090936B04813019F00FC0833069F490910F
:101590002400946090932400909125009B7F909369
:1015A0002500833069F00AC0909124009B7F9093BE
:1015B0002400909125009B7F90932500882319F4A7
:1015C00081E080935E01089510926C04613059F4BB
:1015D00080912400826080932400809125008260A5
:1015E000809325000895813011F0833021F490918B
:1015F0002400926003C0909124009D7F909324006A
:10160000909125009D7F90932500982F91509230C6
:1016100020F481E080936C040895833011F08823D6
:1016200019F481E080935F010895AF92BF92CF9249
:10163000DF92EF92FF920F931F93CF93DF93D82EF9
:10164000C62E79018A01CA01B90120E030E040EFDD
:1016500051E40E94CA2487FF0AC00F2EF0E0EF2E4B
:10166000F0E0FF2EF0E00F2FF0E01F2FF02DAD2C5B
:10167000BB24E50184E0CC0FDD1F8A95E1F7C4545B
:10168000DA4FE886F9860A871B876C2D70E080E0C8
:1016900090E00E94DC25688379838A839B8385019F
:1016A00006571A4FF801608170E080E090E00E94D8
:1016B000DC256C837D838E839F830E94C5186C8795
:1016C0007D878E879F87F8018081C81639F480E076
:1016D00090E0DC0188879987AA87BB87FD2DFC30C5
:1016E00018F410925E0102C010925F018D2D0E94CD
:1016F0000A02873011F4D0926001DF91CF911F91DF
:101700000F91FF90EF90DF90CF90BF90AF90089532
:10171000EAE8F5E0E80FF11D808108951F93182F86
:101720000E940A028730F9F41C3058F080916C0452
:10173000882321F480916A048823A9F080915F01B5
:101740000AC080916B04882321F480916A04882365
:1017500051F080915E01813031F0812F61E00E9473
:10176000000881E001C080E01F9108951F93182FA9
:101770000E940A02873021F4812F60E00E94000855
:101780001F910895DF93CF9300D000D0CDB7DEB77F
:1017900082E291E0A0E0B0E089839A83AB83BC83CE
:1017A00089819A81AB81BC819C01AD01215030407F
:1017B0004040504029833A834B835C830097A105C6
:1017C000B10571F70F900F900F900F90CF91DF91AF
:1017D0000895CF92DF92EF92FF920F931F93CF93D2
:1017E000DF93C62ED82E65C00E94C518AB01BC0180
:1017F000CD2DD0E094E0CC0FDD1F9A95E1F7C454D5
:10180000DA4FCE010E94B41B7B018C0120E030E056
:101810004FE753E40E946A241816E4F48AE291E048
:101820000E94D616C801B7010E94DD168AE491E035
:101830000E94D816688579858A859B850E94DD1669
:101840000F2EF0E0EF2EF0E0FF2EFFE70F2FF3E476
:101850001F2FF02DC801B70120E030E0A9010E9440
:10186000CA2487FF1CC08AE291E00E94D616C801F4
:10187000B7010E94DD1684E591E00E94D8166D2D17
:1018800070E080E090E00E94D9160F2EF0E0EF2E7D
:10189000F0E0FF2EF0E00F2FF0E01F2FF02DCD2D08
:1018A000D0E0C657DA4FC801B7010E941120688303
:1018B000D394DC1408F498CFDF91CF911F910F914E
:1018C000FF90EF90DF90CF900895EF92FF920F93EB
:1018D0001F93CF93DF93E82EEE0CEE0CEE0CFE2C54
:1018E00028E0F20E8E2D6F2D0E94E90B80912800CA
:1018F00080688093280086E69EE00197F1F700005B
:10190000CE2DD0E00F2D10E004C08C2F0E948E0B46
:101910002196C017D107C8F30E94C20BC0E0D0E0E7
:1019200014C0E02FF0E0E657FA4F208130E0C217F4
:10193000D30719F4802F0E94B60B0F5F0F1588F3A1
:10194000219631E0C030D30711F00E2DF7CF8091F2
:1019500028008F778093280004C08E2D0E94B60B3C
:10196000E394EF14D0F3DF91CF911F910F91FF908B
:10197000EF900895E82FF0E0EE55FA4F908193FF35
:1019800013C01092C9000E940A028850823060F48D
:1019900080E162E040E021E00E940E0281E162E02D
:1019A00040E021E00E940E020895603820E77207AF
:1019B00020E0820720E0920709F481C0613820E727
:1019C000720720E0820720E09207B8F5603825E230
:1019D000720720E0820720E0920709F467C06138AF
:1019E00025E2720720E0820720E0920798F4603633
:1019F00029E0720720E0820720E0920709F450C036
:101A0000603C22E1720720E0820720E0920709F0A3
:101A10006FC049C0603428E3720720E0820720E0ED
:101A2000920709F446C060302BE4720720E0820779
:101A300020E0920709F05CC03FC060302CE27207E2
:101A400021E0820720E0920709F442C061302CE2D5
:101A5000720721E0820720E0920788F4603026E9CF
:101A6000720720E0820720E0920761F1603021EEEA
:101A7000720720E0820720E09207D1F526C060308F
:101A800022EC720721E0820720E0920721F160300A
:101A900024E8720723E0820720E0920749F51EC080
:101AA0002FED31E01DC02FEE30E01AC027E730E007
:101AB00017C02FE430E014C02BE330E011C027E260
:101AC00030E00EC02DE130E00BC023E130E008C073
:101AD0002EE030E005C029E030E002C024E030E034
:101AE0003093CD002093CC000E94FF0681E0089542
:101AF00080E008950E94D50C08950E9495060E94EA
:101B0000D50C882331F460E07BE480E090E00E9413
:101B1000D50C80E161E00E94D50881E160E00E947F
:101B2000D50881E161E00E94000886E08093CA0048
:101B300088E98093C9001092C8008DE694E060E8BF
:101B400074E025E030E040E050E00E948D1F0895F1
:101B50001F920F920FB60F9211242F933F934F9322
:101B60005F936F937F938F939F93AF93BF93EF9305
:101B7000FF93DF93CF930F92CDB7DEB76091CE0086
:101B80008DE694E0AE014F5F5F4F0E943D1E0F90C7
:101B9000CF91DF91FF91EF91BF91AF919F918F9185
:101BA0007F916F915F914F913F912F910F900FBE59
:101BB0000F901F901895FC019B0140E050E08DE6CE
:101BC00094E0BF010E94CD1E08958DE694E00E942E
:101BD000371ECB010895EF92FF920F931F930F2EA4
:101BE000F0E0EF2EF0E0FF2EF8EC0F2FF1E41F2FC6
:101BF000F02DE0926D01F0926E0100936F01109351
:101C000070010E94C5186093690170936A01809306
:101C10006B0190936C01E0927501F0927601009354
:101C200077011093780120E030E040E051E40E9419
:101C30006422262F372F482F592F2093710130937C
:101C400072014093730150937401E0927D01F09210
:101C50007E0100937F011093800120E030E040E09E
:101C600051E40E9464226093790170937A01809319
:101C70007B0190937C011F910F91FF90EF9008954D
:101C80000E94E50D009711F00E94CF12609169014A
:101C900070916A0180916B0190916C0120E030E0BD
:101CA000A9010E946A24181614F00E94EB0D60919D
:101CB000710170917201809173019091740120E023
:101CC00030E0A9010E946A24181614F00E94EB0D5E
:101CD0006091790170917A0180917B0190917C01F2
:101CE00020E030E0A9010E946A24181614F00E9436
:101CF000EB0D89E691E00E94491620E030E0A90151
:101D00000E946A2418161CF480E00E94650C81E78A
:101D100091E00E94491620E030E0A9010E946A2467
:101D200018161CF481E00E94650C89E791E00E947E
:101D3000491620E030E0A9010E946A2418162CF40C
:101D400082E00E94650C0E94EB0D089581E0809373
:101D500085040895E82FF0E0E831F10508F09CC013
:101D6000EA57FF4FEE0FFF1F0590F491E02D099405
:101D700081E0209191043091920489C081E020910A
:101D800093043091940483C081E0209195043091B4
:101D900096047DC081E0209197043091980477C02B
:101DA00081E02091990430919A0471C081E02091E2
:101DB0009B0430919C046BC081E020919D04309184
:101DC0009E0465C081E020919F043091A0045FC013
:101DD00081E02091A1043091A20459C081E02091BA
:101DE000A3043091A40453C081E02091A504309154
:101DF000A6044DC081E02091A7043091A80447C0FB
:101E000081E02091A9043091AA0441C081E0209191
:101E1000AB043091AC043BC081E02091AD04309123
:101E2000AE0435C081E02091AF043091B0042FC0E2
:101E300081E02091B1043091B20429C081E0209169
:101E4000B3043091B40423C081E02091B5043091F3
:101E5000B6041DC081E02091B7043091B80417C0CA
:101E600081E02091B9043091BA0411C081E0209141
:101E7000BB043091BC040BC081E02091BD043091C3
:101E8000BE0405C081E02091BF043091C00421153B
:101E9000310519F480E0089580E00895E82FF0E01E
:101EA000E831F10508F0F8C0E256FF4FEE0FFF1FD2
:101EB0000590F491E02D099481E090E0662311F4FF
:101EC00080E090E0909392048093910481E090E010
:101ED000662311F480E090E090939404809393043F
:101EE00081E090E0662311F480E090E09093960406
:101EF0008093950481E090E0662311F480E090E007
:101F0000909398048093970481E090E0662311F405
:101F100080E090E090939A048093990481E090E0AF
:101F2000662311F480E090E090939C0480939B04DE
:101F300081E090E0662311F480E090E090939E04AD
:101F400080939D0481E090E0662311F480E090E0AE
:101F50009093A00480939F0481E090E0662311F4A5
:101F600080E090E09093A2048093A10481E090E04F
:101F7000662311F480E090E09093A4048093A3047E
:101F800081E090E0662311F480E090E09093A60455
:101F90008093A50481E090E0662311F480E090E056
:101FA0009093A8048093A70481E090E0662311F445
:101FB00080E090E09093AA048093A90481E090E0EF
:101FC000662311F480E090E09093AC048093AB041E
:101FD00081E090E0662311F480E090E09093AE04FD
:101FE0008093AD0481E090E0662311F480E090E0FE
:101FF0009093B0048093AF0481E090E0662311F4E5
:1020000080E090E09093B2048093B10481E090E08E
:10201000662311F480E090E09093B4048093B304BD
:1020200081E090E0662311F480E090E09093B604A4
:102030008093B50481E090E0662311F480E090E0A5
:102040009093B8048093B70481E090E0662311F484
:1020500080E090E09093BA048093B90481E090E02E
:10206000662311F480E090E09093BC048093BB045D
:1020700081E090E0662311F480E090E09093BE044C
:102080008093BD0481E090E0662311F480E090E04D
:102090009093C0048093BF040895DF92EF92FF9263
:1020A0000F931F93CF93DF93EE24C0E0D0E0FF2483
:1020B000F394DC2E8C2F0E940A02823049F080318A
:1020C00039F021E030E0833129F020E030E002C037
:1020D00021E030E021153105E9F08D2D0E948D07BA
:1020E00001E010E0882311F400E010E01093C20436
:1020F0000093C1048D2D0E94AA0E282F30E00217F4
:10210000130741F0F09285048D2D602F0E944E0F31
:10211000EE24E3942196C831D10559F6EE2011F052
:102120000E9489138E2DDF91CF911F910F91FF9007
:10213000EF90DF9008958B3009F445C08C3040F467
:102140008930C9F08A3040F5883009F08FC00DC061
:102150008D3009F453C08D3008F442C08E3009F43C
:1021600062C08F3009F082C06FC0209186048091D8
:102170008704382F79C08091870486958695869547
:1021800090918804492F4295440F407E242F282B9C
:1021900096959695969556C08091880482958695D9
:1021A0008695837090918904492F440F440F242F02
:1021B000282B929596959695937080918A048170BC
:1021C000880F880F2DC080918A04869590918B048A
:1021D000492F479544274795242F282B969532C0A1
:1021E00080918B0482958F7090918C04492F429539
:1021F000407F242F282B92959F7024C080918C04BF
:10220000881F8827881F90918D04492F440F242F01
:10221000282B991F9927991F80918E048370880F0E
:10222000382F392B25C080918E0486958695909104
:102230008F04492F4295440F440F407C242F282BB4
:1022400096959695392F10C080918F04829586952A
:10225000877090919004492F440F440F440F242F0E
:10226000282B392F32953695377002C020E030E0A8
:10227000C90108958B3009F45BC08C3040F489307B
:10228000E9F08A30A8F5883009F0C7C00DC08D305C
:1022900009F47BC08D3008F461C08E3009F491C020
:1022A0008F3009F0BAC0A6C060938604972F97704C
:1022B00080918704887F892B80938704962F990FBC
:1022C000990F990F809187048770892B80938704D9
:1022D000262F22952695277080918804807C972F41
:1022E0009770990F990F990F822B892B80938804EF
:1022F000962F9295990F990F907C809188048F73F7
:10230000892B80938804972F9295990F990F907C31
:10231000862F86958695892B80938904972F96958D
:102320009695917080918A048E7F892B80938A0480
:10233000962F990F80918A048170892B80938A044B
:10234000262F221F2227221F80918B04807F972F08
:102350009770990F822B892B80938B04962F9295DF
:10236000907F80918B048F70892B80938B04262F14
:1023700022952F7080918C048078972F977092957A
:10238000907F822B892B80938C04962F9795992789
:10239000979580918C048F77892B80938C04972F4D
:1023A000979599279795862F8695892B80938D04ED
:1023B000972F9695937080918E048C7F892B8093B4
:1023C0008E04962F990F990F80918E048370892B1C
:1023D00080938E04262F2295269526952370809132
:1023E0008F04807E972F9770990F990F822B892BDE
:1023F00080938F04962F9295990F907E80918F04F1
:102400008F71892B80938F047295770F707E6695FC
:1024100066956695672B609390040895AF92BF927E
:10242000DF92EF92FF920F931F93DF93CF9300D031
:10243000CDB7DEB788E0A82EB12CEE24FF24F394AC
:10244000DA2C8A2D0E940A02843049F58A2D0E94D6
:10245000C405BC018C019093C2048093C1048A2DF1
:1024600069837A830E949B109093C4048093C30471
:10247000A801465F5F4FB801481759074CF0A80103
:102480004A5050408417950754F40A3011053CF027
:10249000F09285048D2D0E943A11EE24E394089465
:1024A000A11CB11C20E1A216B10451F6EE2011F0DE
:1024B0000E941E138E2D0F900F90CF91DF911F91D0
:1024C0000F91FF90EF90DF90BF90AF9008951F9312
:1024D000182F0E940A02843041F4812F0E94C40503
:1024E000BC01812F0E943A1110C0823021F080314E
:1024F00011F0833151F4812F0E948D0761E0882310
:1025000009F460E0812F0E944E0F1F910895EF9211
:10251000FF920F931F93CF93DF93182F062FE72E71
:1025200083E00E94AA192FE12A95F1F786E0F82EA0
:1025300080E00E94AA193FE13A95F1F7FA94C1F7B9
:1025400080E20E94AA198FE18A95F1F783EE0E943A
:10255000AA199FE19A95F1F7812F0E94AA192FE1FC
:102560002A95F1F7812F8A5F0E94AA193FE13A95D7
:10257000F1F78E2DE02EE7017E01F82EE70114E041
:1025800089910E94AA193FE13A95F1F71150C1F7DC
:10259000DF91CF911F910F91FF90EF900895CF920F
:1025A000DF92EF92FF920F931F93DF93CF930F92DF
:1025B000CDB7DEB70E94E50D7C01809128008068D0
:1025C0008093280086E69EE00197F1F700008E2DAB
:1025D0008B5F61E871E00E94871281E10E94AA1975
:1025E0009FE19A95F1F700E010E06E010894C11C9C
:1025F000D11C0DC0C60161E070E00E94DB0D898135
:102600000E94AA198FE18A95F1F70F5F1F4F0E15EF
:102610001F0580F3809128008F778093280086E63D
:102620009EE00197F1F700000F90CF91DF911F918D
:102630000F91FF90EF90DF90CF9008951F93CF936D
:10264000DF938091280080688093280086E69EE0D2
:102650000197F1F7000084E166E871E00E948712BB
:10266000C8E0D0E08C2F0E949B10182F892F0E9469
:10267000AA193FE13A95F1F7812F0E94AA198FE13B
:102680008A95F1F72196C031D10561F78091280034
:102690008F778093280086E69EE00197F1F700008F
:1026A000DF91CF911F910895FF920F931F93F82E02
:1026B000162F072F8091280080688093280086E6D7
:1026C0009EE00197F1F7000087E061E871E00E9469
:1026D00087128F2D0E94AA199FE19A95F1F7802FFA
:1026E0000E94AA198FE18A95F1F7812F0E94AA19F9
:1026F0009FE19A95F1F786E69EE00197F1F70000D9
:10270000809128008F77809328001F910F91FF9070
:102710000895CF93DF938BE891E00E94D6168091C5
:10272000280080688093280086E69EE00197F1F7F4
:1027300000008CE16BE971E00E948712C0E0D0E0FC
:102740008C2F0E94AA0E0E94AA193FE13A95F1F738
:102750002196C831D105A1F786E69EE00197F1F7F1
:102760000000809128008F7780932800DF91CF911F
:1027700008950F931F93082F162F809128008068CB
:102780008093280086E69EE00197F1F7000086E03E
:1027900061E871E00E948712802F0E94AA199FE1D0
:1027A0009A95F1F7812F0E94AA198FE18A95F1F786
:1027B000809128008F778093280086E69EE001971D
:1027C000F1F700001F910F9108950E94C4168091A7
:1027D0002700806880932700809127008F7B80935B
:1027E0002700809128008F7780932800809128000F
:1027F000806480932800809124008B7F8093240044
:10280000809125008B7F80932500809124008D7F0F
:1028100080932400809125008D7F8093250080E0A7
:1028200060E00E94AC0A80E060E00E94E40A0E943E
:10283000DE0480E16FE274E10E94DE1680E266EF62
:1028400074E10E94DE1680E367EB75E10E94DE16FC
:102850000E94C41680EA91E00E94D6160895AF92B5
:10286000BF92CF92DF92EF92FF920F931F93CF937D
:10287000DF93EC0184E08093C5048B859C85AD8556
:10288000BE85873621E6920723E6A2072DE6B2072A
:10289000D9F18836E1E69E07E3E6AE07EDE6BE072E
:1028A00098F48536F5E69F07F0E7AF07F4E6BF0733
:1028B00009F44EC0833721E6920726E7A20725E6F2
:1028C000B20709F085C073C08F35E2E79E07E5E6E1
:1028D000AE07E6E7BE0709F461C08736F3E69F0757
:1028E000F8E6AF07F6E7BF0731F1873623E6920730
:1028F00028E6A2072DE6B20709F06AC08F850E947C
:10290000B906888B86E013C09FE0E92EF12CEC0E0F
:10291000FD1E00E010E0802F0E94B906F7018193B0
:102920007F010F5F1F4F08311105A9F78CE18987DF
:1029300080E28F834FC00E94A60ECE010E948E03BC
:10294000882309F047C0CE016091C50440E023C050
:10295000BF840B2D10E0A888EA2CFF2480E28F832F
:10296000E016F106A8F08FE0C82ED12CCC0EDD1EAB
:1029700008C0C8010E948B06F60181936F010F5FAA
:102980001F4F0E151F05A8F38A2D8C5F8B190DC0E4
:10299000CE0164E041E00E94571B1CC083E08F879A
:1029A0008AE0888B81E0898B87E0898713C080E289
:1029B0008F838CE189872F9600E010E0C8010E9488
:1029C0002B0789930F5F1F4F08311105B9F702C01C
:1029D00080E001C081E0DF91CF911F910F91FF90C6
:1029E000EF90DF90CF90BF90AF900895CF92DF929D
:1029F000EF92FF920F931F93CF93DF938C0185E0AB
:102A00008093C504F80183859485A585B6858337B1
:102A1000F3E69F07F8E6AF07FDE6BF07A9F18437A5
:102A200023E6920728E6A2072DE6B20798F485363A
:102A3000E5E69E07E0E7AE07E4E6BE0709F467C0F7
:102A40008337F1E69F07F3E6AF07FDE6BF0709F01E
:102A500082C025C0833721E6920723E6A20726E736
:102A6000B207B9F18337E3E69E07E8E6AE07E6E78B
:102A7000BE0701F18F35F0E79F07F7E7AF07F2E7F1
:102A8000BF0709F068C038C0C8010E94E10288236E
:102A900009F063C0C8016091C50440E02AC0C801C4
:102AA0000E94CB02882309F058C0C8016091C50478
:102AB00041E01FC0C8010E943D04882329F0C801DD
:102AC0006091C50442E00EC0C8016091C50442E0B7
:102AD00010C0C8010E948A04882339F0C80160919F
:102AE000C50445E20E94771B38C0C8016091C50447
:102AF00043E00E94571B31C0F801818967850E941D
:102B0000AC0AF801828960890E94E40A26C0F801B3
:102B10008785C82FD0E0C088DD24CC16DD06B8F04C
:102B200021E1E22EF12CE00EF11E00E010E0CC1AC3
:102B3000DD0A09C0F70161917F01CE010E94F7060D
:102B40000F5F1F4F21960C151D05A0F306C0C8018D
:102B500065E044E0CECF80E001C081E0DF91CF911D
:102B60001F910F91FF90EF90DF90CF900895EF921B
:102B7000FF921F93DF93CF930F92CDB7DEB77C0107
:102B800086E08093C504F70183859485A585B68585
:102B90008336F3E69F07F8E6AF07FEE6BF0729F1A5
:102BA000843623E6920728E6A2072EE6B20750F401
:102BB0008F35EDE69E07E1E6AE07E3E6BE0709F0D6
:102BC0005EC021C08037FFE69F07F6E7AF07F2E758
:102BD000BF0709F449C0833723E6920728E6A20716
:102BE00026E7B20709F04BC021C0C7010E946A0165
:102BF000482F882321F4C7016091C50413C0C70181
:102C00006091C50439C0C7010F960E945A078823F6
:102C100029F0C7016091C50441E02EC0C701609151
:102C2000C50441E00E94571B81E02AC0F7011785C7
:102C30006089C70169830E943D046981882379F016
:102C4000812F0E943C03882329F0C7016091C504AD
:102C500042E012C0C7016091C50442E0E3CFC70162
:102C60006091C50443E0DECFF70187850E94A90A81
:102C7000C7016091C50443E00E94771BD5CF80E077
:102C80000F90CF91DF911F91FF90EF90089581E019
:102C900008956F927F928F929F92AF92BF92CF9240
:102CA000DF92EF92FF920F931F93CF93DF93EC018C
:102CB0000E94C5187B018C01288139814A815B8182
:102CC0000E94CA24882324F4E882F9820A831B83A1
:102CD000C801B701288139814A815B810E94912214
:102CE0003B014C01AC80BD80CE80DF80A601950108
:102CF0000E946A2418162CF0E0E070E080E060E0AA
:102D000016C0C801B701A40193010E949122A60137
:102D100095010E946422688379838A839B83C4011E
:102D2000B301A60195010E949122E62F692F2E2F53
:102D3000372F482F562FB901CA01DF91CF911F912C
:102D40000F91FF90EF90DF90CF90BF90AF909F904A
:102D50008F907F906F9008951F9390E023E0880FED
:102D6000991F2A95E1F781549E4F0E94491610E061
:102D700020E030E040E050E00E946A2418160CF495
:102D800011E0812F1F91089508950895E82FF0E034
:102D9000EF70F070E151FE4F8081089582958F7041
:102DA000EFEEF1E0E80FF11D808108950895089598
:102DB0000895089508950895089508956115710579
:102DC000F1F0803261F0803391F08031C1F481E024
:102DD0008093E5047093E7046093E604089581E02E
:102DE0008093E2047093E4046093E304089581E027
:102DF0008093DF047093E1046093E004089580E021
:102E0000089580E00895CF92DF92EF92FF920F93A2
:102E10001F93CF93DF938C01EB017881772339F1F6
:102E200060E023C0862F90E0FC01EE0FFF1FE80F4B
:102E3000F91FEE0FFF1FEC0FFD1F2181328143812F
:102E40005481D8011B96CD90DD90ED90FC901E979B
:102E50002C153D054E055F0539F40580F681E02D02
:102E6000C801099581E004C06F5F6717D8F280E060
:102E7000DF91CF911F910F91FF90EF90DF90CF9056
:102E800008959091C604292F30E0F901EE0FFF1F3D
:102E9000E20FF31FEA53FB4F8183738362839F5FCB
:102EA0009093C6040895CF93DF93EC011092E80449
:102EB0008091DF04882371F0E091E004F091E10457
:102EC000CE010995882331F4CE016091E80443E0F6
:102ED0000E94571BDF91CF910895CF93DF93EC01B0
:102EE0001092E8048091E204882371F0E091E304F9
:102EF000F091E404CE010995882331F4CE0160916C
:102F0000E80442E00E94571BDF91CF91089560E0F2
:102F100040E00E94571B08950F931F93DF93CF93B8
:102F200000D00F92CDB7DEB78C011092E804FC01FF
:102F300083859485A585B6858F35F0E79F07FEE6E6
:102F4000AF07F7E6BF0739F08F559E46AD46B3474A
:102F500009F056C00FC080E2F80187838FEF91E03F
:102F60000E94441BF801638774878587968784E0F5
:102F7000818758C0F8018185843041F485E08187DC
:102F800080E287838091C60487874CC08530A1F595
:102F9000F80197858091C604981750F584E08187E1
:102FA00080E28783892F90E0FC01EE0FFF1FE80F7E
:102FB000F91FDE011196E953FB4F83E001900D925A
:102FC0008150E1F72A813B8190E009C0A00FB11F39
:102FD0001F96EC93F80181858F5F81879F5FA92FF2
:102FE000B0E0F901EA0FFB1FE081EE2379F71AC088
:102FF000C80160E045E014C0C80160E044E010C0D2
:103000008091E504882371F0E091E604F091E704F3
:10301000C8010995882331F4C8016091E80441E0B2
:103020000E94571B0F900F900F90CF91DF911F912F
:103030000F910895EF92FF920F931F93CF93DF9319
:103040007B01EA0108810F3011F480E016C010E026
:103050000E94441BF801EE0FFF1FE00FF11FEE0F5F
:10306000FF1FEC0FFD1F6183728383839483F682BD
:10307000E58288818F5F888381E0DF91CF911F9106
:103080000F91FF90EF900895CF93DF93EC018F8124
:10309000803171F0813118F4882331F015C080320D
:1030A00059F0803389F40CC0CE0160E040E00FC0DD
:1030B000CE010E948C170DC0CE010E946D1709C071
:1030C000CE010E94531705C0CE0160E04FE70E9479
:1030D000571B80E888870E94C5186093E9047093A5
:1030E000EA048093EB049093EC04DF91CF91089570
:1030F000EF92FF920F931F93E090E904F090EA049F
:103100000091EB041091EC040E94C5189B01AC01E6
:10311000C801B7010E946A24181664F480E090E0A8
:10312000A0E0B0E08093E9049093EA04A093EB045C
:10313000B093EC042091E9043091EA044091EB044F
:103140005091EC04B901CA011F910F91FF90EF90CB
:103150000895AC0120E030E09EE112C0FA01E20FD8
:10316000F31FE0818091C00085FFFCCFE093C60093
:10317000892F8A95F1F7892F8A95F1F72F5F3F4FB5
:103180002617370758F3CB010895AF92BF92CF921D
:10319000DF92EF92FF920F931F93A0908400B09064
:1031A0008500CC24DD248091ED049091EE04A09163
:1031B000EF04B091F004A80EB91ECA1EDB1E9501E3
:1031C000A60160E070E080E090E00E943D2020E0F9
:1031D00030E040E951E40E94BC237B018C01609106
:1031E000F1047091F2048091F3049091F4040E9430
:1031F000DC2520E030E040E85FE40E94C22220E0CD
:1032000030E040E951E40E94BC239B01AC01C801BD
:10321000B7010E9464221F910F91FF90EF90DF9001
:10322000CF90BF90AF9008951092ED041092EE04ED
:103230001092EF041092F004809180008C7F8093B4
:10324000800080918100887F8560809381008091DB
:103250006F00816080936F000895AF92BF92CF920C
:10326000DF92EF92FF920F931F93A0908400B09093
:103270008500CC24DD248091ED049091EE04A09192
:10328000EF04B091F004A80EB91ECA1EDB1E950112
:10329000A60160E070E080E090E01F910F91FF9048
:1032A000EF90DF90CF90BF90AF9008951F920F9254
:1032B0000FB60F9211242F933F934F935F938F93E9
:1032C0009F93AF93BF932091ED043091EE04409112
:1032D000EF045091F004DA01C90180509040AF4FE3
:1032E000BF4F8093ED049093EE04A093EF04B0934E
:1032F000F00482179307A407B507F8F41092ED04C1
:103300001092EE041092EF041092F00410928500D7
:10331000109284008091F1049091F204A091F30442
:10332000B091F4040196A11DB11D8093F104909316
:10333000F204A093F304B093F404BF91AF919F9172
:103340008F915F914F913F912F910F900FBE0F90F2
:103350001F901895982F8091C00085FFFCCF909307
:10336000C6008EE18A95F1F70895982F8091C900E3
:10337000882369F41092CD0089E08093CC0086E028
:103380008093CA0088E08093C9001092C8008091A1
:10339000C80085FFFCCF9093CE008EE18A95F1F7AF
:1033A00008950E94B51908959093C5008093C400B4
:1033B00086E28093C20088E98093C1001092C00029
:1033C00008951092CD0089E08093CC0086E0809330
:1033D000CA0088E08093C9001092C80008951F9227
:1033E0000F920FB60F9211242F933F934F935F9339
:1033F0006F937F938F939F93AF93BF93EF93FF93BD
:10340000DF93CF930F92CDB7DEB7F8946091C600EB
:103410008DE695E0AE014F5F5F4F0E943D1E7894B0
:103420000F90CF91DF91FF91EF91BF91AF919F915D
:103430008F917F916F915F914F913F912F910F905D
:103440000FBE0F901F901895F8941092C50084E05D
:103450008093C40086E28093C20088E98093C10013
:103460001092C0008DE695E065EF74E028E730E04B
:1034700040E050E00E948D1F789408956DE675E05D
:103480000E94C81D0895FF920F931F93CF93DF935F
:10349000EC01F62E0E943E1A882309F466C0FF2034
:1034A00081F08B859C85AD85BE858F559047A7475C
:1034B000B24739F084E092E00E94D616CE010E9415
:1034C000DB168E010F5F1F4F85E492E0B8010E946A
:1034D000971B813039F08FE392E0B8010E94971B6F
:1034E000813069F5CE010E94441890E00BC0E92FAD
:1034F000F0E0DE01AE0FBF1FEB5BFD4F8081119648
:103500008C939F5F963098F390938005CE010E9434
:10351000DD1ACE010E94B91CFF2031F18B859C85FC
:10352000AD85BE858F559047A747B247E9F089E042
:1035300092E00E94D616CE010E94DB1615C0FF2035
:1035400099F083E192E00E94D616C80166E070E02F
:103550000E94DC1680E392E00E94D81685E492E097
:1035600066E070E00E94DC1681E0DF91CF911F9150
:103570000F91FF9008950E9414190E94241A81E16E
:103580006BE472E00E9441170895DC0120E030E016
:1035900090E007C0FD01E90FF11D8081280F311D6A
:1035A0009F5F9A30B8F39093810590E01A968C91C2
:1035B000821709F491E0892F0895DC0120E030E0C2
:1035C00090E007C0FD01E90FF11D8081280F311D3A
:1035D0009F5F9A30B8F3909381051A962C930895C3
:1035E000FC016187862F90E00895FC01218530E081
:1035F000255F3F4FC9010895FC01818590E0089542
:10360000CF93DF93EC0120E008C0FB01EA0FFB1F22
:10361000AC0FBD1F8C9180832F5FA22FB0E08985F6
:1036200090E00A968A179B0784F7DF91CF9108955F
:10363000EF92FF920F931F93E62EFF2400E010E01D
:103640008701FF24EE2490E0A0E0B0E0B82FAA2785
:1036500099278827E80EF91E0A1F1B1F50E060E01B
:1036600070E0762F652F542F4427E40EF51E061FB9
:10367000171FE20EF11C011D111DB701C8011F919A
:103680000F91FF90EF900895FC0183818093850551
:10369000828180938405818180938305608160931A
:1036A0008205782F80918405909185050895EF9289
:1036B000FF920F931F938C01F62EE42EFC011782CC
:1036C0008CE592E00E94441BF8016387748785872C
:1036D000968780858078808786E08187F786E08A74
:1036E00086E090E01F910F91FF90EF900895EF9288
:1036F000FF920F931F938C01F62EE42EFC0117828C
:1037000081E692E00E94441BF801638774878587F5
:10371000968780858078808786E08187F786E08A33
:1037200086E090E01F910F91FF90EF900895AC011B
:103730001092810520E012C0E22FF0E0322F3F5FAF
:10374000DA01AE0FBF1FE60FF71F9C91808198171B
:1037500021F02093810580E00895232F263060F327
:103760002093810581E008952F923F924F925F92BE
:103770006F927F928F929F92AF92BF92CF92DF9281
:10378000EF92FF920F931F93DF93CF9300D000D05F
:10379000CDB7DEB78C015A016B01DC0118962D9074
:1037A0003D904D905C901B97C201B10120E030E04C
:1037B00040E050E00E946A2418160CF097C0C60141
:1037C000B501F80124853585468557850E949122EB
:1037D0003B014C01A20191010E94CA2488230CF0F4
:1037E00077C0C401B30120E030E040E050E00E9427
:1037F0006A2418160CF06CC0D801AD90BD90CD9025
:10380000DC90139714968D919D910D90BC91A02DF5
:1038100089839A83AB83BC83C601B50129813A8130
:103820004B815C810E9491227B018C01C201B1011C
:10383000A40193010E949122A20191010E94BC2344
:103840009B01AC0160E070E080E89FE30E94912260
:103850009B01AC01C801B7010E94C2229B01AC01CF
:1038600069817A818B819C810E9464223B014C0199
:10387000C601B50129813A814B815C810E946A248D
:1038800018169CF4C401B301A60195010E946A2494
:103890001816ECF1C401B30129813A814B815C8196
:1038A0000E94CA2487FD33C030C0C401B301A60101
:1038B00095010E94CA2487FD2AC0C401B301298151
:1038C0003A814B815C810E946A24181604F11DC064
:1038D00080E090E0A0E0B0E0F80180879187A287C7
:1038E000B387A080B180C280D38011C0D801AD90D1
:1038F000BD90CD90DC9080E090E0A0E0B0E0F801D9
:1039000080879187A287B38702C064015301B50104
:10391000C6010F900F900F900F90CF91DF911F91E4
:103920000F91FF90EF90DF90CF90BF90AF909F905E
:103930008F907F906F905F904F903F902F90089561
:10394000FC018091450281838091460282838091AF
:103950004702838380914802848380914902858352
:1039600080914A02868383E08083CF010E94DD1A22
:1039700008950F931F938C01FC01808580688087D8
:10398000C8010E94A01CC8010E94F51ABC01C80110
:103990000E94A9181F910F9108950F931F93FC0186
:1039A0008B01CA0120E030E0BF01A90198010E940B
:1039B000CD1ECB011F910F9108950E94371ECB01A0
:1039C0000895AF92BF92CF92DF92EF92FF920F9342
:1039D0001F93DF93CF930F92CDB7DEB78C017B019E
:1039E0005C016E010894C11CD11CC50141E050E08E
:1039F00060E070E097010E942C1FF8018081833005
:103A0000A9F0F894C701B60121E030E040E050E0B1
:103A10000E94CD1E789486E692E00E94D616F801A8
:103A2000608170E080E090E00E94D916C7010E949A
:103A3000371E672B21F0F80180818330B1F60F909B
:103A4000CF91DF911F910F91FF90EF90DF90CF907A
:103A5000BF90AF9008958F929F92BF92CF92DF92C6
:103A6000EF92FF920F931F93DF93CF930F92CDB7F7
:103A7000DEB78C017B01CB010E94371E672B09F456
:103A800075C0C801B7010E94E11CC7010E94371E22
:103A90006F30710508F46AC0C02EB12EC8014BE02A
:103AA00050E060E070E097010E942C1F4E010894E6
:103AB000811C911CF8018081833041F4C8010E946F
:103AC000C51A882319F0DD24D3942BC0F801808116
:103AD000833019F080E892E007C0C8010E94C51A3F
:103AE000882321F483E992E00E94D616F8016081D0
:103AF00070E080E090E00E94D916F894C701B4010C
:103B000021E030E040E050E00E94CD1E78948C2D02
:103B10009B2D4BE050E060E070E097010E942C1F6D
:103B2000DD24C7010E94371E672B29F4C801B701A5
:103B30000E94E11C1BC0DD2009F4BCCFF801818587
:103B4000082F10E0055F1F4FC7010E94371E601746
:103B5000710760F0F894980140E050E0C7016C2DC7
:103B60007B2D0E94CD1E789481E001C080E00F90F3
:103B7000CF91DF911F910F91FF90EF90DF90CF9049
:103B8000BF909F908F90089541E00E942B1D089553
:103B900040E00E942B1D0895F89481E008957894E8
:103BA00081E00895CF93DF93EC0120E030E040E026
:103BB00050E009C0EC81FD81E20FF31F10822F5FFE
:103BC0003F4F4F4F5F4F88819981AA81BB81281752
:103BD00039074A075B0770F3209386053093870502
:103BE0004093880550938905DF91CF910895FC019A
:103BF000A481B58186819781A80FB91F8C91089502
:103C0000FC0122853385668177812617370729F4E1
:103C100016861786108A118A25C06217730744F426
:103C2000261B370BC901AA2797FDA095BA2F16C0EE
:103C3000C901AA2797FDA095BA2F20813181428121
:103C40005381820F931FA41FB51F9B01442737FD8B
:103C50004095542F821B930BA40BB50B8687978737
:103C6000A08BB18B66857785808991890895FC0149
:103C700066857785808991890895EF92FF920F93E9
:103C80001F93CF93DF93EC018A0188819981AA81E8
:103C9000BB810297A109B1092E853F8548895989C1
:103CA000281739074A075B0738F083E0F80180835B
:103CB000EE24FF2487013BC0F894EC81FD818A85C6
:103CC0009B85E80FF91F60838A859B85AC85BD8540
:103CD0000196A11DB11D8A879B87AC87BD8728816E
:103CE00039814A815B8182179307A407B50721F4C4
:103CF0001A861B861C861D86CE010E94001EF801B6
:103D000010827894EE24FF2487012E853F85488910
:103D1000598988819981AA81BB8182179307A40759
:103D2000B50728F081E0E82EF12C012D112DB70107
:103D3000C801DF91CF911F910F91FF90EF900895EF
:103D40001F93CF93DF93EC01F8948E819F81A88518
:103D5000B985EC81FD81E80FF91F10810196A11D45
:103D6000B11D8E839F83A887B987288139814A81B5
:103D70005B8182179307A407B50721F41E821F8277
:103D800018861986FB011082CE010E94001E7894CD
:103D9000812FDF91CF911F9108952F923F924F92E3
:103DA0005F926F927F928F929F92AF92BF92CF92CB
:103DB000DF92EF92FF920F931F93DF93CF930F92B7
:103DC000CDB7DEB73C0149015A01FC014684578456
:103DD0006B01EE24FF2487011E010894211C311C75
:103DE00018C0141415045CF4C301B1010E94A01E94
:103DF000982F89818823C1F7F601908302C0F601CC
:103E000010820894E11CF11C011D111D0894C11CB5
:103E1000D11CE814F9040A051B0518F3E092860585
:103E2000F09287050093880510938905B701C801B2
:103E30000F90CF91DF911F910F91FF90EF90DF9046
:103E4000CF90BF90AF909F908F907F906F905F903A
:103E50004F903F902F9008958F929F92AF92BF9274
:103E6000CF92DF92EF92FF920F931F93CF93DF9346
:103E70005A016B01B901D9011696ED90FD900D9193
:103E80001C9119971E968D909C901F97EC0120E035
:103E900030E040E050E025C018141904E4F4DB01E0
:103EA0001496ED91FC911597EE0DFF1D808188838E
:103EB0000894E11CF11C011D111D8D919D910D9027
:103EC000BC91A02DE816F9060A071B0729F4EE2479
:103ED000FF24870101C018822F5F3F4F4F4F5F4F74
:103EE00021962A153B054C055D05B0F22093860509
:103EF000309387054093880550938905B901CA011D
:103F0000DF91CF911F910F91FF90EF90DF90CF90B5
:103F1000BF90AF909F908F900895CF92DF92EF92D5
:103F2000FF920F931F93CF93DF93EC016B01790105
:103F30008A01009719F06115710541F485EA92E054
:103F40000E94D616C801B7010E94D916DD82CC8224
:103F5000E882F9820A831B831E821F8218861986D3
:103F60001A861B861C861D861A8ACE010E94D21DC7
:103F7000DF91CF911F910F91FF90EF90DF90CF9045
:103F80000895CF92DF92EF92FF920F931F93CF93FA
:103F9000DF93EC016B0183EC92E00E94D8166E85F2
:103FA0007F85888999890E94D91689ED92E00E94BF
:103FB000D8164E855F85688979894F5F5F4F6F4F4F
:103FC0007F4FC6019E010E942C1FEE24FF24870113
:103FD00012C0F601EE0DFF1D608170E080E090E000
:103FE0000E94D91683EE92E00E94D8160894E11C34
:103FF000F11C011D111D8E859F85A889B989E816C0
:10400000F9060A071B0728F385EE92E00E94D816EE
:10401000DF91CF911F910F91FF90EF90DF90CF90A4
:104020000895EF92FF920F931F937B018C0120E084
:1040300030E040E05FE40E949A2487FD11C0C8018F
:10404000B70120E030E040E05FE40E9491220E944E
:104050008A259B01AC01205030404040504806C0AA
:10406000C801B7010E948A259B01AC01B901CA01B0
:104070001F910F91FF90EF900895A4E0B0E0E3E46A
:10408000F0E20C94B128F22E132FE42ED52EC62E7A
:10409000772E682E592E29833A834B835C8389803F
:1040A0009A80AB80BC80A501940160E070E0CB01F8
:1040B0008F1499F4311789F44E1579F45D1569F46C
:1040C0006C1559F4771549F4861539F4951529F4CA
:1040D000C501B4010E94DC25A9C02F2D312F4E2D22
:1040E0005D2D6C2D772D862D952D00E20E94542696
:1040F000C901DA01803000E0900701E0A00700E08C
:10410000B00750F48F3F9105A105B10509F090F477
:1041100088249924540119C0803020E0920720E0BF
:10412000A20721E0B20760F440E1842E912CA12C7B
:10413000B12C0BC038E0832E912CA12CB12C05C0E2
:1041400028E1822E912CA12CB12C082C04C0B6950C
:10415000A795979587950A94D2F78F509D4FFC01AC
:104160008081880E911CA11CB11C482C2F2D312F51
:104170004E2D5D2D6C2D772D862D952D082D0E94B1
:104180005426A32FF42FE52F622F7A2F8F2F9E2FE7
:1041900020E230E028193909E980FA800B811C817E
:1041A00004C0EE0CFF1C001F111F2A95D2F7E1146A
:1041B000F1040105110509F061600E94DC25D62E8D
:1041C000E72EF82E192F00E280169104A104B10405
:1041D000C9F02FE182169104A104B104B9F061E0A5
:1041E00070E080E090E0042C04C0660F771F881F09
:1041F000991F0A94D2F70E942A25562F472F382F4D
:10420000292F08C050E040E030E803C050E040E013
:1042100030E02FE46D2D7E2D8F2D912FDA01F901E5
:104220002B2F342F4F2F5E2F0E94C2222496E0E1C5
:104230000C94CD28A0E0B0E0E0E2F1E20C94B328C9
:10424000FC01EA018081823008F438C1DB019C91D5
:10425000923008F430C1843059F4943009F02EC102
:10426000918111968C911197981709F021C126C15F
:10427000943009F420C19230B1F4823009F01EC1AB
:10428000CA01AF0128E0DA010D90AD01DC010D9209
:10429000CD012150C1F7DB0111968C9111979181CD
:1042A000892389830AC1823009F405C1C280D38081
:1042B000DB0112966D907C901397248135814681A5
:1042C00057811496ED90FD900D911C911797C601A2
:1042D000861997095C0197FF04C0AA24BB24A81A79
:1042E000B90AB0E2AB16B1040CF061C01816190699
:1042F0006CF5370148010A2C04C096948794779492
:1043000067940A94D2F781E090E0A0E0B0E00A2C34
:1043100004C0880F991FAA1FBB1F0A94D2F70197E8
:10432000A109B1098E219F21A023B123EE24FF24EE
:104330008701E3940097A105B10519F4EE24FF2449
:104340008701E628F728082919293CC00097D1F1F0
:10435000CA0CDB1C39014A010A2C04C096948794CC
:10436000779467940A94D2F781E090E0A0E0B0E0FF
:104370000A2C04C0880F991FAA1FBB1F0A94D2F7EA
:104380000197A109B10982239323A423B52321E036
:1043900030E040E050E00097A105B10519F420E0BD
:1043A00030E0A90126293729482959290BC06C1466
:1043B0007D0424F4EE24FF24870104C0630120E07F
:1043C00030E0A9018181FB019181891709F445C081
:1043D000882349F0D801C701821B930BA40BB50BAE
:1043E0009C01AD0104C02E193F09400B510B57FD34
:1043F00004C01982DB82CA820BC081E08983DB8220
:10440000CA8250954095309521953F4F4F4F5F4F51
:104410002C833D834E835F830DC0880F991FAA1F95
:10442000BB1F8C839D83AE83BF838A819B81019751
:104430009B838A838C819D81AE81BF819C01AD016C
:1044400021503040404050402F3FEFEF3E07EFEF0C
:104450004E07EFE35E0708F30BC08983DB82CA8255
:104460002E0D3F1D401F511F2C833D834E835F83C4
:1044700083E088832C813D814E815F8157FF1DC081
:10448000DA01C90181709070A070B070569547959F
:1044900037952795822B932BA42BB52B8C839D834B
:1044A000AE83BF838A819B8101969B838A8305C0EB
:1044B000E9EEF2E003C0FB0101C0FE01CF01CDB780
:1044C000DEB7EEE00C94CF28A0E2B0E0EAE6F2E23C
:1044D0000C94BB2869837A838B839C832D833E83D2
:1044E0004F83588789E0E82EF12CEC0EFD1ECE019B
:1044F0000196B7010E94ED278E010F5E1F4FCE017E
:104500000596B8010E94ED27C701B801AE01475ECC
:104510005F4F0E941A210E941F27A096E6E00C948C
:10452000D728A0E2B0E0E7E9F2E20C94BB28698367
:104530007A838B839C832D833E834F8358878E01A0
:10454000075F1F4FCE010196B8010E94ED2791E150
:10455000E92EF12CEC0EFD1ECE010596B7010E944E
:10456000ED278A8991E089278A8BC801B701AE01BE
:10457000475E5F4F0E941A210E941F27A096E6E027
:104580000C94D728A0E2B0E0E8ECF2E20C94AF285B
:1045900069837A838B839C832D833E834F835887E3
:1045A000CE010196BE01675F7F4F0E94ED27CE01CD
:1045B0000596BE016F5E7F4F0E94ED279985923070
:1045C00078F089898230C0F0943019F4823041F457
:1045D000CBC0843019F4923079F4C6C0923051F4D3
:1045E00081E02A859A89291709F480E08A87CE011B
:1045F0000996BCC0823051F481E02A859A89291736
:1046000009F480E08A8BCE014196B0C06D847E842F
:104610008F849888ED88FE880F89188DE0E2F0E09D
:1046200080E090E0DC01AA24BB24650120E030E0BA
:10463000A901B3016170707061157105D1F02E0D83
:104640003F1D401F511F15012601280E391E4A1E0D
:104650005B1E81E090E0A0E0B0E02E153F05400732
:10466000510718F080E090E0DC01820D931DA41D3D
:10467000B51DAA0CBB1CCC1CDD1C17FF09C061E0DA
:10468000262E312C412C512CA228B328C428D52801
:10469000319749F0EE0CFF1C001F111F9694879470
:1046A00077946794C6CF6B897C89EB85FC856E0F08
:1046B0007F1F6E5F7F4F7C8F6B8F61E0EA857A8909
:1046C000E71709F460E06A8F6B8D7C8D10C0FC01E8
:1046D000E170F070309729F05695479537952795FA
:1046E0005068B695A795979587956F5F7F4FB7FDF3
:1046F000EECF0CC0880F991FAA1FBB1F57FD81600A
:10470000220F331F441F551F615070408030E0E07E
:104710009E07E0E0AE07E0E4BE0760F36B8F7C8F9E
:104720006FE7E62EF12C012D112DE822F9220A2344
:104730001B2360E4E616F1040105110561F487FD11
:104740000AC0211531054105510529F0805C9F4FB4
:10475000AF4FBF4F80788D8F9E8FAF8FB8A383E010
:10476000898FCE01499602C089EE92E00E941F27F0
:10477000A096E2E10C94CB28A8E1B0E0E2ECF3E2F1
:104780000C94B72869837A838B839C832D833E8323
:104790004F8358878E01075F1F4FCE010196B801E6
:1047A0000E94ED2781E1E82EF12CEC0EFD1ECE01DA
:1047B0000596B7010E94ED279985923008F483C0D1
:1047C0008989823008F47BC02A853A8923272A8781
:1047D000943011F0923021F4981709F06CC071C038
:1047E000843039F41D861E861F86188A1C861B8617
:1047F0006AC0823019F484E0898765C08B859C8506
:104800002B893C89821B930B9C878B872D853E854A
:104810004F855889ED88FE880F89188D2E153F0524
:104820004007510738F4220F331F441F551F0197CB
:104830009C878B876FE170E0A12CB12CC12CA0E488
:10484000DA2E80E090E0DC012E153F05400751078D
:1048500040F08A299B29AC29BD292E193F09400B1C
:10486000510BD694C794B794A794220F331F441FBB
:10487000551F6150704041F76FE7E62EF12C012D76
:10488000112DE822F9220A231B2360E4E616F10425
:104890000105110561F487FD0AC0211531054105A7
:1048A000510529F0805C9F4FAF4FBF4F80788D87B7
:1048B0009E87AF87B88B8E01075F1F4F04C08701AB
:1048C00002C009EE12E0C8010E941F276896EAE0C4
:1048D0000C94D328A8E1B0E0E0E7F4E20C94BB2804
:1048E00069837A838B839C832D833E834F83588790
:1048F0008E01075F1F4FCE010196B8010E94ED2780
:1049000081E1E82EF12CEC0EFD1ECE010596B701DB
:104910000E94ED278985823040F08989823028F015
:10492000C801B7010E94562801C08FEF6896E6E0E3
:104930000C94D728A8E1B0E0E0EAF4E20C94BB289C
:1049400069837A838B839C832D833E834F8358872F
:104950008E01075F1F4FCE010196B8010E94ED271F
:1049600081E1E82EF12CEC0EFD1ECE010596B7017B
:104970000E94ED278985823040F08989823028F0B5
:10498000C801B7010E94562801C08FEF6896E6E083
:104990000C94D728A8E1B0E0E0EDF4E20C94BB2839
:1049A00069837A838B839C832D833E834F835887CF
:1049B0008E01075F1F4FCE010196B8010E94ED27BF
:1049C00081E1E82EF12CEC0EFD1ECE010596B7011B
:1049D0000E94ED278985823040F08989823028F055
:1049E000C801B7010E94562801C081E06896E6E040
:1049F0000C94D728A8E1B0E0E0E0F5E20C94BB28E5
:104A000069837A838B839C832D833E834F8358876E
:104A10008E01075F1F4FCE010196B8010E94ED275E
:104A200081E1E82EF12CEC0EFD1ECE010596B701BA
:104A30000E94ED278985823040F08989823028F0F4
:104A4000C801B7010E94562801C081E06896E6E0DF
:104A50000C94D728A8E0B0E0E0E3F5E20C94BB2882
:104A60007B018C0183E08983D801C7018827B7FDCA
:104A700083959927AA27BB27282F8A83E114F1045D
:104A80000105110519F482E0898337C08EE190E0B9
:104A90009C838B83222389F080E0E81680E0F8066F
:104AA00080E0080780E8180769F110950095F094F8
:104AB000E094E11CF11C011D111DED82FE820F83AB
:104AC0001887C801B7010E94C5269C0121503040BB
:104AD0001216130694F4022E04C0EE0CFF1C001FE5
:104AE000111F0A94D2F7ED82FE820F8318878EE1A0
:104AF00090E0821B930B9C838B83CE0101960E94D6
:104B00001F2704C060E070E080E09FEC2896E6E09C
:104B10000C94D728ACE0B0E0E0E9F5E20C94BF28B3
:104B200069837A838B839C83CE010196BE016B5F80
:104B30007F4F0E94ED278D81823081F1823070F1AC
:104B4000843021F48E81882369F10AC02F81388551
:104B500037FD24C06E812F3131053CF0662311F101
:104B600020E030E040E050E821C08EE190E0821B80
:104B7000930B29853A854B855C8504C056954795EE
:104B8000379527958A95D2F7662381F05095409501
:104B9000309521953F4F4F4F5F4F08C020E030E0E8
:104BA000A90104C02FEF3FEF4FEF5FE7B901CA0142
:104BB0002C96E2E00C94DB28A8E0B0E0E2EEF5E20F
:104BC0000C94B9287B018C011A826115710581054D
:104BD000910519F482E089835FC083E089838EE1C7
:104BE000C82ED12CDC82CB82ED82FE820F83188707
:104BF000C801B7010E94C526FC013197F7FF3AC0F2
:104C0000AA27BB27AE1BBF0B21E030E040E050E0FD
:104C10000A2E04C0220F331F441F551F0A94D2F7D7
:104C200021503040404050402E213F21402351230D
:104C300061E070E080E090E021153105410551050B
:104C400019F460E070E0CB0104C016950795F79465
:104C5000E794AA95D2F7E62AF72A082B192BED82BA
:104C6000FE820F8318878EE190E08E1B9F0B9C8342
:104C70008B8312C0309781F00E2E04C0EE0CFF1C07
:104C8000001F111F0A94D2F7ED82FE820F8318874E
:104C9000CE1ADF0ADC82CB82CE0101960E941F274A
:104CA0002896E8E00C94D5280F93DF93CF93CDB7E7
:104CB000DEB760970FB6F894DEBF0FBECDBF0023FE
:104CC00009F459C029833A834B835C836D837E83C7
:104CD0008F839887E0E2E01B2D813E814F815885CC
:104CE0001E16BCF01D861E861F86188A8E2F9927D9
:104CF00087FD9095909581959F4F04C05695479557
:104D0000379527958A95D2F729873A874B875C870D
:104D10002AC0CA01B901002E04C0969587957795DF
:104D200067950A94D2F76D877E878F87988BDA0113
:104D3000C90104C0880F991FAA1FBB1FEA95D2F7AB
:104D400029813A814B815C8104C0569547953795FE
:104D500027950A95D2F7822B932BA42BB52B898705
:104D60009A87AB87BC8729853A854B855C856D859D
:104D70007E858F85988960960FB6F894DEBF0FBE4A
:104D8000CDBFCF91DF910F910895AF92BF92CF9297
:104D9000DF92EF92FF920F931F937B018C0180E0D3
:104DA000E81680E0F80681E0080780E0180758F46C
:104DB000EFEFEE16F1040105110509F090F480E023
:104DC00090E0DC0117C0F0E0EF16F0E0FF06F0E045
:104DD0000F07F1E01F0750F480E190E0A0E0B0E0A1
:104DE00009C088E090E0A0E0B0E004C088E190E075
:104DF000A0E0B0E020E230E040E050E0281B390BBA
:104E00004A0B5B0B5701680104C0D694C794B79452
:104E1000A7948A95D2F7D601C5018F509D4FFC010A
:104E20008081281B310941095109C9011F910F9146
:104E3000FF90EF90DF90CF90BF90AF900895EF92EA
:104E4000FF920F931F93CF93DF93FC012481358151
:104E50004681578161818081823020F44061EFEF8B
:104E6000F0E0A3C0843009F49BC0823009F492C002
:104E7000211531054105510509F48FC00280F381E8
:104E8000E02D8FEFE238F8070CF05AC0C2E8DFEFF0
:104E9000CE1BDF0BCA31D1056CF579018A010C2ECE
:104EA00004C016950795F794E7940A94D2F781E029
:104EB00090E0A0E0B0E00C2E04C0880F991FAA1F5C
:104EC000BB1F0A94D2F70197A109B109822393234A
:104ED000A423B52321E030E040E050E00097A10595
:104EE000B10519F420E030E0A9012E293F29402B1B
:104EF000512B03C020E030E0A901DA01C9018F770E
:104F00009070A070B07080349105A105B10539F49E
:104F100027FF09C0205C3F4F4F4F5F4F04C0215C0B
:104F20003F4F4F4F5F4FE1E0F0E0203080E0380727
:104F300080E0480780E4580728F5E0E0F0E022C070
:104F4000E038F1056CF5E158FF4FDA01C9018F77C0
:104F50009070A070B07080349105A105B10539F44E
:104F600027FF09C0205C3F4F4F4F5F4F04C0215CBB
:104F70003F4F4F4F5F4F57FF05C0569547953795A9
:104F80002795319687E056954795379527958A95C9
:104F9000D1F70BC0E0E0F0E005C0E0E0F0E005C0D4
:104FA000EFEFF0E020E030E0A9018E2F8795882711
:104FB0008795942F9F77679566276795E695E22EEC
:104FC000A92FA82BFE2FF62B622F732F8A2F9F2F2E
:104FD000CDB7DEB7E6E00C94D728DC01FB012C91BD
:104FE00011963C91119712968C911297482F4F77FA
:104FF00050E0982F991F9927991F13966C9113973A
:10500000862F880F892B90E0661F6627661F6183B5
:10501000009739F5211531054105510511F482E05C
:1050200029C082E89FEF9383828367E0220F331FBA
:10503000441F551F6A95D1F783E0808309C0220F72
:10504000331F441F551F828193810197938382836D
:10505000203080E0380780E0480780E4580778F384
:1050600020C08F3F910579F4211531054105510587
:1050700019F484E08083089544FF03C081E08083B5
:1050800010C010820EC08F5790409383828383E0BC
:10509000808387E0220F331F441F551F8A95D1F765
:1050A000506424833583468357830895FC01DB01D4
:1050B0009081923008F449C08C91823008F445C048
:1050C000943051F461818430B1F511962C9111978F
:1050D00030E0261B310941C0843021F0923041F488
:1050E0008230B1F111968C9111978823A1F12DC0D6
:1050F0006181823001F111968C9111976817D9F472
:105100002281338112968D919C9113978217930778
:1051100094F028173907BCF02481358146815781E6
:1051200014968D919D910D90BC91A02D821793079F
:10513000A407B50718F4662341F00DC028173907F6
:105140004A075B0728F4662331F021E030E005C010
:1051500020E030E002C02FEF3FEFC90108952F9209
:105160003F924F925F926F927F928F929F92AF92F7
:10517000BF92CF92DF92EF92FF920F931F93CF9344
:10518000DF93CDB7DEB7CA1BDB0B0FB6F894DEBFDB
:105190000FBECDBF09942A88398848885F846E8401
:1051A0007D848C849B84AA84B984C884DF80EE804B
:1051B000FD800C811B81AA81B981CE0FD11D0FB654
:1051C000F894DEBF0FBECDBFED010895F894FFCF78
:1051D0005265736574696E67206173796E632074BC
:1051E000696D652C207761733D002069733D000176
:1051F00000000000000001000001496E746572703B
:105200006F6C617465206F7574206F6620626F75B6
:105210006E64732120676F743D00206F6E20746987
:105220006D653D00206F6E206368616E3D00010179
:10523000FF0000000000002041000000000000C846
:1052400041000000410000C841000080410000C84A
:105250004167636876006161736E005075736869B9
:105260006E67206469676974616C006461736E00C5
:105270002323235374617274696E67204156522050
:10528000496E204465627567204D6F64650A0000B1
:1052900000000000009041000040400000904100EC
:1052A00000C040000090410000104100009041000B
:1052B00000404100009041000070410000904130EA
:1052C0003132333435363738394142434445465F0D
:1052D000706E6700476F743A00526573706F6E733B
:1052E000653A005061636B6574206E6F7420616471
:1052F0006472657373656420746F206D653A200075
:10530000206973206E6F74206D696E653A2000000D
:10531000000000000074F7260101016263732E6330
:105320006F72652E2A3B302E333B3B005F657272F5
:10533000005F7264790023234A756E6B696E672083
:1053400062616420666972737420627974652000FA
:105350002323234261642066697273742062797426
:10536000653D0023232342616420637263206368E8
:1053700065636B3D00402340234649464F2046412C
:10538000494C454420544F20494E495449414C49C9
:105390005A45000A4669666F2073746174653A2045
:1053A0000A0942797465733A000A094461746120FC
:1053B0005B20002000205D0A0000000000000000CB
:1053C00000000102020303030304040404040404B0
:1053D000040505050505050505050505050505057E
:1053E000050606060606060606060606060606065E
:1053F000060606060606060606060606060606064D
:10540000060707070707070707070707070707072D
:10541000070707070707070707070707070707071C
:10542000070707070707070707070707070707070C
:1054300007070707070707070707070707070707FC
:1054400007080808080808080808080808080808DD
:1054500008080808080808080808080808080808CC
:1054600008080808080808080808080808080808BC
:1054700008080808080808080808080808080808AC
:10548000080808080808080808080808080808089C
:10549000080808080808080808080808080808088C
:1054A000080808080808080808080808080808087C
:1054B000080808080808080808080808080808086C
:0254C0000800E2
:00000001FF
