:100000000C94B6000C94D3000C94D3000C94D30041
:100010000C94D3000C94D3000C94D3000C94D30014
:100020000C94D3000C94D3000C94D3000C94D30004
:100030000C94D3000C94D3000C94D3000C94451C66
:100040000C94D3000C94D3000C94D3000C94D300E4
:100050000C94C41C0C94D3000C94D3000C94D300C7
:100060000C94D3000C94D3000C94D3000C94D300C4
:100070000C94A80D0C94D3000C94D3009B079E07FE
:10008000A107A407AA07AD07B407B707BA07BD07BA
:10009000C007C307C607C907CC07CF07D507DC07CA
:1000A000E307E607EB07F107F607FA070E0815085E
:1000B0001E0826082E0835083E0846085008550830
:1000C0005B0862086A087108790882088C08980839
:1000D000A608AE08B508BD08C408CD08E308EA08BC
:1000E000F308FB0803090A0913091B0925092A0952
:1000F000300937093F0946094E09570961096D0959
:100100007B0983098A0992099909A209B80EBE0ED2
:10011000C40ECA0ED00ED60EDC0EE20EE80EEE0EA7
:10012000F40EFA0E000F060F0C0F120F180F1E0F11
:10013000240F2A0F300F360F3C0F420F5C0F660F53
:10014000700F7A0F840F8E0F980FA20FAC0FB60F9F
:10015000C00FCA0FD40FDE0FE80FF20FFC0F06100E
:1001600010101A1024102E103810421011241FBE27
:10017000CFEFD8E0DEBFCDBF13E0A0E0B1E0E8ED07
:10018000F1E502C005900D92A23FB107D9F717E043
:10019000A2EFB3E001C01D92AC33B107E1F70E94BA
:1001A000D5000C94EA280C9400000E94E00080E046
:1001B00090E0089582EF93E060E00E943C1908957A
:1001C0004F925F926F927F928F929F92AF92BF9267
:1001D000CF92DF92EF92FF920F931F93DF93CF9313
:1001E000CDB7DEB728970FB6F894DEBF0FBECDBFF0
:1001F0000E9432190E94E51380E090E0DC018983BF
:100200009A83AB83BC8380E090E0A0EFB1E48D8360
:100210009E83AF83B8874E010894811C911C2C01EA
:100220003D010E94400E8091260086FF06C00E947C
:100230004D10882311F00E94DA000E94DA008091AC
:10024000260086FF44C0C4010E94B01820E030E0C0
:10025000A9010E946E2418162CF40E940E12882305
:10026000B1F133C00E94B41B7B018C01A980BA801C
:10027000CB80DC80C601B50120E030E0A9010E94FE
:100280009E2487FD08C0C601B501A80197010E9400
:10029000FE241816E4F480E091E00E94A61869811B
:1002A0007A818B819C810E94AD188AE191E00E9445
:1002B000A818C801B7010E94AD184D825E826F82F6
:1002C0007886E982FA820B831C830E94DA000E94FE
:1002D000DA00A7CFCF93DF93EC018F850E940A024B
:1002E0008850823038F47A896B89898998890E948C
:1002F0007A0D01C080E0DF91CF91089580E090E019
:10030000FC01EE55FA4F208122702083019688313E
:100310009105B1F74091A2052091A3059091A40504
:100320006091A6055091A7053091A8058091A90577
:1003300064686093A60554685093A70534683093A9
:10034000A80584688093A9056091AA055091AB0522
:100350003091AC058091AD0561686093AA05516844
:100360005093AB0531683093AC0581688093AD053F
:100370008091AE0581608093AE058091AF0581606C
:100380008093AF058091B00581608093B005809126
:10039000B10581608093B1053091B2057091B305CC
:1003A0008091A50540674093A20520672093A3058F
:1003B00090679093A40580668093A5056091B5052C
:1003C0005091B7054091B9052091B4059091B605BB
:1003D0008091B80578667093B30560666093B50543
:1003E00050665093B70540664093B9053866309320
:1003F000B20520662093B40590669093B60580669A
:100400008093B8050895682F70E080E090E00E9426
:10041000A91808950E94B9068F7708950F931F9326
:10042000DF93CF9300D0CDB7DEB7182F062F2A83E6
:1004300049830E94F004812F4981642F0E94D508CE
:10044000812F2A81622F0E940008812F602F0E9435
:1004500043070F900F90CF91DF911F910F91089557
:100460001F93DF93CF930F92CDB7DEB7182F698319
:100470000E94F0046981662309F449C0262F30E008
:100480002F7730702A303105E4F4283031056CF5CF
:100490002330310509F46EC0243031052CF42130AD
:1004A000310509F06DC01DC02630310509F450C07A
:1004B000273031050CF057C02430310509F060C0F9
:1004C0003EC0243131054CF42E3031050CF058C0BB
:1004D0002D3031050CF054C01CC026313105E4F13B
:1004E0004FC0812F0E94F00412C01051123008F04A
:1004F0004BC080E168E041E021E00E940E0281E112
:1005000069E040E021E00E940E020E947D0D91E032
:100510003CC0E12FF0E0EE55FA4F808184FF34C0FB
:1005200080E06CE040E021E00E940E0281E06BE0A0
:1005300040E021E00E940E0282E06AE022C0812FAA
:1005400040E020E00E940E02812F0E94280507C093
:10055000812F0E94720A03C0812F0E94630691E0DE
:10056000882399F411C0812F69830E949F0A812FEB
:10057000698101C0812F41E020E00E940E02C7CFB7
:10058000812F40E021E0F9CF90E0892F0F90CF91AB
:10059000DF911F9108951F93CF93DF93EC012F9666
:1005A00010E06991812F0E943002882329F01F5F9B
:1005B0001831B9F781E001C080E0DF91CF911F9140
:1005C0000895FC01878560899185973018F091899D
:1005D000911160680E94300208951F93CF93DF93BA
:1005E000C0E0D0E01C2F8C2F60E00E94D5088C2F3B
:1005F00060E00E940008CE010E942B07682F8C2F1C
:100600000E94450ACE010E942B07682F8C2F20E004
:1006100030E0A9010E94150B8C2F0E94B906825070
:100620008D3F20F08C2F62E00E944307812F0E94B3
:10063000B906682F812F0E9430022196C831D1055A
:1006400089F6DF91CF911F9108951F93182F0E9473
:10065000B906813860F4812F0E940A0289508B30DC
:1006600040F4E82FF0E0E15EFE4F808103C081E0BE
:1006700001C080E01F9108951F93DF93CF930F92E5
:10068000CDB7DEB7182F69830E940A0286506981B0
:10069000823030F4812F90E00E94240781E001C075
:1006A00080E00F90CF91DF911F9108951F93182F35
:1006B0000E940A028730D1F0883050F4843021F152
:1006C000853018F4823028F10DC0863011F512C043
:1006D000833141F0843118F48031D9F403C086317C
:1006E000C0F40CC0812F0E948D070BC0812F0E9487
:1006F000880B07C0812F0E94910A03C0812F0E949E
:100700001906282F30E007C0812F0E94C4059C01E4
:1007100002C021E030E0C9011F910895FF920F93BC
:100720001F93CF93DF93EC011F85812F0E940A0254
:10073000082F812F0E945603F82E812F0E94250337
:10074000882311F00E94A60E80E28F83802F8451AF
:10075000823060F0033051F0063041F0073031F064
:10076000023021F0033111F0003119F4F88A86E0EB
:1007700008C0043041F4812F0E94C405988B898BF6
:1007800087E0898723C008500230F0F485E089872C
:100790000E94E50D8C010097C9F0CE010F96B801BB
:1007A0000E94DB0DF8013F96EC0FFD1F80E090E00A
:1007B00022912183019680179107D1F721E12F879C
:1007C0002985280F298702C080E001C081E0DF91E0
:1007D000CF911F910F91FF900895982F833069F06A
:1007E000873059F0863049F0823039F0843139F061
:1007F00081E0953129F080E0089581E0089581E05D
:100800000895DF92EF92FF920F931F93DF93CF93A0
:100810000F92CDB7DEB7D82E7801890149830E94A7
:100820000A0269818630B1F0873020F4825082302C
:10083000D0F406C0873041F084518230A0F40FC05C
:100840008D2D0E94000809C08D2DA80197010E94DE
:10085000150B03C08D2D0E94450A81E005C08D2D2A
:100860000E942B06FACF80E00F90CF91DF911F916D
:100870000F91FF90EF90DF900895BF92CF92DF929B
:10088000EF92FF920F931F93CF93DF93EC01BF84FE
:100890008B2D0E940A02182F0E94ED038823E9F095
:1008A000C8888985873018F079896A8902C060E034
:1008B00070E0DD24EE24FF2480E090E00E94E0253B
:1008C0008B019C018B2DB701A6010E940104CE0172
:1008D00060E840E00E94721A10C0153081F0185094
:1008E000123068F419851550609600E004C08991B3
:1008F0000E94251D0F5F0117D0F381E001C080E049
:10090000DF91CF911F910F91FF90EF90DF90CF90EB
:10091000BF9008957F928F929F92AF92BF92CF9295
:10092000DF92EF92FF920F931F93CF93DF93EC012F
:10093000BF84988889887A88FF24DB88EC88CD88F2
:10094000AE888F2D0E940A020E94ED03882379F061
:10095000672D782D892D9B2D0E94E0258B019C0110
:100960008F2D4A2D5C2D6E2D7D2D0E940104F39458
:1009700024968F2D883109F781E0DF91CF911F9167
:100980000F91FF90EF90DF90CF90BF90AF909F902E
:100990008F907F900895FC01608B0895FC01708B0F
:1009A000618B0895FC01708B618B528B438B089592
:1009B000FC0172896389818990890895CF93DF93BF
:1009C0000E947E010E94ED02C0E0D0E08C2F0E94C8
:1009D00067122196C831D105C9F7DF91CF910895EB
:1009E0000F931F93182F0E940A02082F812F0E9435
:1009F000AA09812F0E948505812F0E94F505802F6D
:100A00008A50833080F480E062E00E94430781E0F6
:100A100062E00E94430782E062E00E94430783E0B5
:100A200062E00E9443070850023058F4812F0E9470
:100A3000BA0C80E162E00E94430781E162E00E941B
:100A40004307812F60E00E94D5081F910F91089500
:100A5000E82FF0E0EE55FA4F908190FF52C0909150
:100A60007C009F7390937C0090917C009F7D90937D
:100A70007C0090917A00906890937A0090917A002F
:100A8000977F90937A0090917A00976090937A0084
:100A900010927B008B30F1F08C3038F4893091F07B
:100AA0008A30A0F4883079F509C08D30D9F08D30C6
:100AB000A8F08E30D9F08F3031F51CC080917E00C7
:100AC00081601BC080917E00826017C080917E0093
:100AD000846013C080917E0088600FC080917E008A
:100AE00080610BC080917E00806207C080917E0093
:100AF000806403C080917E00806880937E0081E0E6
:100B0000089580E0089581E00895E82FF0E0EE5523
:100B1000FA4F908190FF37C08B30F1F08C3038F471
:100B2000893091F08A30A0F4883069F509C08D30A1
:100B3000D9F08D30A8F08E30D9F08F3021F51EC05D
:100B400080917E008E7F17C080917E008D7F13C0C4
:100B500080917E008B7F0FC080917E00877F0BC0CD
:100B600080917E008F7E07C080917E008F7D03C0C4
:100B700080917E008F7B80937E00089580917E001F
:100B80008F7780937E0008951F93182F0E940A028A
:100B90008430C1F418501830A8F41F7180917C0083
:100BA000807E812B80937C0080917A00806480938A
:100BB0007A0080917A0086FDFCCF209178003091F8
:100BC000790002C020E030E0C9011F91089588300B
:100BD00030F08093BA0584508093BB0508958093CC
:100BE000BB058C5F8093BA050895E82FF0E0EE55C1
:100BF000FA4F908197FF1CC00E94E7058091BB05CA
:100C00000E940A028431A1F48091BA050E940A026E
:100C1000853171F48091BB050E94AA098091BB05C2
:100C200062E00E9443078091BA0562E00E94430798
:100C30000895E82FF0E0EE55FA4F908197FF09C034
:100C40000E94E705E091BB05F0E0E657FA4F80818E
:100C5000089580E008950F931F93DF93CF930F9231
:100C6000CDB7DEB7E82FF0E0EE55FA4F908197FF51
:100C700024C069830E94E7056981062F10E00058AF
:100C80001040E091BB05F0E0E657FA4F6083101684
:100C900011063CF48091BA0560E00E940008602FC4
:100CA00007C08091BA0561E00E940008602F61953D
:100CB000660F8091BB050E94450A0F90CF91DF918E
:100CC0001F910F910895E82FF0E0EE55FA4F9081B3
:100CD00097FF17C00E94E7058091BB0564E141E0E2
:100CE00020E00E940E028091BA0565E141E020E01B
:100CF0000E940E028091BB0560E80E942B0681E0F5
:100D0000089580E00895F999FECF1FBA92BD81BD84
:100D1000F89A80B50895CB9624E08030920718F4B5
:100D20000E948306089580E008950F931F93DF9338
:100D3000CF930F92CDB7DEB787E390E00E94830692
:100D4000182F88E390E00E948306082F89E390E043
:100D50000E948306782F8AE390E079830E948306BD
:100D6000682F7981C8010F90CF91DF911F910F916A
:100D7000089590E007960E94830608950F931F93AD
:100D8000CF93DF9380E090E00E948306853271F478
:100D900004E812E0C0E0D0E02196CE010E94830674
:100DA000F80181938F01C630D105B1F7DF91CF9162
:100DB0001F910F9108950F931F93DF93CF930F927D
:100DC000CDB7DEB78C0169830E94830669818617DF
:100DD00041F0F999FECF1FBA12BD01BD60BDFA9A6C
:100DE000F99A0F90CF91DF911F910F910895CB96B3
:100DF00024E08030920710F40E94DB0608950F93E0
:100E00001F93DF93CF930F92CDB7DEB7162F082F26
:100E1000692F87E390E079830E94DB0688E390E006
:100E2000602F0E94DB0689E390E07981672F0E94A2
:100E3000DB068AE390E0612F0E94DB060F90CF91E2
:100E4000DF911F910F9108956F3F09F46EEF4F9658
:100E50000E94DB0608950F931F93CF93DF938C01BD
:100E6000EC016F96CE010E9483068F3F21F4C801EA
:100E700060E80E942407CE010E948306DF91CF9193
:100E80001F910F9108951F93DF93CF930F92CDB7CA
:100E9000DEB7182F69830E94B9066981861729F089
:100EA000812F90E007960E94DB060F90CF91DF9193
:100EB0001F910895EF92FF920F931F93CF93DF93AB
:100EC000E82E092F80E090E00E9483068532E9F049
:100ED000802F0E2D182F84E8E82E82E0F82EC0E037
:100EE000D0E0F80161918F012196F70161937F01B4
:100EF000CE010E94DB06C630D10599F780E090E074
:100F000065E20E94DB0681E001C080E0DF91CF91C5
:100F10001F910F91FF90EF900895E82FF0E0E831D6
:100F2000F10508F06BC0E25CFF4FEE0FFF1F05906C
:100F3000F491E02D09948091230033C08091230027
:100F40000EC08091230002C0809129008295869571
:100F5000877052C08091290024C080912900829519
:100F600086958695837048C08091230036C0809115
:100F700023002EC0809120003FC08091200038C007
:100F80008091200030C08091200027C080912000F7
:100F90001FC080912000DACF80912000E0CF8091A7
:100FA0002000881F8827881F08958091C90083FD2D
:100FB00003C08091290011C08091C90083FD03C046
:100FC0008091290010C080912600C0CF809126001A
:100FD00082958F7011C080912600869586958695A2
:100FE0000BC0809126008695869506C080912600CC
:100FF000869502C0809126008170089580E0089552
:10100000E82FF0E0E831F10508F0CEC0EA5AFF4FD2
:10101000EE0FFF1F0590F491E02D09946795662768
:101020006795809125008F7737C061706295660F54
:10103000660F607C809125008F7B2EC06170629569
:10104000660F607E809125008F7D26C0617062955D
:10105000660F607E80912B008F7D74C06795662738
:10106000679580912B008F776DC061706295660FD8
:10107000660F607C80912B008F7B64C06170660F6F
:10108000660F660F80912500877F06C061706295AC
:10109000607F809125008F7E862B809325000895A8
:1010A0006170809122008E7F33C06170660F8091E5
:1010B00022008D7F2DC06170660F660F8091220027
:1010C0008B7F26C06170660F660F660F80912200CD
:1010D000877F1EC061706295607F809122008F7E45
:1010E00017C061706295660F607E809122008F7DCF
:1010F0000FC061706295660F660F607C8091220060
:101100008F7B06C0679566276795809122008F7751
:10111000862B8093220008958091C90083FD44C0EE
:101120006170660F660F660F80912B00877F0AC083
:101130008091C90083FD38C06170660F660F809191
:101140002B008B7F862B80932B0008956170629516
:10115000660F607E809128008F7D1BC06170629554
:10116000607F809128008F7E14C06170660F660FCB
:10117000660F80912800877F0CC06170660F660F34
:10118000809128008B7F05C06170660F80912800D8
:101190008D7F862B809328000895617080912800B0
:1011A0008E7F862B809328000895E82FF0E0E831A9
:1011B000F10508F0CEC0E259FF4FEE0FFF1F05907A
:1011C000F491E02D09946795662767958091240036
:1011D0008F7737C061706295660F660F607C809173
:1011E00024008F7B2EC061706295660F607E8091B7
:1011F00024008F7D26C061706295660F607E8091AD
:101200002A008F7D74C067956627679580912A00B4
:101210008F776DC061706295660F660F607C8091FC
:101220002A008F7B64C06170660F660F660F809125
:101230002400877F06C061706295607F80912400E2
:101240008F7E862B80932400089561708091210009
:101250008E7F33C06170660F809121008D7F2DC01D
:101260006170660F660F809121008B7F26C06170D0
:10127000660F660F660F80912100877F1EC0617028
:101280006295607F809121008F7E17C061706295AA
:10129000660F607E809121008F7D0FC06170629526
:1012A000660F660F607C809121008F7B06C067957A
:1012B00066276795809121008F77862B8093210088
:1012C00008958091C90083FD44C06170660F660F68
:1012D000660F80912A00877F0AC08091C90083FD34
:1012E00038C06170660F660F80912A008B7F862B55
:1012F00080932A00089561706295660F607E8091E8
:1013000027008F7D1BC061706295607F80912700F0
:101310008F7E14C06170660F660F660F8091270084
:10132000877F0CC06170660F660F809127008B7FEE
:1013300005C06170660F809127008D7F862B80939A
:10134000270008956170809127008E7F862B8093FF
:10135000270008958530D1F0863018F48430D9F410
:101360000FC0863019F08730B1F404C0809144007A
:101370008F7303C0809144008F7C80934400089554
:101380008091B0008F738093B00008958091B00079
:101390008F7C8093B00008951F93182F0E940A023B
:1013A000863059F0812F0E940A02853131F0812F59
:1013B0000E940A02843109F066C0153009F44DC05C
:1013C000163020F4143009F05EC032C0163021F01F
:1013D000173009F058C015C08091240088608093B0
:1013E00024008091440083608093440080914500F4
:1013F000887F816080934500809144008F7380686E
:1014000014C0809124008061809324008091440066
:1014100083608093440080914500887F8160809341
:101420004500809144008F7C8062809344002BC0F3
:1014300080912A00806880932A008091B0008360A8
:101440008093B0008091B100887F81608093B1006B
:101450008091B0008F73806814C080912A008064EE
:1014600080932A008091B00083608093B0008091C7
:10147000B100887F81608093B1008091B0008F7C43
:1014800080628093B0001F9108950F931F93182FCF
:10149000062F0E940A02863051F0812F0E940A0214
:1014A000853129F0812F0E940A028431C1F4812FF5
:1014B0000E94CC09153089F0163018F4143079F4F4
:1014C00009C0163019F0173051F402C007BD07C02B
:1014D00008BD05C00093B30002C00093B4001F9183
:1014E0000F9108951F93182FE82FF0E0EE55FA4F53
:1014F000808182FF13C0812F66E041E020E00E94DE
:101500000E02812F0E94CC09812F90E00E942B07B0
:10151000682F812F0E94450A81E001C080E01F9161
:1015200008951F93182F0E940A02863029F4812FF4
:1015300090E00E942B0701C080E01F9108951F9347
:10154000182F0E94F004812F61E00E94D5081F919E
:10155000089580936A04089510926B04613059F4E1
:101560008091240084608093240080912500846011
:10157000809325000895982F9150923030F491E097
:1015800090936B04813019F00FC0833069F490910F
:101590002400946090932400909125009B7F909369
:1015A0002500833069F00AC0909124009B7F9093BE
:1015B0002400909125009B7F90932500882319F4A7
:1015C00081E080935E01089510926C04613059F4BB
:1015D00080912400826080932400809125008260A5
:1015E000809325000895813011F0833021F490918B
:1015F0002400926003C0909124009D7F909324006A
:10160000909125009D7F90932500982F91509230C6
:1016100020F481E080936C040895833011F08823D6
:1016200019F481E080935F010895AF92BF92CF9249
:10163000DF92EF92FF920F931F93CF93DF93D82EF9
:10164000C62E79018A01CA01B90120E030E040EFDD
:1016500051E40E94CE2487FF0AC00F2EF0E0EF2E47
:10166000F0E0FF2EF0E00F2FF0E01F2FF02DAD2C5B
:10167000BB24E50184E0CC0FDD1F8A95E1F7C4545B
:10168000DA4FE886F9860A871B876C2D70E080E0C8
:1016900090E00E94E025688379838A839B8385019B
:1016A00006571A4FF801608170E080E090E00E94D8
:1016B000E0256C837D838E839F830E94B41B6C879F
:1016C0007D878E879F87F8018081C81639F480E076
:1016D00090E0DC0188879987AA87BB87FD2DFC30C5
:1016E00018F410925E0102C010925F018D2D0E94CD
:1016F0000A02873011F4D0926001DF91CF911F91DF
:101700000F91FF90EF90DF90CF90BF90AF90089532
:10171000EAE8F5E0E80FF11D808108951F93182F86
:101720000E940A028730F9F41C3058F080916C0452
:10173000882321F480916A048823A9F080915F01B5
:101740000AC080916B04882321F480916A04882365
:1017500051F080915E01813031F0812F61E00E9473
:10176000000881E001C080E01F9108951F93182FA9
:101770000E940A02873021F4812F60E00E94000855
:101780001F910895DF93CF9300D000D0CDB7DEB77F
:1017900082E291E0A0E0B0E089839A83AB83BC83CE
:1017A00089819A81AB81BC819C01AD01215030407F
:1017B0004040504029833A834B835C830097A105C6
:1017C000B10571F70F900F900F900F90CF91DF91AF
:1017D0000895CF92DF92EF92FF920F931F93CF93D2
:1017E000DF93C62ED82E65C00E94B41BAB01BC018E
:1017F000CD2DD0E094E0CC0FDD1F9A95E1F7C454D5
:10180000DA4FCE010E94B81A7B018C0120E030E053
:101810004FE753E40E946E241816E4F48AE291E044
:101820000E94A618C801B7010E94AD188AE491E091
:101830000E94A818688579858A859B850E94AD18C5
:101840000F2EF0E0EF2EF0E0FF2EFFE70F2FF3E476
:101850001F2FF02DC801B70120E030E0A9010E9440
:10186000CE2487FF1CC08AE291E00E94A618C8011E
:10187000B7010E94AD1884E591E00E94A8186D2D73
:1018800070E080E090E00E94A9180F2EF0E0EF2EAB
:10189000F0E0FF2EF0E00F2FF0E01F2FF02DCD2D08
:1018A000D0E0C657DA4FC801B7010E9415206883FF
:1018B000D394DC1408F498CFDF91CF911F910F914E
:1018C000FF90EF90DF90CF900895EF92FF920F93EB
:1018D0001F93CF93DF93E82EEE0CEE0CEE0CFE2C54
:1018E00028E0F20E8E2D6F2D0E94E90B80912800CA
:1018F00080688093280086E69EE00197F1F700005B
:10190000CE2DD0E00F2D10E004C08C2F0E948E0B46
:101910002196C017D107C8F30E94C20BC0E0D0E0E7
:1019200014C0E02FF0E0E657FA4F208130E0C217F4
:10193000D30719F4802F0E94B60B0F5F0F1588F3A1
:10194000219631E0C030D30711F00E2DF7CF8091F2
:1019500028008F778093280004C08E2D0E94B60B3C
:10196000E394EF14D0F3DF91CF911F910F91FF908B
:10197000EF900895E82FF0E0EE55FA4F908193FF35
:1019800013C01092C9000E940A028850823060F48D
:1019900080E162E040E021E00E940E0281E162E02D
:1019A00040E021E00E940E020895603820E77207AF
:1019B00020E0820720E0920709F481C0613820E727
:1019C000720720E0820720E09207B8F5603825E230
:1019D000720720E0820720E0920709F467C06138AF
:1019E00025E2720720E0820720E0920798F4603633
:1019F00029E0720720E0820720E0920709F450C036
:101A0000603C22E1720720E0820720E0920709F0A3
:101A10006FC049C0603428E3720720E0820720E0ED
:101A2000920709F446C060302BE4720720E0820779
:101A300020E0920709F05CC03FC060302CE27207E2
:101A400021E0820720E0920709F442C061302CE2D5
:101A5000720721E0820720E0920788F4603026E9CF
:101A6000720720E0820720E0920761F1603021EEEA
:101A7000720720E0820720E09207D1F526C060308F
:101A800022EC720721E0820720E0920721F160300A
:101A900024E8720723E0820720E0920749F51EC080
:101AA0002FED31E01DC02FEE30E01AC027E730E007
:101AB00017C02FE430E014C02BE330E011C027E260
:101AC00030E00EC02DE130E00BC023E130E008C073
:101AD0002EE030E005C029E030E002C024E030E034
:101AE0003093CD002093CC000E94FF0681E0089542
:101AF00080E008950E94D50C08950E9495060E94EA
:101B0000D50C882331F460E07BE480E090E00E9413
:101B1000D50C80E161E00E94D50881E160E00E947F
:101B2000D50881E161E00E94000886E08093CA0048
:101B300088E98093C9001092C8008DE694E060E8BF
:101B400074E025E030E040E050E00E94781608950F
:101B50001F920F920FB60F9211242F933F934F9322
:101B60005F936F937F938F939F93AF93BF93EF9305
:101B7000FF93DF93CF930F92CDB7DEB76091CE0086
:101B80008DE694E0AE014F5F5F4F0E94F3160F9019
:101B9000CF91DF91FF91EF91BF91AF919F918F9185
:101BA0007F916F915F914F913F912F910F900FBE59
:101BB0000F901F901895FC019B0140E050E08DE6CE
:101BC00094E0BF010E947C1708958DE694E00E9486
:101BD000ED16CB010895EF92FF920F931F930F2EF6
:101BE000F0E0EF2EF0E0FF2EF8EC0F2FF1E41F2FC6
:101BF000F02DE0926D01F0926E0100936F01109351
:101C000070010E94B41B6093690170936A01809314
:101C10006B0190936C01E0927501F0927601009354
:101C200077011093780120E030E040E051E40E9419
:101C30006822262F372F482F592F20937101309378
:101C400072014093730150937401E0927D01F09210
:101C50007E0100937F011093800120E030E040E09E
:101C600051E40E9468226093790170937A01809315
:101C70007B0190937C011F910F91FF90EF9008954D
:101C80000E94E50D009711F00E94CF12609169014A
:101C900070916A0180916B0190916C0120E030E0BD
:101CA000A9010E946E24181614F00E94EB0D609199
:101CB000710170917201809173019091740120E023
:101CC00030E0A9010E946E24181614F00E94EB0D5A
:101CD0006091790170917A0180917B0190917C01F2
:101CE00020E030E0A9010E946E24181614F00E9432
:101CF000EB0D89E691E00E94B01820E030E0A901E8
:101D00000E946E2418161CF480E00E94650C81E786
:101D100091E00E94B01820E030E0A9010E946E24FA
:101D200018161CF481E00E94650C89E791E00E947E
:101D3000B01820E030E0A9010E946E2418162CF49F
:101D400082E00E94650C0E94EB0D089581E0809373
:101D500085040895E82FF0E0E831F10508F09CC013
:101D6000EA57FF4FEE0FFF1F0590F491E02D099405
:101D700081E0209191043091920489C081E020910A
:101D800093043091940483C081E0209195043091B4
:101D900096047DC081E0209197043091980477C02B
:101DA00081E02091990430919A0471C081E02091E2
:101DB0009B0430919C046BC081E020919D04309184
:101DC0009E0465C081E020919F043091A0045FC013
:101DD00081E02091A1043091A20459C081E02091BA
:101DE000A3043091A40453C081E02091A504309154
:101DF000A6044DC081E02091A7043091A80447C0FB
:101E000081E02091A9043091AA0441C081E0209191
:101E1000AB043091AC043BC081E02091AD04309123
:101E2000AE0435C081E02091AF043091B0042FC0E2
:101E300081E02091B1043091B20429C081E0209169
:101E4000B3043091B40423C081E02091B5043091F3
:101E5000B6041DC081E02091B7043091B80417C0CA
:101E600081E02091B9043091BA0411C081E0209141
:101E7000BB043091BC040BC081E02091BD043091C3
:101E8000BE0405C081E02091BF043091C00421153B
:101E9000310519F480E0089580E00895E82FF0E01E
:101EA000E831F10508F0F8C0E256FF4FEE0FFF1FD2
:101EB0000590F491E02D099481E090E0662311F4FF
:101EC00080E090E0909392048093910481E090E010
:101ED000662311F480E090E090939404809393043F
:101EE00081E090E0662311F480E090E09093960406
:101EF0008093950481E090E0662311F480E090E007
:101F0000909398048093970481E090E0662311F405
:101F100080E090E090939A048093990481E090E0AF
:101F2000662311F480E090E090939C0480939B04DE
:101F300081E090E0662311F480E090E090939E04AD
:101F400080939D0481E090E0662311F480E090E0AE
:101F50009093A00480939F0481E090E0662311F4A5
:101F600080E090E09093A2048093A10481E090E04F
:101F7000662311F480E090E09093A4048093A3047E
:101F800081E090E0662311F480E090E09093A60455
:101F90008093A50481E090E0662311F480E090E056
:101FA0009093A8048093A70481E090E0662311F445
:101FB00080E090E09093AA048093A90481E090E0EF
:101FC000662311F480E090E09093AC048093AB041E
:101FD00081E090E0662311F480E090E09093AE04FD
:101FE0008093AD0481E090E0662311F480E090E0FE
:101FF0009093B0048093AF0481E090E0662311F4E5
:1020000080E090E09093B2048093B10481E090E08E
:10201000662311F480E090E09093B4048093B304BD
:1020200081E090E0662311F480E090E09093B604A4
:102030008093B50481E090E0662311F480E090E0A5
:102040009093B8048093B70481E090E0662311F484
:1020500080E090E09093BA048093B90481E090E02E
:10206000662311F480E090E09093BC048093BB045D
:1020700081E090E0662311F480E090E09093BE044C
:102080008093BD0481E090E0662311F480E090E04D
:102090009093C0048093BF040895DF92EF92FF9263
:1020A0000F931F93CF93DF93EE24C0E0D0E0FF2483
:1020B000F394DC2E8C2F0E940A02823049F080318A
:1020C00039F021E030E0833129F020E030E002C037
:1020D00021E030E021153105E9F08D2D0E948D07BA
:1020E00001E010E0882311F400E010E01093C20436
:1020F0000093C1048D2D0E94AA0E282F30E00217F4
:10210000130741F0F09285048D2D602F0E944E0F31
:10211000EE24E3942196C831D10559F6EE2011F052
:102120000E9489138E2DDF91CF911F910F91FF9007
:10213000EF90DF9008958B3009F445C08C3040F467
:102140008930C9F08A3040F5883009F08FC00DC061
:102150008D3009F453C08D3008F442C08E3009F43C
:1021600062C08F3009F082C06FC0209186048091D8
:102170008704382F79C08091870486958695869547
:1021800090918804492F4295440F407E242F282B9C
:1021900096959695969556C08091880482958695D9
:1021A0008695837090918904492F440F440F242F02
:1021B000282B929596959695937080918A048170BC
:1021C000880F880F2DC080918A04869590918B048A
:1021D000492F479544274795242F282B969532C0A1
:1021E00080918B0482958F7090918C04492F429539
:1021F000407F242F282B92959F7024C080918C04BF
:10220000881F8827881F90918D04492F440F242F01
:10221000282B991F9927991F80918E048370880F0E
:10222000382F392B25C080918E0486958695909104
:102230008F04492F4295440F440F407C242F282BB4
:1022400096959695392F10C080918F04829586952A
:10225000877090919004492F440F440F440F242F0E
:10226000282B392F32953695377002C020E030E0A8
:10227000C90108958B3009F45BC08C3040F489307B
:10228000E9F08A30A8F5883009F0C7C00DC08D305C
:1022900009F47BC08D3008F461C08E3009F491C020
:1022A0008F3009F0BAC0A6C060938604972F97704C
:1022B00080918704887F892B80938704962F990FBC
:1022C000990F990F809187048770892B80938704D9
:1022D000262F22952695277080918804807C972F41
:1022E0009770990F990F990F822B892B80938804EF
:1022F000962F9295990F990F907C809188048F73F7
:10230000892B80938804972F9295990F990F907C31
:10231000862F86958695892B80938904972F96958D
:102320009695917080918A048E7F892B80938A0480
:10233000962F990F80918A048170892B80938A044B
:10234000262F221F2227221F80918B04807F972F08
:102350009770990F822B892B80938B04962F9295DF
:10236000907F80918B048F70892B80938B04262F14
:1023700022952F7080918C048078972F977092957A
:10238000907F822B892B80938C04962F9795992789
:10239000979580918C048F77892B80938C04972F4D
:1023A000979599279795862F8695892B80938D04ED
:1023B000972F9695937080918E048C7F892B8093B4
:1023C0008E04962F990F990F80918E048370892B1C
:1023D00080938E04262F2295269526952370809132
:1023E0008F04807E972F9770990F990F822B892BDE
:1023F00080938F04962F9295990F907E80918F04F1
:102400008F71892B80938F047295770F707E6695FC
:1024100066956695672B609390040895AF92BF927E
:10242000DF92EF92FF920F931F93DF93CF9300D031
:10243000CDB7DEB788E0A82EB12CEE24FF24F394AC
:10244000DA2C8A2D0E940A02843049F58A2D0E94D6
:10245000C405BC018C019093C2048093C1048A2DF1
:1024600069837A830E949B109093C4048093C30471
:10247000A801465F5F4FB801481759074CF0A80103
:102480004A5050408417950754F40A3011053CF027
:10249000F09285048D2D0E943A11EE24E394089465
:1024A000A11CB11C20E1A216B10451F6EE2011F0DE
:1024B0000E941E138E2D0F900F90CF91DF911F91D0
:1024C0000F91FF90EF90DF90BF90AF9008951F9312
:1024D000182F0E940A02843041F4812F0E94C40503
:1024E000BC01812F0E943A1110C0823021F080314E
:1024F00011F0833151F4812F0E948D0761E0882310
:1025000009F460E0812F0E944E0F1F910895EF9211
:10251000FF920F931F93CF93DF93182F062FE72E71
:1025200083E00E94991C2FE12A95F1F786E0F82EAE
:1025300080E00E94991C3FE13A95F1F7FA94C1F7C7
:1025400080E20E94991C8FE18A95F1F783EE0E9448
:10255000991C9FE19A95F1F7812F0E94991C2FE118
:102560002A95F1F7812F8A5F0E94991C3FE13A95E5
:10257000F1F78E2DE02EE7017E01F82EE70114E041
:1025800089910E94991C3FE13A95F1F71150C1F7EA
:10259000DF91CF911F910F91FF90EF900895CF920F
:1025A000DF92EF92FF920F931F93DF93CF930F92DF
:1025B000CDB7DEB70E94E50D7C01809128008068D0
:1025C0008093280086E69EE00197F1F700008E2DAB
:1025D0008B5F61E871E00E94871281E10E94991C83
:1025E0009FE19A95F1F700E010E06E010894C11C9C
:1025F000D11C0DC0C60161E070E00E94DB0D898135
:102600000E94991C8FE18A95F1F70F5F1F4F0E15FD
:102610001F0580F3809128008F778093280086E63D
:102620009EE00197F1F700000F90CF91DF911F918D
:102630000F91FF90EF90DF90CF9008951F93CF936D
:10264000DF938091280080688093280086E69EE0D2
:102650000197F1F7000084E166E871E00E948712BB
:10266000C8E0D0E08C2F0E949B10182F892F0E9469
:10267000991C3FE13A95F1F7812F0E94991C8FE157
:102680008A95F1F72196C031D10561F78091280034
:102690008F778093280086E69EE00197F1F700008F
:1026A000DF91CF911F910895FF920F931F93F82E02
:1026B000162F072F8091280080688093280086E6D7
:1026C0009EE00197F1F7000087E061E871E00E9469
:1026D00087128F2D0E94991C9FE19A95F1F7802F08
:1026E0000E94991C8FE18A95F1F7812F0E94991C15
:1026F0009FE19A95F1F786E69EE00197F1F70000D9
:10270000809128008F77809328001F910F91FF9070
:102710000895CF93DF938BE891E00E94A6188091F3
:10272000280080688093280086E69EE00197F1F7F4
:1027300000008CE16BE971E00E948712C0E0D0E0FC
:102740008C2F0E94AA0E0E94991C3FE13A95F1F746
:102750002196C831D105A1F786E69EE00197F1F7F1
:102760000000809128008F7780932800DF91CF911F
:1027700008950F931F93082F162F809128008068CB
:102780008093280086E69EE00197F1F7000086E03E
:1027900061E871E00E948712802F0E94991C9FE1DE
:1027A0009A95F1F7812F0E94991C8FE18A95F1F794
:1027B000809128008F778093280086E69EE001971D
:1027C000F1F700001F910F9108950E9494188091D5
:1027D0002700806880932700809127008F7B80935B
:1027E0002700809128008F7780932800809128000F
:1027F000806480932800809124008B7F8093240044
:10280000809125008B7F80932500809124008D7F0F
:1028100080932400809125008D7F8093250080E0A7
:1028200060E00E94AC0A80E060E00E94E40A0E943E
:10283000DE0480E16FE274E10E94421D80E266EFF7
:1028400074E10E94421D80E367EB75E10E94421D26
:102850000E94941880EA91E00E94A6180895AF9211
:10286000BF92CF92DF92EF92FF920F931F93CF937D
:10287000DF93EC0184E08093C5048B859C85AD8556
:10288000BE85873621E6920723E6A2072DE6B2072A
:10289000D9F18836E1E69E07E3E6AE07EDE6BE072E
:1028A00098F48536F5E69F07F0E7AF07F4E6BF0733
:1028B00009F44EC0833721E6920726E7A20725E6F2
:1028C000B20709F085C073C08F35E2E79E07E5E6E1
:1028D000AE07E6E7BE0709F461C08736F3E69F0757
:1028E000F8E6AF07F6E7BF0731F1873623E6920730
:1028F00028E6A2072DE6B20709F06AC08F850E947C
:10290000B906888B86E013C09FE0E92EF12CEC0E0F
:10291000FD1E00E010E0802F0E94B906F7018193B0
:102920007F010F5F1F4F08311105A9F78CE18987DF
:1029300080E28F834FC00E94A60ECE010E948E03BC
:10294000882309F047C0CE016091C50440E023C050
:10295000BF840B2D10E0A888EA2CFF2480E28F832F
:10296000E016F106A8F08FE0C82ED12CCC0EDD1EAB
:1029700008C0C8010E948B06F60181936F010F5FAA
:102980001F4F0E151F05A8F38A2D8C5F8B190DC0E4
:10299000CE0164E041E00E94491A1CC083E08F87A9
:1029A0008AE0888B81E0898B87E0898713C080E289
:1029B0008F838CE189872F9600E010E0C8010E9488
:1029C0002B0789930F5F1F4F08311105B9F702C01C
:1029D00080E001C081E0DF91CF911F910F91FF90C6
:1029E000EF90DF90CF90BF90AF900895CF92DF929D
:1029F000EF92FF920F931F93CF93DF938C0185E0AB
:102A00008093C504F80183859485A585B6858337B1
:102A1000F3E69F07F8E6AF07FDE6BF07A9F18437A5
:102A200023E6920728E6A2072DE6B20798F485363A
:102A3000E5E69E07E0E7AE07E4E6BE0709F467C0F7
:102A40008337F1E69F07F3E6AF07FDE6BF0709F01E
:102A500082C025C0833721E6920723E6A20726E736
:102A6000B207B9F18337E3E69E07E8E6AE07E6E78B
:102A7000BE0701F18F35F0E79F07F7E7AF07F2E7F1
:102A8000BF0709F068C038C0C8010E94E10288236E
:102A900009F063C0C8016091C50440E02AC0C801C4
:102AA0000E94CB02882309F058C0C8016091C50478
:102AB00041E01FC0C8010E943D04882329F0C801DD
:102AC0006091C50442E00EC0C8016091C50442E0B7
:102AD00010C0C8010E948A04882339F0C80160919F
:102AE000C50445E20E94721A38C0C8016091C5044D
:102AF00043E00E94491A31C0F801818967850E942C
:102B0000AC0AF801828960890E94E40A26C0F801B3
:102B10008785C82FD0E0C088DD24CC16DD06B8F04C
:102B200021E1E22EF12CE00EF11E00E010E0CC1AC3
:102B3000DD0A09C0F70161917F01CE010E94F7060D
:102B40000F5F1F4F21960C151D05A0F306C0C8018D
:102B500065E044E0CECF80E001C081E0DF91CF911D
:102B60001F910F91FF90EF90DF90CF900895EF921B
:102B7000FF921F93DF93CF930F92CDB7DEB77C0107
:102B800086E08093C504F70183859485A585B68585
:102B90008336F3E69F07F8E6AF07FEE6BF0729F1A5
:102BA000843623E6920728E6A2072EE6B20750F401
:102BB0008F35EDE69E07E1E6AE07E3E6BE0709F0D6
:102BC0005EC021C08037FFE69F07F6E7AF07F2E758
:102BD000BF0709F449C0833723E6920728E6A20716
:102BE00026E7B20709F04BC021C0C7010E946A0165
:102BF000482F882321F4C7016091C50413C0C70181
:102C00006091C50439C0C7010F960E945A078823F6
:102C100029F0C7016091C50441E02EC0C701609151
:102C2000C50441E00E94491A81E02AC0F7011785D6
:102C30006089C70169830E943D046981882379F016
:102C4000812F0E943C03882329F0C7016091C504AD
:102C500042E012C0C7016091C50442E0E3CFC70162
:102C60006091C50443E0DECFF70187850E94A90A81
:102C7000C7016091C50443E00E94721AD5CF80E07D
:102C80000F90CF91DF911F91FF90EF900895F894EE
:102C900081E00895789481E00895DC011092C604E3
:102CA0001092C7041092C8041092C90420E030E0CA
:102CB000A9010BC01496ED91FC911597E20FF31F3B
:102CC00010822F5F3F4F4F4F5F4F6D917D918D91E0
:102CD0009C911397261737074807590758F32093F5
:102CE000C6043093C7044093C8045093C9040895A0
:102CF000CF92DF92EF92FF920F931F93CF93DF93C8
:102D0000EC016B0179018A01009719F061157105D9
:102D100041F48FEB91E00E94A618C801B7010E9410
:102D2000A918DD82CC82E882F9820A831B831E8285
:102D30001F82188619861A861B861C861D861A8A8B
:102D4000CE010E944D16DF91CF911F910F91FF9000
:102D5000EF90DF90CF900895DC011496ED91FC91F7
:102D6000159716968D919C911797E80FF91F808102
:102D70000895FC0182859385268137818217930708
:102D800029F416861786108A118A22C02817390757
:102D90003CF4821B930BAA2797FDA095BA2F14C071
:102DA000AA2797FDA095BA2F408151816281738136
:102DB000840F951FA61FB71F442737FD4095542F3A
:102DC000821B930BA40BB50B86879787A08BB18BC7
:102DD00066857785808991890895FC016685778568
:102DE000808991890895EF92FF920F931F93CF935B
:102DF000DF93EC018A0188819981AA81BB810297C6
:102E0000A109B1092E853F854889598928173907B5
:102E10004A075B0720F083E0F801808337C0F8940D
:102E2000EC81FD818A859B85E80FF91F60838A8587
:102E30009B85AC85BD850196A11DB11D8A879B87A9
:102E4000AC87BD87288139814A815B8182179307CE
:102E5000A407B50721F41A861B861C861D86CE01A1
:102E60000E94B916F8011082789421E030E040E029
:102E700050E08E859F85A889B989E880F9800A810C
:102E80001B81E816F9060A071B0718F420E030E05A
:102E9000A901B901CA01DF91CF911F910F91FF9054
:102EA000EF9008951F93FC01F894268137814085A7
:102EB0005185A481B581A20FB31F1C912F5F3F4F95
:102EC0004F4F5F4F268337834087518780819181A1
:102ED000A281B381281739074A075B0721F41682BC
:102EE000178210861186DB011C92CF010E94B91651
:102EF0007894812F1F9108956F927F928F929F9265
:102F0000AF92BF92CF92DF92EF92FF920F931F93F7
:102F1000DF93CF930F92CDB7DEB76C017B014901F0
:102F20005A01FC01668477841092C6041092C7048B
:102F30001092C8041092C9048E010F5F1F4F29C060
:102F4000161417047CF4C601B8010E945217998127
:102F50009923C9F7E091C604F091C704EE0DFF1D57
:102F6000808304C02E0D3F1DF90110828091C6049C
:102F70009091C704A091C804B091C9040196A11D05
:102F8000B11D8093C6049093C704A093C804B09366
:102F9000C9042091C6043091C7044091C8045091DF
:102FA000C904281539054A055B0550F2B901CA0163
:102FB0000F90CF91DF911F910F91FF90EF90DF90D5
:102FC000CF90BF90AF909F908F907F906F9008951B
:102FD000AF92BF92CF92DF92EF92FF920F931F9327
:102FE000CF93DF935A016B01E901EE80FF800885E2
:102FF00019856E857F851092C6041092C7041092C1
:10300000C8041092C904E82FF92F20E030E0A9018C
:1030100022C016161706ACF4AC81BD81AE0DBF1DE3
:103020008C9180830894E11CF11C011D111D888185
:103030009981AA81BB81E816F9060A071B0731F4BA
:1030400002C0108203C0EE24FF2487012F5F3F4F90
:103050004F4F5F4F31962A153B054C055D05C8F271
:103060002093C6043093C7044093C8045093C90406
:10307000B901CA01DF91CF911F910F91FF90EF909D
:10308000DF90CF90BF90AF900895EF92FF920F9393
:103090001F93CF93DF938C017B018DED91E00E9414
:1030A000A818F80166857785808991890E94A918FA
:1030B00083EF91E00E94A818F80146855785608942
:1030C00071894F5F5F4F6F4F7F4FC70198010E941B
:1030D000E817C0E0D0E00EC0F701EC0FFD1F6081E3
:1030E00070E080E090E00E94A9188DEF91E00E94CE
:1030F000A81821969E01442737FD4095542FF801CA
:1031000086859785A089B189281739074A075B0703
:1031100018F38FEF91E00E94A818DF91CF911F91D3
:103120000F91FF90EF90089508950895E82FF0E033
:10313000EF70F070ED5FFD4F8081089582958F7084
:10314000E3E0F2E0E80FF11D80810895089508950D
:1031500008950895089508950895089581E00895C3
:103160006F927F928F929F92AF92BF92CF92DF9297
:10317000EF92FF920F931F93CF93DF93EC010E9486
:10318000B41B7B018C01288139814A815B810E94BB
:10319000CE2487FF04C0E882F9820A831B83C8011A
:1031A000B701288139814A815B810E949522962E40
:1031B000872E782E692EAC80BD80CE80DF80A40162
:1031C0009301652F742F832F922FA60195010E94E2
:1031D0006E241816ECF4C801B701D401F3012B2FAB
:1031E0003A2F4F2F5E2F0E949522A60195010E9433
:1031F0006822688379838A839B83A4019301652F66
:10320000742F832F922FA60195010E94952204C04E
:1032100060E070E080E090E0DF91CF911F910F912E
:10322000FF90EF90DF90CF90BF90AF909F908F90E6
:103230007F906F9008951F9390E023E0880F991F6F
:103240002A95E1F78D5E9D4F0E94B01811E020E0B5
:1032500030E0A9010E946E2418160CF010E0812FB6
:103260001F9108950E94031C0E94061D81E16AE8D7
:1032700072E00E94EA1E0895FF920F931F93CF936E
:10328000DF938C01F62E0E94AF1B882309F46DC0DA
:10329000FF20A1F0F80183859485A585B6858F353B
:1032A000F0E79F07F7E7AF07F2E7BF0739F083E4DE
:1032B00092E00E94A618C8010E94AB18E80121966E
:1032C00084E892E0BE010E949B1A813039F08EE7BB
:1032D00092E0BE010E949B1A813089F5C8010E94CC
:1032E000B61E20E00BC0822F90E0F801E80FF91F16
:1032F0008C579D4FDC018C9181832F5F263098F392
:103300002093CA04C8010E94D319C8010E94022058
:10331000FF2069F1F80183859485A585B6858F35F1
:10332000F0E79F07F7E7AF07F2E7BF0701F188E48F
:1033300092E00E94A618C8010E94AB1818C0FF2096
:10334000B1F082E592E00E94A618CE0166E070E03E
:103350000E94AC188FE692E00E94A81884E892E0E0
:1033600066E070E00E94AC1802C080E001C081E01D
:10337000DF91CF911F910F91FF900895FC0180E0A4
:1033800020E030E007C0DF01A80FB11D9C91290F9C
:10339000311D8F5F8A30B8F38093CB0481E0928532
:1033A000921380E0089540E020E030E007C0FC0187
:1033B000E40FF11D5081250F311D4F5F4A30B8F3E6
:1033C0004093CB04FC0122870895FC016187862F7E
:1033D00090E00895FC01218530E0255F3F4FC90151
:1033E0000895FC01818590E00895CF93DF93A0E0DC
:1033F00009C0FB01E20FF31F280F391FE9012881E3
:103400002083AF5F2A2F30E0FC01418550E0465F0A
:103410005F4F421753076CF7DF91CF9108950F93D9
:103420001F93E22F062F10E020E030E098011127D3
:10343000002790E0A0E0B0E0B82FAA2799278827BE
:10344000080F191F2A1F3B1F50E060E070E0762F25
:10345000652F542F4427040F151F261F371F0E0FEB
:10346000111D211D311DB801C9011F910F91089532
:10347000FC0193819093CF0482818093CE0481815B
:103480008093CD0460816093CC04782F8091CE042A
:103490000895EF92FF921F93DF93CF930F92CDB7D2
:1034A000DEB77C01162FFC0117828BE992E049837D
:1034B0000E94381ADC01CB01F70183879487A58726
:1034C000B68780858078808786E0818717874981E5
:1034D000408B86E090E00F90CF91DF911F91FF909D
:1034E000EF900895EF92FF921F93DF93CF930F9287
:1034F000CDB7DEB77C01162FFC01178280EA92E07F
:1035000049830E94381ADC01CB01F7018387948735
:10351000A587B68780858078808786E08187178732
:103520004981408B86E090E00F90CF91DF911F9111
:10353000FF90EF9008951092CB0440E013C0242F29
:1035400030E0542F5F5FFC01E20FF31F260F371F9F
:10355000E081D9012C91E21721F04093CB0480E067
:103560000895452F463058F34093CB0481E00895E9
:103570002F923F924F925F926F927F928F929F9283
:10358000AF92BF92CF92DF92EF92FF920F931F9371
:10359000DF93CF9300D000D0CDB7DEB71C017A0106
:1035A0008B01FC01A084B184C284D384C601B5011F
:1035B00020E030E0A9010E946E2418160CF0A8C08B
:1035C000C801B701F10124853585468557850E94DC
:1035D0009522E62E872E782E692E9301832F922F27
:1035E000A60195010E94CE2487FF85C093016E2D10
:1035F000782D832F922F20E030E0A9010E946E24C5
:1036000018160CF078C0F10100811181F2809380CE
:103610002480358046805780602F712F8F2D992D03
:10362000A20191010E94952269837A838B839C83F6
:10363000C601B5012E2D382D472D562D0E949522FD
:10364000A60195010E94C0239B01AC0160E070E0DF
:1036500080E89FE30E9495229B01AC0169817A81F9
:103660008B819C810E94C6229B01AC01C201B101E9
:103670000E946822E62ED72EC82EB92E602F712FF9
:103680008F2D992DA20191010E946E241816C4F469
:103690006E2D7D2D8C2D9B2D202F312F4F2D592DB3
:1036A0000E946E2418160CF43FC06E2D7D2D8C2DBB
:1036B0009B2DA20191010E94CE2487FD35C016C02A
:1036C0006E2D7D2D8C2D9B2D202F312F4F2D592D83
:1036D0000E94CE2487FD28C06E2D7D2D8C2D9B2D24
:1036E000A20191010E946E241816F4F00E2D1D2DDA
:1036F000FC2C9B2C19C080E090E0DC01F10180875C
:103700009187A287B38700811181F28093800CC0DA
:10371000F10100811181F280938080E090E0DC0172
:1037200080879187A287B387602F712F8F2D992D66
:103730000F900F900F900F90CF91DF911F910F91ED
:10374000FF90EF90DF90CF90BF90AF909F908F90C1
:103750007F906F905F904F903F902F90089560ED15
:1037600074E00E94DC1F0895AF92BF92CF92DF9267
:10377000EF92FF920F931F93A0908400B09085006A
:10378000CC24DD2480915B0590915C05A0915D05C2
:10379000B0915E05A80EB91ECA1EDB1E9501A601DA
:1037A00060E070E080E090E00E94412020E030E0A6
:1037B00040E951E40E94C0235B016C0160915F0508
:1037C0007091600580916105909162050E94E025ED
:1037D00020E030E040E85FE40E94C62220E030E0D4
:1037E00040E951E40E94C0239B01AC01C601B50130
:1037F0000E9468221F910F91FF90EF90DF90CF9071
:10380000BF90AF90089510925B0510925C051092E6
:103810005D0510925E05809180008C7F8093800012
:1038200080918100887F85608093810080916F0006
:10383000816080936F000895AF92BF92CF92DF9224
:10384000EF92FF920F931F93A0908400B090850099
:10385000CC24DD2480915B0590915C05A0915D05F1
:10386000B0915E05A80EB91ECA1EDB1E9501A60109
:1038700060E070E080E090E01F910F91FF90EF908A
:10388000DF90CF90BF90AF9008951F920F920FB628
:103890000F9211242F933F934F935F938F939F9396
:1038A000AF93BF9380915B0590915C05A0915D05FE
:1038B000B0915E059C01AD01205030404F4F5F4FED
:1038C00020935B0530935C0540935D0550935E0546
:1038D000281739074A075B07F8F410925B05109226
:1038E0005C0510925D0510925E05109285001092A5
:1038F000840080915F0590916005A0916105B09171
:1039000062050196A11DB11D80935F05909360052E
:10391000A0936105B0936205BF91AF919F918F9184
:103920005F914F913F912F910F900FBE0F901F907D
:1039300018959091C00095FFFCCF8093C6008FE151
:103940008A95F1F70895EF92FF920F931F93CF930B
:10395000DF93EB01E82EF92E00E010E00AC0F7013A
:1039600081917F010E94991CFFE1FA95F1F70F5FA9
:103970001F4F0C171D0798F3CE01DF91CF911F91B8
:103980000F91FF90EF9008951F920F920FB60F9234
:1039900011242F933F934F935F936F937F938F9354
:1039A0009F93AF93BF93EF93FF93DF93CF930F92C8
:1039B000CDB7DEB7F8946091C60080ED94E0AE011B
:1039C0004F5F5F4F0E94F31678940F90CF91DF9175
:1039D000FF91EF91BF91AF919F918F917F916F91E7
:1039E0005F914F913F912F910F900FBE0F901F90BD
:1039F00018959093C5008093C40086E28093C2001E
:103A000088E98093C1001092C0000895F89484E082
:103A100090E00E94F91C80ED94E063EE74E028E7EA
:103A200030E040E050E00E947816789408951092BB
:103A3000CD0089E08093CC0086E08093CA0088E0C6
:103A40008093C9001092C8000895DF93CF930F921E
:103A5000CDB7DEB79091C900992321F489830E94E4
:103A6000171D89819091C80095FFFCCF8093CE00EF
:103A70008FE18A95F1F70F90CF91DF9108950E9421
:103A8000251D089561157105F1F0803261F08033D4
:103A900091F08031D1F481E08093830570938505A6
:103AA00060938405089581E080938005709382057A
:103AB00060938105089581E080937D0570937F0573
:103AC00060937E05089580E0089580E00895EF9268
:103AD000FF920F931F93CF93DF937B01EA0108813D
:103AE0000F30B9F010E00E94381AF801EE0FFF1FF6
:103AF000E00FF11FEE0FFF1FEC0FFD1F61837283BC
:103B000083839483F682E58288818F5F888381E056
:103B100001C080E0DF91CF911F910F91FF90EF9056
:103B2000089580E00895AF92BF92DF92EF92FF92E6
:103B30000F931F93CF93DF93EB01D880DD2041F1EA
:103B4000DB01E0E0F0E022C05F011196ED90FD9016
:103B50000D911C91149731961696EC012B853C859E
:103B60004D855E85E216F3060407150779F4F50125
:103B7000EE0FFF1FEA0DFB1DEE0FFF1FE60FF71FF5
:103B80000580F681E02D099581E003C0ED15E0F296
:103B900080E0DF91CF911F910F91FF90EF90DF9028
:103BA000BF90AF900895EF92FF920F931F93E09014
:103BB0008605F090870500918805109189050E947F
:103BC000B41B9B01AC01C801B7010E946E241816FA
:103BD0005CF480E090E0DC0180938605909387059B
:103BE000A0938805B093890550918605409187057B
:103BF0003091880520918905652F742F832F922F8E
:103C00001F910F91FF90EF90089560E040E00E94B7
:103C1000491A0895CF93DF93EC0110927C058B85B0
:103C20009C85AD85BE858F3520E792072EE6A207DD
:103C300027E6B20751F08F35EEE69E07EDE6AE07B8
:103C4000E3E7BE0709F049C00DC080E28F8385EA33
:103C500092E00E94381A6B877C878D879E8784E06C
:103C600089874DC08985843041F485E0898780E269
:103C70008F83809163058F8742C0853051F58F8592
:103C800090916305891708F594E0998790E29F83E6
:103C900090E0FC01EE0FFF1FE80FF91FED59FA4FFE
:103CA0002281338140E008C08C0F9D1FFC015787A3
:103CB00089858F5F89874F5F842F90E0F901E80F36
:103CC000F91F5081552381F71AC0CE0160E045E00D
:103CD00014C0CE0160E044E010C0809183058823C9
:103CE00071F0E0918405F0918505CE010995882356
:103CF00031F4CE0160917C0541E00E94491ADF91C8
:103D0000CF910895CF93DF93EC0110927C058091C1
:103D10008005882371F0E0918105F0918205CE0144
:103D20000995882331F4CE0160917C0542E00E9420
:103D3000491ADF91CF910895CF93DF93EC01109250
:103D40007C0580917D05882371F0E0917E05F091DE
:103D50007F05CE010995882331F4CE0160917C0561
:103D600043E00E94491ADF91CF910895CF93DF93EA
:103D7000EC018F81803171F0813118F4882331F0AA
:103D800015C0803259F0803389F40CC0CE010E94F6
:103D9000051E11C0CE010E940A1E0DC0CE010E9458
:103DA000821E09C0CE010E949C1E05C0CE0160E0AB
:103DB0004FE70E94491A80E888870E94B41B6093ED
:103DC0008605709387058093880590938905DF9118
:103DD000CF91089590916305292F30E0F901EE0FFE
:103DE000FF1FE20FF31FED59FA4F81837383628344
:103DF0009F5F909363050895CF92DF92EF92FF92B9
:103E00000F931F93DF93CF930F92CDB7DEB78C0143
:103E10007B016E010894C11CD11CC80141E050E037
:103E200060E070E097010E94E817F801808183301C
:103E3000A9F0F894C701B60121E030E040E050E07D
:103E40000E947C1778948AEA92E00E94A618F801F2
:103E5000608170E080E090E00E94A918C7010E9494
:103E6000ED166115710521F0F80180818330A9F606
:103E70000F90CF91DF911F910F91FF90EF90DF9006
:103E8000CF900895AF92BF92CF92DF92EF92FF92C0
:103E90000F931F93DF93CF9300D0CDB7DEB78C0184
:103EA0007B01CB010E94ED166115710509F476C006
:103EB000C801B7010E94FC1EC7010E94ED166F30B9
:103EC000710508F46BC0B02EA12EC8014BE050E084
:103ED00060E070E097010E94E8176E010894C11C31
:103EE000D11CF8018081833029F4C8010E94BE19D9
:103EF000882361F5F8018081833019F084EC92E029
:103F000007C0C8010E94BE19882321F487ED92E002
:103F10000E94A618F801608170E080E090E00E94A5
:103F2000A918F894C701B60121E030E040E050E064
:103F30000E947C1778948B2D9A2D4BE050E060E026
:103F400070E097010E94E81720E001C021E0C7015E
:103F50002A830E94ED162A816115710529F4C80192
:103F6000B7010E94FC1E1AC0222309F4BACFF8013F
:103F7000018510E0055F1F4FC7010E94ED16601715
:103F8000710760F0F894980140E050E0C7016B2D94
:103F90007A2D0E947C17789481E001C080E00F9018
:103FA0000F90CF91DF911F910F91FF90EF90DF90D5
:103FB000CF90BF90AF90089540E00E94421F0895B7
:103FC00041E00E94421F08950E94ED16CB01089522
:103FD000FC01CA019B0140E050E0BF010E947C1738
:103FE000CB010895E4E8F2E0DC01119621912D93D4
:103FF00022E0EA38F207D1F723E0FC0120830E9497
:10400000D3190895CF93DF93EC0188858068888762
:10401000CE010E94F21FCE010E94EA19BC01CE011E
:104020000E94A31CDF91CF910895EF92FF920F930E
:104030001F937B018C0120E030E040E05FE40E94B0
:104040009E2487FD11C0C801B70120E030E040E0A8
:104050005FE40E9495220E948E259B01AC012050B6
:1040600030404040504806C0C801B7010E948E252C
:104070009B01AC01B901CA011F910F91FF90EF9014
:104080000895A4E0B0E0E7E4F0E20C94B528F22E45
:10409000132FE42ED52EC62E772E682E592E298367
:1040A0003A834B835C8389809A80AB80BC80A50176
:1040B000940160E070E0CB018F1499F4311789F41A
:1040C0004E1579F45D1569F46C1559F4771549F4BA
:1040D000861539F4951529F4C501B4010E94E0252F
:1040E000A9C02F2D312F4E2D5D2D6C2D772D862DB6
:1040F000952D00E20E945826C901DA01803000E0C7
:10410000900701E0A00700E0B00750F48F3F910551
:10411000A105B10509F090F488249924540119C02F
:10412000803020E0920720E0A20721E0B20760F48F
:1041300040E1842E912CA12CB12C0BC038E0832EB1
:10414000912CA12CB12C05C028E1822E912CA12C00
:10415000B12C082C04C0B695A795979587950A941D
:10416000D2F78F509D4FFC018081880E911CA11CBD
:10417000B11C482C2F2D312F4E2D5D2D6C2D772D00
:10418000862D952D082D0E945826A32FF42FE52F5C
:10419000622F7A2F8F2F9E2F20E230E028193909C5
:1041A000E980FA800B811C8104C0EE0CFF1C001F0B
:1041B000111F2A95D2F7E114F1040105110509F048
:1041C00061600E94E025D62EE72EF82E192F00E21E
:1041D00080169104A104B104C9F02FE18216910464
:1041E000A104B104B9F061E070E080E090E0042C3B
:1041F00004C0660F771F881F991F0A94D2F70E9488
:104200002E25562F472F382F292F08C050E040E089
:1042100030E803C050E040E030E02FE46D2D7E2D0B
:104220008F2D912FDA01F9012B2F342F4F2F5E2F75
:104230000E94C6222496E0E10C94D128A0E0B0E0D0
:10424000E4E2F1E20C94B728FC01EA0180818230BB
:1042500008F438C1DB019C91923008F430C18430FD
:1042600059F4943009F02EC1918111968C911197D7
:10427000981709F021C126C1943009F420C1923069
:10428000B1F4823009F01EC1CA01AF0128E0DA01A1
:104290000D90AD01DC010D92CD012150C1F7DB0184
:1042A00011968C9111979181892389830AC182305B
:1042B00009F405C1C280D380DB0112966D907C9019
:1042C000139724813581468157811496ED90FD9096
:1042D0000D911C911797C601861997095C0197FFEC
:1042E00004C0AA24BB24A81AB90AB0E2AB16B104D0
:1042F0000CF061C0181619066CF5370148010A2C3C
:1043000004C096948794779467940A94D2F781E0D6
:1043100090E0A0E0B0E00A2C04C0880F991FAA1F0B
:10432000BB1F0A94D2F70197A109B1098E219F21E1
:10433000A023B123EE24FF248701E3940097A10575
:10434000B10519F4EE24FF248701E628F72808298F
:1043500019293CC00097D1F1CA0CDB1C39014A0174
:104360000A2C04C096948794779467940A94D2F7A1
:1043700081E090E0A0E0B0E00A2C04C0880F991F13
:10438000AA1FBB1F0A94D2F70197A109B109822382
:104390009323A423B52321E030E040E050E00097D0
:1043A000A105B10519F420E030E0A901262937293B
:1043B000482959290BC06C147D0424F4EE24FF24F1
:1043C000870104C0630120E030E0A9018181FB0185
:1043D0009181891709F445C0882349F0D801C701A4
:1043E000821B930BA40BB50B9C01AD0104C02E19CD
:1043F0003F09400B510B57FD04C01982DB82CA8272
:104400000BC081E08983DB82CA825095409530954C
:1044100021953F4F4F4F5F4F2C833D834E835F83EA
:104420000DC0880F991FAA1FBB1F8C839D83AE836D
:10443000BF838A819B8101979B838A838C819D8125
:10444000AE81BF819C01AD012150304040405040C1
:104450002F3FEFEF3E07EFEF4E07EFE35E0708F366
:104460000BC08983DB82CA822E0D3F1D401F511F66
:104470002C833D834E835F8383E088832C813D8141
:104480004E815F8157FF1DC0DA01C90181709070B4
:10449000A070B0705695479537952795822B932B32
:1044A000A42BB52B8C839D83AE83BF838A819B8194
:1044B00001969B838A8305C0E9EEF2E003C0FB010D
:1044C00001C0FE01CF01CDB7DEB7EEE00C94D328DA
:1044D000A0E2B0E0EEE6F2E20C94BF2869837A83B2
:1044E0008B839C832D833E834F83588789E0E82EFE
:1044F000F12CEC0EFD1ECE010196B7010E94F127B2
:104500008E010F5E1F4FCE010596B8010E94F12764
:10451000C701B801AE01475E5F4F0E941E210E9495
:104520002327A096E6E00C94DB28A0E2B0E0EBE9BC
:10453000F2E20C94BF2869837A838B839C832D835A
:104540003E834F8358878E01075F1F4FCE01019630
:10455000B8010E94F12791E1E92EF12CEC0EFD1E2D
:10456000CE010596B7010E94F1278A8991E089273B
:104570008A8BC801B701AE01475E5F4F0E941E21C2
:104580000E942327A096E6E00C94DB28A0E2B0E08E
:10459000ECECF2E20C94B32869837A838B839C83DE
:1045A0002D833E834F835887CE010196BE01675FFE
:1045B0007F4F0E94F127CE010596BE016F5E7F4FAF
:1045C0000E94F1279985923078F089898230C0F075
:1045D000943019F4823041F4CBC0843019F4923015
:1045E00079F4C6C0923051F481E02A859A8929175E
:1045F00009F480E08A87CE010996BCC0823051F46C
:1046000081E02A859A89291709F480E08A8BCE01F6
:104610004196B0C06D847E848F849888ED88FE8832
:104620000F89188DE0E2F0E080E090E0DC01AA2440
:10463000BB24650120E030E0A901B3016170707016
:1046400061157105D1F02E0D3F1D401F511F150141
:104650002601280E391E4A1E5B1E81E090E0A0E074
:10466000B0E02E153F054007510718F080E090E0BC
:10467000DC01820D931DA41DB51DAA0CBB1CCC1C16
:10468000DD1C17FF09C061E0262E312C412C512C76
:10469000A228B328C428D528319749F0EE0CFF1C76
:1046A000001F111F9694879477946794C6CF6B89E7
:1046B0007C89EB85FC856E0F7F1F6E5F7F4F7C8F43
:1046C0006B8F61E0EA857A89E71709F460E06A8F09
:1046D0006B8D7C8D10C0FC01E170F070309729F07B
:1046E00056954795379527955068B695A795979510
:1046F00087956F5F7F4FB7FDEECF0CC0880F991F76
:10470000AA1FBB1F57FD8160220F331F441F551F77
:10471000615070408030E0E09E07E0E0AE07E0E4EA
:10472000BE0760F36B8F7C8F6FE7E62EF12C012DB7
:10473000112DE822F9220A231B2360E4E616F10476
:104740000105110561F487FD0AC0211531054105F8
:10475000510529F0805C9F4FAF4FBF4F80788D8F00
:104760009E8FAF8FB8A383E0898FCE01499602C098
:1047700089EE92E00E942327A096E2E10C94CF28D4
:10478000A8E1B0E0E6ECF3E20C94BB2869837A83FD
:104790008B839C832D833E834F8358878E01075FD5
:1047A0001F4FCE010196B8010E94F12781E1E82E4A
:1047B000F12CEC0EFD1ECE010596B7010E94F127EB
:1047C0009985923008F483C08989823008F47BC0CF
:1047D0002A853A8923272A87943011F0923021F4D0
:1047E000981709F06CC071C0843039F41D861E869C
:1047F0001F86188A1C861B866AC0823019F484E0E2
:10480000898765C08B859C852B893C89821B930B8E
:104810009C878B872D853E854F855889ED88FE883E
:104820000F89188D2E153F054007510738F4220FC8
:10483000331F441F551F01979C878B876FE170E0E2
:10484000A12CB12CC12CA0E4DA2E80E090E0DC0198
:104850002E153F054007510740F08A299B29AC29B6
:10486000BD292E193F09400B510BD694C794B7941C
:10487000A794220F331F441F551F6150704041F70A
:104880006FE7E62EF12C012D112DE822F9220A23E3
:104890001B2360E4E616F1040105110561F487FDB0
:1048A0000AC0211531054105510529F0805C9F4F53
:1048B000AF4FBF4F80788D879E87AF87B88B8E01B3
:1048C000075F1F4F04C0870102C009EE12E0C80154
:1048D0000E9423276896EAE00C94D728A8E1B0E06C
:1048E000E4E7F4E20C94BF2869837A838B839C838A
:1048F0002D833E834F8358878E01075F1F4FCE0164
:104900000196B8010E94F12781E1E82EF12CEC0E0E
:10491000FD1ECE010596B7010E94F12789858230E0
:1049200040F08989823028F0C801B7010E945A28D6
:1049300001C08FEF6896E6E00C94DB28A8E1B0E0B8
:10494000E4EAF4E20C94BF2869837A838B839C8326
:104950002D833E834F8358878E01075F1F4FCE0103
:104960000196B8010E94F12781E1E82EF12CEC0EAE
:10497000FD1ECE010596B7010E94F1278985823080
:1049800040F08989823028F0C801B7010E945A2876
:1049900001C08FEF6896E6E00C94DB28A8E1B0E058
:1049A000E4EDF4E20C94BF2869837A838B839C83C3
:1049B0002D833E834F8358878E01075F1F4FCE01A3
:1049C0000196B8010E94F12781E1E82EF12CEC0E4E
:1049D000FD1ECE010596B7010E94F1278985823020
:1049E00040F08989823028F0C801B7010E945A2816
:1049F00001C081E06896E6E00C94DB28A8E1B0E015
:104A0000E4E0F5E20C94BF2869837A838B839C836E
:104A10002D833E834F8358878E01075F1F4FCE0142
:104A20000196B8010E94F12781E1E82EF12CEC0EED
:104A3000FD1ECE010596B7010E94F12789858230BF
:104A400040F08989823028F0C801B7010E945A28B5
:104A500001C081E06896E6E00C94DB28A8E0B0E0B5
:104A6000E4E3F5E20C94BF287B018C0183E08983A9
:104A7000D801C7018827B7FD83959927AA27BB27A7
:104A8000282F8A83E114F1040105110519F482E04D
:104A9000898337C08EE190E09C838B83222389F049
:104AA00080E0E81680E0F80680E0080780E8180754
:104AB00069F110950095F094E094E11CF11C011D42
:104AC000111DED82FE820F831887C801B7010E9475
:104AD000C9269C01215030401216130694F4022E70
:104AE00004C0EE0CFF1C001F111F0A94D2F7ED82C8
:104AF000FE820F8318878EE190E0821B930B9C83CC
:104B00008B83CE0101960E94232704C060E070E0F1
:104B100080E09FEC2896E6E00C94DB28ACE0B0E067
:104B2000E4E9F5E20C94C32869837A838B839C8340
:104B3000CE010196BE016B5F7F4F0E94F1278D81F0
:104B4000823081F1823070F1843021F48E818823AB
:104B500069F10AC02F81388537FD24C06E812F315D
:104B600031053CF0662311F120E030E040E050E8F0
:104B700021C08EE190E0821B930B29853A854B85FD
:104B80005C8504C056954795379527958A95D2F749
:104B9000662381F050954095309521953F4F4F4FBA
:104BA0005F4F08C020E030E0A90104C02FEF3FEFC5
:104BB0004FEF5FE7B901CA012C96E2E00C94DF28C1
:104BC000A8E0B0E0E6EEF5E20C94BD287B018C0194
:104BD0001A82611571058105910519F482E08983B6
:104BE0005FC083E089838EE1C82ED12CDC82CB822A
:104BF000ED82FE820F831887C801B7010E94C92683
:104C0000FC013197F7FF3AC0AA27BB27AE1BBF0BA9
:104C100021E030E040E050E00A2E04C0220F331FB4
:104C2000441F551F0A94D2F7215030404040504055
:104C30002E213F214023512361E070E080E090E08D
:104C4000211531054105510519F460E070E0CB01F3
:104C500004C016950795F794E794AA95D2F7E62A2B
:104C6000F72A082B192BED82FE820F8318878EE11D
:104C700090E08E1B9F0B9C838B8312C0309781F03A
:104C80000E2E04C0EE0CFF1C001F111F0A94D2F759
:104C9000ED82FE820F831887CE1ADF0ADC82CB8278
:104CA000CE0101960E9423272896E8E00C94D9288B
:104CB0000F93DF93CF93CDB7DEB760970FB6F8941D
:104CC000DEBF0FBECDBF002309F459C029833A834C
:104CD0004B835C836D837E838F839887E0E2E01B48
:104CE0002D813E814F8158851E16BCF01D861E8683
:104CF0001F86188A8E2F992787FD9095909581950C
:104D00009F4F04C056954795379527958A95D2F7BA
:104D100029873A874B875C872AC0CA01B901002ED0
:104D200004C096958795779567950A94D2F76D8715
:104D30007E878F87988BDA01C90104C0880F991F7D
:104D4000AA1FBB1FEA95D2F729813A814B815C816A
:104D500004C056954795379527950A95D2F7822B2B
:104D6000932BA42BB52B89879A87AB87BC87298582
:104D70003A854B855C856D857E858F8598896096A3
:104D80000FB6F894DEBF0FBECDBFCF91DF910F916C
:104D90000895AF92BF92CF92DF92EF92FF920F935E
:104DA0001F937B018C0180E0E81680E0F80681E02B
:104DB000080780E0180758F4EFEFEE16F10401053C
:104DC000110509F090F480E090E0DC0117C0F0E0FC
:104DD000EF16F0E0FF06F0E00F07F1E01F0750F4D8
:104DE00080E190E0A0E0B0E009C088E090E0A0E0C1
:104DF000B0E004C088E190E0A0E0B0E020E230E064
:104E000040E050E0281B390B4A0B5B0B570168014F
:104E100004C0D694C794B794A7948A95D2F7D601C4
:104E2000C5018F509D4FFC018081281B310941092C
:104E30005109C9011F910F91FF90EF90DF90CF9022
:104E4000BF90AF900895EF92FF920F931F93CF936F
:104E5000DF93FC0124813581468157816181808106
:104E6000823020F44061EFEFF0E0A3C0843009F419
:104E70009BC0823009F492C02115310541055105CE
:104E800009F48FC00280F381E02D8FEFE238F8073C
:104E90000CF05AC0C2E8DFEFCE1BDF0BCA31D105E0
:104EA0006CF579018A010C2E04C016950795F794CC
:104EB000E7940A94D2F781E090E0A0E0B0E00C2EF5
:104EC00004C0880F991FAA1FBB1F0A94D2F701972D
:104ED000A109B10982239323A423B52321E030E063
:104EE00040E050E00097A105B10519F420E030E062
:104EF000A9012E293F29402B512B03C020E030E08F
:104F0000A901DA01C9018F779070A070B070803468
:104F10009105A105B10539F427FF09C0205C3F4F79
:104F20004F4F5F4F04C0215C3F4F4F4F5F4FE1E059
:104F3000F0E0203080E0380780E0480780E4580740
:104F400028F5E0E0F0E022C0E038F1056CF5E1582A
:104F5000FF4FDA01C9018F779070A070B070803474
:104F60009105A105B10539F427FF09C0205C3F4F29
:104F70004F4F5F4F04C0215C3F4F4F4F5F4F57FF74
:104F800005C05695479537952795319687E05695F4
:104F90004795379527958A95D1F70BC0E0E0F0E06B
:104FA00005C0E0E0F0E005C0EFEFF0E020E030E029
:104FB000A9018E2F879588278795942F9F776795CE
:104FC00066276795E695E22EA92FA82BFE2FF62BD4
:104FD000622F732F8A2F9F2FCDB7DEB7E6E00C9498
:104FE000DB28DC01FB012C9111963C911197129664
:104FF0008C911297482F4F7750E0982F991F99273F
:10500000991F13966C911397862F880F892B90E028
:10501000661F6627661F6183009739F521153105E4
:105020004105510511F482E029C082E89FEF938386
:10503000828367E0220F331F441F551F6A95D1F703
:1050400083E0808309C0220F331F441F551F8281D4
:105050009381019793838283203080E0380780E03A
:10506000480780E4580778F320C08F3F910579F412
:10507000211531054105510519F484E08083089517
:1050800044FF03C081E0808310C010820EC08F57A0
:1050900090409383828383E0808387E0220F331FD5
:1050A000441F551F8A95D1F7506424833583468366
:1050B00057830895FC01DB019081923008F449C0C8
:1050C0008C91823008F445C0943051F46181843071
:1050D000B1F511962C91119730E0261B310941C092
:1050E000843021F0923041F48230B1F111968C91EC
:1050F00011978823A1F12DC06181823001F11196B1
:105100008C9111976817D9F42281338112968D9171
:105110009C9113978217930794F028173907BCF0D6
:10512000248135814681578114968D919D910D90F2
:10513000BC91A02D82179307A407B50718F4662326
:1051400041F00DC0281739074A075B0728F466238A
:1051500031F021E030E005C020E030E002C02FEF68
:105160003FEFC90108952F923F924F925F926F9245
:105170007F928F929F92AF92BF92CF92DF92EF92E7
:10518000FF920F931F93CF93DF93CDB7DEB7CA1B68
:10519000DB0B0FB6F894DEBF0FBECDBF09942A8893
:1051A000398848885F846E847D848C849B84AA843B
:1051B000B984C884DF80EE80FD800C811B81AA81C8
:1051C000B981CE0FD11D0FB6F894DEBF0FBECDBF93
:0851D000ED010895F894FFCFF2
:1051D8005265736574696E67206173796E632074B4
:1051E800696D652C207761733D002069733D00016E
:1051F80000000000000001000001496E7465727033
:105208006F6C617465206F7574206F6620626F75AE
:105218006E64732120676F743D00206F6E2074697F
:105228006D653D00206F6E206368616E3D00010171
:10523800FF0000000000002041000000000000C83E
:1052480041000000410000C841000080410000C842
:105258004167636876006161736E005075736869B1
:105268006E67206469676974616C006461736E00BD
:105278002323235374617274696E67204156522048
:10528800496E204465627567204D6F64650A004069
:105298002340234649464F204641494C4544205423
:1052A8004F20494E495449414C495A45000A4669DC
:1052B800666F2073746174653A200A0942797465CF
:1052C800733A000A0944617461205B2000200020C1
:1052D8005D0A00303132333435363738394142438C
:1052E8004445460000000000009041000040400096
:1052F8000090410000C040000090410000104100B3
:1053080000904100004041000090410000704100C1
:10531800009041476F743A00526573706F6E736501
:105328003A005061636B6574206E6F742061646429
:1053380072657373656420746F206D653A20002070
:105348006973206E6F74206D696E653A20000000E5
:105358000000000074F7260101016263732E636F79
:1053680072652E2A3B302E333B3B005F657272001C
:105378005F726479005F706E670023234A756E6BF5
:10538800696E67206261642066697273742062794D
:105398007465200023232342616420666972737454
:1053A80020627974653D002323234261642063727F
:1053B8006320636865636B3D000000000000000027
:1053C80000000102020303030304040404040404A8
:1053D8000405050505050505050505050505050576
:1053E8000506060606060606060606060606060656
:1053F8000606060606060606060606060606060645
:105408000607070707070707070707070707070725
:105418000707070707070707070707070707070714
:105428000707070707070707070707070707070704
:1054380007070707070707070707070707070707F4
:1054480007080808080808080808080808080808D5
:1054580008080808080808080808080808080808C4
:1054680008080808080808080808080808080808B4
:1054780008080808080808080808080808080808A4
:105488000808080808080808080808080808080894
:105498000808080808080808080808080808080884
:1054A8000808080808080808080808080808080874
:1054B8000808080808080808080808080808080864
:0254C8000800DA
:00000001FF
