:100000000C94B6000C94D3000C94D3000C94D30041
:100010000C94D3000C94D3000C94D3000C94D30014
:100020000C94D3000C94D3000C94D3000C94D30004
:100030000C94D3000C94D3000C94D3000C9490191E
:100040000C94D3000C94D3000C94D3000C94D300E4
:100050000C94291A0C94D3000C94D3000C94D30064
:100060000C94D3000C94D3000C94D3000C94D300C4
:100070000C94FE0C0C94D3000C94D3007E078107E3
:10008000840787078D07900797079A079D07A007A2
:10009000A307A607A907AC07AF07B207B807BF07B2
:1000A000C607C907CE07D407D907DE07F007F70749
:1000B0000008080810081708200828083208370820
:1000C0003D0844084C0853085B0864086E087A0829
:1000D0008808900897089F08A608AF08C508CC08AC
:1000E000D508DD08E508EC08F508FD0807090C0946
:1000F00012091909210928093009390943094F0949
:100100005D0965096C0974097B098409360E3C0E8A
:10011000420E480E4E0E540E5A0E600E660E6C0EB7
:10012000720E7B0E810E870E8D0E930E990E9F0E12
:10013000A50EAB0EB10EB70EBD0EC30EDA0EE60E57
:10014000F20EFE0E0A0F160F220F2E0F3A0F460F59
:10015000520F5E0F6A0F760F820F8E0F9A0FA60F47
:10016000B20FBE0FCA0FD60FE20FEE0F11241FBE43
:10017000CFEFD8E0DEBFCDBF13E0A0E0B1E0E8E70D
:10018000F2E502C005900D92AE3EB107D9F717E037
:10019000AEEEB3E001C01D92A833B107E1F70E94B3
:1001A000D5000C943A290C9400000E94E00080E0F5
:1001B00090E008958EEE93E060E00E947D1A08952D
:1001C0004F925F926F927F928F929F92AF92BF9267
:1001D000CF92DF92EF92FF920F931F93DF93CF9313
:1001E000CDB7DEB728970FB6F894DEBF0FBECDBFF0
:1001F0000E94F51A0E943814DE011196EFE1F1E039
:1002000088E001900D928150E1F72E010894411C85
:10021000511C0F2EF0E06F2EF0E07F2EF0EF8F2EAE
:10022000F1E49F2EF02D0E94BD118091260086FFE3
:1002300009C00E942912882329F08EEE93E060E025
:100240000E947D1A8EEE93E060E00E947D1A8091FC
:10025000260086FF49C0C2010E94831620E030E0DC
:1002600040E050E00E94A32418162CF40E94831250
:100270008823D1F134C00E94FF185B016C01E98032
:10028000FA800B811C81C801B70120E030E040E01A
:1002900050E00E94D324882344F0C801B701A6018E
:1002A00095010E9433251816FCF480E091E00E942D
:1002B000101769817A818B819C810E9417178AE1CE
:1002C00091E00E941217C601B5010E9417176D82B6
:1002D0007E828F829886A982BA82CB82DC828EEE61
:1002E00093E060E00E947D1A8EEE93E060E00E9451
:1002F0007D1A99CFCF93DF93EC018F850E941C026A
:100300008850823010F080E006C07A896B89898934
:1003100098890E94D80DDF91CF91089520E030E0B8
:10032000F901E256FA4F8081827080832F5F3F4F40
:1003300028313105A9F740919E0550919F05E09124
:10034000A0058091A2059091A3052091A40530916C
:10035000A50584688093A20594689093A3052468FA
:100360002093A40534683093A5058091A60590914B
:10037000A7052091A8053091A90581688093A6055D
:1003800091689093A70521682093A8053168309360
:10039000A9058091AA0581608093AA058091AB058B
:1003A00081608093AB058091AC0581608093AC0542
:1003B0008091AD0581608093AD057091AE0560912F
:1003C000AF058091A105406740939E05506750930B
:1003D0009F05E067E093A00580668093A10580916A
:1003E000B1059091B3052091B5053091B0054091CC
:1003F000B2055091B40568666093AF05806680933E
:10040000B10590669093B30520662093B505786694
:100410007093AE0530663093B00540664093B205E8
:1004200050665093B405089590E0A0E0B0E0BC01A0
:10043000CD010E94131708950E94B9068F77089581
:100440001F93182F0E94B906813860F4812F0E94F3
:10045000B9068F77803131F0833121F0893011F086
:1004600080E001C081E01F910895EF92FF920F9309
:100470001F93182FE62E042FF22E0E94E004812FE6
:10048000602F0E94B708812F6F2D0E94E207812FF5
:100490006E2D0E9431071F910F91FF90EF900895EC
:1004A0000F931F93182F062F0E94E004002309F4D6
:1004B00079C0802F90E08F7790708A309105D4F4C6
:1004C000883091054CF58330910509F465C084307E
:1004D000910524F4019709F067C01AC08630910590
:1004E00009F44DC0873091050CF053C0049709F012
:1004F0005BC03BC08431910544F48E3091050CF013
:1005000053C00D970CF050C01AC04697E4F14CC090
:10051000812F0E94E00446C01051123008F049C0FB
:1005200080E168E041E021E00E94350281E169E07C
:1005300040E021E00E9435020E94F80D33C0E12F17
:10054000F0E0E256FA4F808184FF33C080E06CE037
:1005500040E021E00E94350281E06BE040E021E0D4
:100560000E94350282E06AE021C0812F602F40E0C6
:1005700020E00E943502812F0E94260507C0812FAE
:100580000E94620A03C0812F0E946706882391F0AF
:1005900009C0812F0E94E40C812F602F41E020E0F0
:1005A0000E94350281E006C0812F602F40E021E0EB
:1005B000F7CF80E01F910F9108951F93CF93DF93A2
:1005C000EC0110E0812F6F850E945002882329F0F2
:1005D0001F5F21961831B1F781E0DF91CF911F9114
:1005E0000895FC01978560898185873018F081899D
:1005F00081116068892F0E94500208951F93CF9344
:10060000DF93C0E0D0E01C2F8C2F60E00E94B70881
:100610008C2F60E00E94E207CE010E941807682F2D
:100620008C2F0E94270ACE010E941807682F8C2F5A
:1006300020E030E040E050E00E94A30B8C2F0E94AD
:10064000B90682508D3F20F08C2F62E00E94310766
:10065000812F0E94B906682F812F0E945002219697
:10066000C831D10581F6DF91CF911F910895982F60
:10067000833069F0873059F0863049F0823039F0A4
:10068000843129F080E0953119F481E0089581E00A
:100690000895FC01608B0895FC01708B618B0895B7
:1006A000FC01708B618B528B438B0895FC01728926
:1006B0006389818990890895CF92DF92EF92FF92AA
:1006C0000F931F93D82EC42E780189010E941C021B
:1006D0008630C9F0873020F48250823030F407C071
:1006E000873051F08451823098F080E016C08D2D13
:1006F0006C2D0E94E20710C08D2D6C2DA801970172
:100700000E94A30B09C08D2D6C2D0E94270A04C0E6
:100710008D2D6C2D0E940B0681E01F910F91FF9093
:10072000EF90DF90CF9008957F928F929F92AF923B
:10073000BF92CF92DF92EF92FF920F931F93CF93CE
:10074000DF93FC01C288D188E088F784EC01BB24E8
:100750007B888C889D88AE888B2D0E941C020E940D
:100760003703882369F0C701B6010E9415268B0163
:100770009C018B2D4A2D592D682D772D0E945C03ED
:10078000B394249688E1B81619F781E0DF91CF91F0
:100790001F910F91FF90EF90DF90CF90BF90AF909F
:1007A0009F908F907F900895BF92CF92DF92EF92AB
:1007B000FF920F931F93CF93DF93EC01BF848B2D98
:1007C0000E941C02182F0E9437038823E9F0C88872
:1007D0008985873018F079896A8902C060E070E005
:1007E000DD24EE24FF2480E090E00E9415268B019A
:1007F0009C018B2DB701A6010E945C03CE0160E82D
:1008000040E00E94B11B10C0153081F0185012302A
:1008100068F40985055010E004C08F850E94EF1927
:100820001F5F21961017C8F381E001C080E0DF91BF
:10083000CF911F910F91FF90EF90DF90CF90BF90DD
:1008400008951F93182F0E941C028730E1F0883012
:1008500050F4843031F1853018F4823068F00FC0E4
:10086000863051F416C0833151F0843118F4803150
:1008700019F405C0863188F021E030E016C0812FE0
:100880000E946F0703C0812F0E94EC0A282F30E0DE
:100890000CC0812F0E94540AF9CF812F0E94F705C6
:1008A000F5CF812F0E94C5059C01C9011F910895B4
:1008B000DF92EF92FF920F931F93CF93DF938C0100
:1008C000FC01E7848E2D0E941C02F82E8E2D0E94C2
:1008D0002104D82E8E2D0E942002882311F00E9420
:1008E000230E80E2F80187838F2D8451823090F0AF
:1008F000F3E0FF1679F086E0F81661F0E7E0FE1607
:1009000049F0F2E0FF1631F083E1F81619F0E0E16A
:10091000FE1621F4F801D08A86E034C0F4E0FF1618
:1009200041F48E2D0E94C505F801908B818B87E0E4
:1009300029C0F8EFFF0E81E08F1510F480E024C08D
:1009400085E0F80181870E94EE0CEC010097D9F058
:10095000C8010F96BE010E94F40C2E96F801EC0F10
:10096000FD1F2E9720E030E005C0808181832F5F3E
:100970003F4F31972C173D07C0F381E1F80187877E
:1009800081858C0F818781E0DF91CF911F910F913D
:10099000FF90EF90DF9008950F931F93182F062F6D
:1009A0000E941C028650823010F080E006C0812F29
:1009B00090E0602F0E94110781E01F910F91089530
:1009C0000F931F93082F0E941C02182F802F0E9444
:1009D0008C09802F0E948505802F0E944106812F5F
:1009E0008A50833080F480E062E00E94310781E029
:1009F00062E00E94310782E062E00E94310783E0FA
:100A000062E00E9431071850123058F4802F0E9483
:100A1000DB0D80E162E00E94310781E162E00E942B
:100A20003107802F60E00E94B7081F910F91089551
:100A30001F930E948E010E94FE0210E0812F0E94EF
:100A400064121F5F1831D1F71F910895982FE82F76
:100A5000F0E0E256FA4F808180FD02C080E0089508
:100A600080917C008F7380937C0080917C008F7DCF
:100A700080937C0080917A00806880937A008091D6
:100A80007A00877F80937A0080917A0087608093D4
:100A90007A0010927B009B30F1F09C3038F4993052
:100AA00091F09A30A0F4983039F509C09D30D9F012
:100AB0009D30A8F09E30D9F09F30F1F41FC0809196
:100AC0007E00816017C080917E00826013C080919B
:100AD0007E0084600FC080917E0088600BC0809192
:100AE0007E00806107C080917E00806203C080919B
:100AF0007E00806480937E0081E0089580917E0076
:100B0000806880937E0081E00895982FE82FF0E0C0
:100B1000E256FA4F808180FF37C09B30F1F09C3065
:100B200038F4993091F09A30A0F4983069F509C002
:100B30009D30D9F09D30A8F09E30D9F09F3021F53E
:100B40001EC080917E008E7F17C080917E008D7FB9
:100B500013C080917E008B7F0FC080917E00877FC5
:100B60000BC080917E008F7E07C080917E008F7DBC
:100B700003C080917E008F7B80937E0008958091DA
:100B80007E008F7780937E0008951F93182F0E9418
:100B90001C028430C9F4912F98509830A8F49F71AA
:100BA00080917C00807E892B80937C0080917A00EC
:100BB000806480937A0080917A0086FDFCCF20913A
:100BC00078003091790002C020E030E0C9011F9127
:100BD0000895883030F08093B60584508093B7052F
:100BE00008958093B7058C5F8093B6050895982F7C
:100BF000E82FF0E0E256FA4F808187FD02C080E0E6
:100C00000895892F0E94E905E091B705F0E0EA57C1
:100C1000FA4F808108951F93CF93DF93982F162F5B
:100C2000E82FF0E0E256FA4F808187FF26C0892F37
:100C30000E94E905C12FD0E0C058D040E091B7052F
:100C4000F0E0EA57FA4F10831C161D064CF4809111
:100C5000B60560E00E94E207CE01880F682F09C048
:100C60008091B60561E00E94E207CE018195682F70
:100C7000660F8091B7050E94270ADF91CF911F91DF
:100C80000895982FE82FF0E0E256FA4F808187FF11
:100C90001DC0892F0E94E9058091B7050E941C02A2
:100CA0008431A1F48091B6050E941C02853171F453
:100CB0008091B7050E948C098091B70562E00E947F
:100CC00031078091B60562E00E9431070895982FA0
:100CD000E82FF0E0E256FA4F808187FD02C080E005
:100CE0000895892F0E94E9058091B70564E141E0EC
:100CF00020E00E9435028091B60565E141E020E0E8
:100D00000E9435028091B70560E80E940B0681E0E1
:100D10000895F999FECF1FBA92BD81BDF89A80B5AA
:100D20000895CB9624E08030920710F080E008957B
:100D30000E9489060895FF920F931F9387E390E026
:100D40000E948906F82E88E390E00E948906082F09
:100D500089E390E00E948906182F8AE390E00E94C0
:100D60008906682F712F802F9F2D1F910F91FF9063
:100D7000089590E007960E9489060895CF93DF9327
:100D800080E090E00E948906853269F4C1E0D0E0FD
:100D9000CE010E948906FE01EF5BFD4F8083219604
:100DA000C730D105A9F7DF91CF9108951F93CF9355
:100DB000DF93EC01162F0E948906811741F0F99903
:100DC000FECF1FBAD2BDC1BD10BDFA9AF99ADF910C
:100DD000CF911F910895CB9624E08030920710F4B4
:100DE0000E94D6060895FF920F931F93F62E072FA9
:100DF000182F692F87E390E00E94D60688E390E0E1
:100E0000612F0E94D60689E390E0602F0E94D606EB
:100E10008AE390E06F2D0E94D6061F910F91FF90FC
:100E200008956F3F09F46EEF4F960E94D60608951D
:100E30000F931F93CF93DF93EC018C01015E1F4F43
:100E4000C8010E9489068F3F21F4CE0160E80E940C
:100E50001107C8010E948906DF91CF911F910F9160
:100E600008950F931F93182F062F0E94B90680171D
:100E700031F0812F90E00796602F0E94D6061F91D7
:100E80000F9108950F931F93CF93DF93182F092F7E
:100E900080E090E00E948906853211F480E01AC05B
:100EA000812F902F9C018901C1E0D0E0F801619170
:100EB0008F01FE01EF5BFD4F6083CE010E94D606DD
:100EC0002196C730D10591F780E090E065E20E945D
:100ED000D60681E0DF91CF911F910F910895E82F01
:100EE000F0E0E831F10540F4E25CFF4FEE0FFF1F48
:100EF0000590F491E02D099480E0089580912300FD
:100F000033C0809123000EC08091230002C08091E5
:100F100029008295869587704FC08091290024C052
:100F200080912900829586958695837045C0809131
:100F3000230036C0809123002EC0809120003CC049
:100F40008091200038C08091200030C08091200026
:100F500027C0809120001FC080912000DACF8091AF
:100F60002000E0CF80912000881F8827881F0895E7
:100F70008091C90083FD03C08091290011C0809138
:100F8000C90083FD03C08091290010C08091260014
:100F9000C0CF8091260082958F700EC08091260070
:100FA00086958695869508C08091260086958695BB
:100FB00003C0809126008695817008958091260057
:100FC00081700895E82FF0E0E831F10508F0CEC017
:100FD000EA5AFF4FEE0FFF1F0590F491E02D0994A0
:100FE000679566276795809125008F7737C0617078
:100FF0006295660F660F607C809125008F7B2EC006
:1010000061706295660F607E809125008F7D26C09D
:1010100061706295660F607E80912B008F7D74C039
:1010200067956627679580912B008F776DC06170FB
:101030006295660F660F607C80912B008F7B64C089
:101040006170660F660F660F80912500877F06C06E
:1010500061706295607F809125008F7E862B8093E2
:10106000250008956170809122008E7F33C06170E9
:10107000660F809122008D7F2DC06170660F660F14
:10108000809122008B7F26C06170660F660F660F0D
:1010900080912200877F1EC061706295607F809181
:1010A00022008F7E17C061706295660F607E80910E
:1010B00022008F7D0FC061706295660F660F607CA5
:1010C000809122008F7B06C0679566276795809187
:1010D00022008F77862B8093220008958091C9008B
:1010E00083FD44C06170660F660F660F80912B0010
:1010F000877F0AC08091C90083FD38C06170660F88
:10110000660F80912B008B7F862B80932B00089598
:1011100061706295660F607E809128008F7D1BC094
:1011200061706295607F809128008F7E14C061702D
:10113000660F660F660F80912800877F0CC0617074
:10114000660F660F809128008B7F05C06170660F67
:10115000809128008D7F862B8093280008956170F0
:10116000809128008E7F862B809328000895E82F99
:10117000F0E0E831F10508F0CEC0E259FF4FEE0F84
:10118000FF1F0590F491E02D0994679566276795F8
:10119000809124008F7737C061706295660F660F6B
:1011A000607C809124008F7B2EC061706295660FF9
:1011B000607E809124008F7D26C061706295660FED
:1011C000607E80912A008F7D74C067956627679541
:1011D00080912A008F776DC061706295660F660FEF
:1011E000607C80912A008F7B64C06170660F660FFF
:1011F000660F80912400877F06C061706295607FD2
:10120000809124008F7E862B809324000895617046
:10121000809121008E7F33C06170660F8091210024
:101220008D7F2DC06170660F660F809121008B7FCE
:1012300026C06170660F660F660F80912100877F60
:101240001EC061706295607F809121008F7E17C003
:1012500061706295660F607E809121008F7D0FC066
:1012600061706295660F660F607C809121008F7BB4
:1012700006C0679566276795809121008F77862B3A
:101280008093210008958091C90083FD44C061705E
:10129000660F660F660F80912A00877F0AC08091D3
:1012A000C90083FD38C06170660F660F80912A0007
:1012B0008B7F862B80932A00089561706295660F5C
:1012C000607E809127008F7D1BC061706295607F7A
:1012D000809127008F7E14C06170660F660F660FC5
:1012E00080912700877F0CC06170660F660F809128
:1012F00027008B7F05C06170660F809127008D7F6E
:10130000862B8093270008956170809127008E7F3F
:10131000862B8093270008958530D1F0863018F40D
:101320008430D9F40FC0863019F08730B1F404C08E
:10133000809144008F7303C0809144008F7C809320
:10134000440008958091B0008F738093B000089599
:101350008091B0008F7C8093B00008951F93182F68
:101360000E941C02863059F0812F0E941C02853198
:1013700031F0812F0E941C02843109F066C01530C3
:1013800009F44DC0163020F4143009F05EC032C0AC
:10139000163021F0173009F058C015C08091240094
:1013A000886080932400809144008360809344008F
:1013B00080914500887F8160809345008091440042
:1013C0008F73806814C08091240080618093240012
:1013D0008091440083608093440080914500887F21
:1013E000816080934500809144008F7C806280936F
:1013F00044002BC080912A00806880932A0080914D
:10140000B00083608093B0008091B100887F8160DC
:101410008093B1008091B0008F73806814C0809178
:101420002A00806480932A008091B00083608093BA
:10143000B0008091B100887F81608093B10080917D
:10144000B0008F7C80628093B0001F9108950F934D
:101450001F93182F062F0E941C02863051F0812FF7
:101460000E941C02853129F0812F0E941C028431C8
:10147000C1F4812F0E94AE09153089F0163018F49E
:10148000143079F409C0163019F0173051F402C045
:1014900007BD07C008BD05C00093B30002C000939C
:1014A000B4001F910F9108951F93182F0E941C02E2
:1014B000863011F080E004C0812F90E00E94180770
:1014C0001F9108951F93182FE82FF0E0E256FA4F6E
:1014D000808182FD02C080E012C0812F66E041E081
:1014E00020E00E943502812F0E94AE09812F90E0FA
:1014F0000E941807682F812F0E94270A81E01F9100
:101500000895809366040895982F109267046130BF
:1015100059F48091240084608093240080912500F8
:1015200084608093250008958150823018F481E012
:1015300080936704913011F0933069F48091240016
:10154000846080932400809125008B7F8093250008
:10155000933069F00AC0809124008B7F809324002F
:10156000809125008B7F80932500992319F481E0D9
:1015700080935B010895982F10926804613059F4AC
:1015800080912400826080932400809125008260F5
:10159000809325000895813011F0833021F48091EB
:1015A0002400826003C0809124008D7F80932400FA
:1015B000809125008D7F80932500892F8150823076
:1015C00018F481E080936804933011F0992319F4A2
:1015D00081E080935C010895E6E8F5E0E80FF11DF5
:1015E00080810895DF93CF9300D000D0CDB7DEB7D0
:1015F00082E291E0A0E0B0E089839A83AB83BC8370
:1016000089819A81AB81BC810197A109B109898344
:101610009A83AB83BC830196A11DB11D0097A105E0
:10162000B10571F70F900F900F900F90CF91DF9150
:101630000895AF92BF92CF92DF92EF92FF920F93F5
:101640001F93CF93DF93A62EB82E6FC00E94FF1872
:10165000AB01BC01CB2DD0E0CE0124E0880F991F57
:101660002A95E1F788549A4F0E94EE1B6B017C018A
:1016700020E030E04FE753E40E94A324181624F53D
:1016800087E291E00E941017C701B6010E94171768
:1016900087E491E00E94121784E0CC0FDD1F8A9549
:1016A000E1F7C054DA4F688179818A819B810E9479
:1016B00017170F2EF0E0CF2EF0E0DF2EFFE7EF2E12
:1016C000F3E4FF2EF02D26C0C701B60120E030E084
:1016D00040E050E00E9403258823E4F487E291E093
:1016E0000E941017C701B6010E94171781E591E00B
:1016F0000E9412176B2D70E080E090E00E9413179B
:101700000F2EF0E0CF2EF0E0DF2EF0E0EF2EF0E035
:10171000FF2EF02D0B2D10E00A571A4FC701B6010E
:101720000E944B20F8016083B394BA1408F48ECF62
:10173000DF91CF911F910F91FF90EF90DF90CF90AD
:10174000BF90AF900895AF92BF92CF92DF92EF9289
:10175000FF920F931F93CF93DF93B82EA62E6901AC
:101760007A01CA01B90120E030E040EF51E40E9463
:101770000325882354F40F2EF0E0CF2EF0E0DF2E67
:10178000F0E0EF2EF0E0FF2EF02D0B2D10E0E80141
:1017900054E0CC0FDD1F5A95E1F7C054DA4FC882F0
:1017A000D982EA82FB82680144E0CC0CDD1C4A95B8
:1017B000E1F788EB95E0C80ED91E6A2D70E080E055
:1017C00090E00E941526F6016083718382839383E3
:1017D000780134E0EE0CFF1C3A95E1F78CEB95E0D4
:1017E000E80EF91E0A571A4FF801608170E080E098
:1017F00090E00E941526F7016083718382839383B2
:101800000E94FF18F6016487758786879787F8011D
:101810008081A81641F480E090E0A0E0B0E08883E9
:101820009983AA83BB83FBE0FB1518F010925B0140
:1018300002C010925C018B2D0E941C02873011F4B3
:10184000B0925D01DF91CF911F910F91FF90EF90CA
:10185000DF90CF90BF90AF9008951F93182F0E94F4
:101860001C02873021F4812F60E00E94E2071F9163
:1018700008951F93182F0E941C028730F9F41C3022
:1018800058F080916804882321F4809166048823AD
:10189000A9F080915C010AC080916704882321F43B
:1018A00080916604882351F080915B01813031F092
:1018B000812F61E00E94E20781E001C080E01F917A
:1018C0000895CF92DF92EF92FF920F931F93DF93D1
:1018D000CF9300D000D0CDB7DEB7682F70E0CB013A
:1018E000F3E0880F991FFA95E1F7D82E6F5F7F4FCD
:1018F000E3E0660F771FEA95E1F7C62E0E94190B09
:101900008091280080688093280086E69EE00197F9
:10191000F1F70D2D10E0EC2CFF2405C0802F0E9464
:10192000390C0F5F1F4F0E151F05C0F382E291E0C7
:10193000A0E0B0E089839A83AB83BC8389819A81DC
:10194000AB81BC810197A109B10989839A83AB83DB
:10195000BC830196A11DB11D0097A105B10571F7CA
:1019600000E010E015C0EF2DF0E0EA57FA4F80815B
:1019700090E00817190719F48F2D0E942D0CF3948D
:10198000FC1488F30F5F1F4F81E00030180711F03F
:10199000FD2CF6CF809128008F77809328001D2D95
:1019A00004C0812F0E942D0C1F5F1C15D0F30F90D7
:1019B0000F900F900F90CF91DF911F910F91FF909B
:1019C000EF90DF90CF9008951F93182F0E94E004AE
:1019D000812F61E00E94B7081F9108958EE694E080
:1019E0000E94711ECB010895FC019B0140E050E074
:1019F0008EE694E0BF010E94071F08951F920F9288
:101A00000FB60F9211242F933F934F935F936F93D1
:101A10007F938F939F93AF93BF93EF93FF93DF9346
:101A2000CF930F92CDB7DEB76091CE008EE694E0F3
:101A3000AE014F5F5F4F0E94771E0F90CF91DF91F5
:101A4000FF91EF91BF91AF919F918F917F916F9196
:101A50005F914F913F912F910F900FBE0F901F906C
:101A600018959B01AC01203880E7380780E04807D3
:101A700080E0580709F481C0213880E7380780E00A
:101A8000480780E05807B0F5203885E2380780E045
:101A9000480780E0580709F467C0213885E2380715
:101AA00080E0480780E0580798F4203689E038073E
:101AB00080E0480780E0580709F450C0203C82E1EC
:101AC000380780E0480780E0580709F045C049C062
:101AD000203488E3380780E0480780E0580709F49D
:101AE00046C020308BE4380780E0480780E0580784
:101AF00099F540C020308CE2380781E0480780E04B
:101B0000580709F443C021308CE2380781E04807C8
:101B100080E0580788F4203086E9380780E04807DD
:101B200080E0580769F1203081EE380780E04807EF
:101B300080E0580789F427C0203082EC380781E024
:101B4000480780E0580729F1203084E8380783E00F
:101B5000480780E0580701F180E008958FED91E09B
:101B60001DC08FEE90E01AC087E790E017C08FE4A9
:101B700090E014C08BE390E011C087E290E00EC0CB
:101B80008DE190E00BC083E190E008C08EE090E032
:101B900005C089E090E002C084E090E09093CD0021
:101BA0008093CC00CA01B9010E94F30681E0089538
:101BB0000E94310D0895982FE82FF0E0E256FA4F79
:101BC000808183FF14C01092C900892F0E941C02DB
:101BD0008850823060F480E162E040E021E00E94C1
:101BE000350281E162E040E021E00E943502089583
:101BF0000E949B060E94310D882331F460E07BE453
:101C000080E090E00E94310D80E161E00E94B70821
:101C100081E160E00E94B70881E161E00E94E20793
:101C200086E08093CA0088E98093C9001092C800BA
:101C30008EE694E069E674E025E030E040E050E0B4
:101C40000E94C71F089581E0809381040895E82FC2
:101C5000F0E0E831F10540F4EA57FF4FEE0FFF1FC7
:101C60000590F491E02D099420E094C020E080914B
:101C70008204909183043BC020E080918404909181
:101C8000850435C020E080918604909187042FC0A0
:101C900020E0809188049091890429C020E08091FF
:101CA0008A0490918B0423C020E080918C04909151
:101CB0008D041DC020E080918E0490918F0417C088
:101CC00020E0809190049091910411C020E08091D7
:101CD0009204909193040BC020E080919404909121
:101CE000950405C020E08091960490919704892B7B
:101CF00009F450C04EC020E080919804909199045E
:101D0000F6CF20E080919A0490919B04F0CF20E0E0
:101D100080919C0490919D04EACF20E080919E04E4
:101D200090919F04E4CF20E08091A0049091A104C1
:101D3000DECF20E08091A2049091A304D8CF20E0D0
:101D40008091A4049091A504D2CF20E08091A604B4
:101D50009091A704CCCF20E08091A8049091A90491
:101D6000C6CF20E08091AA049091AB04C0CF20E0C0
:101D70008091AC049091AD04BACF20E08091AE0484
:101D80009091AF04B4CF20E08091B0049091B10461
:101D9000AECF21E0822F0895E82FF0E0E831F10581
:101DA00008F028C1E256FF4FEE0FFF1F0590F49197
:101DB000E02D09941092830410928204662331F07E
:101DC00081E090E0909383048093820410928504D4
:101DD00010928404662331F081E090E090938504B2
:101DE000809384041092870410928604662331F055
:101DF00081E090E090938704809386041092890498
:101E000010928804662331F081E090E09093890479
:101E10008093880410928B0410928A04662331F018
:101E200081E090E090938B0480938A0410928D045B
:101E300010928C04662331F081E090E090938D0441
:101E400080938C0410928F0410928E04662331F0DC
:101E500081E090E090938F0480938E04109291041F
:101E600010929004662331F081E090E09093910409
:101E7000809390041092930410929204662331F0A0
:101E800081E090E0909393048093920410929504E3
:101E900010929404662331F081E090E090939504D1
:101EA000809394041092970410929604662331F064
:101EB00081E090E0909397048093960410929904A7
:101EC00010929804662331F081E090E09093990499
:101ED0008093980410929B0410929A04662331F028
:101EE00081E090E090939B0480939A0410929D046B
:101EF00010929C04662331F081E090E090939D0461
:101F000080939C0410929F0410929E04662331F0EB
:101F100081E090E090939F0480939E041092A1042E
:101F20001092A004662331F081E090E09093A10428
:101F30008093A0041092A3041092A204662331F0AF
:101F400081E090E09093A3048093A2041092A504F2
:101F50001092A404662331F081E090E09093A504F0
:101F60008093A4041092A7041092A604662331F073
:101F700081E090E09093A7048093A6041092A904B6
:101F80001092A804662331F081E090E09093A904B8
:101F90008093A8041092AB041092AA04662331F037
:101FA00081E090E09093AB048093AA041092AD047A
:101FB0001092AC04662331F081E090E09093AD0480
:101FC0008093AC041092AF041092AE04662331F0FB
:101FD00081E090E09093AF048093AE041092B1043E
:101FE0001092B004662331F081E090E09093B10448
:101FF0008093B00408958B3009F446C08C3038F4D7
:102000008930D1F08A3048F5883069F40FC08D30BE
:1020100009F455C08D3008F444C08E3009F464C012
:102020008F3009F472C040E050E080C04091B204AB
:102030008091B304582F79C08091B304869586951A
:1020400086959091B404292F2295220F207E422F4D
:10205000482B96959695969556C08091B404829596
:102060008695869583702091B504922F990F990FCC
:10207000492F482B22952695269523708091B604EA
:102080008170880F880F2DC08091B604869590913D
:10209000B704292F279522272795422F482B96955D
:1020A00032C08091B70482958F709091B804292F27
:1020B0002295207F422F482B92959F7024C08091BB
:1020C000B804881F8827881F2091B904922F990F80
:1020D000492F482B221F2227221F8091BA04837088
:1020E000880F582F522B22C08091BA04869586956E
:1020F0009091BB04292F2295220F220F207C422F82
:10210000482B96959695592F10C08091BB048295C7
:10211000869587702091BC04922F990F990F990F83
:10212000492F482B522F529556955770CA01089542
:102130008B3009F45BC08C3040F48930E9F08A3090
:10214000A8F5883009F0C7C00DC08D3009F47BC0F8
:102150008D3008F461C08E3009F491C08F3009F0E1
:10216000BAC0A6C06093B204972F97708091B30451
:10217000887F892B8093B304962F990F990F990F1D
:102180008091B3048770892B8093B304262F229506
:10219000269527708091B404807C972F9770990FB3
:1021A000990F990F822B892B8093B404962F9295C7
:1021B000990F990F907C8091B4048F73892B809331
:1021C000B404972F9295990F990F907C862F86953E
:1021D0008695892B8093B504972F96959695917047
:1021E0008091B6048E7F892B8093B604962F990F29
:1021F0008091B6048170892B8093B604262F221F0C
:102200002227221F8091B704807F972F9770990F04
:10221000822B892B8093B704962F9295907F809183
:10222000B7048F70892B8093B704262F22952F70C7
:102230008091B8048078972F97709295907F822B29
:10224000892B8093B804962F97959927979580911D
:10225000B8048F77892B8093B804972F9795992787
:102260009795862F8695892B8093B904972F9695FD
:1022700093708091BA048C7F892B8093BA04962F37
:10228000990F990F8091BA048370892B8093BA04B7
:10229000262F22952695269523708091BB04807E5B
:1022A000972F9770990F990F822B892B8093BB04DE
:1022B000962F9295990F907E8091BB048F71892BF8
:1022C0008093BB047295770F707E669566956695D0
:1022D000672B6093BC040895EF92FF920F931F93B6
:1022E0000F2EF0E0EF2EF0E0FF2EF8EC0F2FF1E4D0
:1022F0001F2FF02DE0926A01F0926B0100936C01A8
:1023000010936D010E94FF1860936601709367013E
:102310008093680190936901E0927201F0927301D9
:10232000009374011093750120E030E040E051E427
:102330000E94D02260936E0170936F0180937001B0
:1023400090937101E0927A01F0927B0100937C01FD
:1023500010937D0120E030E040E051E40E94D02263
:10236000609376017093770180937801909379015F
:102370001F910F91FF90EF9008950E94EE0C892B12
:1023800011F00E94E71360916601709167018091DE
:1023900068019091690120E030E040E050E00E9447
:1023A000A324181614F00E946C1160916E017091B4
:1023B0006F01809170019091710120E030E040E068
:1023C00050E00E94A324181614F00E946C11609132
:1023D000760170917701809178019091790120E0E8
:1023E00030E040E050E00E94A324181614F00E9450
:1023F0006C1186E691E00E94831620E030E040E018
:1024000050E00E94A32418161CF480E00E94610C86
:102410008EE691E00E94831620E030E040E050E03C
:102420000E94A32418161CF481E00E94610C86E728
:1024300091E00E94831620E030E040E050E00E94EE
:10244000A32418162CF482E00E94610C0E946C11E7
:102450000895FF920F931F93CF93DF9300E010E056
:10246000FF24F394812F0E941C02823021F08031DE
:1024700011F08331D9F4812F0E946F07C0E0D0E0C2
:10248000882311F0C1E0D0E0D093BE04C093BD0416
:10249000812F0E94270E90E0C817D90739F0F092DB
:1024A0008104812F6C2F0E94CC0E01E01F5F183138
:1024B000C9F6002311F00E948613802FDF91CF917F
:1024C0001F910F91FF9008951F93182F0E941C02D7
:1024D000843041F4812F0E94C505BC01812F0E94E8
:1024E00098100FC0823021F0803111F0833149F40F
:1024F000812F0E946F0760E0811161E0812F0E94AF
:10250000CC0E1F910895DF92EF92FF920F931F93CD
:10251000CF93DF9300E018E0DD24D394812F0E9455
:102520001C02843039F5812F0E94C505F82EE92E52
:10253000C82FD92FD093BE04C093BD04812F0E9411
:10254000FB0F9C019093C0048093BF04CE010A96B8
:10255000821793073CF0CE010A972817390754F4E5
:102560002A9744F0D0928104812F6F2D7E2D0E94F6
:10257000981001E01F5F103189F6002311F00E94CE
:10258000B313802FDF91CF911F910F91FF90EF90A8
:10259000DF900895EF92FF920F931F93CF93DF93F5
:1025A000E82EEB0183E00E94E4198EE18A95F1F7B1
:1025B00010E08EE1F82E80E00E94E4190EE18F2DEC
:1025C0008A95F1F71F5F1630B1F780E20E94E41997
:1025D000802F8A95F1F783EE0E94E419802F8A9567
:1025E000F1F78E2D0E94E419802F8A95F1F78E2D38
:1025F0008A5F0E94E419802F8A95F1F788810E94F2
:10260000E419802F8A95F1F789810E94E419802FBF
:102610008A95F1F78A810E94E419802F8A95F1F753
:102620008B810E94E419802F8A95F1F7DF91CF9179
:102630001F910F91FF90EF900895EF92FF920F93EB
:102640001F93182F062F8091280080688093280000
:1026500096E6E92E9EE0F92EC7010197F1F786E094
:102660006EE771E00E94CA12812F0E94E4191EE1F8
:10267000812F8A95F1F7802F0E94E4191A95F1F7BE
:10268000809128008F7780932800C7010197F1F788
:102690001F910F91FF90EF900895DF92EF92FF92BC
:1026A0000F931F93182FD62E072F80912800806834
:1026B0008093280026E6E22E2EE0F22EC701019735
:1026C000F1F787E06EE771E00E94CA12812F0E9445
:1026D000E4191EE1812F8A95F1F7802F0E94E419F9
:1026E000812F8A95F1F78D2D0E94E4191A95F1F743
:1026F000C7010197F1F7809128008F778093280018
:102700001F910F91FF90EF90DF9008950F931F930B
:1027100083E891E00E9410178091280080688093E0
:10272000280086E69EE00197F1F78CE163E971E00D
:102730000E94CA1210E00EE1812F0E94270E0E9413
:10274000E419802F8A95F1F71F5F1831A9F786E603
:102750009EE00197F1F7809128008F778093280001
:102760001F910F910895FF920F931F93809128005E
:1027700080688093280086E69EE00197F1F784E167
:1027800068E971E00E94CA1208E03EE1F32E802F52
:102790000E94FB0F182F892F0E94E4198F2D8A9514
:1027A000F1F7812F0E94E4198F2D8A95F1F70F5FC1
:1027B000003169F7809128008F778093280086E6A2
:1027C0009EE00197F1F71F910F91FF900895BF923E
:1027D000CF92DF92EF92FF920F931F93DF93CF93ED
:1027E0000F92CDB7DEB70E94EE0C7C0180912800DD
:1027F00080688093280086E69EE00197F1F78E2D91
:102800008B5F6EE771E00E94CA1281E10E94E419B9
:102810008EE18A95F1F700E010E06E010894C11C8A
:10282000D11C4EE1B42E0DC0C60161E070E00E94E3
:10283000F40C89810E94E4198B2D8A95F1F70F5FC2
:102840001F4F0E151F0580F3809128008F7780930E
:10285000280086E69EE00197F1F70F90CF91DF9177
:102860001F910F91FF90EF90DF90CF90BF90089550
:102870000E94FE1680912700806880932700809137
:1028800027008F7B80932700809128008F7780938B
:102890002800809128008064809328008091240083
:1028A0008B7F80932400809125008B7F809325006F
:1028B000809124008D7F80932400809125008D7F5E
:1028C0008093250080E060E00E94840A80E060E060
:1028D0000E94BB0A0E94180580E163EB75E10E942B
:1028E000181780E26FEF74E10E94181780E362E826
:1028F00074E10E9418170E94FE168DE991E00E9473
:10290000101708950F931F93CF93DF93EC0186E088
:102910008093C1048B859C85AD85BE85833623E677
:10292000920728E6A2072EE6B207F1F0843623E6E6
:10293000920728E6A2072EE6B20730F48F559D468F
:10294000A146B34679F41EC080372FE6920726E7EA
:10295000A20722E7B20709F443C083579346A8466B
:10296000B64701F180E046C0CE010E947A01482FAF
:10297000882321F4CE016091C1042FC0CE01609163
:10298000C10435C0CE010F960E944207882329F06A
:10299000CE016091C10441E02AC0CE016091C10422
:1029A00041E01BC00F851889CE010E94D403882303
:1029B00081F0802F612F0E94CC04882329F0CE0162
:1029C0006091C10442E013C0CE016091C10442E0B5
:1029D00004C0CE016091C10443E00E94911B09C074
:1029E0008F850E94810ACE016091C10443E00E945C
:1029F000B11B81E0DF91CF911F910F910895CF928C
:102A0000DF92EF92FF920F931F93CF93DF93EC012E
:102A100085E08093C1048B859C85AD85BE85833719
:102A200023E6920728E6A2072DE6B20771F1843764
:102A3000E3E69E07E8E6AE07EDE6BE0778F48536E6
:102A4000F5E69F07F0E7AF07F4E6BF0709F45CC0BF
:102A500083579146A346BD46B1F422C08337E1E6D1
:102A60009E07E3E6AE07E6E7BE07A1F18337F3E68C
:102A70009F07F8E6AF07F6E7BF07E9F08F559047E5
:102A8000A747B247C1F180E065C0CE010E94F102C4
:102A9000882309F05EC0CE016091C10440E057C0B8
:102AA000CE010E94DD02882309F053C0CE0160915F
:102AB000C10441E04CC0CE010E94D403882329F018
:102AC000CE016091C10442E00EC0CE016091C1040C
:102AD00042E03DC0CE010E949403882339F0CE012C
:102AE0006091C10445E20E94B11B33C0CE016091E8
:102AF000C10443E02CC089896F850E94840A8A89B9
:102B000068890E94BB0A25C08F85482F50E08889BC
:102B1000282F30E024173507B8F07E01EA0100E0E5
:102B200010E06901CC1ADD0A08C0CE01F701608906
:102B30000E94EB060F5F1F4F21960894E11CF11CC9
:102B40000C151D0590F305C0CE0165E044E00E9420
:102B5000911B81E0DF91CF911F910F91FF90EF903A
:102B6000DF90CF9008958F929F92AF92BF92CF92B5
:102B7000DF92EF92FF920F931F93DF93CF930F9209
:102B8000CDB7DEB74C0184E08093C104F4018385A6
:102B90009485A585B6858736F1E69F07F3E6AF07EE
:102BA000FDE6BF07B9F1883621E6920723E6A207C2
:102BB0002DE6B20778F48536E5E69E07E0E7AE0736
:102BC000E4E6BE0709F447C083579146A647B546D9
:102BD000B9F472C08F3522E7920725E6A20726E7EF
:102BE000B20709F460C08736E3E69E07E8E6AE0761
:102BF000E6E7BE0719F187569346A846BD4611F091
:102C000080E071C0F40187850E94B906F401808BD1
:102C100086E010C0840190E0892F99830E94B90654
:102C2000F801878799819F5F0F5F1F4F9831A1F748
:102C30008CE1F401818780E2878354C00E94230ED7
:102C4000C4010E945804882309F04CC0C40160915B
:102C5000C10440E025C0F401C7842C2D30E0D088A9
:102C6000AD2CBB2480E28783A216B306B0F07401BA
:102C7000890107C0C8010E949106F70186870F5F8E
:102C80001F4F0894E11CF11C0A151B0598F3F4E092
:102C9000DF0EDC18F401D18625C0C40164E041E0F8
:102CA0000E94911B1FC083E0F401878797E0908BFF
:102CB00083E1818B918716C080E2F40187838CE1E8
:102CC00081878401EE24FF24C7010E941807F801C0
:102CD00087870894E11CF11C0F5F1F4FF8E1EF1686
:102CE000F10491F781E00F90CF91DF911F910F9147
:102CF000FF90EF90DF90CF90BF90AF909F908F901C
:102D0000089581E008956F927F928F929F92AF9283
:102D1000BF92CF92DF92EF92FF920F931F93CF93C8
:102D2000DF93EC010E94FF187B018C01288139811F
:102D30004A815B810E940325882324F4E882F9827A
:102D40000A831B83C801B701288139814A815B81CD
:102D50000E949F223B014C01AC80BD80CE80DF8071
:102D6000A60195010E94A32418162CF0E0E070E063
:102D700080E060E016C0C801B701A40193010E9481
:102D80009F22A60195010E94D022688379838A83BD
:102D90009B83C401B301A60195010E949F22E62FE7
:102DA000692F2E2F372F482F562FB901CA01DF91D7
:102DB000CF911F910F91FF90EF90DF90CF90BF9038
:102DC000AF909F908F907F906F9008951F9390E0A9
:102DD00023E0880F991F2A95E1F784549E4F0E94A3
:102DE000831610E020E030E040E050E00E94A32491
:102DF00018160CF411E0812F1F910895089508957D
:102E0000E82FF0E0EF70F070E451FE4F80810895FC
:102E100082958F70ECEEF1E0E80FF11D808108954E
:102E200008950895089508950895089508950895BA
:102E300061157105F1F0803261F0803391F08031DD
:102E4000C1F481E08093E1047093E3046093E204B1
:102E5000089581E08093DE047093E0046093DF04C2
:102E6000089581E08093DB047093DD046093DC04BB
:102E7000089580E0089580E00895CF92DF92EF9268
:102E8000FF920F931F93CF93DF938C01EB01788117
:102E9000772339F160E023C0862F90E0FC01EE0F2C
:102EA000FF1FE80FF91FEE0FFF1FEC0FFD1F218121
:102EB000328143815481D8011B96CD90DD90ED90F5
:102EC000FC901E972C153D054E055F0539F40580D5
:102ED000F681E02DC801099581E004C06F5F671796
:102EE000D8F280E0DF91CF911F910F91FF90EF908A
:102EF000DF90CF9008959091C204292F30E0F9011E
:102F0000EE0FFF1FE20FF31FEE53FB4F818373831E
:102F100062839F5F9093C2040895CF93DF93EC0187
:102F20001092E4048091DB04882371F0E091DC04CA
:102F3000F091DD04CE010995882331F4CE01609132
:102F4000E40443E00E94911BDF91CF910895CF9359
:102F5000DF93EC011092E4048091DE04882371F089
:102F6000E091DF04F091E004CE010995882331F46B
:102F7000CE016091E40442E00E94911BDF91CF9169
:102F8000089560E040E00E94911B08950F931F9305
:102F9000DF93CF9300D00F92CDB7DEB78C011092A4
:102FA000E404FC0183859485A585B6858F35F0E71B
:102FB0009F07FEE6AF07F7E6BF0739F08F559E463D
:102FC000AD46B34709F056C00FC080E2F8018783D1
:102FD0008CEF91E00E947E1BF801638774878587E0
:102FE000968784E0818758C0F8018185843041F458
:102FF00085E0818780E287838091C20487874CC007
:103000008530A1F5F80197858091C204981750F595
:1030100084E0818780E28783892F90E0FC01EE0FB6
:10302000FF1FE80FF91FDE011196ED53FB4F83E000
:1030300001900D928150E1F72A813B8190E009C017
:10304000A00FB11F1F96EC93F80181858F5F8187D8
:103050009F5FA92FB0E0F901EA0FFB1FE081EE238B
:1030600079F71AC0C80160E045E014C0C80160E00B
:1030700044E010C08091E104882371F0E091E20403
:10308000F091E304C8010995882331F4C8016091E7
:10309000E40441E00E94911B0F900F900F90CF919C
:1030A000DF911F910F910895EF92FF920F931F935D
:1030B000CF93DF937B01EA0108810F3011F480E0A8
:1030C00016C010E00E947E1BF801EE0FFF1FE00FFC
:1030D000F11FEE0FFF1FEC0FFD1F618372838383CF
:1030E0009483F682E58288818F5F888381E0DF9117
:1030F000CF911F910F91FF90EF900895CF93DF93A1
:10310000EC018F81803171F0813118F4882331F026
:1031100015C0803259F0803389F40CC0CE0160E0D4
:1031200040E00FC0CE010E94C6170DC0CE010E9424
:10313000A71709C0CE010E948D1705C0CE0160E01F
:103140004FE70E94911B80E888870E94FF186093D8
:10315000E5047093E6048093E7049093E804DF911C
:10316000CF910895EF92FF920F931F93E090E504A3
:10317000F090E6040091E7041091E8040E94FF1823
:103180009B01AC01C801B7010E94A324181664F486
:1031900080E090E0A0E0B0E08093E5049093E60446
:1031A000A093E704B093E8042091E5043091E6048D
:1031B0004091E7045091E804B901CA011F910F91B1
:1031C000FF90EF900895AC0120E030E09EE112C046
:1031D000FA01E20FF31FE0818091C00085FFFCCF70
:1031E000E093C600892F8A95F1F7892F8A95F1F728
:1031F0002F5F3F4F2617370758F3CB010895AF9243
:10320000BF92CF92DF92EF92FF920F931F93A09005
:103210008400B0908500CC24DD248091E904909155
:10322000EA04A091EB04B091EC04A80EB91ECA1EEA
:10323000DB1E9501A60160E070E080E090E00E9456
:10324000772020E030E040E951E40E94F7237B0141
:103250008C016091ED047091EE048091EF049091E7
:10326000F0040E94152620E030E040E85FE40E9470
:10327000FD2220E030E040E951E40E94F7239B0169
:10328000AC01C801B7010E94D0221F910F91FF909D
:10329000EF90DF90CF90BF90AF9008951092E90427
:1032A0001092EA041092EB041092EC0480918000DA
:1032B0008C7F8093800080918100887F85608093DF
:1032C000810080916F00816080936F000895AF92BC
:1032D000BF92CF92DF92EF92FF920F931F93A09035
:1032E0008400B0908500CC24DD248091E904909185
:1032F000EA04A091EB04B091EC04A80EB91ECA1E1A
:10330000DB1E9501A60160E070E080E090E01F9177
:103310000F91FF90EF90DF90CF90BF90AF90089506
:103320001F920F920FB60F9211242F933F934F933A
:103330005F938F939F93AF93BF932091E904309154
:10334000EA044091EB045091EC04DA01C901805089
:103350009040AF4FBF4F8093E9049093EA04A0934D
:10336000EB04B093EC0482179307A407B507F8F4B5
:103370001092E9041092EA041092EB041092EC040B
:1033800010928500109284008091ED049091EE04DB
:10339000A091EF04B091F0040196A11DB11D80939E
:1033A000ED049093EE04A093EF04B093F004BF916A
:1033B000AF919F918F915F914F913F912F910F907E
:1033C0000FBE0F901F901895982F8091C00085FF19
:1033D000FCCF9093C6008EE18A95F1F70895982F5F
:1033E0008091C900882369F41092CD0089E0809310
:1033F000CC0086E08093CA0088E08093C9001092D8
:10340000C8008091C80085FFFCCF9093CE008EE16C
:103410008A95F1F708950E94EF1908959093C500D9
:103420008093C40086E28093C20088E98093C10043
:103430001092C00008951092CD0089E08093CC00D6
:1034400086E08093CA0088E08093C9001092C8008B
:1034500008951F920F920FB60F9211242F933F934E
:103460004F935F936F937F938F939F93AF93BF938C
:10347000EF93FF93DF93CF930F92CDB7DEB7F8941E
:103480006091C60089E695E0AE014F5F5F4F0E94F4
:10349000771E78940F90CF91DF91FF91EF91BF91BC
:1034A000AF919F918F917F916F915F914F913F91DC
:1034B0002F910F900FBE0F901F901895F8941092B7
:1034C000C50084E08093C40086E28093C20088E94E
:1034D0008093C1001092C00089E695E061EF74E02E
:1034E00028E730E040E050E00E94C71F789408953C
:1034F00069E675E00E94021E0895FF920F931F93E4
:10350000CF93DF93EC01F62E0E94781A882309F4FA
:1035100066C0FF2081F08B859C85AD85BE858F556B
:103520009047A747B24739F081E092E00E94101718
:10353000CE010E9415178E010F5F1F4F82E492E0AB
:10354000B8010E94D11B813039F08CE392E0B801C0
:103550000E94D11B813069F5CE010E947E1890E057
:103560000BC0E92FF0E0DE01AE0FBF1FEE5BFD4F99
:10357000808111968C939F5F963098F390937C0591
:10358000CE010E94171BCE010E94F31CFF2031F1D7
:103590008B859C85AD85BE858F559047A747B247E3
:1035A000E9F086E092E00E941017CE010E94151704
:1035B00015C0FF2099F080E192E00E941017C80129
:1035C00066E070E00E9416178DE292E00E941217EA
:1035D00082E492E066E070E00E94161781E0DF91DD
:1035E000CF911F910F91FF9008950E944E190E9454
:1035F0005E1A81E168E472E00E947B170895DC01A5
:1036000020E030E090E007C0FD01E90FF11D80816E
:10361000280F311D9F5F9A30B8F390937D0590E09D
:103620001A968C91821709F491E0892F0895DC0194
:1036300020E030E090E007C0FD01E90FF11D80813E
:10364000280F311D9F5F9A30B8F390937D051A962D
:103650002C930895FC016187862F90E00895FC016A
:10366000218530E0255F3F4FC9010895FC01818528
:1036700090E00895CF93DF93EC0120E008C0FB01B8
:10368000EA0FFB1FAC0FBD1F8C9180832F5FA22F11
:10369000B0E0898590E00A968A179B0784F7DF914E
:1036A000CF910895EF92FF920F931F93E62EFF2480
:1036B00000E010E08701FF24EE2490E0A0E0B0E0FD
:1036C000B82FAA2799278827E80EF91E0A1F1B1F63
:1036D00050E060E070E0762F652F542F4427E40E11
:1036E000F51E061F171FE20EF11C011D111DB7016B
:1036F000C8011F910F91FF90EF900895FC01838105
:1037000080938105828180938005818180937F05EC
:10371000608160937E05782F80918005909181056E
:103720000895EF92FF920F931F938C01F62EE42ED3
:10373000FC01178289E592E00E947E1BF8016387F5
:1037400074878587968780858078808786E08187E3
:10375000F786E08A86E090E01F910F91FF90EF904E
:103760000895EF92FF920F931F938C01F62EE42E93
:10377000FC0117828EE592E00E947E1BF8016387B0
:1037800074878587968780858078808786E08187A3
:10379000F786E08A86E090E01F910F91FF90EF900E
:1037A0000895AC0110927D0520E012C0E22FF0E0F8
:1037B000322F3F5FDA01AE0FBF1FE60FF71F9C915C
:1037C0008081981721F020937D0580E00895232FB4
:1037D000263060F320937D0581E008952F923F927B
:1037E0004F925F926F927F928F929F92AF92BF9211
:1037F000CF92DF92EF92FF920F931F93DF93CF93BD
:1038000000D000D0CDB7DEB78C015A016B01DC01CE
:1038100018962D903D904D905C901B97C201B10180
:1038200020E030E040E050E00E94A32418160CF0A5
:1038300097C0C601B501F8012485358546855785B1
:103840000E949F223B014C01A20191010E9403258D
:1038500088230CF077C0C401B30120E030E040E0E1
:1038600050E00E94A32418160CF06CC0D801AD9053
:10387000BD90CD90DC90139714968D919D910D90F5
:10388000BC91A02D89839A83AB83BC83C601B5010B
:1038900029813A814B815C810E949F227B018C01AE
:1038A000C201B101A40193010E949F22A2019101D2
:1038B0000E94F7239B01AC0160E070E080E89FE389
:1038C0000E949F229B01AC01C801B7010E94FD220A
:1038D0009B01AC0169817A818B819C810E94D022FD
:1038E0003B014C01C601B50129813A814B815C81C4
:1038F0000E94A32418169CF4C401B301A6019501EB
:103900000E94A3241816ECF1C401B30129813A8165
:103910004B815C810E94032587FD33C030C0C40108
:10392000B301A60195010E94032587FD2AC0C401A9
:10393000B30129813A814B815C810E94A32418162E
:1039400004F11DC080E090E0A0E0B0E0F8018087C5
:103950009187A287B387A080B180C280D38011C035
:10396000D801AD90BD90CD90DC9080E090E0A0E0DB
:10397000B0E0F80180879187A287B38702C0640115
:103980005301B501C6010F900F900F900F90CF918A
:10399000DF911F910F91FF90EF90DF90CF90BF903C
:1039A000AF909F908F907F906F905F904F903F90DF
:1039B0002F900895FC0180914202818380914302FF
:1039C0008283809144028383809145028483809125
:1039D0004602858380914702868383E08083CF01FE
:1039E0000E94171B08950F931F938C01FC01808583
:1039F00080688087C8010E94DA1CC8010E942F1BC2
:103A0000BC01C8010E94E3181F910F9108950F9304
:103A10001F93FC018B01CA0120E030E0BF01A90126
:103A200098010E94071FCB011F910F9108950E94DA
:103A3000711ECB010895AF92BF92CF92DF92EF92A9
:103A4000FF920F931F93DF93CF930F92CDB7DEB703
:103A50008C017B015C016E010894C11CD11CC50165
:103A600041E050E060E070E097010E94661FF801BD
:103A700080818330A9F0F894C701B60121E030E0DD
:103A800040E050E00E94071F789483E692E00E9495
:103A90001017F801608170E080E090E00E94131739
:103AA000C7010E94711E672B21F0F80180818330CD
:103AB000B1F60F90CF91DF911F910F91FF90EF9092
:103AC000DF90CF90BF90AF9008958F929F92BF925A
:103AD000CF92DF92EF92FF920F931F93DF93CF93DA
:103AE0000F92CDB7DEB78C017B01CB010E94711E16
:103AF000672B09F475C0C801B7010E941B1DC701DF
:103B00000E94711E6F30710508F46AC0C02EB12E7C
:103B1000C8014BE050E060E070E097010E94661F32
:103B20004E010894811C911CF8018081833041F47E
:103B3000C8010E94FF1A882319F0DD24D3942BC0FA
:103B4000F8018081833019F08DE792E007C0C80149
:103B50000E94FF1A882321F480E992E00E94101746
:103B6000F801608170E080E090E00E941317F89403
:103B7000C701B40121E030E040E050E00E94071F9F
:103B800078948C2D9B2D4BE050E060E070E0970125
:103B90000E94661FDD24C7010E94711E672B29F455
:103BA000C801B7010E941B1D1BC0DD2009F4BCCF5A
:103BB000F8018185082F10E0055F1F4FC7010E94A3
:103BC000711E6017710760F0F894980140E050E0B2
:103BD000C7016C2D7B2D0E94071F789481E001C0E6
:103BE00080E00F90CF91DF911F910F91FF90EF90A8
:103BF000DF90CF90BF909F908F90089541E00E94FA
:103C0000651D089540E00E94651D0895F89481E0C7
:103C10000895789481E00895CF93DF93EC0120E03C
:103C200030E040E050E009C0EC81FD81E20FF31F7D
:103C300010822F5F3F4F4F4F5F4F88819981AA813C
:103C4000BB81281739074A075B0770F32093820569
:103C5000309383054093840550938505DF91CF9180
:103C60000895FC01A481B58186819781A80FB91FB1
:103C70008C910895FC012285338566817781261712
:103C8000370729F416861786108A118A25C062170D
:103C9000730744F4261B370BC901AA2797FDA0958B
:103CA000BA2F16C0C901AA2797FDA095BA2F208167
:103CB000318142815381820F931FA41FB51F9B0145
:103CC000442737FD4095542F821B930BA40BB50B53
:103CD00086879787A08BB18B668577858089918948
:103CE0000895FC0166857785808991890895EF9212
:103CF000FF920F931F93CF93DF93EC018A0188818A
:103D00009981AA81BB810297A109B1092E853F85BE
:103D100048895989281739074A075B0738F083E033
:103D2000F8018083EE24FF2487013BC0F894EC81E6
:103D3000FD818A859B85E80FF91F60838A859B85B5
:103D4000AC85BD850196A11DB11D8A879B87AC8777
:103D5000BD87288139814A815B8182179307A40737
:103D6000B50721F41A861B861C861D86CE010E948B
:103D70003A1EF80110827894EE24FF2487012E85E4
:103D80003F854889598988819981AA81BB81821799
:103D90009307A407B50728F081E0E82EF12C012D48
:103DA000112DB701C801DF91CF911F910F91FF90A5
:103DB000EF9008951F93CF93DF93EC01F8948E81D9
:103DC0009F81A885B985EC81FD81E80FF91F1081DD
:103DD0000196A11DB11D8E839F83A887B987288175
:103DE00039814A815B8182179307A407B50721F4C3
:103DF0001E821F8218861986FB011082CE010E9446
:103E00003A1E7894812FDF91CF911F9108952F92C0
:103E10003F924F925F926F927F928F929F92AF925A
:103E2000BF92CF92DF92EF92FF920F931F93DF9397
:103E3000CF930F92CDB7DEB73C0149015A01FC0187
:103E4000468457846B01EE24FF2487011E010894E9
:103E5000211C311C18C0141415045CF4C301B101F9
:103E60000E94DA1E982F89818823C1F7F60190837A
:103E700002C0F60110820894E11CF11C011D111D05
:103E80000894C11CD11CE814F9040A051B0518F399
:103E9000E0928205F09283050093840510938505D6
:103EA000B701C8010F90CF91DF911F910F91FF9043
:103EB000EF90DF90CF90BF90AF909F908F907F90CA
:103EC0006F905F904F903F902F9008958F929F92A8
:103ED000AF92BF92CF92DF92EF92FF920F931F9318
:103EE000CF93DF935A016B01B901D9011696ED907A
:103EF000FD900D911C9119971E968D909C901F9787
:103F0000EC0120E030E040E050E025C01814190436
:103F1000E4F4DB011496ED91FC911597EE0DFF1D75
:103F2000808188830894E11CF11C011D111D8D9175
:103F30009D910D90BC91A02DE816F9060A071B076C
:103F400029F4EE24FF24870101C018822F5F3F4F20
:103F50004F4F5F4F21962A153B054C055D05B0F28A
:103F60002093820530938305409384055093850503
:103F7000B901CA01DF91CF911F910F91FF90EF908E
:103F8000DF90CF90BF90AF909F908F900895CF9289
:103F9000DF92EF92FF920F931F93CF93DF93EC0189
:103FA0006B0179018A01009719F06115710541F4DF
:103FB00082EA92E00E941017C801B7010E9413170D
:103FC000DD82CC82E882F9820A831B831E821F82F3
:103FD000188619861A861B861C861D861A8ACE01AB
:103FE0000E940C1EDF91CF911F910F91FF90EF90D7
:103FF000DF90CF900895CF92DF92EF92FF920F93D0
:104000001F93CF93DF93EC016B0180EC92E00E9451
:1040100012176E857F85888999890E94131786ED0E
:1040200092E00E9412174E855F85688979894F5FFB
:104030005F4F6F4F7F4FC6019E010E94661FEE24A7
:10404000FF24870112C0F601EE0DFF1D608170E0B4
:1040500080E090E00E94131780EE92E00E94121719
:104060000894E11CF11C011D111D8E859F85A889F6
:10407000B989E816F9060A071B0728F382EE92E0D1
:104080000E941217DF91CF911F910F91FF90EF9037
:10409000DF90CF900895EF92FF920F931F937B01D3
:1040A0008C0120E030E040E05FE40E94D3248823CC
:1040B0008CF0C801B70120E030E040E05FE40E94EE
:1040C0009F220E94C1259B01AC01205030404040FE
:1040D000504806C0C801B7010E94C1259B01AC0130
:1040E000B901CA011F910F91FF90EF900895A2E0CE
:1040F000B0E0EDE7F0E20C940329122FB32EA42ECA
:10410000952E862E372E282E9A83C22ED32EE42E5D
:10411000F52EA701960160E070E080E090E02117A5
:10412000A1F43B1591F44A1581F4591571F4681501
:1041300061F4731551F4821541F4AA819A1729F498
:10414000C701B6010E941526AAC0212F3B2D4A2D7A
:10415000592D682D732D822D9A8100E20E948E26A2
:10416000C901DA018030E0E09E07E1E0AE07E0E05F
:10417000BE0780F48F3F9105A105B10531F028F00D
:1041800028E030E040E050E016C020E030E040E0C1
:1041900050E011C08030F0E09F07F0E0AF07F1E0A1
:1041A000BF0728F028E130E040E050E004C020E103
:1041B00030E040E050E0022E04C0B695A7959795F8
:1041C00087950A94D2F7FC01E251FD4F80812901C5
:1041D0003A01480E511C611C711C4982212F3B2D54
:1041E0004A2D592D682D732D822D9A81042D0E9400
:1041F0008E26C901DA014C015D0180E290E084194C
:10420000950904C0CC0CDD1CEE1CFF1C8A95D2F76E
:10421000C114D104E104F10441F081E090E0A0E098
:10422000B0E0882A992AAA2ABB2A90E249165104AA
:104230006104710459F40F2EF0E0EF2EF0E0FF2E30
:10424000F0E80F2FFFE41F2FF02D21C0AFE14A1639
:1042500051046104710459F40F2EF0E0EF2EF0E0E8
:10426000FF2EF0E00F2FFFE41F2FF02D10C061E0B4
:1042700070E080E090E0098004C0660F771F881F1F
:10428000991F0A94D2F70E9463257B018C01C50116
:10429000B4010E941526A80197010E94FD222296D2
:1042A000E2E10C941F29A0E0B0E0E9E5F1E20C9412
:1042B0000329DC012B01FA019C91923008F439C1E9
:1042C000EB018881823008F433C1943069F4843082
:1042D00009F02FC111969C9111978981981709F4C3
:1042E00028C1A6EEB2E025C1843009F421C1823094
:1042F000A9F4923009F01DC19A01AD0188E0EA01EC
:104300000990AE01E90109929E018150C1F7E201D5
:10431000898111969C918923818308C1923009F487
:1043200007C112962D903C901397EB018A819B81D7
:104330001496AD90BD90CD90DC901797EC80FD80E9
:104340000E811F819101281B390BB90137FF04C071
:1043500066277727621B730B603271050CF061C012
:10436000121613066CF537014801062E04C0969408
:104370008794779467940A94D2F721E030E040E084
:1043800050E004C0220F331F441F551F6A95D2F717
:1043900021503040404050402E213F2140235123A6
:1043A000211531054105510521F021E030E040E0C3
:1043B00050E079018A01E628F728082919293CC02C
:1043C000232BD1F1260E371E35014601062E04C0DF
:1043D00096948794779467940A94D2F721E030E01A
:1043E00040E050E004C0220F331F441F551F6A9560
:1043F000D2F721503040404050402A213B214C21EF
:104400005D21211531054105510521F021E030E004
:1044100040E050E059016A01A628B728C828D928E9
:104420000BC0821593052CF01C01AA24BB24650146
:1044300003C0EE24FF24870111969C91D2011196AE
:104440008C91981709F445C0992339F0A801970178
:104450002A193B094C095D0906C0A60195012E19D0
:104460003F09400B510B57FD08C011823382228255
:1044700024833583468357831DC081E08183338243
:10448000228288279927DC01821B930BA40BB50B92
:1044900084839583A683B7830DC0220F331F441FE7
:1044A000551F2483358346835783828193810197E7
:1044B000938382832481358146815781DA01C90142
:1044C0000197A109B1098F5F9F4FAF4FBF4328F3F9
:1044D0000BC0918333822282EA0CFB1C0C1D1D1D34
:1044E000E482F5820683178383E08083248135810B
:1044F0004681578157FF1AC0C901AA2797FDA09589
:10450000BA2F81709070A070B0705695479537950E
:104510002795822B932BA42BB52B84839583A6837D
:10452000B78382819381019693838283DF0101C0E7
:10453000D201CD01CDB7DEB7E2E10C941F29A0E294
:10454000B0E0E5EAF2E20C940F2969837A838B8369
:104550009C832D833E834F835887E9E0EE2EF12C18
:10456000EC0EFD1ECE010196B7010E9432288E018D
:104570000F5E1F4FCE010596B8010E9432288A892E
:1045800091E089278A8BC701B801AE01475E5F4F72
:104590000E9453210E945C27A096E6E00C942B29F0
:1045A000A0E2B0E0E6EDF2E20C940F2969837A8391
:1045B0008B839C832D833E834F835887F9E0EF2EB6
:1045C000F12CEC0EFD1ECE010196B7010E9432289F
:1045D0008E010F5E1F4FCE010596B8010E94322852
:1045E000C701B801AE01475E5F4F0E9453210E9490
:1045F0005C27A096E6E00C942B29A0E2B0E0E3E073
:10460000F3E20C94032969837A838B839C832D8343
:104610003E834F835887CE010196BE01675F7F4F6F
:104620000E943228CE010596BE016F5E7F4F0E9428
:1046300032289985923088F089898230C8F0943088
:1046400019F4823051F404C0843029F4923081F49A
:1046500086EE92E0C6C0923049F420E09A858A89BD
:10466000981321E02A87CE010996BBC0823049F415
:1046700020E09A858A89981321E02A8BCE01419601
:10468000B0C02D843E844F8458886D887E888F8882
:10469000988CEE24FF248701AA24BB24650140E006
:1046A00050E060E070E0E0E0F0E0C1018170907007
:1046B000892BE9F0E60CF71C081D191D9A01AB01C6
:1046C0002A0D3B1D4C1D5D1D80E090E0A0E0B0E098
:1046D000E614F7040805190520F481E090E0A0E055
:1046E000B0E0BA01A901480F591F6A1F7B1FAA0C2D
:1046F000BB1CCC1CDD1C97FE08C081E090E0A0E054
:10470000B0E0A82AB92ACA2ADB2A3196E032F1059C
:1047100049F0660C771C881C991C56944794379472
:104720002794C3CFFA85EA892B893C898B859C85A0
:10473000280F391F2E5F3F4F17C0CA01817090703C
:10474000892B61F016950795F794E79480E090E047
:10475000A0E0B0E8E82AF92A0A2B1B2B769567958A
:10476000579547952F5F3F4F77FDE7CF0CC0440F1C
:10477000551F661F771F17FD4160EE0CFF1C001FC1
:10478000111F21503040403090E0590790E06907F8
:1047900090E4790760F32B8F3C8FDB01CA018F77A0
:1047A0009070A070B07080349105A105B10561F4DE
:1047B00047FD0AC0E114F1040105110529F0405C30
:1047C0005F4F6F4F7F4F40781A8EFE1711F081E0D8
:1047D0008A8F4D8F5E8F6F8F78A383E0898FCE0194
:1047E00049960E945C27A096E2E10C941F29A8E15B
:1047F000B0E0EDEFF3E20C940B2969837A838B83AD
:104800009C832D833E834F835887B9E0EB2EF12C98
:10481000EC0EFD1ECE010196B7010E9432288E01DA
:104820000F5E1F4FCE010596B8010E9432282985E0
:10483000223008F47EC03989323010F4B8017CC0CF
:104840008A859A8989278A87243011F0223031F4A9
:10485000231709F06EC066EE72E06EC0343039F492
:104860001D861E861F86188A1C861B8604C0323051
:1048700021F484E08987B7015FC02B853C858B8953
:104880009C89281B390B3C872B87ED84FE840F8580
:104890001889AD88BE88CF88D88CEA14FB040C0533
:1048A0001D0540F4EE0CFF1C001F111F215030406D
:1048B0003C872B8720E030E040E050E080E090E053
:1048C000A0E0B0E460E070E0EA14FB040C051D0514
:1048D00040F0282B392B4A2B5B2BEA18FB080C09DC
:1048E0001D09B695A79597958795EE0CFF1C001F9F
:1048F000111F6F5F7F4F6F31710531F7DA01C90109
:104900008F779070A070B07080349105A105B105CB
:1049100061F427FD0AC0E114F1040105110529F035
:10492000205C3F4F4F4F5F4F20782D873E874F874A
:10493000588BBE01675F7F4FCB010E945C27689652
:10494000EAE00C942729A8E1B0E0E9EAF4E20C944B
:104950000F2969837A838B839C832D833E834F83C6
:10496000588789E0E82EF12CEC0EFD1ECE01019651
:10497000B7010E9432288E010F5E1F4FCE010596AF
:10498000B8010E9432288985823040F089898230BE
:1049900028F0C701B8010E94AA2801C08FEF6896CD
:1049A000E6E00C942B29A8E1B0E0E9EDF4E20C94E8
:1049B0000F2969837A838B839C832D833E834F8366
:1049C000588789E0E82EF12CEC0EFD1ECE010196F1
:1049D000B7010E9432288E010F5E1F4FCE0105964F
:1049E000B8010E9432288985823040F0898982305E
:1049F00028F0C701B8010E94AA2801C08FEF68966D
:104A0000E6E00C942B29A8E1B0E0E9E0F5E20C9493
:104A10000F2969837A838B839C832D833E834F8305
:104A2000588789E0E82EF12CEC0EFD1ECE01019690
:104A3000B7010E9432288E010F5E1F4FCE010596EE
:104A4000B8010E9432288985823040F089898230FD
:104A500028F0C701B8010E94AA2801C081E0689629
:104A6000E6E00C942B29A8E1B0E0E9E3F5E20C9430
:104A70000F2969837A838B839C832D833E834F83A5
:104A8000588789E0E82EF12CEC0EFD1ECE01019630
:104A9000B7010E9432288E010F5E1F4FCE0105968E
:104AA000B8010E9432288985823040F0898982309D
:104AB00028F0C701B8010E94AA2801C081E06896C9
:104AC000E6E00C942B29A8E0B0E0E9E6F5E20C94CE
:104AD0000C299B01AC0183E08983DA01C901882795
:104AE000B7FD83959927AA27BB27B82E2115310535
:104AF0004105510519F482E089833AC08823A9F061
:104B0000203080E0380780E0480780E8580729F423
:104B100060E070E080E09FEC30C0EE24FF2487016D
:104B2000E21AF30A040B150B02C079018A018EE127
:104B3000C82ED12CDC82CB82ED82FE820F831887B7
:104B4000C801B7010E940D2701971816190684F4B1
:104B5000082E04C0EE0CFF1C001F111F0A94D2F790
:104B6000ED82FE820F831887C81AD90ADC82CB82B5
:104B7000BA82CE0101960E945C272896E9E00C9447
:104B80002829ACE0B0E0E7ECF5E20C941329698346
:104B90007A838B839C83CE010196BE016B5F7F4F2E
:104BA0000E9432288D81823061F1823050F1843050
:104BB00021F48E81882351F12EC02F81388537FD55
:104BC00020C06E812F3131051CF06623F9F023C01F
:104BD0008EE190E0821B930B29853A854B855C859D
:104BE00004C056954795379527958A95D2F7662341
:104BF000B1F050954095309521953F4F4F4F5F4F05
:104C00000EC020E030E040E050E009C02FEF3FEF61
:104C10004FEF5FE704C020E030E040E050E8B9012A
:104C2000CA012C96E2E00C942F29A8E0B0E0EBE159
:104C3000F6E20C940B297B018C016115710581054D
:104C4000910519F482E0898360C083E089838EE155
:104C5000C82ED12CDC82CB82ED82FE820F83188796
:104C6000C801B7010E940D27FC013197F7FF3BC037
:104C7000222733272E1B3F0B57016801022E04C049
:104C8000D694C794B794A7940A94D2F740E050E022
:104C900060E070E081E090E0A0E0B0E004C0880F48
:104CA000991FAA1FBB1F2A95D2F70197A109B10925
:104CB0008E219F21A023B1230097A105B10521F0EA
:104CC00041E050E060E070E04A295B296C297D29D1
:104CD0004D835E836F8378878EE190E08E1B9F0B00
:104CE0009C838B8312C0309781F00E2E04C0EE0C93
:104CF000FF1C001F111F0A94D2F7ED82FE820F8362
:104D00001887CE1ADF0ADC82CB821A82CE01019686
:104D10000E945C272896EAE00C942729EF92FF92E4
:104D20000F93DF93CF93CDB7DEB760970FB6F894AC
:104D3000DEBF0FBECDBFA82F002309F461C07E01E6
:104D40000894E11CF11C88E0F70111928A95E9F7BB
:104D500029833A834B835C836D837E83AF839887FB
:104D600080E2801BE82FFF27E7FDF0954D815E81F3
:104D70006F817885181684F01D861E861F86188A16
:104D8000882799278E1B9F0B04C0769567955795AA
:104D900047958A95D2F728C0202F332727FD3095D5
:104DA000DB01CA01022E04C0B695A7959795879599
:104DB0000A94D2F78D879E87AF87B88B04C0440FC3
:104DC000551F661F771FEA95D2F789819A81AB81BB
:104DD000BC8104C0B695A795979587952A95D2F77B
:104DE000482B592B6A2B7B2B49875A876B877C87EB
:104DF00029853A854B855C856D857E85AF8598894B
:104E00008A2F60960FB6F894DEBF0FBECDBFCF914C
:104E1000DF910F91FF90EF900895EF92FF920F9323
:104E20001F937B018C0180E0E81680E0F80681E0AA
:104E3000080780E0180788F48FEFE816F1040105F1
:104E4000110531F028F088E090E0A0E0B0E017C054
:104E500080E090E0A0E0B0E012C080E0E81680E0E2
:104E6000F80680E0080781E0180728F088E190E064
:104E7000A0E0B0E004C080E190E0A0E0B0E020E27B
:104E800030E040E050E0281B390B4A0B5B0B04C0BC
:104E900016950795F794E7948A95D2F7F701E251B2
:104EA000FD4F8081281B310941095109C9011F911A
:104EB0000F91FF90EF900895DF92EF92FF920F9382
:104EC0001F93FC01E480F58006811781D1808081E9
:104ED000823058F480E090E0A0E1B0E0E82AF92ABE
:104EE0000A2B1B2BEFEFF0E0A6C0843009F49EC024
:104EF000823019F4E0E0F0E09BC0E114F104010518
:104F0000110519F4E0E0F0E096C0628173819FEF33
:104F1000623879070CF05BC022E83FEF261B370BA5
:104F20002A3131052CF020E030E040E050E02AC08A
:104F3000B801A701022E04C076956795579547954D
:104F40000A94D2F781E090E0A0E0B0E004C0880FBE
:104F5000991FAA1FBB1F2A95D2F70197A109B10972
:104F60008E219F21A023B1230097A105B10521F037
:104F700081E090E0A0E0B0E09A01AB01282B392B52
:104F80004A2B5B2BDA01C9018F779070A070B0704B
:104F900080349105A105B10539F427FF09C0205CD3
:104FA0003F4F4F4F5F4F04C0215C3F4F4F4F5F4F0C
:104FB000E0E0F0E02030A0E03A07A0E04A07A0E4FB
:104FC0005A0710F0E1E0F0E079018A0127C060386B
:104FD000710564F5FB01E158FF4FD801C7018F77D8
:104FE0009070A070B07080349105A105B10539F4BE
:104FF000E7FE0DC080E490E0A0E0B0E004C08FE3E5
:1050000090E0A0E0B0E0E80EF91E0A1F1B1F17FF9A
:1050100005C016950795F794E794319687E01695A5
:105020000795F794E7948A95D1F705C0EFEFF0E084
:10503000EE24FF2487016E2F679566276795902FD2
:105040009F77D794DD24D7948E2F8695492F462BB2
:10505000582F5D29B701CA011F910F91FF90EF9062
:10506000DF900895FC01DB01408151812281622F94
:105070006F7770E0221F2227221F9381892F880FCC
:10508000822B282F30E0991F9927991F11969C9306
:10509000119721153105A9F54115510561057105D6
:1050A00011F482E037C082E89FEF13969C938E93B1
:1050B00012979A01AB0167E0220F331F441F551F5F
:1050C0006A95D1F783E08C930DC0220F331F441FE4
:1050D000551F12968D919C911397019713969C934F
:1050E0008E931297203080E0380780E0480780E4F4
:1050F000580758F314962D933D934D935C9317974F
:1051000008952F3F310579F4411551056105710569
:1051100019F484E08C93089564FF03C081E08C93BC
:1051200012C01C9210C02F57304013963C932E9300
:10513000129783E08C9387E0440F551F661F771FFB
:105140008A95D1F7706414964D935D936D937C931B
:10515000179708951F93DC01FB019C91923008F48E
:1051600047C08081823008F443C0943051F41196D6
:105170001C91843099F58181682F70E0611B710961
:105180003FC0843021F0923031F48230B9F1818116
:10519000882389F12DC011961C9111978230F1F06E
:1051A00081811817D9F412962D913C911397828121
:1051B00093818217930794F028173907BCF014964F
:1051C0008D919D910D90BC91A02D248135814681BA
:1051D0005781281739074A075B0718F4112341F054
:1051E0000AC082179307A407B50740F4112319F0EA
:1051F00061E070E005C06FEF7FEF02C060E070E03B
:10520000CB011F9108952F923F924F925F926F9220
:105210007F928F929F92AF92BF92CF92DF92EF9246
:10522000FF920F931F93CF93DF93CDB7DEB7CA1BC7
:10523000DB0B0FB6F894DEBF0FBECDBF09942A88F2
:10524000398848885F846E847D848C849B84AA849A
:10525000B984C884DF80EE80FD800C811B81AA8127
:10526000B981CE0FD11D0FB6F894DEBF0FBECDBFF2
:08527000ED010895F894FFCF51
:105278005265736574696E67206173796E63207413
:10528800696D652C207761733D002069733D0000CE
:105298000000000000F041496E746572706F6C6127
:1052A8007465206F7574206F6620626F756E647305
:1052B8002120676F743D00206F6E2074696D653D15
:1052C80000206F6E206368616E3D000101FF0000E1
:1052D800000000002041000000000000C84100005C
:1052E80000410000C841000080410000C8416763D8
:1052F80068760050757368696E67206469676974B9
:10530800616C006461736E006161736E0023232316
:105318005374617274696E672041565220496E2039
:105328004465627567204D6F64650A0000000000DF
:105338000000904100004040000090410000C04043
:1053480000009041000010410000904100004041E1
:10535800000090410000704100009041303132332C
:105368003435363738394142434445465F706E67B5
:1053780000476F743A00526573706F6E73653A0038
:105388005061636B6574206E6F742061646472652C
:105398007373656420746F206D653A20002069730B
:1053A800206E6F74206D696E653A20000000000061
:1053B800000074F7260101016263732E636F726542
:1053C8002E2A3B302E333B3B005F657272005F72C2
:1053D80064790023234A756E6B696E672062616485
:1053E8002066697273742062797465200023232310
:1053F80042616420666972737420627974653D0045
:105408002323234261642063726320636865636BAE
:105418003D00402340234649464F204641494C45DC
:105428004420544F20494E495449414C495A45005B
:105438000A4669666F2073746174653A200A0942E6
:10544800797465733A000A0944617461205B20002D
:105458002000205D0A00000000000000000000019C
:1054680002020303030304040404040404040505FA
:1054780005050505050505050505050505050606D2
:1054880006060606060606060606060606060606B4
:1054980006060606060606060606060606060707A2
:1054A8000707070707070707070707070707070784
:1054B8000707070707070707070707070707070774
:1054C8000707070707070707070707070707070764
:1054D8000707070707070707070707070707080852
:1054E8000808080808080808080808080808080834
:1054F8000808080808080808080808080808080824
:105508000808080808080808080808080808080813
:105518000808080808080808080808080808080803
:1055280008080808080808080808080808080808F3
:1055380008080808080808080808080808080808E3
:1055480008080808080808080808080808080808D3
:0E5558000808080808080808080808080808D5
:00000001FF
